{
	"BondMarketplace.sol": {
		"BondMarketplace": {
			"abi": [
				{
					"anonymous": false,
					"inputs": [
						{
							"indexed": true,
							"internalType": "uint256",
							"name": "bondId",
							"type": "uint256"
						},
						{
							"indexed": true,
							"internalType": "address",
							"name": "organization",
							"type": "address"
						},
						{
							"indexed": false,
							"internalType": "string",
							"name": "name",
							"type": "string"
						},
						{
							"indexed": false,
							"internalType": "uint256",
							"name": "interestRate",
							"type": "uint256"
						},
						{
							"indexed": false,
							"internalType": "uint256",
							"name": "durationDays",
							"type": "uint256"
						},
						{
							"indexed": false,
							"internalType": "uint256",
							"name": "totalFundingRequired",
							"type": "uint256"
						}
					],
					"name": "BondCreated",
					"type": "event"
				},
				{
					"anonymous": false,
					"inputs": [
						{
							"indexed": true,
							"internalType": "uint256",
							"name": "bondId",
							"type": "uint256"
						},
						{
							"indexed": true,
							"internalType": "address",
							"name": "organization",
							"type": "address"
						},
						{
							"indexed": false,
							"internalType": "string",
							"name": "description",
							"type": "string"
						},
						{
							"indexed": false,
							"internalType": "uint256",
							"name": "logCount",
							"type": "uint256"
						}
					],
					"name": "FundUsageUpdated",
					"type": "event"
				},
				{
					"anonymous": false,
					"inputs": [
						{
							"indexed": true,
							"internalType": "uint256",
							"name": "bondId",
							"type": "uint256"
						},
						{
							"indexed": true,
							"internalType": "address",
							"name": "investor",
							"type": "address"
						},
						{
							"indexed": false,
							"internalType": "uint256",
							"name": "amount",
							"type": "uint256"
						},
						{
							"indexed": false,
							"internalType": "uint256",
							"name": "newAmountRaised",
							"type": "uint256"
						}
					],
					"name": "Invested",
					"type": "event"
				},
				{
					"anonymous": false,
					"inputs": [
						{
							"indexed": true,
							"internalType": "uint256",
							"name": "bondId",
							"type": "uint256"
						},
						{
							"indexed": false,
							"internalType": "uint256",
							"name": "newTrustScore",
							"type": "uint256"
						}
					],
					"name": "TrustScoreUpdated",
					"type": "event"
				},
				{
					"inputs": [
						{
							"internalType": "string",
							"name": "name",
							"type": "string"
						},
						{
							"internalType": "uint256",
							"name": "interestRate",
							"type": "uint256"
						},
						{
							"internalType": "uint256",
							"name": "durationDays",
							"type": "uint256"
						},
						{
							"internalType": "uint256",
							"name": "totalFundingRequired",
							"type": "uint256"
						}
					],
					"name": "createBond",
					"outputs": [],
					"stateMutability": "nonpayable",
					"type": "function"
				},
				{
					"inputs": [],
					"name": "getAllBonds",
					"outputs": [
						{
							"internalType": "uint256[]",
							"name": "ids",
							"type": "uint256[]"
						},
						{
							"internalType": "address[]",
							"name": "organizations",
							"type": "address[]"
						},
						{
							"internalType": "string[]",
							"name": "names",
							"type": "string[]"
						},
						{
							"internalType": "uint256[]",
							"name": "interestRates",
							"type": "uint256[]"
						},
						{
							"internalType": "uint256[]",
							"name": "durations",
							"type": "uint256[]"
						},
						{
							"internalType": "uint256[]",
							"name": "totals",
							"type": "uint256[]"
						},
						{
							"internalType": "uint256[]",
							"name": "raised",
							"type": "uint256[]"
						},
						{
							"internalType": "uint256[]",
							"name": "trustScores",
							"type": "uint256[]"
						}
					],
					"stateMutability": "view",
					"type": "function"
				},
				{
					"inputs": [
						{
							"internalType": "uint256",
							"name": "bondId",
							"type": "uint256"
						}
					],
					"name": "getBondDetails",
					"outputs": [
						{
							"internalType": "uint256",
							"name": "id",
							"type": "uint256"
						},
						{
							"internalType": "address",
							"name": "organization",
							"type": "address"
						},
						{
							"internalType": "string",
							"name": "name",
							"type": "string"
						},
						{
							"internalType": "uint256",
							"name": "interestRate",
							"type": "uint256"
						},
						{
							"internalType": "uint256",
							"name": "durationDays",
							"type": "uint256"
						},
						{
							"internalType": "uint256",
							"name": "totalFundingRequired",
							"type": "uint256"
						},
						{
							"internalType": "uint256",
							"name": "amountRaised",
							"type": "uint256"
						},
						{
							"internalType": "uint256",
							"name": "trustScore",
							"type": "uint256"
						},
						{
							"internalType": "string[]",
							"name": "fundUsageLogs",
							"type": "string[]"
						}
					],
					"stateMutability": "view",
					"type": "function"
				},
				{
					"inputs": [
						{
							"internalType": "address",
							"name": "investorAddress",
							"type": "address"
						}
					],
					"name": "getInvestorPortfolio",
					"outputs": [
						{
							"internalType": "uint256[]",
							"name": "investedIds",
							"type": "uint256[]"
						},
						{
							"internalType": "uint256[]",
							"name": "investedAmounts",
							"type": "uint256[]"
						}
					],
					"stateMutability": "view",
					"type": "function"
				},
				{
					"inputs": [
						{
							"internalType": "uint256",
							"name": "bondId",
							"type": "uint256"
						}
					],
					"name": "getTrustScore",
					"outputs": [
						{
							"internalType": "uint256",
							"name": "",
							"type": "uint256"
						}
					],
					"stateMutability": "view",
					"type": "function"
				},
				{
					"inputs": [
						{
							"internalType": "uint256",
							"name": "bondId",
							"type": "uint256"
						}
					],
					"name": "investInBond",
					"outputs": [],
					"stateMutability": "payable",
					"type": "function"
				},
				{
					"inputs": [],
					"name": "nextBondId",
					"outputs": [
						{
							"internalType": "uint256",
							"name": "",
							"type": "uint256"
						}
					],
					"stateMutability": "view",
					"type": "function"
				},
				{
					"inputs": [
						{
							"internalType": "uint256",
							"name": "bondId",
							"type": "uint256"
						},
						{
							"internalType": "string",
							"name": "description",
							"type": "string"
						}
					],
					"name": "updateFundUsage",
					"outputs": [],
					"stateMutability": "nonpayable",
					"type": "function"
				},
				{
					"inputs": [
						{
							"internalType": "uint256",
							"name": "bondId",
							"type": "uint256"
						}
					],
					"name": "updateTrustScore",
					"outputs": [
						{
							"internalType": "uint256",
							"name": "",
							"type": "uint256"
						}
					],
					"stateMutability": "nonpayable",
					"type": "function"
				}
			],
			"devdoc": {
				"details": "This contract is intentionally simple for learning/demo purposes.",
				"kind": "dev",
				"methods": {
					"updateFundUsage(uint256,string)": {
						"details": "Only the bond creator can call this."
					},
					"updateTrustScore(uint256)": {
						"details": "Simple formula for MVP:      - Base score: min(50, logsCount * 10)      - Bonus if updated early: +10 if first update within 7 days of creation      - Bonus for momentum: +2 per 10% funding progress (max +20)      - Max score capped at 100"
					}
				},
				"title": "BondMarketplace",
				"version": 1
			},
			"evm": {
				"assembly": "    /* \"BondMarketplace.sol\":259:9432  contract BondMarketplace {... */\n  mstore(0x40, 0x80)\n  callvalue\n  dup1\n  iszero\n  tag_1\n  jumpi\n  revert(0x00, 0x00)\ntag_1:\n  pop\n  dataSize(sub_0)\n  dup1\n  dataOffset(sub_0)\n  0x00\n  codecopy\n  0x00\n  return\nstop\n\nsub_0: assembly {\n        /* \"BondMarketplace.sol\":259:9432  contract BondMarketplace {... */\n      mstore(0x40, 0x80)\n      jumpi(tag_1, lt(calldatasize, 0x04))\n      shr(0xe0, calldataload(0x00))\n      dup1\n      0xa461e2b3\n      gt\n      tag_11\n      jumpi\n      dup1\n      0xa461e2b3\n      eq\n      tag_6\n      jumpi\n      dup1\n      0xba0ca532\n      eq\n      tag_7\n      jumpi\n      dup1\n      0xbaf191b2\n      eq\n      tag_8\n      jumpi\n      dup1\n      0xd5ae0e9a\n      eq\n      tag_9\n      jumpi\n      dup1\n      0xee53a423\n      eq\n      tag_10\n      jumpi\n      jump(tag_1)\n    tag_11:\n      dup1\n      0x0436f2f6\n      eq\n      tag_2\n      jumpi\n      dup1\n      0x34ae18e3\n      eq\n      tag_3\n      jumpi\n      dup1\n      0x83f3d448\n      eq\n      tag_4\n      jumpi\n      dup1\n      0x8ade3de0\n      eq\n      tag_5\n      jumpi\n    tag_1:\n      revert(0x00, 0x00)\n        /* \"BondMarketplace.sol\":7799:8598  function getBondDetails(... */\n    tag_2:\n      callvalue\n      dup1\n      iszero\n      tag_12\n      jumpi\n      revert(0x00, 0x00)\n    tag_12:\n      pop\n      tag_13\n      0x04\n      dup1\n      calldatasize\n      sub\n      dup2\n      add\n      swap1\n      tag_14\n      swap2\n      swap1\n      tag_15\n      jump\t// in\n    tag_14:\n      tag_16\n      jump\t// in\n    tag_13:\n      mload(0x40)\n      tag_17\n      swap10\n      swap9\n      swap8\n      swap7\n      swap6\n      swap5\n      swap4\n      swap3\n      swap2\n      swap1\n      tag_18\n      jump\t// in\n    tag_17:\n      mload(0x40)\n      dup1\n      swap2\n      sub\n      swap1\n      return\n        /* \"BondMarketplace.sol\":4170:5261  function updateTrustScore(... */\n    tag_3:\n      callvalue\n      dup1\n      iszero\n      tag_19\n      jumpi\n      revert(0x00, 0x00)\n    tag_19:\n      pop\n      tag_20\n      0x04\n      dup1\n      calldatasize\n      sub\n      dup2\n      add\n      swap1\n      tag_21\n      swap2\n      swap1\n      tag_15\n      jump\t// in\n    tag_21:\n      tag_22\n      jump\t// in\n    tag_20:\n      mload(0x40)\n      tag_23\n      swap2\n      swap1\n      tag_24\n      jump\t// in\n    tag_23:\n      mload(0x40)\n      dup1\n      swap2\n      sub\n      swap1\n      return\n        /* \"BondMarketplace.sol\":8606:8749  function getTrustScore(uint256 bondId) external view bondMustExist(bondId) returns (uint256) {... */\n    tag_4:\n      callvalue\n      dup1\n      iszero\n      tag_25\n      jumpi\n      revert(0x00, 0x00)\n    tag_25:\n      pop\n      tag_26\n      0x04\n      dup1\n      calldatasize\n      sub\n      dup2\n      add\n      swap1\n      tag_27\n      swap2\n      swap1\n      tag_15\n      jump\t// in\n    tag_27:\n      tag_28\n      jump\t// in\n    tag_26:\n      mload(0x40)\n      tag_29\n      swap2\n      swap1\n      tag_24\n      jump\t// in\n    tag_29:\n      mload(0x40)\n      dup1\n      swap2\n      sub\n      swap1\n      return\n        /* \"BondMarketplace.sol\":2104:3146  function createBond(... */\n    tag_5:\n      callvalue\n      dup1\n      iszero\n      tag_30\n      jumpi\n      revert(0x00, 0x00)\n    tag_30:\n      pop\n      tag_31\n      0x04\n      dup1\n      calldatasize\n      sub\n      dup2\n      add\n      swap1\n      tag_32\n      swap2\n      swap1\n      tag_33\n      jump\t// in\n    tag_32:\n      tag_34\n      jump\t// in\n    tag_31:\n      stop\n        /* \"BondMarketplace.sol\":5336:6376  function investInBond(uint256 bondId) external payable bondMustExist(bondId) {... */\n    tag_6:\n      tag_35\n      0x04\n      dup1\n      calldatasize\n      sub\n      dup2\n      add\n      swap1\n      tag_36\n      swap2\n      swap1\n      tag_15\n      jump\t// in\n    tag_36:\n      tag_37\n      jump\t// in\n    tag_35:\n      stop\n        /* \"BondMarketplace.sol\":8843:9429  function getInvestorPortfolio(... */\n    tag_7:\n      callvalue\n      dup1\n      iszero\n      tag_38\n      jumpi\n      revert(0x00, 0x00)\n    tag_38:\n      pop\n      tag_39\n      0x04\n      dup1\n      calldatasize\n      sub\n      dup2\n      add\n      swap1\n      tag_40\n      swap2\n      swap1\n      tag_41\n      jump\t// in\n    tag_40:\n      tag_42\n      jump\t// in\n    tag_39:\n      mload(0x40)\n      tag_43\n      swap3\n      swap2\n      swap1\n      tag_44\n      jump\t// in\n    tag_43:\n      mload(0x40)\n      dup1\n      swap2\n      sub\n      swap1\n      return\n        /* \"BondMarketplace.sol\":3274:3791  function updateFundUsage(... */\n    tag_8:\n      callvalue\n      dup1\n      iszero\n      tag_45\n      jumpi\n      revert(0x00, 0x00)\n    tag_45:\n      pop\n      tag_46\n      0x04\n      dup1\n      calldatasize\n      sub\n      dup2\n      add\n      swap1\n      tag_47\n      swap2\n      swap1\n      tag_48\n      jump\t// in\n    tag_47:\n      tag_49\n      jump\t// in\n    tag_46:\n      stop\n        /* \"BondMarketplace.sol\":6456:7697  function getAllBonds()... */\n    tag_9:\n      callvalue\n      dup1\n      iszero\n      tag_50\n      jumpi\n      revert(0x00, 0x00)\n    tag_50:\n      pop\n      tag_51\n      tag_52\n      jump\t// in\n    tag_51:\n      mload(0x40)\n      tag_53\n      swap9\n      swap8\n      swap7\n      swap6\n      swap5\n      swap4\n      swap3\n      swap2\n      swap1\n      tag_54\n      jump\t// in\n    tag_53:\n      mload(0x40)\n      dup1\n      swap2\n      sub\n      swap1\n      return\n        /* \"BondMarketplace.sol\":910:935  uint256 public nextBondId */\n    tag_10:\n      callvalue\n      dup1\n      iszero\n      tag_55\n      jumpi\n      revert(0x00, 0x00)\n    tag_55:\n      pop\n      tag_56\n      tag_57\n      jump\t// in\n    tag_56:\n      mload(0x40)\n      tag_58\n      swap2\n      swap1\n      tag_24\n      jump\t// in\n    tag_58:\n      mload(0x40)\n      dup1\n      swap2\n      sub\n      swap1\n      return\n        /* \"BondMarketplace.sol\":7799:8598  function getBondDetails(... */\n    tag_16:\n        /* \"BondMarketplace.sol\":7950:7960  uint256 id */\n      0x00\n        /* \"BondMarketplace.sol\":7975:7995  address organization */\n      0x00\n        /* \"BondMarketplace.sol\":8010:8028  string memory name */\n      0x60\n        /* \"BondMarketplace.sol\":8043:8063  uint256 interestRate */\n      0x00\n        /* \"BondMarketplace.sol\":8078:8098  uint256 durationDays */\n      0x00\n        /* \"BondMarketplace.sol\":8113:8141  uint256 totalFundingRequired */\n      0x00\n        /* \"BondMarketplace.sol\":8156:8176  uint256 amountRaised */\n      0x00\n        /* \"BondMarketplace.sol\":8191:8209  uint256 trustScore */\n      0x00\n        /* \"BondMarketplace.sol\":8224:8253  string[] memory fundUsageLogs */\n      0x60\n        /* \"BondMarketplace.sol\":7910:7916  bondId */\n      dup10\n        /* \"BondMarketplace.sol\":1762:1767  bonds */\n      0x01\n        /* \"BondMarketplace.sol\":1762:1775  bonds[bondId] */\n      0x00\n        /* \"BondMarketplace.sol\":1768:1774  bondId */\n      dup3\n        /* \"BondMarketplace.sol\":1762:1775  bonds[bondId] */\n      dup2\n      mstore\n      0x20\n      add\n      swap1\n      dup2\n      mstore\n      0x20\n      add\n      0x00\n      keccak256\n        /* \"BondMarketplace.sol\":1762:1782  bonds[bondId].exists */\n      0x0a\n      add\n      0x00\n      swap1\n      sload\n      swap1\n      0x0100\n      exp\n      swap1\n      div\n      0xff\n      and\n        /* \"BondMarketplace.sol\":1754:1806  require(bonds[bondId].exists, \"Bond does not exist\") */\n      tag_60\n      jumpi\n      mload(0x40)\n      0x08c379a000000000000000000000000000000000000000000000000000000000\n      dup2\n      mstore\n      0x04\n      add\n      tag_61\n      swap1\n      tag_62\n      jump\t// in\n    tag_61:\n      mload(0x40)\n      dup1\n      swap2\n      sub\n      swap1\n      revert\n    tag_60:\n        /* \"BondMarketplace.sol\":8281:8295  Bond storage b */\n      0x00\n        /* \"BondMarketplace.sol\":8298:8303  bonds */\n      0x01\n        /* \"BondMarketplace.sol\":8298:8311  bonds[bondId] */\n      0x00\n        /* \"BondMarketplace.sol\":8304:8310  bondId */\n      dup14\n        /* \"BondMarketplace.sol\":8298:8311  bonds[bondId] */\n      dup2\n      mstore\n      0x20\n      add\n      swap1\n      dup2\n      mstore\n      0x20\n      add\n      0x00\n      keccak256\n        /* \"BondMarketplace.sol\":8281:8311  Bond storage b = bonds[bondId] */\n      swap1\n      pop\n        /* \"BondMarketplace.sol\":8344:8345  b */\n      dup1\n        /* \"BondMarketplace.sol\":8344:8348  b.id */\n      0x00\n      add\n      sload\n        /* \"BondMarketplace.sol\":8363:8364  b */\n      dup2\n        /* \"BondMarketplace.sol\":8363:8377  b.organization */\n      0x01\n      add\n      0x00\n      swap1\n      sload\n      swap1\n      0x0100\n      exp\n      swap1\n      div\n      0xffffffffffffffffffffffffffffffffffffffff\n      and\n        /* \"BondMarketplace.sol\":8392:8393  b */\n      dup3\n        /* \"BondMarketplace.sol\":8392:8398  b.name */\n      0x02\n      add\n        /* \"BondMarketplace.sol\":8413:8414  b */\n      dup4\n        /* \"BondMarketplace.sol\":8413:8427  b.interestRate */\n      0x03\n      add\n      sload\n        /* \"BondMarketplace.sol\":8442:8443  b */\n      dup5\n        /* \"BondMarketplace.sol\":8442:8456  b.durationDays */\n      0x04\n      add\n      sload\n        /* \"BondMarketplace.sol\":8471:8472  b */\n      dup6\n        /* \"BondMarketplace.sol\":8471:8493  b.totalFundingRequired */\n      0x05\n      add\n      sload\n        /* \"BondMarketplace.sol\":8508:8509  b */\n      dup7\n        /* \"BondMarketplace.sol\":8508:8522  b.amountRaised */\n      0x06\n      add\n      sload\n        /* \"BondMarketplace.sol\":8537:8538  b */\n      dup8\n        /* \"BondMarketplace.sol\":8537:8549  b.trustScore */\n      0x07\n      add\n      sload\n        /* \"BondMarketplace.sol\":8564:8565  b */\n      dup9\n        /* \"BondMarketplace.sol\":8564:8579  b.fundUsageLogs */\n      0x09\n      add\n        /* \"BondMarketplace.sol\":8322:8590  return (... */\n      dup7\n      dup1\n      sload\n      tag_64\n      swap1\n      tag_65\n      jump\t// in\n    tag_64:\n      dup1\n      0x1f\n      add\n      0x20\n      dup1\n      swap2\n      div\n      mul\n      0x20\n      add\n      mload(0x40)\n      swap1\n      dup2\n      add\n      0x40\n      mstore\n      dup1\n      swap3\n      swap2\n      swap1\n      dup2\n      dup2\n      mstore\n      0x20\n      add\n      dup3\n      dup1\n      sload\n      tag_66\n      swap1\n      tag_65\n      jump\t// in\n    tag_66:\n      dup1\n      iszero\n      tag_67\n      jumpi\n      dup1\n      0x1f\n      lt\n      tag_68\n      jumpi\n      0x0100\n      dup1\n      dup4\n      sload\n      div\n      mul\n      dup4\n      mstore\n      swap2\n      0x20\n      add\n      swap2\n      jump(tag_67)\n    tag_68:\n      dup3\n      add\n      swap2\n      swap1\n      0x00\n      mstore\n      keccak256(0x00, 0x20)\n      swap1\n    tag_69:\n      dup2\n      sload\n      dup2\n      mstore\n      swap1\n      0x01\n      add\n      swap1\n      0x20\n      add\n      dup1\n      dup4\n      gt\n      tag_69\n      jumpi\n      dup3\n      swap1\n      sub\n      0x1f\n      and\n      dup3\n      add\n      swap2\n    tag_67:\n      pop\n      pop\n      pop\n      pop\n      pop\n      swap7\n      pop\n      dup1\n      dup1\n      sload\n      dup1\n      0x20\n      mul\n      0x20\n      add\n      mload(0x40)\n      swap1\n      dup2\n      add\n      0x40\n      mstore\n      dup1\n      swap3\n      swap2\n      swap1\n      dup2\n      dup2\n      mstore\n      0x20\n      add\n      0x00\n      swap1\n    tag_70:\n      dup3\n      dup3\n      lt\n      iszero\n      tag_71\n      jumpi\n      dup4\n      dup3\n      swap1\n      0x00\n      mstore\n      keccak256(0x00, 0x20)\n      add\n      dup1\n      sload\n      tag_73\n      swap1\n      tag_65\n      jump\t// in\n    tag_73:\n      dup1\n      0x1f\n      add\n      0x20\n      dup1\n      swap2\n      div\n      mul\n      0x20\n      add\n      mload(0x40)\n      swap1\n      dup2\n      add\n      0x40\n      mstore\n      dup1\n      swap3\n      swap2\n      swap1\n      dup2\n      dup2\n      mstore\n      0x20\n      add\n      dup3\n      dup1\n      sload\n      tag_74\n      swap1\n      tag_65\n      jump\t// in\n    tag_74:\n      dup1\n      iszero\n      tag_75\n      jumpi\n      dup1\n      0x1f\n      lt\n      tag_76\n      jumpi\n      0x0100\n      dup1\n      dup4\n      sload\n      div\n      mul\n      dup4\n      mstore\n      swap2\n      0x20\n      add\n      swap2\n      jump(tag_75)\n    tag_76:\n      dup3\n      add\n      swap2\n      swap1\n      0x00\n      mstore\n      keccak256(0x00, 0x20)\n      swap1\n    tag_77:\n      dup2\n      sload\n      dup2\n      mstore\n      swap1\n      0x01\n      add\n      swap1\n      0x20\n      add\n      dup1\n      dup4\n      gt\n      tag_77\n      jumpi\n      dup3\n      swap1\n      sub\n      0x1f\n      and\n      dup3\n      add\n      swap2\n    tag_75:\n      pop\n      pop\n      pop\n      pop\n      pop\n      dup2\n      mstore\n      0x20\n      add\n      swap1\n      0x01\n      add\n      swap1\n      jump(tag_70)\n    tag_71:\n      pop\n      pop\n      pop\n      pop\n      swap1\n      pop\n      swap11\n      pop\n      swap11\n      pop\n      swap11\n      pop\n      swap11\n      pop\n      swap11\n      pop\n      swap11\n      pop\n      swap11\n      pop\n      swap11\n      pop\n      swap11\n      pop\n      pop\n        /* \"BondMarketplace.sol\":7799:8598  function getBondDetails(... */\n      pop\n      swap2\n      swap4\n      swap6\n      swap8\n      swap10\n      swap1\n      swap3\n      swap5\n      swap7\n      swap9\n      pop\n      jump\t// out\n        /* \"BondMarketplace.sol\":4170:5261  function updateTrustScore(... */\n    tag_22:\n        /* \"BondMarketplace.sol\":4266:4273  uint256 */\n      0x00\n        /* \"BondMarketplace.sol\":4249:4255  bondId */\n      dup2\n        /* \"BondMarketplace.sol\":1762:1767  bonds */\n      0x01\n        /* \"BondMarketplace.sol\":1762:1775  bonds[bondId] */\n      0x00\n        /* \"BondMarketplace.sol\":1768:1774  bondId */\n      dup3\n        /* \"BondMarketplace.sol\":1762:1775  bonds[bondId] */\n      dup2\n      mstore\n      0x20\n      add\n      swap1\n      dup2\n      mstore\n      0x20\n      add\n      0x00\n      keccak256\n        /* \"BondMarketplace.sol\":1762:1782  bonds[bondId].exists */\n      0x0a\n      add\n      0x00\n      swap1\n      sload\n      swap1\n      0x0100\n      exp\n      swap1\n      div\n      0xff\n      and\n        /* \"BondMarketplace.sol\":1754:1806  require(bonds[bondId].exists, \"Bond does not exist\") */\n      tag_79\n      jumpi\n      mload(0x40)\n      0x08c379a000000000000000000000000000000000000000000000000000000000\n      dup2\n      mstore\n      0x04\n      add\n      tag_80\n      swap1\n      tag_62\n      jump\t// in\n    tag_80:\n      mload(0x40)\n      dup1\n      swap2\n      sub\n      swap1\n      revert\n    tag_79:\n        /* \"BondMarketplace.sol\":4286:4300  Bond storage b */\n      0x00\n        /* \"BondMarketplace.sol\":4303:4308  bonds */\n      0x01\n        /* \"BondMarketplace.sol\":4303:4316  bonds[bondId] */\n      0x00\n        /* \"BondMarketplace.sol\":4309:4315  bondId */\n      dup6\n        /* \"BondMarketplace.sol\":4303:4316  bonds[bondId] */\n      dup2\n      mstore\n      0x20\n      add\n      swap1\n      dup2\n      mstore\n      0x20\n      add\n      0x00\n      keccak256\n        /* \"BondMarketplace.sol\":4286:4316  Bond storage b = bonds[bondId] */\n      swap1\n      pop\n        /* \"BondMarketplace.sol\":4329:4346  uint256 logsCount */\n      0x00\n        /* \"BondMarketplace.sol\":4349:4350  b */\n      dup2\n        /* \"BondMarketplace.sol\":4349:4364  b.fundUsageLogs */\n      0x09\n      add\n        /* \"BondMarketplace.sol\":4349:4371  b.fundUsageLogs.length */\n      dup1\n      sload\n      swap1\n      pop\n        /* \"BondMarketplace.sol\":4329:4371  uint256 logsCount = b.fundUsageLogs.length */\n      swap1\n      pop\n        /* \"BondMarketplace.sol\":4382:4394  uint256 base */\n      0x00\n        /* \"BondMarketplace.sol\":4409:4411  10 */\n      0x0a\n        /* \"BondMarketplace.sol\":4397:4406  logsCount */\n      dup3\n        /* \"BondMarketplace.sol\":4397:4411  logsCount * 10 */\n      tag_82\n      swap2\n      swap1\n      tag_83\n      jump\t// in\n    tag_82:\n        /* \"BondMarketplace.sol\":4382:4411  uint256 base = logsCount * 10 */\n      swap1\n      pop\n        /* \"BondMarketplace.sol\":4433:4435  50 */\n      0x32\n        /* \"BondMarketplace.sol\":4426:4430  base */\n      dup2\n        /* \"BondMarketplace.sol\":4426:4435  base > 50 */\n      gt\n        /* \"BondMarketplace.sol\":4422:4473  if (base > 50) {... */\n      iszero\n      tag_84\n      jumpi\n        /* \"BondMarketplace.sol\":4459:4461  50 */\n      0x32\n        /* \"BondMarketplace.sol\":4452:4461  base = 50 */\n      swap1\n      pop\n        /* \"BondMarketplace.sol\":4422:4473  if (base > 50) {... */\n    tag_84:\n        /* \"BondMarketplace.sol\":4485:4509  uint256 earlyUpdateBonus */\n      0x00\n        /* \"BondMarketplace.sol\":4512:4513  0 */\n      0x00\n        /* \"BondMarketplace.sol\":4485:4513  uint256 earlyUpdateBonus = 0 */\n      swap1\n      pop\n        /* \"BondMarketplace.sol\":4540:4541  0 */\n      0x00\n        /* \"BondMarketplace.sol\":4528:4537  logsCount */\n      dup4\n        /* \"BondMarketplace.sol\":4528:4541  logsCount > 0 */\n      gt\n        /* \"BondMarketplace.sol\":4528:4584  logsCount > 0 && block.timestamp <= b.createdAt + 7 days */\n      dup1\n      iszero\n      tag_85\n      jumpi\n      pop\n        /* \"BondMarketplace.sol\":4578:4584  7 days */\n      0x093a80\n        /* \"BondMarketplace.sol\":4564:4565  b */\n      dup5\n        /* \"BondMarketplace.sol\":4564:4575  b.createdAt */\n      0x08\n      add\n      sload\n        /* \"BondMarketplace.sol\":4564:4584  b.createdAt + 7 days */\n      tag_86\n      swap2\n      swap1\n      tag_87\n      jump\t// in\n    tag_86:\n        /* \"BondMarketplace.sol\":4545:4560  block.timestamp */\n      timestamp\n        /* \"BondMarketplace.sol\":4545:4584  block.timestamp <= b.createdAt + 7 days */\n      gt\n      iszero\n        /* \"BondMarketplace.sol\":4528:4584  logsCount > 0 && block.timestamp <= b.createdAt + 7 days */\n    tag_85:\n        /* \"BondMarketplace.sol\":4524:4634  if (logsCount > 0 && block.timestamp <= b.createdAt + 7 days) {... */\n      iszero\n      tag_88\n      jumpi\n        /* \"BondMarketplace.sol\":4620:4622  10 */\n      0x0a\n        /* \"BondMarketplace.sol\":4601:4622  earlyUpdateBonus = 10 */\n      swap1\n      pop\n        /* \"BondMarketplace.sol\":4524:4634  if (logsCount > 0 && block.timestamp <= b.createdAt + 7 days) {... */\n    tag_88:\n        /* \"BondMarketplace.sol\":4646:4674  uint256 fundingProgressBonus */\n      0x00\n        /* \"BondMarketplace.sol\":4677:4678  0 */\n      0x00\n        /* \"BondMarketplace.sol\":4646:4678  uint256 fundingProgressBonus = 0 */\n      swap1\n      pop\n        /* \"BondMarketplace.sol\":4718:4719  0 */\n      0x00\n        /* \"BondMarketplace.sol\":4693:4694  b */\n      dup6\n        /* \"BondMarketplace.sol\":4693:4715  b.totalFundingRequired */\n      0x05\n      add\n      sload\n        /* \"BondMarketplace.sol\":4693:4719  b.totalFundingRequired > 0 */\n      gt\n        /* \"BondMarketplace.sol\":4689:4990  if (b.totalFundingRequired > 0) {... */\n      iszero\n      tag_89\n      jumpi\n        /* \"BondMarketplace.sol\":4736:4759  uint256 progressPercent */\n      0x00\n        /* \"BondMarketplace.sol\":4787:4788  b */\n      dup6\n        /* \"BondMarketplace.sol\":4787:4809  b.totalFundingRequired */\n      0x05\n      add\n      sload\n        /* \"BondMarketplace.sol\":4780:4783  100 */\n      0x64\n        /* \"BondMarketplace.sol\":4763:4764  b */\n      dup8\n        /* \"BondMarketplace.sol\":4763:4777  b.amountRaised */\n      0x06\n      add\n      sload\n        /* \"BondMarketplace.sol\":4763:4783  b.amountRaised * 100 */\n      tag_90\n      swap2\n      swap1\n      tag_83\n      jump\t// in\n    tag_90:\n        /* \"BondMarketplace.sol\":4762:4809  (b.amountRaised * 100) / b.totalFundingRequired */\n      tag_91\n      swap2\n      swap1\n      tag_92\n      jump\t// in\n    tag_91:\n        /* \"BondMarketplace.sol\":4736:4809  uint256 progressPercent = (b.amountRaised * 100) / b.totalFundingRequired */\n      swap1\n      pop\n        /* \"BondMarketplace.sol\":4872:4873  2 */\n      0x02\n        /* \"BondMarketplace.sol\":4866:4868  10 */\n      0x0a\n        /* \"BondMarketplace.sol\":4848:4863  progressPercent */\n      dup3\n        /* \"BondMarketplace.sol\":4848:4868  progressPercent / 10 */\n      tag_93\n      swap2\n      swap1\n      tag_92\n      jump\t// in\n    tag_93:\n        /* \"BondMarketplace.sol\":4847:4873  (progressPercent / 10) * 2 */\n      tag_94\n      swap2\n      swap1\n      tag_83\n      jump\t// in\n    tag_94:\n        /* \"BondMarketplace.sol\":4824:4873  fundingProgressBonus = (progressPercent / 10) * 2 */\n      swap2\n      pop\n        /* \"BondMarketplace.sol\":4915:4917  20 */\n      0x14\n        /* \"BondMarketplace.sol\":4892:4912  fundingProgressBonus */\n      dup3\n        /* \"BondMarketplace.sol\":4892:4917  fundingProgressBonus > 20 */\n      gt\n        /* \"BondMarketplace.sol\":4888:4979  if (fundingProgressBonus > 20) {... */\n      iszero\n      tag_95\n      jumpi\n        /* \"BondMarketplace.sol\":4961:4963  20 */\n      0x14\n        /* \"BondMarketplace.sol\":4938:4963  fundingProgressBonus = 20 */\n      swap2\n      pop\n        /* \"BondMarketplace.sol\":4888:4979  if (fundingProgressBonus > 20) {... */\n    tag_95:\n        /* \"BondMarketplace.sol\":4721:4990  {... */\n      pop\n        /* \"BondMarketplace.sol\":4689:4990  if (b.totalFundingRequired > 0) {... */\n    tag_89:\n        /* \"BondMarketplace.sol\":5002:5018  uint256 newScore */\n      0x00\n        /* \"BondMarketplace.sol\":5047:5067  fundingProgressBonus */\n      dup2\n        /* \"BondMarketplace.sol\":5028:5044  earlyUpdateBonus */\n      dup4\n        /* \"BondMarketplace.sol\":5021:5025  base */\n      dup6\n        /* \"BondMarketplace.sol\":5021:5044  base + earlyUpdateBonus */\n      tag_96\n      swap2\n      swap1\n      tag_87\n      jump\t// in\n    tag_96:\n        /* \"BondMarketplace.sol\":5021:5067  base + earlyUpdateBonus + fundingProgressBonus */\n      tag_97\n      swap2\n      swap1\n      tag_87\n      jump\t// in\n    tag_97:\n        /* \"BondMarketplace.sol\":5002:5067  uint256 newScore = base + earlyUpdateBonus + fundingProgressBonus */\n      swap1\n      pop\n        /* \"BondMarketplace.sol\":5093:5096  100 */\n      0x64\n        /* \"BondMarketplace.sol\":5082:5090  newScore */\n      dup2\n        /* \"BondMarketplace.sol\":5082:5096  newScore > 100 */\n      gt\n        /* \"BondMarketplace.sol\":5078:5139  if (newScore > 100) {... */\n      iszero\n      tag_98\n      jumpi\n        /* \"BondMarketplace.sol\":5124:5127  100 */\n      0x64\n        /* \"BondMarketplace.sol\":5113:5127  newScore = 100 */\n      swap1\n      pop\n        /* \"BondMarketplace.sol\":5078:5139  if (newScore > 100) {... */\n    tag_98:\n        /* \"BondMarketplace.sol\":5166:5174  newScore */\n      dup1\n        /* \"BondMarketplace.sol\":5151:5152  b */\n      dup7\n        /* \"BondMarketplace.sol\":5151:5163  b.trustScore */\n      0x07\n      add\n        /* \"BondMarketplace.sol\":5151:5174  b.trustScore = newScore */\n      dup2\n      swap1\n      sstore\n      pop\n        /* \"BondMarketplace.sol\":5208:5214  bondId */\n      dup9\n        /* \"BondMarketplace.sol\":5190:5225  TrustScoreUpdated(bondId, newScore) */\n      0x20d456995c74d5114f87879b10c5214b9c28e11ea422eeb922cc2e755095669f\n        /* \"BondMarketplace.sol\":5216:5224  newScore */\n      dup3\n        /* \"BondMarketplace.sol\":5190:5225  TrustScoreUpdated(bondId, newScore) */\n      mload(0x40)\n      tag_99\n      swap2\n      swap1\n      tag_24\n      jump\t// in\n    tag_99:\n      mload(0x40)\n      dup1\n      swap2\n      sub\n      swap1\n      log2\n        /* \"BondMarketplace.sol\":5245:5253  newScore */\n      dup1\n        /* \"BondMarketplace.sol\":5238:5253  return newScore */\n      swap8\n      pop\n      pop\n      pop\n      pop\n      pop\n      pop\n      pop\n        /* \"BondMarketplace.sol\":4170:5261  function updateTrustScore(... */\n      pop\n      swap2\n      swap1\n      pop\n      jump\t// out\n        /* \"BondMarketplace.sol\":8606:8749  function getTrustScore(uint256 bondId) external view bondMustExist(bondId) returns (uint256) {... */\n    tag_28:\n        /* \"BondMarketplace.sol\":8690:8697  uint256 */\n      0x00\n        /* \"BondMarketplace.sol\":8673:8679  bondId */\n      dup2\n        /* \"BondMarketplace.sol\":1762:1767  bonds */\n      0x01\n        /* \"BondMarketplace.sol\":1762:1775  bonds[bondId] */\n      0x00\n        /* \"BondMarketplace.sol\":1768:1774  bondId */\n      dup3\n        /* \"BondMarketplace.sol\":1762:1775  bonds[bondId] */\n      dup2\n      mstore\n      0x20\n      add\n      swap1\n      dup2\n      mstore\n      0x20\n      add\n      0x00\n      keccak256\n        /* \"BondMarketplace.sol\":1762:1782  bonds[bondId].exists */\n      0x0a\n      add\n      0x00\n      swap1\n      sload\n      swap1\n      0x0100\n      exp\n      swap1\n      div\n      0xff\n      and\n        /* \"BondMarketplace.sol\":1754:1806  require(bonds[bondId].exists, \"Bond does not exist\") */\n      tag_101\n      jumpi\n      mload(0x40)\n      0x08c379a000000000000000000000000000000000000000000000000000000000\n      dup2\n      mstore\n      0x04\n      add\n      tag_102\n      swap1\n      tag_62\n      jump\t// in\n    tag_102:\n      mload(0x40)\n      dup1\n      swap2\n      sub\n      swap1\n      revert\n    tag_101:\n        /* \"BondMarketplace.sol\":8717:8722  bonds */\n      0x01\n        /* \"BondMarketplace.sol\":8717:8730  bonds[bondId] */\n      0x00\n        /* \"BondMarketplace.sol\":8723:8729  bondId */\n      dup5\n        /* \"BondMarketplace.sol\":8717:8730  bonds[bondId] */\n      dup2\n      mstore\n      0x20\n      add\n      swap1\n      dup2\n      mstore\n      0x20\n      add\n      0x00\n      keccak256\n        /* \"BondMarketplace.sol\":8717:8741  bonds[bondId].trustScore */\n      0x07\n      add\n      sload\n        /* \"BondMarketplace.sol\":8710:8741  return bonds[bondId].trustScore */\n      swap2\n      pop\n        /* \"BondMarketplace.sol\":8606:8749  function getTrustScore(uint256 bondId) external view bondMustExist(bondId) returns (uint256) {... */\n      pop\n      swap2\n      swap1\n      pop\n      jump\t// out\n        /* \"BondMarketplace.sol\":2104:3146  function createBond(... */\n    tag_34:\n        /* \"BondMarketplace.sol\":2312:2313  0 */\n      0x00\n        /* \"BondMarketplace.sol\":2297:2301  name */\n      dup6\n      dup6\n        /* \"BondMarketplace.sol\":2291:2309  bytes(name).length */\n      swap1\n      pop\n        /* \"BondMarketplace.sol\":2291:2313  bytes(name).length > 0 */\n      gt\n        /* \"BondMarketplace.sol\":2283:2334  require(bytes(name).length > 0, \"Name is required\") */\n      tag_105\n      jumpi\n      mload(0x40)\n      0x08c379a000000000000000000000000000000000000000000000000000000000\n      dup2\n      mstore\n      0x04\n      add\n      tag_106\n      swap1\n      tag_107\n      jump\t// in\n    tag_106:\n      mload(0x40)\n      dup1\n      swap2\n      sub\n      swap1\n      revert\n    tag_105:\n        /* \"BondMarketplace.sol\":2376:2377  0 */\n      0x00\n        /* \"BondMarketplace.sol\":2353:2373  totalFundingRequired */\n      dup2\n        /* \"BondMarketplace.sol\":2353:2377  totalFundingRequired > 0 */\n      gt\n        /* \"BondMarketplace.sol\":2345:2401  require(totalFundingRequired > 0, \"Funding must be > 0\") */\n      tag_108\n      jumpi\n      mload(0x40)\n      0x08c379a000000000000000000000000000000000000000000000000000000000\n      dup2\n      mstore\n      0x04\n      add\n      tag_109\n      swap1\n      tag_110\n      jump\t// in\n    tag_109:\n      mload(0x40)\n      dup1\n      swap2\n      sub\n      swap1\n      revert\n    tag_108:\n        /* \"BondMarketplace.sol\":2435:2436  0 */\n      0x00\n        /* \"BondMarketplace.sol\":2420:2432  durationDays */\n      dup3\n        /* \"BondMarketplace.sol\":2420:2436  durationDays > 0 */\n      gt\n        /* \"BondMarketplace.sol\":2412:2461  require(durationDays > 0, \"Duration must be > 0\") */\n      tag_111\n      jumpi\n      mload(0x40)\n      0x08c379a000000000000000000000000000000000000000000000000000000000\n      dup2\n      mstore\n      0x04\n      add\n      tag_112\n      swap1\n      tag_113\n      jump\t// in\n    tag_112:\n      mload(0x40)\n      dup1\n      swap2\n      sub\n      swap1\n      revert\n    tag_111:\n        /* \"BondMarketplace.sol\":2474:2488  uint256 bondId */\n      0x00\n        /* \"BondMarketplace.sol\":2491:2501  nextBondId */\n      sload(0x00)\n        /* \"BondMarketplace.sol\":2474:2501  uint256 bondId = nextBondId */\n      swap1\n      pop\n        /* \"BondMarketplace.sol\":2512:2522  nextBondId */\n      0x00\n      0x00\n        /* \"BondMarketplace.sol\":2512:2524  nextBondId++ */\n      dup2\n      sload\n      dup1\n      swap3\n      swap2\n      swap1\n      tag_114\n      swap1\n      tag_115\n      jump\t// in\n    tag_114:\n      swap2\n      swap1\n      pop\n      sstore\n      pop\n        /* \"BondMarketplace.sol\":2537:2551  Bond storage b */\n      0x00\n        /* \"BondMarketplace.sol\":2554:2559  bonds */\n      0x01\n        /* \"BondMarketplace.sol\":2554:2567  bonds[bondId] */\n      0x00\n        /* \"BondMarketplace.sol\":2560:2566  bondId */\n      dup4\n        /* \"BondMarketplace.sol\":2554:2567  bonds[bondId] */\n      dup2\n      mstore\n      0x20\n      add\n      swap1\n      dup2\n      mstore\n      0x20\n      add\n      0x00\n      keccak256\n        /* \"BondMarketplace.sol\":2537:2567  Bond storage b = bonds[bondId] */\n      swap1\n      pop\n        /* \"BondMarketplace.sol\":2585:2591  bondId */\n      dup2\n        /* \"BondMarketplace.sol\":2578:2579  b */\n      dup2\n        /* \"BondMarketplace.sol\":2578:2582  b.id */\n      0x00\n      add\n        /* \"BondMarketplace.sol\":2578:2591  b.id = bondId */\n      dup2\n      swap1\n      sstore\n      pop\n        /* \"BondMarketplace.sol\":2619:2629  msg.sender */\n      caller\n        /* \"BondMarketplace.sol\":2602:2603  b */\n      dup2\n        /* \"BondMarketplace.sol\":2602:2616  b.organization */\n      0x01\n      add\n      0x00\n        /* \"BondMarketplace.sol\":2602:2629  b.organization = msg.sender */\n      0x0100\n      exp\n      dup2\n      sload\n      dup2\n      0xffffffffffffffffffffffffffffffffffffffff\n      mul\n      not\n      and\n      swap1\n      dup4\n      0xffffffffffffffffffffffffffffffffffffffff\n      and\n      mul\n      or\n      swap1\n      sstore\n      pop\n        /* \"BondMarketplace.sol\":2649:2653  name */\n      dup7\n      dup7\n        /* \"BondMarketplace.sol\":2640:2641  b */\n      dup3\n        /* \"BondMarketplace.sol\":2640:2646  b.name */\n      0x02\n      add\n        /* \"BondMarketplace.sol\":2640:2653  b.name = name */\n      swap2\n      dup3\n      tag_116\n      swap3\n      swap2\n      swap1\n      tag_117\n      jump\t// in\n    tag_116:\n      pop\n        /* \"BondMarketplace.sol\":2681:2693  interestRate */\n      dup5\n        /* \"BondMarketplace.sol\":2664:2665  b */\n      dup2\n        /* \"BondMarketplace.sol\":2664:2678  b.interestRate */\n      0x03\n      add\n        /* \"BondMarketplace.sol\":2664:2693  b.interestRate = interestRate */\n      dup2\n      swap1\n      sstore\n      pop\n        /* \"BondMarketplace.sol\":2721:2733  durationDays */\n      dup4\n        /* \"BondMarketplace.sol\":2704:2705  b */\n      dup2\n        /* \"BondMarketplace.sol\":2704:2718  b.durationDays */\n      0x04\n      add\n        /* \"BondMarketplace.sol\":2704:2733  b.durationDays = durationDays */\n      dup2\n      swap1\n      sstore\n      pop\n        /* \"BondMarketplace.sol\":2769:2789  totalFundingRequired */\n      dup3\n        /* \"BondMarketplace.sol\":2744:2745  b */\n      dup2\n        /* \"BondMarketplace.sol\":2744:2766  b.totalFundingRequired */\n      0x05\n      add\n        /* \"BondMarketplace.sol\":2744:2789  b.totalFundingRequired = totalFundingRequired */\n      dup2\n      swap1\n      sstore\n      pop\n        /* \"BondMarketplace.sol\":2817:2818  0 */\n      0x00\n        /* \"BondMarketplace.sol\":2800:2801  b */\n      dup2\n        /* \"BondMarketplace.sol\":2800:2814  b.amountRaised */\n      0x06\n      add\n        /* \"BondMarketplace.sol\":2800:2818  b.amountRaised = 0 */\n      dup2\n      swap1\n      sstore\n      pop\n        /* \"BondMarketplace.sol\":2844:2845  0 */\n      0x00\n        /* \"BondMarketplace.sol\":2829:2830  b */\n      dup2\n        /* \"BondMarketplace.sol\":2829:2841  b.trustScore */\n      0x07\n      add\n        /* \"BondMarketplace.sol\":2829:2845  b.trustScore = 0 */\n      dup2\n      swap1\n      sstore\n      pop\n        /* \"BondMarketplace.sol\":2870:2885  block.timestamp */\n      timestamp\n        /* \"BondMarketplace.sol\":2856:2857  b */\n      dup2\n        /* \"BondMarketplace.sol\":2856:2867  b.createdAt */\n      0x08\n      add\n        /* \"BondMarketplace.sol\":2856:2885  b.createdAt = block.timestamp */\n      dup2\n      swap1\n      sstore\n      pop\n        /* \"BondMarketplace.sol\":2907:2911  true */\n      0x01\n        /* \"BondMarketplace.sol\":2896:2897  b */\n      dup2\n        /* \"BondMarketplace.sol\":2896:2904  b.exists */\n      0x0a\n      add\n      0x00\n        /* \"BondMarketplace.sol\":2896:2911  b.exists = true */\n      0x0100\n      exp\n      dup2\n      sload\n      dup2\n      0xff\n      mul\n      not\n      and\n      swap1\n      dup4\n      iszero\n      iszero\n      mul\n      or\n      swap1\n      sstore\n      pop\n        /* \"BondMarketplace.sol\":2924:2931  bondIds */\n      0x02\n        /* \"BondMarketplace.sol\":2937:2943  bondId */\n      dup3\n        /* \"BondMarketplace.sol\":2924:2944  bondIds.push(bondId) */\n      swap1\n      dup1\n      0x01\n      dup2\n      sload\n      add\n      dup1\n      dup3\n      sstore\n      dup1\n      swap2\n      pop\n      pop\n      0x01\n      swap1\n      sub\n      swap1\n      0x00\n      mstore\n      keccak256(0x00, 0x20)\n      add\n      0x00\n      swap1\n      swap2\n      swap1\n      swap2\n      swap1\n      swap2\n      pop\n      sstore\n        /* \"BondMarketplace.sol\":3009:3019  msg.sender */\n      caller\n        /* \"BondMarketplace.sol\":2962:3138  BondCreated(... */\n      0xffffffffffffffffffffffffffffffffffffffff\n      and\n        /* \"BondMarketplace.sol\":2988:2994  bondId */\n      dup3\n        /* \"BondMarketplace.sol\":2962:3138  BondCreated(... */\n      0xd6950a5a53a38361c24ec18c089515caede74366415bf2fb4569cb72099f5e1c\n        /* \"BondMarketplace.sol\":3034:3038  name */\n      dup10\n      dup10\n        /* \"BondMarketplace.sol\":3053:3065  interestRate */\n      dup10\n        /* \"BondMarketplace.sol\":3080:3092  durationDays */\n      dup10\n        /* \"BondMarketplace.sol\":3107:3127  totalFundingRequired */\n      dup10\n        /* \"BondMarketplace.sol\":2962:3138  BondCreated(... */\n      mload(0x40)\n      tag_119\n      swap6\n      swap5\n      swap4\n      swap3\n      swap2\n      swap1\n      tag_120\n      jump\t// in\n    tag_119:\n      mload(0x40)\n      dup1\n      swap2\n      sub\n      swap1\n      log3\n        /* \"BondMarketplace.sol\":2272:3146  {... */\n      pop\n      pop\n        /* \"BondMarketplace.sol\":2104:3146  function createBond(... */\n      pop\n      pop\n      pop\n      pop\n      pop\n      jump\t// out\n        /* \"BondMarketplace.sol\":5336:6376  function investInBond(uint256 bondId) external payable bondMustExist(bondId) {... */\n    tag_37:\n        /* \"BondMarketplace.sol\":5405:5411  bondId */\n      dup1\n        /* \"BondMarketplace.sol\":1762:1767  bonds */\n      0x01\n        /* \"BondMarketplace.sol\":1762:1775  bonds[bondId] */\n      0x00\n        /* \"BondMarketplace.sol\":1768:1774  bondId */\n      dup3\n        /* \"BondMarketplace.sol\":1762:1775  bonds[bondId] */\n      dup2\n      mstore\n      0x20\n      add\n      swap1\n      dup2\n      mstore\n      0x20\n      add\n      0x00\n      keccak256\n        /* \"BondMarketplace.sol\":1762:1782  bonds[bondId].exists */\n      0x0a\n      add\n      0x00\n      swap1\n      sload\n      swap1\n      0x0100\n      exp\n      swap1\n      div\n      0xff\n      and\n        /* \"BondMarketplace.sol\":1754:1806  require(bonds[bondId].exists, \"Bond does not exist\") */\n      tag_122\n      jumpi\n      mload(0x40)\n      0x08c379a000000000000000000000000000000000000000000000000000000000\n      dup2\n      mstore\n      0x04\n      add\n      tag_123\n      swap1\n      tag_62\n      jump\t// in\n    tag_123:\n      mload(0x40)\n      dup1\n      swap2\n      sub\n      swap1\n      revert\n    tag_122:\n        /* \"BondMarketplace.sol\":5424:5438  Bond storage b */\n      0x00\n        /* \"BondMarketplace.sol\":5441:5446  bonds */\n      0x01\n        /* \"BondMarketplace.sol\":5441:5454  bonds[bondId] */\n      0x00\n        /* \"BondMarketplace.sol\":5447:5453  bondId */\n      dup5\n        /* \"BondMarketplace.sol\":5441:5454  bonds[bondId] */\n      dup2\n      mstore\n      0x20\n      add\n      swap1\n      dup2\n      mstore\n      0x20\n      add\n      0x00\n      keccak256\n        /* \"BondMarketplace.sol\":5424:5454  Bond storage b = bonds[bondId] */\n      swap1\n      pop\n        /* \"BondMarketplace.sol\":5487:5488  0 */\n      0x00\n        /* \"BondMarketplace.sol\":5475:5484  msg.value */\n      callvalue\n        /* \"BondMarketplace.sol\":5475:5488  msg.value > 0 */\n      gt\n        /* \"BondMarketplace.sol\":5467:5515  require(msg.value > 0, \"Investment must be > 0\") */\n      tag_125\n      jumpi\n      mload(0x40)\n      0x08c379a000000000000000000000000000000000000000000000000000000000\n      dup2\n      mstore\n      0x04\n      add\n      tag_126\n      swap1\n      tag_127\n      jump\t// in\n    tag_126:\n      mload(0x40)\n      dup1\n      swap2\n      sub\n      swap1\n      revert\n    tag_125:\n        /* \"BondMarketplace.sol\":5578:5579  b */\n      dup1\n        /* \"BondMarketplace.sol\":5578:5600  b.totalFundingRequired */\n      0x05\n      add\n      sload\n        /* \"BondMarketplace.sol\":5565:5574  msg.value */\n      callvalue\n        /* \"BondMarketplace.sol\":5548:5549  b */\n      dup3\n        /* \"BondMarketplace.sol\":5548:5562  b.amountRaised */\n      0x06\n      add\n      sload\n        /* \"BondMarketplace.sol\":5548:5574  b.amountRaised + msg.value */\n      tag_128\n      swap2\n      swap1\n      tag_87\n      jump\t// in\n    tag_128:\n        /* \"BondMarketplace.sol\":5548:5600  b.amountRaised + msg.value <= b.totalFundingRequired */\n      gt\n      iszero\n        /* \"BondMarketplace.sol\":5526:5661  require(... */\n      tag_129\n      jumpi\n      mload(0x40)\n      0x08c379a000000000000000000000000000000000000000000000000000000000\n      dup2\n      mstore\n      0x04\n      add\n      tag_130\n      swap1\n      tag_131\n      jump\t// in\n    tag_130:\n      mload(0x40)\n      dup1\n      swap2\n      sub\n      swap1\n      revert\n    tag_129:\n        /* \"BondMarketplace.sol\":5674:5694  Investor storage inv */\n      0x00\n        /* \"BondMarketplace.sol\":5697:5706  investors */\n      0x03\n        /* \"BondMarketplace.sol\":5697:5718  investors[msg.sender] */\n      0x00\n        /* \"BondMarketplace.sol\":5707:5717  msg.sender */\n      caller\n        /* \"BondMarketplace.sol\":5697:5718  investors[msg.sender] */\n      0xffffffffffffffffffffffffffffffffffffffff\n      and\n      0xffffffffffffffffffffffffffffffffffffffff\n      and\n      dup2\n      mstore\n      0x20\n      add\n      swap1\n      dup2\n      mstore\n      0x20\n      add\n      0x00\n      keccak256\n        /* \"BondMarketplace.sol\":5674:5718  Investor storage inv = investors[msg.sender] */\n      swap1\n      pop\n        /* \"BondMarketplace.sol\":5734:5737  inv */\n      dup1\n        /* \"BondMarketplace.sol\":5734:5749  inv.initialized */\n      0x03\n      add\n      0x00\n      swap1\n      sload\n      swap1\n      0x0100\n      exp\n      swap1\n      div\n      0xff\n      and\n        /* \"BondMarketplace.sol\":5729:5847  if (!inv.initialized) {... */\n      tag_132\n      jumpi\n        /* \"BondMarketplace.sol\":5788:5798  msg.sender */\n      caller\n        /* \"BondMarketplace.sol\":5766:5769  inv */\n      dup2\n        /* \"BondMarketplace.sol\":5766:5785  inv.investorAddress */\n      0x00\n      add\n      0x00\n        /* \"BondMarketplace.sol\":5766:5798  inv.investorAddress = msg.sender */\n      0x0100\n      exp\n      dup2\n      sload\n      dup2\n      0xffffffffffffffffffffffffffffffffffffffff\n      mul\n      not\n      and\n      swap1\n      dup4\n      0xffffffffffffffffffffffffffffffffffffffff\n      and\n      mul\n      or\n      swap1\n      sstore\n      pop\n        /* \"BondMarketplace.sol\":5831:5835  true */\n      0x01\n        /* \"BondMarketplace.sol\":5813:5816  inv */\n      dup2\n        /* \"BondMarketplace.sol\":5813:5828  inv.initialized */\n      0x03\n      add\n      0x00\n        /* \"BondMarketplace.sol\":5813:5835  inv.initialized = true */\n      0x0100\n      exp\n      dup2\n      sload\n      dup2\n      0xff\n      mul\n      not\n      and\n      swap1\n      dup4\n      iszero\n      iszero\n      mul\n      or\n      swap1\n      sstore\n      pop\n        /* \"BondMarketplace.sol\":5729:5847  if (!inv.initialized) {... */\n    tag_132:\n        /* \"BondMarketplace.sol\":5890:5891  0 */\n      0x00\n        /* \"BondMarketplace.sol\":5863:5866  inv */\n      dup2\n        /* \"BondMarketplace.sol\":5863:5878  inv.investments */\n      0x01\n      add\n        /* \"BondMarketplace.sol\":5863:5886  inv.investments[bondId] */\n      0x00\n        /* \"BondMarketplace.sol\":5879:5885  bondId */\n      dup7\n        /* \"BondMarketplace.sol\":5863:5886  inv.investments[bondId] */\n      dup2\n      mstore\n      0x20\n      add\n      swap1\n      dup2\n      mstore\n      0x20\n      add\n      0x00\n      keccak256\n      sload\n        /* \"BondMarketplace.sol\":5863:5891  inv.investments[bondId] == 0 */\n      sub\n        /* \"BondMarketplace.sol\":5859:5952  if (inv.investments[bondId] == 0) {... */\n      tag_133\n      jumpi\n        /* \"BondMarketplace.sol\":5908:5911  inv */\n      dup1\n        /* \"BondMarketplace.sol\":5908:5927  inv.investedBondIds */\n      0x02\n      add\n        /* \"BondMarketplace.sol\":5933:5939  bondId */\n      dup5\n        /* \"BondMarketplace.sol\":5908:5940  inv.investedBondIds.push(bondId) */\n      swap1\n      dup1\n      0x01\n      dup2\n      sload\n      add\n      dup1\n      dup3\n      sstore\n      dup1\n      swap2\n      pop\n      pop\n      0x01\n      swap1\n      sub\n      swap1\n      0x00\n      mstore\n      keccak256(0x00, 0x20)\n      add\n      0x00\n      swap1\n      swap2\n      swap1\n      swap2\n      swap1\n      swap2\n      pop\n      sstore\n        /* \"BondMarketplace.sol\":5859:5952  if (inv.investments[bondId] == 0) {... */\n    tag_133:\n        /* \"BondMarketplace.sol\":5991:6000  msg.value */\n      callvalue\n        /* \"BondMarketplace.sol\":5964:5967  inv */\n      dup2\n        /* \"BondMarketplace.sol\":5964:5979  inv.investments */\n      0x01\n      add\n        /* \"BondMarketplace.sol\":5964:5987  inv.investments[bondId] */\n      0x00\n        /* \"BondMarketplace.sol\":5980:5986  bondId */\n      dup7\n        /* \"BondMarketplace.sol\":5964:5987  inv.investments[bondId] */\n      dup2\n      mstore\n      0x20\n      add\n      swap1\n      dup2\n      mstore\n      0x20\n      add\n      0x00\n      keccak256\n      0x00\n        /* \"BondMarketplace.sol\":5964:6000  inv.investments[bondId] += msg.value */\n      dup3\n      dup3\n      sload\n      tag_135\n      swap2\n      swap1\n      tag_87\n      jump\t// in\n    tag_135:\n      swap3\n      pop\n      pop\n      dup2\n      swap1\n      sstore\n      pop\n        /* \"BondMarketplace.sol\":6029:6038  msg.value */\n      callvalue\n        /* \"BondMarketplace.sol\":6011:6012  b */\n      dup3\n        /* \"BondMarketplace.sol\":6011:6025  b.amountRaised */\n      0x06\n      add\n      0x00\n        /* \"BondMarketplace.sol\":6011:6038  b.amountRaised += msg.value */\n      dup3\n      dup3\n      sload\n      tag_136\n      swap2\n      swap1\n      tag_87\n      jump\t// in\n    tag_136:\n      swap3\n      pop\n      pop\n      dup2\n      swap1\n      sstore\n      pop\n        /* \"BondMarketplace.sol\":6125:6134  bool sent */\n      0x00\n        /* \"BondMarketplace.sol\":6148:6149  b */\n      dup3\n        /* \"BondMarketplace.sol\":6148:6162  b.organization */\n      0x01\n      add\n      0x00\n      swap1\n      sload\n      swap1\n      0x0100\n      exp\n      swap1\n      div\n      0xffffffffffffffffffffffffffffffffffffffff\n      and\n        /* \"BondMarketplace.sol\":6140:6168  payable(b.organization).call */\n      0xffffffffffffffffffffffffffffffffffffffff\n      and\n        /* \"BondMarketplace.sol\":6176:6185  msg.value */\n      callvalue\n        /* \"BondMarketplace.sol\":6140:6190  payable(b.organization).call{value: msg.value}(\"\") */\n      mload(0x40)\n      tag_137\n      swap1\n      tag_138\n      jump\t// in\n    tag_137:\n      0x00\n      mload(0x40)\n      dup1\n      dup4\n      sub\n      dup2\n      dup6\n      dup8\n      gas\n      call\n      swap3\n      pop\n      pop\n      pop\n      returndatasize\n      dup1\n      0x00\n      dup2\n      eq\n      tag_141\n      jumpi\n      mload(0x40)\n      swap2\n      pop\n      and(add(returndatasize, 0x3f), not(0x1f))\n      dup3\n      add\n      0x40\n      mstore\n      returndatasize\n      dup3\n      mstore\n      returndatasize\n      0x00\n      0x20\n      dup5\n      add\n      returndatacopy\n      jump(tag_140)\n    tag_141:\n      0x60\n      swap2\n      pop\n    tag_140:\n      pop\n        /* \"BondMarketplace.sol\":6124:6190  (bool sent, ) = payable(b.organization).call{value: msg.value}(\"\") */\n      pop\n      swap1\n      pop\n        /* \"BondMarketplace.sol\":6209:6213  sent */\n      dup1\n        /* \"BondMarketplace.sol\":6201:6258  require(sent, \"Failed to transfer funds to organization\") */\n      tag_142\n      jumpi\n      mload(0x40)\n      0x08c379a000000000000000000000000000000000000000000000000000000000\n      dup2\n      mstore\n      0x04\n      add\n      tag_143\n      swap1\n      tag_144\n      jump\t// in\n    tag_143:\n      mload(0x40)\n      dup1\n      swap2\n      sub\n      swap1\n      revert\n    tag_142:\n        /* \"BondMarketplace.sol\":6293:6303  msg.sender */\n      caller\n        /* \"BondMarketplace.sol\":6276:6331  Invested(bondId, msg.sender, msg.value, b.amountRaised) */\n      0xffffffffffffffffffffffffffffffffffffffff\n      and\n        /* \"BondMarketplace.sol\":6285:6291  bondId */\n      dup6\n        /* \"BondMarketplace.sol\":6276:6331  Invested(bondId, msg.sender, msg.value, b.amountRaised) */\n      0x271dec505c61c970bdd791a963b7162d814edf6292f40c4beef2af1e48eea1e8\n        /* \"BondMarketplace.sol\":6305:6314  msg.value */\n      callvalue\n        /* \"BondMarketplace.sol\":6316:6317  b */\n      dup7\n        /* \"BondMarketplace.sol\":6316:6330  b.amountRaised */\n      0x06\n      add\n      sload\n        /* \"BondMarketplace.sol\":6276:6331  Invested(bondId, msg.sender, msg.value, b.amountRaised) */\n      mload(0x40)\n      tag_145\n      swap3\n      swap2\n      swap1\n      tag_146\n      jump\t// in\n    tag_145:\n      mload(0x40)\n      dup1\n      swap2\n      sub\n      swap1\n      log3\n        /* \"BondMarketplace.sol\":6344:6368  updateTrustScore(bondId) */\n      tag_147\n        /* \"BondMarketplace.sol\":6361:6367  bondId */\n      dup6\n        /* \"BondMarketplace.sol\":6344:6360  updateTrustScore */\n      tag_22\n        /* \"BondMarketplace.sol\":6344:6368  updateTrustScore(bondId) */\n      jump\t// in\n    tag_147:\n      pop\n        /* \"BondMarketplace.sol\":5413:6376  {... */\n      pop\n      pop\n      pop\n        /* \"BondMarketplace.sol\":5336:6376  function investInBond(uint256 bondId) external payable bondMustExist(bondId) {... */\n      pop\n      pop\n      jump\t// out\n        /* \"BondMarketplace.sol\":8843:9429  function getInvestorPortfolio(... */\n    tag_42:\n        /* \"BondMarketplace.sol\":8937:8965  uint256[] memory investedIds */\n      0x60\n        /* \"BondMarketplace.sol\":8967:8999  uint256[] memory investedAmounts */\n      dup1\n        /* \"BondMarketplace.sol\":9012:9032  Investor storage inv */\n      0x00\n        /* \"BondMarketplace.sol\":9035:9044  investors */\n      0x03\n        /* \"BondMarketplace.sol\":9035:9061  investors[investorAddress] */\n      0x00\n        /* \"BondMarketplace.sol\":9045:9060  investorAddress */\n      dup6\n        /* \"BondMarketplace.sol\":9035:9061  investors[investorAddress] */\n      0xffffffffffffffffffffffffffffffffffffffff\n      and\n      0xffffffffffffffffffffffffffffffffffffffff\n      and\n      dup2\n      mstore\n      0x20\n      add\n      swap1\n      dup2\n      mstore\n      0x20\n      add\n      0x00\n      keccak256\n        /* \"BondMarketplace.sol\":9012:9061  Investor storage inv = investors[investorAddress] */\n      swap1\n      pop\n        /* \"BondMarketplace.sol\":9072:9085  uint256 count */\n      0x00\n        /* \"BondMarketplace.sol\":9088:9091  inv */\n      dup2\n        /* \"BondMarketplace.sol\":9088:9107  inv.investedBondIds */\n      0x02\n      add\n        /* \"BondMarketplace.sol\":9088:9114  inv.investedBondIds.length */\n      dup1\n      sload\n      swap1\n      pop\n        /* \"BondMarketplace.sol\":9072:9114  uint256 count = inv.investedBondIds.length */\n      swap1\n      pop\n        /* \"BondMarketplace.sol\":9155:9160  count */\n      dup1\n        /* \"BondMarketplace.sol\":9141:9161  new uint256[](count) */\n      0xffffffffffffffff\n      dup2\n      gt\n      iszero\n      tag_149\n      jumpi\n      tag_150\n      tag_151\n      jump\t// in\n    tag_150:\n    tag_149:\n      mload(0x40)\n      swap1\n      dup1\n      dup3\n      mstore\n      dup1\n      0x20\n      mul\n      0x20\n      add\n      dup3\n      add\n      0x40\n      mstore\n      dup1\n      iszero\n      tag_152\n      jumpi\n      dup2\n      0x20\n      add\n      0x20\n      dup3\n      mul\n      dup1\n      calldatasize\n      dup4\n      calldatacopy\n      dup1\n      dup3\n      add\n      swap2\n      pop\n      pop\n      swap1\n      pop\n    tag_152:\n      pop\n        /* \"BondMarketplace.sol\":9127:9161  investedIds = new uint256[](count) */\n      swap4\n      pop\n        /* \"BondMarketplace.sol\":9204:9209  count */\n      dup1\n        /* \"BondMarketplace.sol\":9190:9210  new uint256[](count) */\n      0xffffffffffffffff\n      dup2\n      gt\n      iszero\n      tag_153\n      jumpi\n      tag_154\n      tag_151\n      jump\t// in\n    tag_154:\n    tag_153:\n      mload(0x40)\n      swap1\n      dup1\n      dup3\n      mstore\n      dup1\n      0x20\n      mul\n      0x20\n      add\n      dup3\n      add\n      0x40\n      mstore\n      dup1\n      iszero\n      tag_155\n      jumpi\n      dup2\n      0x20\n      add\n      0x20\n      dup3\n      mul\n      dup1\n      calldatasize\n      dup4\n      calldatacopy\n      dup1\n      dup3\n      add\n      swap2\n      pop\n      pop\n      swap1\n      pop\n    tag_155:\n      pop\n        /* \"BondMarketplace.sol\":9172:9210  investedAmounts = new uint256[](count) */\n      swap3\n      pop\n        /* \"BondMarketplace.sol\":9228:9237  uint256 i */\n      0x00\n        /* \"BondMarketplace.sol\":9240:9241  0 */\n      0x00\n        /* \"BondMarketplace.sol\":9228:9241  uint256 i = 0 */\n      swap1\n      pop\n        /* \"BondMarketplace.sol\":9223:9422  for (uint256 i = 0; i < count; i++) {... */\n    tag_156:\n        /* \"BondMarketplace.sol\":9247:9252  count */\n      dup2\n        /* \"BondMarketplace.sol\":9243:9244  i */\n      dup2\n        /* \"BondMarketplace.sol\":9243:9252  i < count */\n      lt\n        /* \"BondMarketplace.sol\":9223:9422  for (uint256 i = 0; i < count; i++) {... */\n      iszero\n      tag_157\n      jumpi\n        /* \"BondMarketplace.sol\":9274:9288  uint256 bondId */\n      0x00\n        /* \"BondMarketplace.sol\":9291:9294  inv */\n      dup4\n        /* \"BondMarketplace.sol\":9291:9310  inv.investedBondIds */\n      0x02\n      add\n        /* \"BondMarketplace.sol\":9311:9312  i */\n      dup3\n        /* \"BondMarketplace.sol\":9291:9313  inv.investedBondIds[i] */\n      dup2\n      sload\n      dup2\n      lt\n      tag_159\n      jumpi\n      tag_160\n      tag_161\n      jump\t// in\n    tag_160:\n    tag_159:\n      swap1\n      0x00\n      mstore\n      keccak256(0x00, 0x20)\n      add\n      sload\n        /* \"BondMarketplace.sol\":9274:9313  uint256 bondId = inv.investedBondIds[i] */\n      swap1\n      pop\n        /* \"BondMarketplace.sol\":9345:9351  bondId */\n      dup1\n        /* \"BondMarketplace.sol\":9328:9339  investedIds */\n      dup7\n        /* \"BondMarketplace.sol\":9340:9341  i */\n      dup4\n        /* \"BondMarketplace.sol\":9328:9342  investedIds[i] */\n      dup2\n      mload\n      dup2\n      lt\n      tag_163\n      jumpi\n      tag_164\n      tag_161\n      jump\t// in\n    tag_164:\n    tag_163:\n      0x20\n      mul\n      0x20\n      add\n      add\n        /* \"BondMarketplace.sol\":9328:9351  investedIds[i] = bondId */\n      dup2\n      dup2\n      mstore\n      pop\n      pop\n        /* \"BondMarketplace.sol\":9387:9390  inv */\n      dup4\n        /* \"BondMarketplace.sol\":9387:9402  inv.investments */\n      0x01\n      add\n        /* \"BondMarketplace.sol\":9387:9410  inv.investments[bondId] */\n      0x00\n        /* \"BondMarketplace.sol\":9403:9409  bondId */\n      dup3\n        /* \"BondMarketplace.sol\":9387:9410  inv.investments[bondId] */\n      dup2\n      mstore\n      0x20\n      add\n      swap1\n      dup2\n      mstore\n      0x20\n      add\n      0x00\n      keccak256\n      sload\n        /* \"BondMarketplace.sol\":9366:9381  investedAmounts */\n      dup6\n        /* \"BondMarketplace.sol\":9382:9383  i */\n      dup4\n        /* \"BondMarketplace.sol\":9366:9384  investedAmounts[i] */\n      dup2\n      mload\n      dup2\n      lt\n      tag_165\n      jumpi\n      tag_166\n      tag_161\n      jump\t// in\n    tag_166:\n    tag_165:\n      0x20\n      mul\n      0x20\n      add\n      add\n        /* \"BondMarketplace.sol\":9366:9410  investedAmounts[i] = inv.investments[bondId] */\n      dup2\n      dup2\n      mstore\n      pop\n      pop\n        /* \"BondMarketplace.sol\":9259:9422  {... */\n      pop\n        /* \"BondMarketplace.sol\":9254:9257  i++ */\n      dup1\n      dup1\n      0x01\n      add\n      swap2\n      pop\n      pop\n        /* \"BondMarketplace.sol\":9223:9422  for (uint256 i = 0; i < count; i++) {... */\n      jump(tag_156)\n    tag_157:\n      pop\n        /* \"BondMarketplace.sol\":9001:9429  {... */\n      pop\n      pop\n        /* \"BondMarketplace.sol\":8843:9429  function getInvestorPortfolio(... */\n      swap2\n      pop\n      swap2\n      jump\t// out\n        /* \"BondMarketplace.sol\":3274:3791  function updateFundUsage(... */\n    tag_49:\n        /* \"BondMarketplace.sol\":3392:3398  bondId */\n      dup3\n        /* \"BondMarketplace.sol\":1762:1767  bonds */\n      0x01\n        /* \"BondMarketplace.sol\":1762:1775  bonds[bondId] */\n      0x00\n        /* \"BondMarketplace.sol\":1768:1774  bondId */\n      dup3\n        /* \"BondMarketplace.sol\":1762:1775  bonds[bondId] */\n      dup2\n      mstore\n      0x20\n      add\n      swap1\n      dup2\n      mstore\n      0x20\n      add\n      0x00\n      keccak256\n        /* \"BondMarketplace.sol\":1762:1782  bonds[bondId].exists */\n      0x0a\n      add\n      0x00\n      swap1\n      sload\n      swap1\n      0x0100\n      exp\n      swap1\n      div\n      0xff\n      and\n        /* \"BondMarketplace.sol\":1754:1806  require(bonds[bondId].exists, \"Bond does not exist\") */\n      tag_168\n      jumpi\n      mload(0x40)\n      0x08c379a000000000000000000000000000000000000000000000000000000000\n      dup2\n      mstore\n      0x04\n      add\n      tag_169\n      swap1\n      tag_62\n      jump\t// in\n    tag_169:\n      mload(0x40)\n      dup1\n      swap2\n      sub\n      swap1\n      revert\n    tag_168:\n        /* \"BondMarketplace.sol\":3421:3427  bondId */\n      dup4\n        /* \"BondMarketplace.sol\":1943:1953  msg.sender */\n      caller\n        /* \"BondMarketplace.sol\":1913:1953  bonds[bondId].organization == msg.sender */\n      0xffffffffffffffffffffffffffffffffffffffff\n      and\n        /* \"BondMarketplace.sol\":1913:1918  bonds */\n      0x01\n        /* \"BondMarketplace.sol\":1913:1926  bonds[bondId] */\n      0x00\n        /* \"BondMarketplace.sol\":1919:1925  bondId */\n      dup4\n        /* \"BondMarketplace.sol\":1913:1926  bonds[bondId] */\n      dup2\n      mstore\n      0x20\n      add\n      swap1\n      dup2\n      mstore\n      0x20\n      add\n      0x00\n      keccak256\n        /* \"BondMarketplace.sol\":1913:1939  bonds[bondId].organization */\n      0x01\n      add\n      0x00\n      swap1\n      sload\n      swap1\n      0x0100\n      exp\n      swap1\n      div\n      0xffffffffffffffffffffffffffffffffffffffff\n      and\n        /* \"BondMarketplace.sol\":1913:1953  bonds[bondId].organization == msg.sender */\n      0xffffffffffffffffffffffffffffffffffffffff\n      and\n      eq\n        /* \"BondMarketplace.sol\":1891:2014  require(... */\n      tag_171\n      jumpi\n      mload(0x40)\n      0x08c379a000000000000000000000000000000000000000000000000000000000\n      dup2\n      mstore\n      0x04\n      add\n      tag_172\n      swap1\n      tag_173\n      jump\t// in\n    tag_172:\n      mload(0x40)\n      dup1\n      swap2\n      sub\n      swap1\n      revert\n    tag_171:\n        /* \"BondMarketplace.sol\":3476:3477  0 */\n      0x00\n        /* \"BondMarketplace.sol\":3454:3465  description */\n      dup5\n      dup5\n        /* \"BondMarketplace.sol\":3448:3473  bytes(description).length */\n      swap1\n      pop\n        /* \"BondMarketplace.sol\":3448:3477  bytes(description).length > 0 */\n      gt\n        /* \"BondMarketplace.sol\":3440:3505  require(bytes(description).length > 0, \"Description is required\") */\n      tag_175\n      jumpi\n      mload(0x40)\n      0x08c379a000000000000000000000000000000000000000000000000000000000\n      dup2\n      mstore\n      0x04\n      add\n      tag_176\n      swap1\n      tag_177\n      jump\t// in\n    tag_176:\n      mload(0x40)\n      dup1\n      swap2\n      sub\n      swap1\n      revert\n    tag_175:\n        /* \"BondMarketplace.sol\":3518:3532  Bond storage b */\n      0x00\n        /* \"BondMarketplace.sol\":3535:3540  bonds */\n      0x01\n        /* \"BondMarketplace.sol\":3535:3548  bonds[bondId] */\n      0x00\n        /* \"BondMarketplace.sol\":3541:3547  bondId */\n      dup8\n        /* \"BondMarketplace.sol\":3535:3548  bonds[bondId] */\n      dup2\n      mstore\n      0x20\n      add\n      swap1\n      dup2\n      mstore\n      0x20\n      add\n      0x00\n      keccak256\n        /* \"BondMarketplace.sol\":3518:3548  Bond storage b = bonds[bondId] */\n      swap1\n      pop\n        /* \"BondMarketplace.sol\":3559:3560  b */\n      dup1\n        /* \"BondMarketplace.sol\":3559:3574  b.fundUsageLogs */\n      0x09\n      add\n        /* \"BondMarketplace.sol\":3580:3591  description */\n      dup6\n      dup6\n        /* \"BondMarketplace.sol\":3559:3592  b.fundUsageLogs.push(description) */\n      swap1\n      swap2\n      dup1\n      0x01\n      dup2\n      sload\n      add\n      dup1\n      dup3\n      sstore\n      dup1\n      swap2\n      pop\n      pop\n      0x01\n      swap1\n      sub\n      swap1\n      0x00\n      mstore\n      keccak256(0x00, 0x20)\n      add\n      0x00\n      swap1\n      swap2\n      swap3\n      swap1\n      swap2\n      swap3\n      swap1\n      swap2\n      swap3\n      swap1\n      swap2\n      swap3\n      pop\n      swap2\n      dup3\n      tag_179\n      swap3\n      swap2\n      swap1\n      tag_117\n      jump\t// in\n    tag_179:\n      pop\n        /* \"BondMarketplace.sol\":3662:3672  msg.sender */\n      caller\n        /* \"BondMarketplace.sol\":3610:3746  FundUsageUpdated(... */\n      0xffffffffffffffffffffffffffffffffffffffff\n      and\n        /* \"BondMarketplace.sol\":3641:3647  bondId */\n      dup7\n        /* \"BondMarketplace.sol\":3610:3746  FundUsageUpdated(... */\n      0xc188596f32652d64253d21c2bbb3f1b4794308b7fbe9384000ffe306650d0b96\n        /* \"BondMarketplace.sol\":3687:3698  description */\n      dup8\n      dup8\n        /* \"BondMarketplace.sol\":3713:3714  b */\n      dup6\n        /* \"BondMarketplace.sol\":3713:3728  b.fundUsageLogs */\n      0x09\n      add\n        /* \"BondMarketplace.sol\":3713:3735  b.fundUsageLogs.length */\n      dup1\n      sload\n      swap1\n      pop\n        /* \"BondMarketplace.sol\":3610:3746  FundUsageUpdated(... */\n      mload(0x40)\n      tag_180\n      swap4\n      swap3\n      swap2\n      swap1\n      tag_181\n      jump\t// in\n    tag_180:\n      mload(0x40)\n      dup1\n      swap2\n      sub\n      swap1\n      log3\n        /* \"BondMarketplace.sol\":3759:3783  updateTrustScore(bondId) */\n      tag_182\n        /* \"BondMarketplace.sol\":3776:3782  bondId */\n      dup7\n        /* \"BondMarketplace.sol\":3759:3775  updateTrustScore */\n      tag_22\n        /* \"BondMarketplace.sol\":3759:3783  updateTrustScore(bondId) */\n      jump\t// in\n    tag_182:\n      pop\n        /* \"BondMarketplace.sol\":3429:3791  {... */\n      pop\n        /* \"BondMarketplace.sol\":1817:1818  _ */\n      pop\n        /* \"BondMarketplace.sol\":3274:3791  function updateFundUsage(... */\n      pop\n      pop\n      pop\n      pop\n      jump\t// out\n        /* \"BondMarketplace.sol\":6456:7697  function getAllBonds()... */\n    tag_52:\n        /* \"BondMarketplace.sol\":6543:6563  uint256[] memory ids */\n      0x60\n        /* \"BondMarketplace.sol\":6578:6608  address[] memory organizations */\n      dup1\n        /* \"BondMarketplace.sol\":6623:6644  string[] memory names */\n      0x60\n        /* \"BondMarketplace.sol\":6659:6689  uint256[] memory interestRates */\n      dup1\n        /* \"BondMarketplace.sol\":6704:6730  uint256[] memory durations */\n      0x60\n        /* \"BondMarketplace.sol\":6745:6768  uint256[] memory totals */\n      dup1\n        /* \"BondMarketplace.sol\":6783:6806  uint256[] memory raised */\n      0x60\n        /* \"BondMarketplace.sol\":6821:6849  uint256[] memory trustScores */\n      dup1\n        /* \"BondMarketplace.sol\":6877:6890  uint256 count */\n      0x00\n        /* \"BondMarketplace.sol\":6893:6900  bondIds */\n      0x02\n        /* \"BondMarketplace.sol\":6893:6907  bondIds.length */\n      dup1\n      sload\n      swap1\n      pop\n        /* \"BondMarketplace.sol\":6877:6907  uint256 count = bondIds.length */\n      swap1\n      pop\n        /* \"BondMarketplace.sol\":6940:6945  count */\n      dup1\n        /* \"BondMarketplace.sol\":6926:6946  new uint256[](count) */\n      0xffffffffffffffff\n      dup2\n      gt\n      iszero\n      tag_184\n      jumpi\n      tag_185\n      tag_151\n      jump\t// in\n    tag_185:\n    tag_184:\n      mload(0x40)\n      swap1\n      dup1\n      dup3\n      mstore\n      dup1\n      0x20\n      mul\n      0x20\n      add\n      dup3\n      add\n      0x40\n      mstore\n      dup1\n      iszero\n      tag_186\n      jumpi\n      dup2\n      0x20\n      add\n      0x20\n      dup3\n      mul\n      dup1\n      calldatasize\n      dup4\n      calldatacopy\n      dup1\n      dup3\n      add\n      swap2\n      pop\n      pop\n      swap1\n      pop\n    tag_186:\n      pop\n        /* \"BondMarketplace.sol\":6920:6946  ids = new uint256[](count) */\n      swap9\n      pop\n        /* \"BondMarketplace.sol\":6987:6992  count */\n      dup1\n        /* \"BondMarketplace.sol\":6973:6993  new address[](count) */\n      0xffffffffffffffff\n      dup2\n      gt\n      iszero\n      tag_187\n      jumpi\n      tag_188\n      tag_151\n      jump\t// in\n    tag_188:\n    tag_187:\n      mload(0x40)\n      swap1\n      dup1\n      dup3\n      mstore\n      dup1\n      0x20\n      mul\n      0x20\n      add\n      dup3\n      add\n      0x40\n      mstore\n      dup1\n      iszero\n      tag_189\n      jumpi\n      dup2\n      0x20\n      add\n      0x20\n      dup3\n      mul\n      dup1\n      calldatasize\n      dup4\n      calldatacopy\n      dup1\n      dup3\n      add\n      swap2\n      pop\n      pop\n      swap1\n      pop\n    tag_189:\n      pop\n        /* \"BondMarketplace.sol\":6957:6993  organizations = new address[](count) */\n      swap8\n      pop\n        /* \"BondMarketplace.sol\":7025:7030  count */\n      dup1\n        /* \"BondMarketplace.sol\":7012:7031  new string[](count) */\n      0xffffffffffffffff\n      dup2\n      gt\n      iszero\n      tag_190\n      jumpi\n      tag_191\n      tag_151\n      jump\t// in\n    tag_191:\n    tag_190:\n      mload(0x40)\n      swap1\n      dup1\n      dup3\n      mstore\n      dup1\n      0x20\n      mul\n      0x20\n      add\n      dup3\n      add\n      0x40\n      mstore\n      dup1\n      iszero\n      tag_192\n      jumpi\n      dup2\n      0x20\n      add\n    tag_193:\n      0x60\n      dup2\n      mstore\n      0x20\n      add\n      swap1\n      0x01\n      swap1\n      sub\n      swap1\n      dup2\n      tag_193\n      jumpi\n      swap1\n      pop\n    tag_192:\n      pop\n        /* \"BondMarketplace.sol\":7004:7031  names = new string[](count) */\n      swap7\n      pop\n        /* \"BondMarketplace.sol\":7072:7077  count */\n      dup1\n        /* \"BondMarketplace.sol\":7058:7078  new uint256[](count) */\n      0xffffffffffffffff\n      dup2\n      gt\n      iszero\n      tag_194\n      jumpi\n      tag_195\n      tag_151\n      jump\t// in\n    tag_195:\n    tag_194:\n      mload(0x40)\n      swap1\n      dup1\n      dup3\n      mstore\n      dup1\n      0x20\n      mul\n      0x20\n      add\n      dup3\n      add\n      0x40\n      mstore\n      dup1\n      iszero\n      tag_196\n      jumpi\n      dup2\n      0x20\n      add\n      0x20\n      dup3\n      mul\n      dup1\n      calldatasize\n      dup4\n      calldatacopy\n      dup1\n      dup3\n      add\n      swap2\n      pop\n      pop\n      swap1\n      pop\n    tag_196:\n      pop\n        /* \"BondMarketplace.sol\":7042:7078  interestRates = new uint256[](count) */\n      swap6\n      pop\n        /* \"BondMarketplace.sol\":7115:7120  count */\n      dup1\n        /* \"BondMarketplace.sol\":7101:7121  new uint256[](count) */\n      0xffffffffffffffff\n      dup2\n      gt\n      iszero\n      tag_197\n      jumpi\n      tag_198\n      tag_151\n      jump\t// in\n    tag_198:\n    tag_197:\n      mload(0x40)\n      swap1\n      dup1\n      dup3\n      mstore\n      dup1\n      0x20\n      mul\n      0x20\n      add\n      dup3\n      add\n      0x40\n      mstore\n      dup1\n      iszero\n      tag_199\n      jumpi\n      dup2\n      0x20\n      add\n      0x20\n      dup3\n      mul\n      dup1\n      calldatasize\n      dup4\n      calldatacopy\n      dup1\n      dup3\n      add\n      swap2\n      pop\n      pop\n      swap1\n      pop\n    tag_199:\n      pop\n        /* \"BondMarketplace.sol\":7089:7121  durations = new uint256[](count) */\n      swap5\n      pop\n        /* \"BondMarketplace.sol\":7155:7160  count */\n      dup1\n        /* \"BondMarketplace.sol\":7141:7161  new uint256[](count) */\n      0xffffffffffffffff\n      dup2\n      gt\n      iszero\n      tag_200\n      jumpi\n      tag_201\n      tag_151\n      jump\t// in\n    tag_201:\n    tag_200:\n      mload(0x40)\n      swap1\n      dup1\n      dup3\n      mstore\n      dup1\n      0x20\n      mul\n      0x20\n      add\n      dup3\n      add\n      0x40\n      mstore\n      dup1\n      iszero\n      tag_202\n      jumpi\n      dup2\n      0x20\n      add\n      0x20\n      dup3\n      mul\n      dup1\n      calldatasize\n      dup4\n      calldatacopy\n      dup1\n      dup3\n      add\n      swap2\n      pop\n      pop\n      swap1\n      pop\n    tag_202:\n      pop\n        /* \"BondMarketplace.sol\":7132:7161  totals = new uint256[](count) */\n      swap4\n      pop\n        /* \"BondMarketplace.sol\":7195:7200  count */\n      dup1\n        /* \"BondMarketplace.sol\":7181:7201  new uint256[](count) */\n      0xffffffffffffffff\n      dup2\n      gt\n      iszero\n      tag_203\n      jumpi\n      tag_204\n      tag_151\n      jump\t// in\n    tag_204:\n    tag_203:\n      mload(0x40)\n      swap1\n      dup1\n      dup3\n      mstore\n      dup1\n      0x20\n      mul\n      0x20\n      add\n      dup3\n      add\n      0x40\n      mstore\n      dup1\n      iszero\n      tag_205\n      jumpi\n      dup2\n      0x20\n      add\n      0x20\n      dup3\n      mul\n      dup1\n      calldatasize\n      dup4\n      calldatacopy\n      dup1\n      dup3\n      add\n      swap2\n      pop\n      pop\n      swap1\n      pop\n    tag_205:\n      pop\n        /* \"BondMarketplace.sol\":7172:7201  raised = new uint256[](count) */\n      swap3\n      pop\n        /* \"BondMarketplace.sol\":7240:7245  count */\n      dup1\n        /* \"BondMarketplace.sol\":7226:7246  new uint256[](count) */\n      0xffffffffffffffff\n      dup2\n      gt\n      iszero\n      tag_206\n      jumpi\n      tag_207\n      tag_151\n      jump\t// in\n    tag_207:\n    tag_206:\n      mload(0x40)\n      swap1\n      dup1\n      dup3\n      mstore\n      dup1\n      0x20\n      mul\n      0x20\n      add\n      dup3\n      add\n      0x40\n      mstore\n      dup1\n      iszero\n      tag_208\n      jumpi\n      dup2\n      0x20\n      add\n      0x20\n      dup3\n      mul\n      dup1\n      calldatasize\n      dup4\n      calldatacopy\n      dup1\n      dup3\n      add\n      swap2\n      pop\n      pop\n      swap1\n      pop\n    tag_208:\n      pop\n        /* \"BondMarketplace.sol\":7212:7246  trustScores = new uint256[](count) */\n      swap2\n      pop\n        /* \"BondMarketplace.sol\":7264:7273  uint256 i */\n      0x00\n        /* \"BondMarketplace.sol\":7276:7277  0 */\n      0x00\n        /* \"BondMarketplace.sol\":7264:7277  uint256 i = 0 */\n      swap1\n      pop\n        /* \"BondMarketplace.sol\":7259:7690  for (uint256 i = 0; i < count; i++) {... */\n    tag_209:\n        /* \"BondMarketplace.sol\":7283:7288  count */\n      dup2\n        /* \"BondMarketplace.sol\":7279:7280  i */\n      dup2\n        /* \"BondMarketplace.sol\":7279:7288  i < count */\n      lt\n        /* \"BondMarketplace.sol\":7259:7690  for (uint256 i = 0; i < count; i++) {... */\n      iszero\n      tag_210\n      jumpi\n        /* \"BondMarketplace.sol\":7310:7324  Bond storage b */\n      0x00\n        /* \"BondMarketplace.sol\":7327:7332  bonds */\n      0x01\n        /* \"BondMarketplace.sol\":7327:7344  bonds[bondIds[i]] */\n      0x00\n        /* \"BondMarketplace.sol\":7333:7340  bondIds */\n      0x02\n        /* \"BondMarketplace.sol\":7341:7342  i */\n      dup5\n        /* \"BondMarketplace.sol\":7333:7343  bondIds[i] */\n      dup2\n      sload\n      dup2\n      lt\n      tag_212\n      jumpi\n      tag_213\n      tag_161\n      jump\t// in\n    tag_213:\n    tag_212:\n      swap1\n      0x00\n      mstore\n      keccak256(0x00, 0x20)\n      add\n      sload\n        /* \"BondMarketplace.sol\":7327:7344  bonds[bondIds[i]] */\n      dup2\n      mstore\n      0x20\n      add\n      swap1\n      dup2\n      mstore\n      0x20\n      add\n      0x00\n      keccak256\n        /* \"BondMarketplace.sol\":7310:7344  Bond storage b = bonds[bondIds[i]] */\n      swap1\n      pop\n        /* \"BondMarketplace.sol\":7368:7369  b */\n      dup1\n        /* \"BondMarketplace.sol\":7368:7372  b.id */\n      0x00\n      add\n      sload\n        /* \"BondMarketplace.sol\":7359:7362  ids */\n      dup12\n        /* \"BondMarketplace.sol\":7363:7364  i */\n      dup4\n        /* \"BondMarketplace.sol\":7359:7365  ids[i] */\n      dup2\n      mload\n      dup2\n      lt\n      tag_215\n      jumpi\n      tag_216\n      tag_161\n      jump\t// in\n    tag_216:\n    tag_215:\n      0x20\n      mul\n      0x20\n      add\n      add\n        /* \"BondMarketplace.sol\":7359:7372  ids[i] = b.id */\n      dup2\n      dup2\n      mstore\n      pop\n      pop\n        /* \"BondMarketplace.sol\":7406:7407  b */\n      dup1\n        /* \"BondMarketplace.sol\":7406:7420  b.organization */\n      0x01\n      add\n      0x00\n      swap1\n      sload\n      swap1\n      0x0100\n      exp\n      swap1\n      div\n      0xffffffffffffffffffffffffffffffffffffffff\n      and\n        /* \"BondMarketplace.sol\":7387:7400  organizations */\n      dup11\n        /* \"BondMarketplace.sol\":7401:7402  i */\n      dup4\n        /* \"BondMarketplace.sol\":7387:7403  organizations[i] */\n      dup2\n      mload\n      dup2\n      lt\n      tag_217\n      jumpi\n      tag_218\n      tag_161\n      jump\t// in\n    tag_218:\n    tag_217:\n      0x20\n      mul\n      0x20\n      add\n      add\n        /* \"BondMarketplace.sol\":7387:7420  organizations[i] = b.organization */\n      swap1\n      0xffffffffffffffffffffffffffffffffffffffff\n      and\n      swap1\n      dup2\n      0xffffffffffffffffffffffffffffffffffffffff\n      and\n      dup2\n      mstore\n      pop\n      pop\n        /* \"BondMarketplace.sol\":7446:7447  b */\n      dup1\n        /* \"BondMarketplace.sol\":7446:7452  b.name */\n      0x02\n      add\n        /* \"BondMarketplace.sol\":7435:7452  names[i] = b.name */\n      dup1\n      sload\n      tag_219\n      swap1\n      tag_65\n      jump\t// in\n    tag_219:\n      dup1\n      0x1f\n      add\n      0x20\n      dup1\n      swap2\n      div\n      mul\n      0x20\n      add\n      mload(0x40)\n      swap1\n      dup2\n      add\n      0x40\n      mstore\n      dup1\n      swap3\n      swap2\n      swap1\n      dup2\n      dup2\n      mstore\n      0x20\n      add\n      dup3\n      dup1\n      sload\n      tag_220\n      swap1\n      tag_65\n      jump\t// in\n    tag_220:\n      dup1\n      iszero\n      tag_221\n      jumpi\n      dup1\n      0x1f\n      lt\n      tag_222\n      jumpi\n      0x0100\n      dup1\n      dup4\n      sload\n      div\n      mul\n      dup4\n      mstore\n      swap2\n      0x20\n      add\n      swap2\n      jump(tag_221)\n    tag_222:\n      dup3\n      add\n      swap2\n      swap1\n      0x00\n      mstore\n      keccak256(0x00, 0x20)\n      swap1\n    tag_223:\n      dup2\n      sload\n      dup2\n      mstore\n      swap1\n      0x01\n      add\n      swap1\n      0x20\n      add\n      dup1\n      dup4\n      gt\n      tag_223\n      jumpi\n      dup3\n      swap1\n      sub\n      0x1f\n      and\n      dup3\n      add\n      swap2\n    tag_221:\n      pop\n      pop\n      pop\n      pop\n      pop\n        /* \"BondMarketplace.sol\":7435:7440  names */\n      dup10\n        /* \"BondMarketplace.sol\":7441:7442  i */\n      dup4\n        /* \"BondMarketplace.sol\":7435:7443  names[i] */\n      dup2\n      mload\n      dup2\n      lt\n      tag_224\n      jumpi\n      tag_225\n      tag_161\n      jump\t// in\n    tag_225:\n    tag_224:\n      0x20\n      mul\n      0x20\n      add\n      add\n        /* \"BondMarketplace.sol\":7435:7452  names[i] = b.name */\n      dup2\n      swap1\n      mstore\n      pop\n        /* \"BondMarketplace.sol\":7486:7487  b */\n      dup1\n        /* \"BondMarketplace.sol\":7486:7500  b.interestRate */\n      0x03\n      add\n      sload\n        /* \"BondMarketplace.sol\":7467:7480  interestRates */\n      dup9\n        /* \"BondMarketplace.sol\":7481:7482  i */\n      dup4\n        /* \"BondMarketplace.sol\":7467:7483  interestRates[i] */\n      dup2\n      mload\n      dup2\n      lt\n      tag_226\n      jumpi\n      tag_227\n      tag_161\n      jump\t// in\n    tag_227:\n    tag_226:\n      0x20\n      mul\n      0x20\n      add\n      add\n        /* \"BondMarketplace.sol\":7467:7500  interestRates[i] = b.interestRate */\n      dup2\n      dup2\n      mstore\n      pop\n      pop\n        /* \"BondMarketplace.sol\":7530:7531  b */\n      dup1\n        /* \"BondMarketplace.sol\":7530:7544  b.durationDays */\n      0x04\n      add\n      sload\n        /* \"BondMarketplace.sol\":7515:7524  durations */\n      dup8\n        /* \"BondMarketplace.sol\":7525:7526  i */\n      dup4\n        /* \"BondMarketplace.sol\":7515:7527  durations[i] */\n      dup2\n      mload\n      dup2\n      lt\n      tag_228\n      jumpi\n      tag_229\n      tag_161\n      jump\t// in\n    tag_229:\n    tag_228:\n      0x20\n      mul\n      0x20\n      add\n      add\n        /* \"BondMarketplace.sol\":7515:7544  durations[i] = b.durationDays */\n      dup2\n      dup2\n      mstore\n      pop\n      pop\n        /* \"BondMarketplace.sol\":7571:7572  b */\n      dup1\n        /* \"BondMarketplace.sol\":7571:7593  b.totalFundingRequired */\n      0x05\n      add\n      sload\n        /* \"BondMarketplace.sol\":7559:7565  totals */\n      dup7\n        /* \"BondMarketplace.sol\":7566:7567  i */\n      dup4\n        /* \"BondMarketplace.sol\":7559:7568  totals[i] */\n      dup2\n      mload\n      dup2\n      lt\n      tag_230\n      jumpi\n      tag_231\n      tag_161\n      jump\t// in\n    tag_231:\n    tag_230:\n      0x20\n      mul\n      0x20\n      add\n      add\n        /* \"BondMarketplace.sol\":7559:7593  totals[i] = b.totalFundingRequired */\n      dup2\n      dup2\n      mstore\n      pop\n      pop\n        /* \"BondMarketplace.sol\":7620:7621  b */\n      dup1\n        /* \"BondMarketplace.sol\":7620:7634  b.amountRaised */\n      0x06\n      add\n      sload\n        /* \"BondMarketplace.sol\":7608:7614  raised */\n      dup6\n        /* \"BondMarketplace.sol\":7615:7616  i */\n      dup4\n        /* \"BondMarketplace.sol\":7608:7617  raised[i] */\n      dup2\n      mload\n      dup2\n      lt\n      tag_232\n      jumpi\n      tag_233\n      tag_161\n      jump\t// in\n    tag_233:\n    tag_232:\n      0x20\n      mul\n      0x20\n      add\n      add\n        /* \"BondMarketplace.sol\":7608:7634  raised[i] = b.amountRaised */\n      dup2\n      dup2\n      mstore\n      pop\n      pop\n        /* \"BondMarketplace.sol\":7666:7667  b */\n      dup1\n        /* \"BondMarketplace.sol\":7666:7678  b.trustScore */\n      0x07\n      add\n      sload\n        /* \"BondMarketplace.sol\":7649:7660  trustScores */\n      dup5\n        /* \"BondMarketplace.sol\":7661:7662  i */\n      dup4\n        /* \"BondMarketplace.sol\":7649:7663  trustScores[i] */\n      dup2\n      mload\n      dup2\n      lt\n      tag_234\n      jumpi\n      tag_235\n      tag_161\n      jump\t// in\n    tag_235:\n    tag_234:\n      0x20\n      mul\n      0x20\n      add\n      add\n        /* \"BondMarketplace.sol\":7649:7678  trustScores[i] = b.trustScore */\n      dup2\n      dup2\n      mstore\n      pop\n      pop\n        /* \"BondMarketplace.sol\":7295:7690  {... */\n      pop\n        /* \"BondMarketplace.sol\":7290:7293  i++ */\n      dup1\n      dup1\n      0x01\n      add\n      swap2\n      pop\n      pop\n        /* \"BondMarketplace.sol\":7259:7690  for (uint256 i = 0; i < count; i++) {... */\n      jump(tag_209)\n    tag_210:\n      pop\n        /* \"BondMarketplace.sol\":6866:7697  {... */\n      pop\n        /* \"BondMarketplace.sol\":6456:7697  function getAllBonds()... */\n      swap1\n      swap2\n      swap3\n      swap4\n      swap5\n      swap6\n      swap7\n      swap8\n      jump\t// out\n        /* \"BondMarketplace.sol\":910:935  uint256 public nextBondId */\n    tag_57:\n      sload(0x00)\n      dup2\n      jump\t// out\n        /* \"#utility.yul\":88:205   */\n    tag_237:\n        /* \"#utility.yul\":197:198   */\n      0x00\n        /* \"#utility.yul\":194:195   */\n      0x00\n        /* \"#utility.yul\":187:199   */\n      revert\n        /* \"#utility.yul\":211:328   */\n    tag_238:\n        /* \"#utility.yul\":320:321   */\n      0x00\n        /* \"#utility.yul\":317:318   */\n      0x00\n        /* \"#utility.yul\":310:322   */\n      revert\n        /* \"#utility.yul\":334:411   */\n    tag_239:\n        /* \"#utility.yul\":371:378   */\n      0x00\n        /* \"#utility.yul\":400:405   */\n      dup2\n        /* \"#utility.yul\":389:405   */\n      swap1\n      pop\n        /* \"#utility.yul\":334:411   */\n      swap2\n      swap1\n      pop\n      jump\t// out\n        /* \"#utility.yul\":417:539   */\n    tag_240:\n        /* \"#utility.yul\":490:514   */\n      tag_327\n        /* \"#utility.yul\":508:513   */\n      dup2\n        /* \"#utility.yul\":490:514   */\n      tag_239\n      jump\t// in\n    tag_327:\n        /* \"#utility.yul\":483:488   */\n      dup2\n        /* \"#utility.yul\":480:515   */\n      eq\n        /* \"#utility.yul\":470:533   */\n      tag_328\n      jumpi\n        /* \"#utility.yul\":529:530   */\n      0x00\n        /* \"#utility.yul\":526:527   */\n      0x00\n        /* \"#utility.yul\":519:531   */\n      revert\n        /* \"#utility.yul\":470:533   */\n    tag_328:\n        /* \"#utility.yul\":417:539   */\n      pop\n      jump\t// out\n        /* \"#utility.yul\":545:684   */\n    tag_241:\n        /* \"#utility.yul\":591:596   */\n      0x00\n        /* \"#utility.yul\":629:635   */\n      dup2\n        /* \"#utility.yul\":616:636   */\n      calldataload\n        /* \"#utility.yul\":607:636   */\n      swap1\n      pop\n        /* \"#utility.yul\":645:678   */\n      tag_330\n        /* \"#utility.yul\":672:677   */\n      dup2\n        /* \"#utility.yul\":645:678   */\n      tag_240\n      jump\t// in\n    tag_330:\n        /* \"#utility.yul\":545:684   */\n      swap3\n      swap2\n      pop\n      pop\n      jump\t// out\n        /* \"#utility.yul\":690:1019   */\n    tag_15:\n        /* \"#utility.yul\":749:755   */\n      0x00\n        /* \"#utility.yul\":798:800   */\n      0x20\n        /* \"#utility.yul\":786:795   */\n      dup3\n        /* \"#utility.yul\":777:784   */\n      dup5\n        /* \"#utility.yul\":773:796   */\n      sub\n        /* \"#utility.yul\":769:801   */\n      slt\n        /* \"#utility.yul\":766:885   */\n      iszero\n      tag_332\n      jumpi\n        /* \"#utility.yul\":804:883   */\n      tag_333\n      tag_237\n      jump\t// in\n    tag_333:\n        /* \"#utility.yul\":766:885   */\n    tag_332:\n        /* \"#utility.yul\":924:925   */\n      0x00\n        /* \"#utility.yul\":949:1002   */\n      tag_334\n        /* \"#utility.yul\":994:1001   */\n      dup5\n        /* \"#utility.yul\":985:991   */\n      dup3\n        /* \"#utility.yul\":974:983   */\n      dup6\n        /* \"#utility.yul\":970:992   */\n      add\n        /* \"#utility.yul\":949:1002   */\n      tag_241\n      jump\t// in\n    tag_334:\n        /* \"#utility.yul\":939:1002   */\n      swap2\n      pop\n        /* \"#utility.yul\":895:1012   */\n      pop\n        /* \"#utility.yul\":690:1019   */\n      swap3\n      swap2\n      pop\n      pop\n      jump\t// out\n        /* \"#utility.yul\":1025:1143   */\n    tag_242:\n        /* \"#utility.yul\":1112:1136   */\n      tag_336\n        /* \"#utility.yul\":1130:1135   */\n      dup2\n        /* \"#utility.yul\":1112:1136   */\n      tag_239\n      jump\t// in\n    tag_336:\n        /* \"#utility.yul\":1107:1110   */\n      dup3\n        /* \"#utility.yul\":1100:1137   */\n      mstore\n        /* \"#utility.yul\":1025:1143   */\n      pop\n      pop\n      jump\t// out\n        /* \"#utility.yul\":1149:1275   */\n    tag_243:\n        /* \"#utility.yul\":1186:1193   */\n      0x00\n        /* \"#utility.yul\":1226:1268   */\n      0xffffffffffffffffffffffffffffffffffffffff\n        /* \"#utility.yul\":1219:1224   */\n      dup3\n        /* \"#utility.yul\":1215:1269   */\n      and\n        /* \"#utility.yul\":1204:1269   */\n      swap1\n      pop\n        /* \"#utility.yul\":1149:1275   */\n      swap2\n      swap1\n      pop\n      jump\t// out\n        /* \"#utility.yul\":1281:1377   */\n    tag_244:\n        /* \"#utility.yul\":1318:1325   */\n      0x00\n        /* \"#utility.yul\":1347:1371   */\n      tag_339\n        /* \"#utility.yul\":1365:1370   */\n      dup3\n        /* \"#utility.yul\":1347:1371   */\n      tag_243\n      jump\t// in\n    tag_339:\n        /* \"#utility.yul\":1336:1371   */\n      swap1\n      pop\n        /* \"#utility.yul\":1281:1377   */\n      swap2\n      swap1\n      pop\n      jump\t// out\n        /* \"#utility.yul\":1383:1501   */\n    tag_245:\n        /* \"#utility.yul\":1470:1494   */\n      tag_341\n        /* \"#utility.yul\":1488:1493   */\n      dup2\n        /* \"#utility.yul\":1470:1494   */\n      tag_244\n      jump\t// in\n    tag_341:\n        /* \"#utility.yul\":1465:1468   */\n      dup3\n        /* \"#utility.yul\":1458:1495   */\n      mstore\n        /* \"#utility.yul\":1383:1501   */\n      pop\n      pop\n      jump\t// out\n        /* \"#utility.yul\":1507:1606   */\n    tag_246:\n        /* \"#utility.yul\":1559:1565   */\n      0x00\n        /* \"#utility.yul\":1593:1598   */\n      dup2\n        /* \"#utility.yul\":1587:1599   */\n      mload\n        /* \"#utility.yul\":1577:1599   */\n      swap1\n      pop\n        /* \"#utility.yul\":1507:1606   */\n      swap2\n      swap1\n      pop\n      jump\t// out\n        /* \"#utility.yul\":1612:1781   */\n    tag_247:\n        /* \"#utility.yul\":1696:1707   */\n      0x00\n        /* \"#utility.yul\":1730:1736   */\n      dup3\n        /* \"#utility.yul\":1725:1728   */\n      dup3\n        /* \"#utility.yul\":1718:1737   */\n      mstore\n        /* \"#utility.yul\":1770:1774   */\n      0x20\n        /* \"#utility.yul\":1765:1768   */\n      dup3\n        /* \"#utility.yul\":1761:1775   */\n      add\n        /* \"#utility.yul\":1746:1775   */\n      swap1\n      pop\n        /* \"#utility.yul\":1612:1781   */\n      swap3\n      swap2\n      pop\n      pop\n      jump\t// out\n        /* \"#utility.yul\":1787:1926   */\n    tag_248:\n        /* \"#utility.yul\":1876:1882   */\n      dup3\n        /* \"#utility.yul\":1871:1874   */\n      dup2\n        /* \"#utility.yul\":1866:1869   */\n      dup4\n        /* \"#utility.yul\":1860:1883   */\n      mcopy\n        /* \"#utility.yul\":1917:1918   */\n      0x00\n        /* \"#utility.yul\":1908:1914   */\n      dup4\n        /* \"#utility.yul\":1903:1906   */\n      dup4\n        /* \"#utility.yul\":1899:1915   */\n      add\n        /* \"#utility.yul\":1892:1919   */\n      mstore\n        /* \"#utility.yul\":1787:1926   */\n      pop\n      pop\n      pop\n      jump\t// out\n        /* \"#utility.yul\":1932:2034   */\n    tag_249:\n        /* \"#utility.yul\":1973:1979   */\n      0x00\n        /* \"#utility.yul\":2024:2026   */\n      0x1f\n        /* \"#utility.yul\":2020:2027   */\n      not\n        /* \"#utility.yul\":2015:2017   */\n      0x1f\n        /* \"#utility.yul\":2008:2013   */\n      dup4\n        /* \"#utility.yul\":2004:2018   */\n      add\n        /* \"#utility.yul\":2000:2028   */\n      and\n        /* \"#utility.yul\":1990:2028   */\n      swap1\n      pop\n        /* \"#utility.yul\":1932:2034   */\n      swap2\n      swap1\n      pop\n      jump\t// out\n        /* \"#utility.yul\":2040:2417   */\n    tag_250:\n        /* \"#utility.yul\":2128:2131   */\n      0x00\n        /* \"#utility.yul\":2156:2195   */\n      tag_347\n        /* \"#utility.yul\":2189:2194   */\n      dup3\n        /* \"#utility.yul\":2156:2195   */\n      tag_246\n      jump\t// in\n    tag_347:\n        /* \"#utility.yul\":2211:2282   */\n      tag_348\n        /* \"#utility.yul\":2275:2281   */\n      dup2\n        /* \"#utility.yul\":2270:2273   */\n      dup6\n        /* \"#utility.yul\":2211:2282   */\n      tag_247\n      jump\t// in\n    tag_348:\n        /* \"#utility.yul\":2204:2282   */\n      swap4\n      pop\n        /* \"#utility.yul\":2291:2356   */\n      tag_349\n        /* \"#utility.yul\":2349:2355   */\n      dup2\n        /* \"#utility.yul\":2344:2347   */\n      dup6\n        /* \"#utility.yul\":2337:2341   */\n      0x20\n        /* \"#utility.yul\":2330:2335   */\n      dup7\n        /* \"#utility.yul\":2326:2342   */\n      add\n        /* \"#utility.yul\":2291:2356   */\n      tag_248\n      jump\t// in\n    tag_349:\n        /* \"#utility.yul\":2381:2410   */\n      tag_350\n        /* \"#utility.yul\":2403:2409   */\n      dup2\n        /* \"#utility.yul\":2381:2410   */\n      tag_249\n      jump\t// in\n    tag_350:\n        /* \"#utility.yul\":2376:2379   */\n      dup5\n        /* \"#utility.yul\":2372:2411   */\n      add\n        /* \"#utility.yul\":2365:2411   */\n      swap2\n      pop\n        /* \"#utility.yul\":2132:2417   */\n      pop\n        /* \"#utility.yul\":2040:2417   */\n      swap3\n      swap2\n      pop\n      pop\n      jump\t// out\n        /* \"#utility.yul\":2423:2547   */\n    tag_251:\n        /* \"#utility.yul\":2500:2506   */\n      0x00\n        /* \"#utility.yul\":2534:2539   */\n      dup2\n        /* \"#utility.yul\":2528:2540   */\n      mload\n        /* \"#utility.yul\":2518:2540   */\n      swap1\n      pop\n        /* \"#utility.yul\":2423:2547   */\n      swap2\n      swap1\n      pop\n      jump\t// out\n        /* \"#utility.yul\":2553:2747   */\n    tag_252:\n        /* \"#utility.yul\":2662:2673   */\n      0x00\n        /* \"#utility.yul\":2696:2702   */\n      dup3\n        /* \"#utility.yul\":2691:2694   */\n      dup3\n        /* \"#utility.yul\":2684:2703   */\n      mstore\n        /* \"#utility.yul\":2736:2740   */\n      0x20\n        /* \"#utility.yul\":2731:2734   */\n      dup3\n        /* \"#utility.yul\":2727:2741   */\n      add\n        /* \"#utility.yul\":2712:2741   */\n      swap1\n      pop\n        /* \"#utility.yul\":2553:2747   */\n      swap3\n      swap2\n      pop\n      pop\n      jump\t// out\n        /* \"#utility.yul\":2753:2895   */\n    tag_253:\n        /* \"#utility.yul\":2830:2834   */\n      0x00\n        /* \"#utility.yul\":2853:2856   */\n      dup2\n        /* \"#utility.yul\":2845:2856   */\n      swap1\n      pop\n        /* \"#utility.yul\":2883:2887   */\n      0x20\n        /* \"#utility.yul\":2878:2881   */\n      dup3\n        /* \"#utility.yul\":2874:2888   */\n      add\n        /* \"#utility.yul\":2866:2888   */\n      swap1\n      pop\n        /* \"#utility.yul\":2753:2895   */\n      swap2\n      swap1\n      pop\n      jump\t// out\n        /* \"#utility.yul\":2901:3060   */\n    tag_254:\n        /* \"#utility.yul\":2975:2986   */\n      0x00\n        /* \"#utility.yul\":3009:3015   */\n      dup3\n        /* \"#utility.yul\":3004:3007   */\n      dup3\n        /* \"#utility.yul\":2997:3016   */\n      mstore\n        /* \"#utility.yul\":3049:3053   */\n      0x20\n        /* \"#utility.yul\":3044:3047   */\n      dup3\n        /* \"#utility.yul\":3040:3054   */\n      add\n        /* \"#utility.yul\":3025:3054   */\n      swap1\n      pop\n        /* \"#utility.yul\":2901:3060   */\n      swap3\n      swap2\n      pop\n      pop\n      jump\t// out\n        /* \"#utility.yul\":3066:3423   */\n    tag_255:\n        /* \"#utility.yul\":3144:3147   */\n      0x00\n        /* \"#utility.yul\":3172:3211   */\n      tag_356\n        /* \"#utility.yul\":3205:3210   */\n      dup3\n        /* \"#utility.yul\":3172:3211   */\n      tag_246\n      jump\t// in\n    tag_356:\n        /* \"#utility.yul\":3227:3288   */\n      tag_357\n        /* \"#utility.yul\":3281:3287   */\n      dup2\n        /* \"#utility.yul\":3276:3279   */\n      dup6\n        /* \"#utility.yul\":3227:3288   */\n      tag_254\n      jump\t// in\n    tag_357:\n        /* \"#utility.yul\":3220:3288   */\n      swap4\n      pop\n        /* \"#utility.yul\":3297:3362   */\n      tag_358\n        /* \"#utility.yul\":3355:3361   */\n      dup2\n        /* \"#utility.yul\":3350:3353   */\n      dup6\n        /* \"#utility.yul\":3343:3347   */\n      0x20\n        /* \"#utility.yul\":3336:3341   */\n      dup7\n        /* \"#utility.yul\":3332:3348   */\n      add\n        /* \"#utility.yul\":3297:3362   */\n      tag_248\n      jump\t// in\n    tag_358:\n        /* \"#utility.yul\":3387:3416   */\n      tag_359\n        /* \"#utility.yul\":3409:3415   */\n      dup2\n        /* \"#utility.yul\":3387:3416   */\n      tag_249\n      jump\t// in\n    tag_359:\n        /* \"#utility.yul\":3382:3385   */\n      dup5\n        /* \"#utility.yul\":3378:3417   */\n      add\n        /* \"#utility.yul\":3371:3417   */\n      swap2\n      pop\n        /* \"#utility.yul\":3148:3423   */\n      pop\n        /* \"#utility.yul\":3066:3423   */\n      swap3\n      swap2\n      pop\n      pop\n      jump\t// out\n        /* \"#utility.yul\":3429:3625   */\n    tag_256:\n        /* \"#utility.yul\":3518:3528   */\n      0x00\n        /* \"#utility.yul\":3553:3619   */\n      tag_361\n        /* \"#utility.yul\":3615:3618   */\n      dup4\n        /* \"#utility.yul\":3607:3613   */\n      dup4\n        /* \"#utility.yul\":3553:3619   */\n      tag_255\n      jump\t// in\n    tag_361:\n        /* \"#utility.yul\":3539:3619   */\n      swap1\n      pop\n        /* \"#utility.yul\":3429:3625   */\n      swap3\n      swap2\n      pop\n      pop\n      jump\t// out\n        /* \"#utility.yul\":3631:3754   */\n    tag_257:\n        /* \"#utility.yul\":3711:3715   */\n      0x00\n        /* \"#utility.yul\":3743:3747   */\n      0x20\n        /* \"#utility.yul\":3738:3741   */\n      dup3\n        /* \"#utility.yul\":3734:3748   */\n      add\n        /* \"#utility.yul\":3726:3748   */\n      swap1\n      pop\n        /* \"#utility.yul\":3631:3754   */\n      swap2\n      swap1\n      pop\n      jump\t// out\n        /* \"#utility.yul\":3788:4779   */\n    tag_258:\n        /* \"#utility.yul\":3927:3930   */\n      0x00\n        /* \"#utility.yul\":3956:4020   */\n      tag_364\n        /* \"#utility.yul\":4014:4019   */\n      dup3\n        /* \"#utility.yul\":3956:4020   */\n      tag_251\n      jump\t// in\n    tag_364:\n        /* \"#utility.yul\":4036:4132   */\n      tag_365\n        /* \"#utility.yul\":4125:4131   */\n      dup2\n        /* \"#utility.yul\":4120:4123   */\n      dup6\n        /* \"#utility.yul\":4036:4132   */\n      tag_252\n      jump\t// in\n    tag_365:\n        /* \"#utility.yul\":4029:4132   */\n      swap4\n      pop\n        /* \"#utility.yul\":4158:4161   */\n      dup4\n        /* \"#utility.yul\":4203:4207   */\n      0x20\n        /* \"#utility.yul\":4195:4201   */\n      dup3\n        /* \"#utility.yul\":4191:4208   */\n      mul\n        /* \"#utility.yul\":4186:4189   */\n      dup6\n        /* \"#utility.yul\":4182:4209   */\n      add\n        /* \"#utility.yul\":4233:4299   */\n      tag_366\n        /* \"#utility.yul\":4293:4298   */\n      dup6\n        /* \"#utility.yul\":4233:4299   */\n      tag_253\n      jump\t// in\n    tag_366:\n        /* \"#utility.yul\":4322:4329   */\n      dup1\n        /* \"#utility.yul\":4353:4354   */\n      0x00\n        /* \"#utility.yul\":4338:4734   */\n    tag_367:\n        /* \"#utility.yul\":4363:4369   */\n      dup6\n        /* \"#utility.yul\":4360:4361   */\n      dup2\n        /* \"#utility.yul\":4357:4370   */\n      lt\n        /* \"#utility.yul\":4338:4734   */\n      iszero\n      tag_369\n      jumpi\n        /* \"#utility.yul\":4434:4443   */\n      dup5\n        /* \"#utility.yul\":4428:4432   */\n      dup5\n        /* \"#utility.yul\":4424:4444   */\n      sub\n        /* \"#utility.yul\":4419:4422   */\n      dup10\n        /* \"#utility.yul\":4412:4445   */\n      mstore\n        /* \"#utility.yul\":4485:4491   */\n      dup2\n        /* \"#utility.yul\":4479:4492   */\n      mload\n        /* \"#utility.yul\":4513:4597   */\n      tag_370\n        /* \"#utility.yul\":4592:4596   */\n      dup6\n        /* \"#utility.yul\":4577:4590   */\n      dup3\n        /* \"#utility.yul\":4513:4597   */\n      tag_256\n      jump\t// in\n    tag_370:\n        /* \"#utility.yul\":4505:4597   */\n      swap5\n      pop\n        /* \"#utility.yul\":4620:4690   */\n      tag_371\n        /* \"#utility.yul\":4683:4689   */\n      dup4\n        /* \"#utility.yul\":4620:4690   */\n      tag_257\n      jump\t// in\n    tag_371:\n        /* \"#utility.yul\":4610:4690   */\n      swap3\n      pop\n        /* \"#utility.yul\":4719:4723   */\n      0x20\n        /* \"#utility.yul\":4714:4717   */\n      dup11\n        /* \"#utility.yul\":4710:4724   */\n      add\n        /* \"#utility.yul\":4703:4724   */\n      swap10\n      pop\n        /* \"#utility.yul\":4398:4734   */\n      pop\n        /* \"#utility.yul\":4385:4386   */\n      0x01\n        /* \"#utility.yul\":4382:4383   */\n      dup2\n        /* \"#utility.yul\":4378:4387   */\n      add\n        /* \"#utility.yul\":4373:4387   */\n      swap1\n      pop\n        /* \"#utility.yul\":4338:4734   */\n      jump(tag_367)\n    tag_369:\n        /* \"#utility.yul\":4342:4356   */\n      pop\n        /* \"#utility.yul\":4750:4754   */\n      dup3\n        /* \"#utility.yul\":4743:4754   */\n      swap8\n      pop\n        /* \"#utility.yul\":4770:4773   */\n      dup8\n        /* \"#utility.yul\":4763:4773   */\n      swap6\n      pop\n        /* \"#utility.yul\":3932:4779   */\n      pop\n      pop\n      pop\n      pop\n      pop\n        /* \"#utility.yul\":3788:4779   */\n      swap3\n      swap2\n      pop\n      pop\n      jump\t// out\n        /* \"#utility.yul\":4785:6175   */\n    tag_18:\n        /* \"#utility.yul\":5192:5196   */\n      0x00\n        /* \"#utility.yul\":5230:5233   */\n      0x0120\n        /* \"#utility.yul\":5219:5228   */\n      dup3\n        /* \"#utility.yul\":5215:5234   */\n      add\n        /* \"#utility.yul\":5207:5234   */\n      swap1\n      pop\n        /* \"#utility.yul\":5244:5315   */\n      tag_373\n        /* \"#utility.yul\":5312:5313   */\n      0x00\n        /* \"#utility.yul\":5301:5310   */\n      dup4\n        /* \"#utility.yul\":5297:5314   */\n      add\n        /* \"#utility.yul\":5288:5294   */\n      dup13\n        /* \"#utility.yul\":5244:5315   */\n      tag_242\n      jump\t// in\n    tag_373:\n        /* \"#utility.yul\":5325:5397   */\n      tag_374\n        /* \"#utility.yul\":5393:5395   */\n      0x20\n        /* \"#utility.yul\":5382:5391   */\n      dup4\n        /* \"#utility.yul\":5378:5396   */\n      add\n        /* \"#utility.yul\":5369:5375   */\n      dup12\n        /* \"#utility.yul\":5325:5397   */\n      tag_245\n      jump\t// in\n    tag_374:\n        /* \"#utility.yul\":5444:5453   */\n      dup2\n        /* \"#utility.yul\":5438:5442   */\n      dup2\n        /* \"#utility.yul\":5434:5454   */\n      sub\n        /* \"#utility.yul\":5429:5431   */\n      0x40\n        /* \"#utility.yul\":5418:5427   */\n      dup4\n        /* \"#utility.yul\":5414:5432   */\n      add\n        /* \"#utility.yul\":5407:5455   */\n      mstore\n        /* \"#utility.yul\":5472:5550   */\n      tag_375\n        /* \"#utility.yul\":5545:5549   */\n      dup2\n        /* \"#utility.yul\":5536:5542   */\n      dup11\n        /* \"#utility.yul\":5472:5550   */\n      tag_250\n      jump\t// in\n    tag_375:\n        /* \"#utility.yul\":5464:5550   */\n      swap1\n      pop\n        /* \"#utility.yul\":5560:5632   */\n      tag_376\n        /* \"#utility.yul\":5628:5630   */\n      0x60\n        /* \"#utility.yul\":5617:5626   */\n      dup4\n        /* \"#utility.yul\":5613:5631   */\n      add\n        /* \"#utility.yul\":5604:5610   */\n      dup10\n        /* \"#utility.yul\":5560:5632   */\n      tag_242\n      jump\t// in\n    tag_376:\n        /* \"#utility.yul\":5642:5715   */\n      tag_377\n        /* \"#utility.yul\":5710:5713   */\n      0x80\n        /* \"#utility.yul\":5699:5708   */\n      dup4\n        /* \"#utility.yul\":5695:5714   */\n      add\n        /* \"#utility.yul\":5686:5692   */\n      dup9\n        /* \"#utility.yul\":5642:5715   */\n      tag_242\n      jump\t// in\n    tag_377:\n        /* \"#utility.yul\":5725:5798   */\n      tag_378\n        /* \"#utility.yul\":5793:5796   */\n      0xa0\n        /* \"#utility.yul\":5782:5791   */\n      dup4\n        /* \"#utility.yul\":5778:5797   */\n      add\n        /* \"#utility.yul\":5769:5775   */\n      dup8\n        /* \"#utility.yul\":5725:5798   */\n      tag_242\n      jump\t// in\n    tag_378:\n        /* \"#utility.yul\":5808:5881   */\n      tag_379\n        /* \"#utility.yul\":5876:5879   */\n      0xc0\n        /* \"#utility.yul\":5865:5874   */\n      dup4\n        /* \"#utility.yul\":5861:5880   */\n      add\n        /* \"#utility.yul\":5852:5858   */\n      dup7\n        /* \"#utility.yul\":5808:5881   */\n      tag_242\n      jump\t// in\n    tag_379:\n        /* \"#utility.yul\":5891:5964   */\n      tag_380\n        /* \"#utility.yul\":5959:5962   */\n      0xe0\n        /* \"#utility.yul\":5948:5957   */\n      dup4\n        /* \"#utility.yul\":5944:5963   */\n      add\n        /* \"#utility.yul\":5935:5941   */\n      dup6\n        /* \"#utility.yul\":5891:5964   */\n      tag_242\n      jump\t// in\n    tag_380:\n        /* \"#utility.yul\":6012:6021   */\n      dup2\n        /* \"#utility.yul\":6006:6010   */\n      dup2\n        /* \"#utility.yul\":6002:6022   */\n      sub\n        /* \"#utility.yul\":5996:5999   */\n      0x0100\n        /* \"#utility.yul\":5985:5994   */\n      dup4\n        /* \"#utility.yul\":5981:6000   */\n      add\n        /* \"#utility.yul\":5974:6023   */\n      mstore\n        /* \"#utility.yul\":6040:6168   */\n      tag_381\n        /* \"#utility.yul\":6163:6167   */\n      dup2\n        /* \"#utility.yul\":6154:6160   */\n      dup5\n        /* \"#utility.yul\":6040:6168   */\n      tag_258\n      jump\t// in\n    tag_381:\n        /* \"#utility.yul\":6032:6168   */\n      swap1\n      pop\n        /* \"#utility.yul\":4785:6175   */\n      swap11\n      swap10\n      pop\n      pop\n      pop\n      pop\n      pop\n      pop\n      pop\n      pop\n      pop\n      pop\n      jump\t// out\n        /* \"#utility.yul\":6181:6403   */\n    tag_24:\n        /* \"#utility.yul\":6274:6278   */\n      0x00\n        /* \"#utility.yul\":6312:6314   */\n      0x20\n        /* \"#utility.yul\":6301:6310   */\n      dup3\n        /* \"#utility.yul\":6297:6315   */\n      add\n        /* \"#utility.yul\":6289:6315   */\n      swap1\n      pop\n        /* \"#utility.yul\":6325:6396   */\n      tag_383\n        /* \"#utility.yul\":6393:6394   */\n      0x00\n        /* \"#utility.yul\":6382:6391   */\n      dup4\n        /* \"#utility.yul\":6378:6395   */\n      add\n        /* \"#utility.yul\":6369:6375   */\n      dup5\n        /* \"#utility.yul\":6325:6396   */\n      tag_242\n      jump\t// in\n    tag_383:\n        /* \"#utility.yul\":6181:6403   */\n      swap3\n      swap2\n      pop\n      pop\n      jump\t// out\n        /* \"#utility.yul\":6409:6526   */\n    tag_259:\n        /* \"#utility.yul\":6518:6519   */\n      0x00\n        /* \"#utility.yul\":6515:6516   */\n      0x00\n        /* \"#utility.yul\":6508:6520   */\n      revert\n        /* \"#utility.yul\":6532:6649   */\n    tag_260:\n        /* \"#utility.yul\":6641:6642   */\n      0x00\n        /* \"#utility.yul\":6638:6639   */\n      0x00\n        /* \"#utility.yul\":6631:6643   */\n      revert\n        /* \"#utility.yul\":6655:6772   */\n    tag_261:\n        /* \"#utility.yul\":6764:6765   */\n      0x00\n        /* \"#utility.yul\":6761:6762   */\n      0x00\n        /* \"#utility.yul\":6754:6766   */\n      revert\n        /* \"#utility.yul\":6792:7345   */\n    tag_262:\n        /* \"#utility.yul\":6850:6858   */\n      0x00\n        /* \"#utility.yul\":6860:6866   */\n      0x00\n        /* \"#utility.yul\":6910:6913   */\n      dup4\n        /* \"#utility.yul\":6903:6907   */\n      0x1f\n        /* \"#utility.yul\":6895:6901   */\n      dup5\n        /* \"#utility.yul\":6891:6908   */\n      add\n        /* \"#utility.yul\":6887:6914   */\n      slt\n        /* \"#utility.yul\":6877:6999   */\n      tag_388\n      jumpi\n        /* \"#utility.yul\":6918:6997   */\n      tag_389\n      tag_259\n      jump\t// in\n    tag_389:\n        /* \"#utility.yul\":6877:6999   */\n    tag_388:\n        /* \"#utility.yul\":7031:7037   */\n      dup3\n        /* \"#utility.yul\":7018:7038   */\n      calldataload\n        /* \"#utility.yul\":7008:7038   */\n      swap1\n      pop\n        /* \"#utility.yul\":7061:7079   */\n      0xffffffffffffffff\n        /* \"#utility.yul\":7053:7059   */\n      dup2\n        /* \"#utility.yul\":7050:7080   */\n      gt\n        /* \"#utility.yul\":7047:7164   */\n      iszero\n      tag_390\n      jumpi\n        /* \"#utility.yul\":7083:7162   */\n      tag_391\n      tag_260\n      jump\t// in\n    tag_391:\n        /* \"#utility.yul\":7047:7164   */\n    tag_390:\n        /* \"#utility.yul\":7197:7201   */\n      0x20\n        /* \"#utility.yul\":7189:7195   */\n      dup4\n        /* \"#utility.yul\":7185:7202   */\n      add\n        /* \"#utility.yul\":7173:7202   */\n      swap2\n      pop\n        /* \"#utility.yul\":7251:7254   */\n      dup4\n        /* \"#utility.yul\":7243:7247   */\n      0x01\n        /* \"#utility.yul\":7235:7241   */\n      dup3\n        /* \"#utility.yul\":7231:7248   */\n      mul\n        /* \"#utility.yul\":7221:7229   */\n      dup4\n        /* \"#utility.yul\":7217:7249   */\n      add\n        /* \"#utility.yul\":7214:7255   */\n      gt\n        /* \"#utility.yul\":7211:7339   */\n      iszero\n      tag_392\n      jumpi\n        /* \"#utility.yul\":7258:7337   */\n      tag_393\n      tag_261\n      jump\t// in\n    tag_393:\n        /* \"#utility.yul\":7211:7339   */\n    tag_392:\n        /* \"#utility.yul\":6792:7345   */\n      swap3\n      pop\n      swap3\n      swap1\n      pop\n      jump\t// out\n        /* \"#utility.yul\":7351:8316   */\n    tag_33:\n        /* \"#utility.yul\":7449:7455   */\n      0x00\n        /* \"#utility.yul\":7457:7463   */\n      0x00\n        /* \"#utility.yul\":7465:7471   */\n      0x00\n        /* \"#utility.yul\":7473:7479   */\n      0x00\n        /* \"#utility.yul\":7481:7487   */\n      0x00\n        /* \"#utility.yul\":7530:7533   */\n      0x80\n        /* \"#utility.yul\":7518:7527   */\n      dup7\n        /* \"#utility.yul\":7509:7516   */\n      dup9\n        /* \"#utility.yul\":7505:7528   */\n      sub\n        /* \"#utility.yul\":7501:7534   */\n      slt\n        /* \"#utility.yul\":7498:7618   */\n      iszero\n      tag_395\n      jumpi\n        /* \"#utility.yul\":7537:7616   */\n      tag_396\n      tag_237\n      jump\t// in\n    tag_396:\n        /* \"#utility.yul\":7498:7618   */\n    tag_395:\n        /* \"#utility.yul\":7685:7686   */\n      0x00\n        /* \"#utility.yul\":7674:7683   */\n      dup7\n        /* \"#utility.yul\":7670:7687   */\n      add\n        /* \"#utility.yul\":7657:7688   */\n      calldataload\n        /* \"#utility.yul\":7715:7733   */\n      0xffffffffffffffff\n        /* \"#utility.yul\":7707:7713   */\n      dup2\n        /* \"#utility.yul\":7704:7734   */\n      gt\n        /* \"#utility.yul\":7701:7818   */\n      iszero\n      tag_397\n      jumpi\n        /* \"#utility.yul\":7737:7816   */\n      tag_398\n      tag_238\n      jump\t// in\n    tag_398:\n        /* \"#utility.yul\":7701:7818   */\n    tag_397:\n        /* \"#utility.yul\":7850:7915   */\n      tag_399\n        /* \"#utility.yul\":7907:7914   */\n      dup9\n        /* \"#utility.yul\":7898:7904   */\n      dup3\n        /* \"#utility.yul\":7887:7896   */\n      dup10\n        /* \"#utility.yul\":7883:7905   */\n      add\n        /* \"#utility.yul\":7850:7915   */\n      tag_262\n      jump\t// in\n    tag_399:\n        /* \"#utility.yul\":7832:7915   */\n      swap6\n      pop\n      swap6\n      pop\n        /* \"#utility.yul\":7628:7925   */\n      pop\n        /* \"#utility.yul\":7964:7966   */\n      0x20\n        /* \"#utility.yul\":7990:8043   */\n      tag_400\n        /* \"#utility.yul\":8035:8042   */\n      dup9\n        /* \"#utility.yul\":8026:8032   */\n      dup3\n        /* \"#utility.yul\":8015:8024   */\n      dup10\n        /* \"#utility.yul\":8011:8033   */\n      add\n        /* \"#utility.yul\":7990:8043   */\n      tag_241\n      jump\t// in\n    tag_400:\n        /* \"#utility.yul\":7980:8043   */\n      swap4\n      pop\n        /* \"#utility.yul\":7935:8053   */\n      pop\n        /* \"#utility.yul\":8092:8094   */\n      0x40\n        /* \"#utility.yul\":8118:8171   */\n      tag_401\n        /* \"#utility.yul\":8163:8170   */\n      dup9\n        /* \"#utility.yul\":8154:8160   */\n      dup3\n        /* \"#utility.yul\":8143:8152   */\n      dup10\n        /* \"#utility.yul\":8139:8161   */\n      add\n        /* \"#utility.yul\":8118:8171   */\n      tag_241\n      jump\t// in\n    tag_401:\n        /* \"#utility.yul\":8108:8171   */\n      swap3\n      pop\n        /* \"#utility.yul\":8063:8181   */\n      pop\n        /* \"#utility.yul\":8220:8222   */\n      0x60\n        /* \"#utility.yul\":8246:8299   */\n      tag_402\n        /* \"#utility.yul\":8291:8298   */\n      dup9\n        /* \"#utility.yul\":8282:8288   */\n      dup3\n        /* \"#utility.yul\":8271:8280   */\n      dup10\n        /* \"#utility.yul\":8267:8289   */\n      add\n        /* \"#utility.yul\":8246:8299   */\n      tag_241\n      jump\t// in\n    tag_402:\n        /* \"#utility.yul\":8236:8299   */\n      swap2\n      pop\n        /* \"#utility.yul\":8191:8309   */\n      pop\n        /* \"#utility.yul\":7351:8316   */\n      swap3\n      swap6\n      pop\n      swap3\n      swap6\n      swap1\n      swap4\n      pop\n      jump\t// out\n        /* \"#utility.yul\":8322:8444   */\n    tag_263:\n        /* \"#utility.yul\":8395:8419   */\n      tag_404\n        /* \"#utility.yul\":8413:8418   */\n      dup2\n        /* \"#utility.yul\":8395:8419   */\n      tag_244\n      jump\t// in\n    tag_404:\n        /* \"#utility.yul\":8388:8393   */\n      dup2\n        /* \"#utility.yul\":8385:8420   */\n      eq\n        /* \"#utility.yul\":8375:8438   */\n      tag_405\n      jumpi\n        /* \"#utility.yul\":8434:8435   */\n      0x00\n        /* \"#utility.yul\":8431:8432   */\n      0x00\n        /* \"#utility.yul\":8424:8436   */\n      revert\n        /* \"#utility.yul\":8375:8438   */\n    tag_405:\n        /* \"#utility.yul\":8322:8444   */\n      pop\n      jump\t// out\n        /* \"#utility.yul\":8450:8589   */\n    tag_264:\n        /* \"#utility.yul\":8496:8501   */\n      0x00\n        /* \"#utility.yul\":8534:8540   */\n      dup2\n        /* \"#utility.yul\":8521:8541   */\n      calldataload\n        /* \"#utility.yul\":8512:8541   */\n      swap1\n      pop\n        /* \"#utility.yul\":8550:8583   */\n      tag_407\n        /* \"#utility.yul\":8577:8582   */\n      dup2\n        /* \"#utility.yul\":8550:8583   */\n      tag_263\n      jump\t// in\n    tag_407:\n        /* \"#utility.yul\":8450:8589   */\n      swap3\n      swap2\n      pop\n      pop\n      jump\t// out\n        /* \"#utility.yul\":8595:8924   */\n    tag_41:\n        /* \"#utility.yul\":8654:8660   */\n      0x00\n        /* \"#utility.yul\":8703:8705   */\n      0x20\n        /* \"#utility.yul\":8691:8700   */\n      dup3\n        /* \"#utility.yul\":8682:8689   */\n      dup5\n        /* \"#utility.yul\":8678:8701   */\n      sub\n        /* \"#utility.yul\":8674:8706   */\n      slt\n        /* \"#utility.yul\":8671:8790   */\n      iszero\n      tag_409\n      jumpi\n        /* \"#utility.yul\":8709:8788   */\n      tag_410\n      tag_237\n      jump\t// in\n    tag_410:\n        /* \"#utility.yul\":8671:8790   */\n    tag_409:\n        /* \"#utility.yul\":8829:8830   */\n      0x00\n        /* \"#utility.yul\":8854:8907   */\n      tag_411\n        /* \"#utility.yul\":8899:8906   */\n      dup5\n        /* \"#utility.yul\":8890:8896   */\n      dup3\n        /* \"#utility.yul\":8879:8888   */\n      dup6\n        /* \"#utility.yul\":8875:8897   */\n      add\n        /* \"#utility.yul\":8854:8907   */\n      tag_264\n      jump\t// in\n    tag_411:\n        /* \"#utility.yul\":8844:8907   */\n      swap2\n      pop\n        /* \"#utility.yul\":8800:8917   */\n      pop\n        /* \"#utility.yul\":8595:8924   */\n      swap3\n      swap2\n      pop\n      pop\n      jump\t// out\n        /* \"#utility.yul\":8930:9044   */\n    tag_265:\n        /* \"#utility.yul\":8997:9003   */\n      0x00\n        /* \"#utility.yul\":9031:9036   */\n      dup2\n        /* \"#utility.yul\":9025:9037   */\n      mload\n        /* \"#utility.yul\":9015:9037   */\n      swap1\n      pop\n        /* \"#utility.yul\":8930:9044   */\n      swap2\n      swap1\n      pop\n      jump\t// out\n        /* \"#utility.yul\":9050:9234   */\n    tag_266:\n        /* \"#utility.yul\":9149:9160   */\n      0x00\n        /* \"#utility.yul\":9183:9189   */\n      dup3\n        /* \"#utility.yul\":9178:9181   */\n      dup3\n        /* \"#utility.yul\":9171:9190   */\n      mstore\n        /* \"#utility.yul\":9223:9227   */\n      0x20\n        /* \"#utility.yul\":9218:9221   */\n      dup3\n        /* \"#utility.yul\":9214:9228   */\n      add\n        /* \"#utility.yul\":9199:9228   */\n      swap1\n      pop\n        /* \"#utility.yul\":9050:9234   */\n      swap3\n      swap2\n      pop\n      pop\n      jump\t// out\n        /* \"#utility.yul\":9240:9372   */\n    tag_267:\n        /* \"#utility.yul\":9307:9311   */\n      0x00\n        /* \"#utility.yul\":9330:9333   */\n      dup2\n        /* \"#utility.yul\":9322:9333   */\n      swap1\n      pop\n        /* \"#utility.yul\":9360:9364   */\n      0x20\n        /* \"#utility.yul\":9355:9358   */\n      dup3\n        /* \"#utility.yul\":9351:9365   */\n      add\n        /* \"#utility.yul\":9343:9365   */\n      swap1\n      pop\n        /* \"#utility.yul\":9240:9372   */\n      swap2\n      swap1\n      pop\n      jump\t// out\n        /* \"#utility.yul\":9378:9486   */\n    tag_268:\n        /* \"#utility.yul\":9455:9479   */\n      tag_416\n        /* \"#utility.yul\":9473:9478   */\n      dup2\n        /* \"#utility.yul\":9455:9479   */\n      tag_239\n      jump\t// in\n    tag_416:\n        /* \"#utility.yul\":9450:9453   */\n      dup3\n        /* \"#utility.yul\":9443:9480   */\n      mstore\n        /* \"#utility.yul\":9378:9486   */\n      pop\n      pop\n      jump\t// out\n        /* \"#utility.yul\":9492:9671   */\n    tag_269:\n        /* \"#utility.yul\":9561:9571   */\n      0x00\n        /* \"#utility.yul\":9582:9628   */\n      tag_418\n        /* \"#utility.yul\":9624:9627   */\n      dup4\n        /* \"#utility.yul\":9616:9622   */\n      dup4\n        /* \"#utility.yul\":9582:9628   */\n      tag_268\n      jump\t// in\n    tag_418:\n        /* \"#utility.yul\":9660:9664   */\n      0x20\n        /* \"#utility.yul\":9655:9658   */\n      dup4\n        /* \"#utility.yul\":9651:9665   */\n      add\n        /* \"#utility.yul\":9637:9665   */\n      swap1\n      pop\n        /* \"#utility.yul\":9492:9671   */\n      swap3\n      swap2\n      pop\n      pop\n      jump\t// out\n        /* \"#utility.yul\":9677:9790   */\n    tag_270:\n        /* \"#utility.yul\":9747:9751   */\n      0x00\n        /* \"#utility.yul\":9779:9783   */\n      0x20\n        /* \"#utility.yul\":9774:9777   */\n      dup3\n        /* \"#utility.yul\":9770:9784   */\n      add\n        /* \"#utility.yul\":9762:9784   */\n      swap1\n      pop\n        /* \"#utility.yul\":9677:9790   */\n      swap2\n      swap1\n      pop\n      jump\t// out\n        /* \"#utility.yul\":9826:10558   */\n    tag_271:\n        /* \"#utility.yul\":9945:9948   */\n      0x00\n        /* \"#utility.yul\":9974:10028   */\n      tag_421\n        /* \"#utility.yul\":10022:10027   */\n      dup3\n        /* \"#utility.yul\":9974:10028   */\n      tag_265\n      jump\t// in\n    tag_421:\n        /* \"#utility.yul\":10044:10130   */\n      tag_422\n        /* \"#utility.yul\":10123:10129   */\n      dup2\n        /* \"#utility.yul\":10118:10121   */\n      dup6\n        /* \"#utility.yul\":10044:10130   */\n      tag_266\n      jump\t// in\n    tag_422:\n        /* \"#utility.yul\":10037:10130   */\n      swap4\n      pop\n        /* \"#utility.yul\":10154:10210   */\n      tag_423\n        /* \"#utility.yul\":10204:10209   */\n      dup4\n        /* \"#utility.yul\":10154:10210   */\n      tag_267\n      jump\t// in\n    tag_423:\n        /* \"#utility.yul\":10233:10240   */\n      dup1\n        /* \"#utility.yul\":10264:10265   */\n      0x00\n        /* \"#utility.yul\":10249:10533   */\n    tag_424:\n        /* \"#utility.yul\":10274:10280   */\n      dup4\n        /* \"#utility.yul\":10271:10272   */\n      dup2\n        /* \"#utility.yul\":10268:10281   */\n      lt\n        /* \"#utility.yul\":10249:10533   */\n      iszero\n      tag_426\n      jumpi\n        /* \"#utility.yul\":10350:10356   */\n      dup2\n        /* \"#utility.yul\":10344:10357   */\n      mload\n        /* \"#utility.yul\":10377:10440   */\n      tag_427\n        /* \"#utility.yul\":10436:10439   */\n      dup9\n        /* \"#utility.yul\":10421:10434   */\n      dup3\n        /* \"#utility.yul\":10377:10440   */\n      tag_269\n      jump\t// in\n    tag_427:\n        /* \"#utility.yul\":10370:10440   */\n      swap8\n      pop\n        /* \"#utility.yul\":10463:10523   */\n      tag_428\n        /* \"#utility.yul\":10516:10522   */\n      dup4\n        /* \"#utility.yul\":10463:10523   */\n      tag_270\n      jump\t// in\n    tag_428:\n        /* \"#utility.yul\":10453:10523   */\n      swap3\n      pop\n        /* \"#utility.yul\":10309:10533   */\n      pop\n        /* \"#utility.yul\":10296:10297   */\n      0x01\n        /* \"#utility.yul\":10293:10294   */\n      dup2\n        /* \"#utility.yul\":10289:10298   */\n      add\n        /* \"#utility.yul\":10284:10298   */\n      swap1\n      pop\n        /* \"#utility.yul\":10249:10533   */\n      jump(tag_424)\n    tag_426:\n        /* \"#utility.yul\":10253:10267   */\n      pop\n        /* \"#utility.yul\":10549:10552   */\n      dup6\n        /* \"#utility.yul\":10542:10552   */\n      swap4\n      pop\n        /* \"#utility.yul\":9950:10558   */\n      pop\n      pop\n      pop\n        /* \"#utility.yul\":9826:10558   */\n      swap3\n      swap2\n      pop\n      pop\n      jump\t// out\n        /* \"#utility.yul\":10564:11198   */\n    tag_44:\n        /* \"#utility.yul\":10785:10789   */\n      0x00\n        /* \"#utility.yul\":10823:10825   */\n      0x40\n        /* \"#utility.yul\":10812:10821   */\n      dup3\n        /* \"#utility.yul\":10808:10826   */\n      add\n        /* \"#utility.yul\":10800:10826   */\n      swap1\n      pop\n        /* \"#utility.yul\":10872:10881   */\n      dup2\n        /* \"#utility.yul\":10866:10870   */\n      dup2\n        /* \"#utility.yul\":10862:10882   */\n      sub\n        /* \"#utility.yul\":10858:10859   */\n      0x00\n        /* \"#utility.yul\":10847:10856   */\n      dup4\n        /* \"#utility.yul\":10843:10860   */\n      add\n        /* \"#utility.yul\":10836:10883   */\n      mstore\n        /* \"#utility.yul\":10900:11008   */\n      tag_430\n        /* \"#utility.yul\":11003:11007   */\n      dup2\n        /* \"#utility.yul\":10994:11000   */\n      dup6\n        /* \"#utility.yul\":10900:11008   */\n      tag_271\n      jump\t// in\n    tag_430:\n        /* \"#utility.yul\":10892:11008   */\n      swap1\n      pop\n        /* \"#utility.yul\":11055:11064   */\n      dup2\n        /* \"#utility.yul\":11049:11053   */\n      dup2\n        /* \"#utility.yul\":11045:11065   */\n      sub\n        /* \"#utility.yul\":11040:11042   */\n      0x20\n        /* \"#utility.yul\":11029:11038   */\n      dup4\n        /* \"#utility.yul\":11025:11043   */\n      add\n        /* \"#utility.yul\":11018:11066   */\n      mstore\n        /* \"#utility.yul\":11083:11191   */\n      tag_431\n        /* \"#utility.yul\":11186:11190   */\n      dup2\n        /* \"#utility.yul\":11177:11183   */\n      dup5\n        /* \"#utility.yul\":11083:11191   */\n      tag_271\n      jump\t// in\n    tag_431:\n        /* \"#utility.yul\":11075:11191   */\n      swap1\n      pop\n        /* \"#utility.yul\":10564:11198   */\n      swap4\n      swap3\n      pop\n      pop\n      pop\n      jump\t// out\n        /* \"#utility.yul\":11204:11878   */\n    tag_48:\n        /* \"#utility.yul\":11284:11290   */\n      0x00\n        /* \"#utility.yul\":11292:11298   */\n      0x00\n        /* \"#utility.yul\":11300:11306   */\n      0x00\n        /* \"#utility.yul\":11349:11351   */\n      0x40\n        /* \"#utility.yul\":11337:11346   */\n      dup5\n        /* \"#utility.yul\":11328:11335   */\n      dup7\n        /* \"#utility.yul\":11324:11347   */\n      sub\n        /* \"#utility.yul\":11320:11352   */\n      slt\n        /* \"#utility.yul\":11317:11436   */\n      iszero\n      tag_433\n      jumpi\n        /* \"#utility.yul\":11355:11434   */\n      tag_434\n      tag_237\n      jump\t// in\n    tag_434:\n        /* \"#utility.yul\":11317:11436   */\n    tag_433:\n        /* \"#utility.yul\":11475:11476   */\n      0x00\n        /* \"#utility.yul\":11500:11553   */\n      tag_435\n        /* \"#utility.yul\":11545:11552   */\n      dup7\n        /* \"#utility.yul\":11536:11542   */\n      dup3\n        /* \"#utility.yul\":11525:11534   */\n      dup8\n        /* \"#utility.yul\":11521:11543   */\n      add\n        /* \"#utility.yul\":11500:11553   */\n      tag_241\n      jump\t// in\n    tag_435:\n        /* \"#utility.yul\":11490:11553   */\n      swap4\n      pop\n        /* \"#utility.yul\":11446:11563   */\n      pop\n        /* \"#utility.yul\":11630:11632   */\n      0x20\n        /* \"#utility.yul\":11619:11628   */\n      dup5\n        /* \"#utility.yul\":11615:11633   */\n      add\n        /* \"#utility.yul\":11602:11634   */\n      calldataload\n        /* \"#utility.yul\":11661:11679   */\n      0xffffffffffffffff\n        /* \"#utility.yul\":11653:11659   */\n      dup2\n        /* \"#utility.yul\":11650:11680   */\n      gt\n        /* \"#utility.yul\":11647:11764   */\n      iszero\n      tag_436\n      jumpi\n        /* \"#utility.yul\":11683:11762   */\n      tag_437\n      tag_238\n      jump\t// in\n    tag_437:\n        /* \"#utility.yul\":11647:11764   */\n    tag_436:\n        /* \"#utility.yul\":11796:11861   */\n      tag_438\n        /* \"#utility.yul\":11853:11860   */\n      dup7\n        /* \"#utility.yul\":11844:11850   */\n      dup3\n        /* \"#utility.yul\":11833:11842   */\n      dup8\n        /* \"#utility.yul\":11829:11851   */\n      add\n        /* \"#utility.yul\":11796:11861   */\n      tag_262\n      jump\t// in\n    tag_438:\n        /* \"#utility.yul\":11778:11861   */\n      swap3\n      pop\n      swap3\n      pop\n        /* \"#utility.yul\":11573:11871   */\n      pop\n        /* \"#utility.yul\":11204:11878   */\n      swap3\n      pop\n      swap3\n      pop\n      swap3\n      jump\t// out\n        /* \"#utility.yul\":11884:11998   */\n    tag_272:\n        /* \"#utility.yul\":11951:11957   */\n      0x00\n        /* \"#utility.yul\":11985:11990   */\n      dup2\n        /* \"#utility.yul\":11979:11991   */\n      mload\n        /* \"#utility.yul\":11969:11991   */\n      swap1\n      pop\n        /* \"#utility.yul\":11884:11998   */\n      swap2\n      swap1\n      pop\n      jump\t// out\n        /* \"#utility.yul\":12004:12188   */\n    tag_273:\n        /* \"#utility.yul\":12103:12114   */\n      0x00\n        /* \"#utility.yul\":12137:12143   */\n      dup3\n        /* \"#utility.yul\":12132:12135   */\n      dup3\n        /* \"#utility.yul\":12125:12144   */\n      mstore\n        /* \"#utility.yul\":12177:12181   */\n      0x20\n        /* \"#utility.yul\":12172:12175   */\n      dup3\n        /* \"#utility.yul\":12168:12182   */\n      add\n        /* \"#utility.yul\":12153:12182   */\n      swap1\n      pop\n        /* \"#utility.yul\":12004:12188   */\n      swap3\n      swap2\n      pop\n      pop\n      jump\t// out\n        /* \"#utility.yul\":12194:12326   */\n    tag_274:\n        /* \"#utility.yul\":12261:12265   */\n      0x00\n        /* \"#utility.yul\":12284:12287   */\n      dup2\n        /* \"#utility.yul\":12276:12287   */\n      swap1\n      pop\n        /* \"#utility.yul\":12314:12318   */\n      0x20\n        /* \"#utility.yul\":12309:12312   */\n      dup3\n        /* \"#utility.yul\":12305:12319   */\n      add\n        /* \"#utility.yul\":12297:12319   */\n      swap1\n      pop\n        /* \"#utility.yul\":12194:12326   */\n      swap2\n      swap1\n      pop\n      jump\t// out\n        /* \"#utility.yul\":12332:12440   */\n    tag_275:\n        /* \"#utility.yul\":12409:12433   */\n      tag_443\n        /* \"#utility.yul\":12427:12432   */\n      dup2\n        /* \"#utility.yul\":12409:12433   */\n      tag_244\n      jump\t// in\n    tag_443:\n        /* \"#utility.yul\":12404:12407   */\n      dup3\n        /* \"#utility.yul\":12397:12434   */\n      mstore\n        /* \"#utility.yul\":12332:12440   */\n      pop\n      pop\n      jump\t// out\n        /* \"#utility.yul\":12446:12625   */\n    tag_276:\n        /* \"#utility.yul\":12515:12525   */\n      0x00\n        /* \"#utility.yul\":12536:12582   */\n      tag_445\n        /* \"#utility.yul\":12578:12581   */\n      dup4\n        /* \"#utility.yul\":12570:12576   */\n      dup4\n        /* \"#utility.yul\":12536:12582   */\n      tag_275\n      jump\t// in\n    tag_445:\n        /* \"#utility.yul\":12614:12618   */\n      0x20\n        /* \"#utility.yul\":12609:12612   */\n      dup4\n        /* \"#utility.yul\":12605:12619   */\n      add\n        /* \"#utility.yul\":12591:12619   */\n      swap1\n      pop\n        /* \"#utility.yul\":12446:12625   */\n      swap3\n      swap2\n      pop\n      pop\n      jump\t// out\n        /* \"#utility.yul\":12631:12744   */\n    tag_277:\n        /* \"#utility.yul\":12701:12705   */\n      0x00\n        /* \"#utility.yul\":12733:12737   */\n      0x20\n        /* \"#utility.yul\":12728:12731   */\n      dup3\n        /* \"#utility.yul\":12724:12738   */\n      add\n        /* \"#utility.yul\":12716:12738   */\n      swap1\n      pop\n        /* \"#utility.yul\":12631:12744   */\n      swap2\n      swap1\n      pop\n      jump\t// out\n        /* \"#utility.yul\":12780:13512   */\n    tag_278:\n        /* \"#utility.yul\":12899:12902   */\n      0x00\n        /* \"#utility.yul\":12928:12982   */\n      tag_448\n        /* \"#utility.yul\":12976:12981   */\n      dup3\n        /* \"#utility.yul\":12928:12982   */\n      tag_272\n      jump\t// in\n    tag_448:\n        /* \"#utility.yul\":12998:13084   */\n      tag_449\n        /* \"#utility.yul\":13077:13083   */\n      dup2\n        /* \"#utility.yul\":13072:13075   */\n      dup6\n        /* \"#utility.yul\":12998:13084   */\n      tag_273\n      jump\t// in\n    tag_449:\n        /* \"#utility.yul\":12991:13084   */\n      swap4\n      pop\n        /* \"#utility.yul\":13108:13164   */\n      tag_450\n        /* \"#utility.yul\":13158:13163   */\n      dup4\n        /* \"#utility.yul\":13108:13164   */\n      tag_274\n      jump\t// in\n    tag_450:\n        /* \"#utility.yul\":13187:13194   */\n      dup1\n        /* \"#utility.yul\":13218:13219   */\n      0x00\n        /* \"#utility.yul\":13203:13487   */\n    tag_451:\n        /* \"#utility.yul\":13228:13234   */\n      dup4\n        /* \"#utility.yul\":13225:13226   */\n      dup2\n        /* \"#utility.yul\":13222:13235   */\n      lt\n        /* \"#utility.yul\":13203:13487   */\n      iszero\n      tag_453\n      jumpi\n        /* \"#utility.yul\":13304:13310   */\n      dup2\n        /* \"#utility.yul\":13298:13311   */\n      mload\n        /* \"#utility.yul\":13331:13394   */\n      tag_454\n        /* \"#utility.yul\":13390:13393   */\n      dup9\n        /* \"#utility.yul\":13375:13388   */\n      dup3\n        /* \"#utility.yul\":13331:13394   */\n      tag_276\n      jump\t// in\n    tag_454:\n        /* \"#utility.yul\":13324:13394   */\n      swap8\n      pop\n        /* \"#utility.yul\":13417:13477   */\n      tag_455\n        /* \"#utility.yul\":13470:13476   */\n      dup4\n        /* \"#utility.yul\":13417:13477   */\n      tag_277\n      jump\t// in\n    tag_455:\n        /* \"#utility.yul\":13407:13477   */\n      swap3\n      pop\n        /* \"#utility.yul\":13263:13487   */\n      pop\n        /* \"#utility.yul\":13250:13251   */\n      0x01\n        /* \"#utility.yul\":13247:13248   */\n      dup2\n        /* \"#utility.yul\":13243:13252   */\n      add\n        /* \"#utility.yul\":13238:13252   */\n      swap1\n      pop\n        /* \"#utility.yul\":13203:13487   */\n      jump(tag_451)\n    tag_453:\n        /* \"#utility.yul\":13207:13221   */\n      pop\n        /* \"#utility.yul\":13503:13506   */\n      dup6\n        /* \"#utility.yul\":13496:13506   */\n      swap4\n      pop\n        /* \"#utility.yul\":12904:13512   */\n      pop\n      pop\n      pop\n        /* \"#utility.yul\":12780:13512   */\n      swap3\n      swap2\n      pop\n      pop\n      jump\t// out\n        /* \"#utility.yul\":13518:15763   */\n    tag_54:\n        /* \"#utility.yul\":14227:14231   */\n      0x00\n        /* \"#utility.yul\":14265:14268   */\n      0x0100\n        /* \"#utility.yul\":14254:14263   */\n      dup3\n        /* \"#utility.yul\":14250:14269   */\n      add\n        /* \"#utility.yul\":14242:14269   */\n      swap1\n      pop\n        /* \"#utility.yul\":14315:14324   */\n      dup2\n        /* \"#utility.yul\":14309:14313   */\n      dup2\n        /* \"#utility.yul\":14305:14325   */\n      sub\n        /* \"#utility.yul\":14301:14302   */\n      0x00\n        /* \"#utility.yul\":14290:14299   */\n      dup4\n        /* \"#utility.yul\":14286:14303   */\n      add\n        /* \"#utility.yul\":14279:14326   */\n      mstore\n        /* \"#utility.yul\":14343:14451   */\n      tag_457\n        /* \"#utility.yul\":14446:14450   */\n      dup2\n        /* \"#utility.yul\":14437:14443   */\n      dup12\n        /* \"#utility.yul\":14343:14451   */\n      tag_271\n      jump\t// in\n    tag_457:\n        /* \"#utility.yul\":14335:14451   */\n      swap1\n      pop\n        /* \"#utility.yul\":14498:14507   */\n      dup2\n        /* \"#utility.yul\":14492:14496   */\n      dup2\n        /* \"#utility.yul\":14488:14508   */\n      sub\n        /* \"#utility.yul\":14483:14485   */\n      0x20\n        /* \"#utility.yul\":14472:14481   */\n      dup4\n        /* \"#utility.yul\":14468:14486   */\n      add\n        /* \"#utility.yul\":14461:14509   */\n      mstore\n        /* \"#utility.yul\":14526:14634   */\n      tag_458\n        /* \"#utility.yul\":14629:14633   */\n      dup2\n        /* \"#utility.yul\":14620:14626   */\n      dup11\n        /* \"#utility.yul\":14526:14634   */\n      tag_278\n      jump\t// in\n    tag_458:\n        /* \"#utility.yul\":14518:14634   */\n      swap1\n      pop\n        /* \"#utility.yul\":14681:14690   */\n      dup2\n        /* \"#utility.yul\":14675:14679   */\n      dup2\n        /* \"#utility.yul\":14671:14691   */\n      sub\n        /* \"#utility.yul\":14666:14668   */\n      0x40\n        /* \"#utility.yul\":14655:14664   */\n      dup4\n        /* \"#utility.yul\":14651:14669   */\n      add\n        /* \"#utility.yul\":14644:14692   */\n      mstore\n        /* \"#utility.yul\":14709:14837   */\n      tag_459\n        /* \"#utility.yul\":14832:14836   */\n      dup2\n        /* \"#utility.yul\":14823:14829   */\n      dup10\n        /* \"#utility.yul\":14709:14837   */\n      tag_258\n      jump\t// in\n    tag_459:\n        /* \"#utility.yul\":14701:14837   */\n      swap1\n      pop\n        /* \"#utility.yul\":14884:14893   */\n      dup2\n        /* \"#utility.yul\":14878:14882   */\n      dup2\n        /* \"#utility.yul\":14874:14894   */\n      sub\n        /* \"#utility.yul\":14869:14871   */\n      0x60\n        /* \"#utility.yul\":14858:14867   */\n      dup4\n        /* \"#utility.yul\":14854:14872   */\n      add\n        /* \"#utility.yul\":14847:14895   */\n      mstore\n        /* \"#utility.yul\":14912:15020   */\n      tag_460\n        /* \"#utility.yul\":15015:15019   */\n      dup2\n        /* \"#utility.yul\":15006:15012   */\n      dup9\n        /* \"#utility.yul\":14912:15020   */\n      tag_271\n      jump\t// in\n    tag_460:\n        /* \"#utility.yul\":14904:15020   */\n      swap1\n      pop\n        /* \"#utility.yul\":15068:15077   */\n      dup2\n        /* \"#utility.yul\":15062:15066   */\n      dup2\n        /* \"#utility.yul\":15058:15078   */\n      sub\n        /* \"#utility.yul\":15052:15055   */\n      0x80\n        /* \"#utility.yul\":15041:15050   */\n      dup4\n        /* \"#utility.yul\":15037:15056   */\n      add\n        /* \"#utility.yul\":15030:15079   */\n      mstore\n        /* \"#utility.yul\":15096:15204   */\n      tag_461\n        /* \"#utility.yul\":15199:15203   */\n      dup2\n        /* \"#utility.yul\":15190:15196   */\n      dup8\n        /* \"#utility.yul\":15096:15204   */\n      tag_271\n      jump\t// in\n    tag_461:\n        /* \"#utility.yul\":15088:15204   */\n      swap1\n      pop\n        /* \"#utility.yul\":15252:15261   */\n      dup2\n        /* \"#utility.yul\":15246:15250   */\n      dup2\n        /* \"#utility.yul\":15242:15262   */\n      sub\n        /* \"#utility.yul\":15236:15239   */\n      0xa0\n        /* \"#utility.yul\":15225:15234   */\n      dup4\n        /* \"#utility.yul\":15221:15240   */\n      add\n        /* \"#utility.yul\":15214:15263   */\n      mstore\n        /* \"#utility.yul\":15280:15388   */\n      tag_462\n        /* \"#utility.yul\":15383:15387   */\n      dup2\n        /* \"#utility.yul\":15374:15380   */\n      dup7\n        /* \"#utility.yul\":15280:15388   */\n      tag_271\n      jump\t// in\n    tag_462:\n        /* \"#utility.yul\":15272:15388   */\n      swap1\n      pop\n        /* \"#utility.yul\":15436:15445   */\n      dup2\n        /* \"#utility.yul\":15430:15434   */\n      dup2\n        /* \"#utility.yul\":15426:15446   */\n      sub\n        /* \"#utility.yul\":15420:15423   */\n      0xc0\n        /* \"#utility.yul\":15409:15418   */\n      dup4\n        /* \"#utility.yul\":15405:15424   */\n      add\n        /* \"#utility.yul\":15398:15447   */\n      mstore\n        /* \"#utility.yul\":15464:15572   */\n      tag_463\n        /* \"#utility.yul\":15567:15571   */\n      dup2\n        /* \"#utility.yul\":15558:15564   */\n      dup6\n        /* \"#utility.yul\":15464:15572   */\n      tag_271\n      jump\t// in\n    tag_463:\n        /* \"#utility.yul\":15456:15572   */\n      swap1\n      pop\n        /* \"#utility.yul\":15620:15629   */\n      dup2\n        /* \"#utility.yul\":15614:15618   */\n      dup2\n        /* \"#utility.yul\":15610:15630   */\n      sub\n        /* \"#utility.yul\":15604:15607   */\n      0xe0\n        /* \"#utility.yul\":15593:15602   */\n      dup4\n        /* \"#utility.yul\":15589:15608   */\n      add\n        /* \"#utility.yul\":15582:15631   */\n      mstore\n        /* \"#utility.yul\":15648:15756   */\n      tag_464\n        /* \"#utility.yul\":15751:15755   */\n      dup2\n        /* \"#utility.yul\":15742:15748   */\n      dup5\n        /* \"#utility.yul\":15648:15756   */\n      tag_271\n      jump\t// in\n    tag_464:\n        /* \"#utility.yul\":15640:15756   */\n      swap1\n      pop\n        /* \"#utility.yul\":13518:15763   */\n      swap10\n      swap9\n      pop\n      pop\n      pop\n      pop\n      pop\n      pop\n      pop\n      pop\n      pop\n      jump\t// out\n        /* \"#utility.yul\":15769:15938   */\n    tag_279:\n        /* \"#utility.yul\":15909:15930   */\n      0x426f6e6420646f6573206e6f7420657869737400000000000000000000000000\n        /* \"#utility.yul\":15905:15906   */\n      0x00\n        /* \"#utility.yul\":15897:15903   */\n      dup3\n        /* \"#utility.yul\":15893:15907   */\n      add\n        /* \"#utility.yul\":15886:15931   */\n      mstore\n        /* \"#utility.yul\":15769:15938   */\n      pop\n      jump\t// out\n        /* \"#utility.yul\":15944:16310   */\n    tag_280:\n        /* \"#utility.yul\":16086:16089   */\n      0x00\n        /* \"#utility.yul\":16107:16174   */\n      tag_467\n        /* \"#utility.yul\":16171:16173   */\n      0x13\n        /* \"#utility.yul\":16166:16169   */\n      dup4\n        /* \"#utility.yul\":16107:16174   */\n      tag_247\n      jump\t// in\n    tag_467:\n        /* \"#utility.yul\":16100:16174   */\n      swap2\n      pop\n        /* \"#utility.yul\":16183:16276   */\n      tag_468\n        /* \"#utility.yul\":16272:16275   */\n      dup3\n        /* \"#utility.yul\":16183:16276   */\n      tag_279\n      jump\t// in\n    tag_468:\n        /* \"#utility.yul\":16301:16303   */\n      0x20\n        /* \"#utility.yul\":16296:16299   */\n      dup3\n        /* \"#utility.yul\":16292:16304   */\n      add\n        /* \"#utility.yul\":16285:16304   */\n      swap1\n      pop\n        /* \"#utility.yul\":15944:16310   */\n      swap2\n      swap1\n      pop\n      jump\t// out\n        /* \"#utility.yul\":16316:16735   */\n    tag_62:\n        /* \"#utility.yul\":16482:16486   */\n      0x00\n        /* \"#utility.yul\":16520:16522   */\n      0x20\n        /* \"#utility.yul\":16509:16518   */\n      dup3\n        /* \"#utility.yul\":16505:16523   */\n      add\n        /* \"#utility.yul\":16497:16523   */\n      swap1\n      pop\n        /* \"#utility.yul\":16569:16578   */\n      dup2\n        /* \"#utility.yul\":16563:16567   */\n      dup2\n        /* \"#utility.yul\":16559:16579   */\n      sub\n        /* \"#utility.yul\":16555:16556   */\n      0x00\n        /* \"#utility.yul\":16544:16553   */\n      dup4\n        /* \"#utility.yul\":16540:16557   */\n      add\n        /* \"#utility.yul\":16533:16580   */\n      mstore\n        /* \"#utility.yul\":16597:16728   */\n      tag_470\n        /* \"#utility.yul\":16723:16727   */\n      dup2\n        /* \"#utility.yul\":16597:16728   */\n      tag_280\n      jump\t// in\n    tag_470:\n        /* \"#utility.yul\":16589:16728   */\n      swap1\n      pop\n        /* \"#utility.yul\":16316:16735   */\n      swap2\n      swap1\n      pop\n      jump\t// out\n        /* \"#utility.yul\":16741:16921   */\n    tag_281:\n        /* \"#utility.yul\":16789:16866   */\n      0x4e487b7100000000000000000000000000000000000000000000000000000000\n        /* \"#utility.yul\":16786:16787   */\n      0x00\n        /* \"#utility.yul\":16779:16867   */\n      mstore\n        /* \"#utility.yul\":16886:16890   */\n      0x22\n        /* \"#utility.yul\":16883:16884   */\n      0x04\n        /* \"#utility.yul\":16876:16891   */\n      mstore\n        /* \"#utility.yul\":16910:16914   */\n      0x24\n        /* \"#utility.yul\":16907:16908   */\n      0x00\n        /* \"#utility.yul\":16900:16915   */\n      revert\n        /* \"#utility.yul\":16927:17247   */\n    tag_65:\n        /* \"#utility.yul\":16971:16977   */\n      0x00\n        /* \"#utility.yul\":17008:17009   */\n      0x02\n        /* \"#utility.yul\":17002:17006   */\n      dup3\n        /* \"#utility.yul\":16998:17010   */\n      div\n        /* \"#utility.yul\":16988:17010   */\n      swap1\n      pop\n        /* \"#utility.yul\":17055:17056   */\n      0x01\n        /* \"#utility.yul\":17049:17053   */\n      dup3\n        /* \"#utility.yul\":17045:17057   */\n      and\n        /* \"#utility.yul\":17076:17094   */\n      dup1\n        /* \"#utility.yul\":17066:17147   */\n      tag_473\n      jumpi\n        /* \"#utility.yul\":17132:17136   */\n      0x7f\n        /* \"#utility.yul\":17124:17130   */\n      dup3\n        /* \"#utility.yul\":17120:17137   */\n      and\n        /* \"#utility.yul\":17110:17137   */\n      swap2\n      pop\n        /* \"#utility.yul\":17066:17147   */\n    tag_473:\n        /* \"#utility.yul\":17194:17196   */\n      0x20\n        /* \"#utility.yul\":17186:17192   */\n      dup3\n        /* \"#utility.yul\":17183:17197   */\n      lt\n        /* \"#utility.yul\":17163:17181   */\n      dup2\n        /* \"#utility.yul\":17160:17198   */\n      sub\n        /* \"#utility.yul\":17157:17241   */\n      tag_474\n      jumpi\n        /* \"#utility.yul\":17213:17231   */\n      tag_475\n      tag_281\n      jump\t// in\n    tag_475:\n        /* \"#utility.yul\":17157:17241   */\n    tag_474:\n        /* \"#utility.yul\":16978:17247   */\n      pop\n        /* \"#utility.yul\":16927:17247   */\n      swap2\n      swap1\n      pop\n      jump\t// out\n        /* \"#utility.yul\":17253:17433   */\n    tag_282:\n        /* \"#utility.yul\":17301:17378   */\n      0x4e487b7100000000000000000000000000000000000000000000000000000000\n        /* \"#utility.yul\":17298:17299   */\n      0x00\n        /* \"#utility.yul\":17291:17379   */\n      mstore\n        /* \"#utility.yul\":17398:17402   */\n      0x11\n        /* \"#utility.yul\":17395:17396   */\n      0x04\n        /* \"#utility.yul\":17388:17403   */\n      mstore\n        /* \"#utility.yul\":17422:17426   */\n      0x24\n        /* \"#utility.yul\":17419:17420   */\n      0x00\n        /* \"#utility.yul\":17412:17427   */\n      revert\n        /* \"#utility.yul\":17439:17849   */\n    tag_83:\n        /* \"#utility.yul\":17479:17486   */\n      0x00\n        /* \"#utility.yul\":17502:17522   */\n      tag_478\n        /* \"#utility.yul\":17520:17521   */\n      dup3\n        /* \"#utility.yul\":17502:17522   */\n      tag_239\n      jump\t// in\n    tag_478:\n        /* \"#utility.yul\":17497:17522   */\n      swap2\n      pop\n        /* \"#utility.yul\":17536:17556   */\n      tag_479\n        /* \"#utility.yul\":17554:17555   */\n      dup4\n        /* \"#utility.yul\":17536:17556   */\n      tag_239\n      jump\t// in\n    tag_479:\n        /* \"#utility.yul\":17531:17556   */\n      swap3\n      pop\n        /* \"#utility.yul\":17591:17592   */\n      dup3\n        /* \"#utility.yul\":17588:17589   */\n      dup3\n        /* \"#utility.yul\":17584:17593   */\n      mul\n        /* \"#utility.yul\":17613:17643   */\n      tag_480\n        /* \"#utility.yul\":17631:17642   */\n      dup2\n        /* \"#utility.yul\":17613:17643   */\n      tag_239\n      jump\t// in\n    tag_480:\n        /* \"#utility.yul\":17602:17643   */\n      swap2\n      pop\n        /* \"#utility.yul\":17792:17793   */\n      dup3\n        /* \"#utility.yul\":17783:17790   */\n      dup3\n        /* \"#utility.yul\":17779:17794   */\n      div\n        /* \"#utility.yul\":17776:17777   */\n      dup5\n        /* \"#utility.yul\":17773:17795   */\n      eq\n        /* \"#utility.yul\":17753:17754   */\n      dup4\n        /* \"#utility.yul\":17746:17755   */\n      iszero\n        /* \"#utility.yul\":17726:17809   */\n      or\n        /* \"#utility.yul\":17703:17842   */\n      tag_481\n      jumpi\n        /* \"#utility.yul\":17822:17840   */\n      tag_482\n      tag_282\n      jump\t// in\n    tag_482:\n        /* \"#utility.yul\":17703:17842   */\n    tag_481:\n        /* \"#utility.yul\":17487:17849   */\n      pop\n        /* \"#utility.yul\":17439:17849   */\n      swap3\n      swap2\n      pop\n      pop\n      jump\t// out\n        /* \"#utility.yul\":17855:18046   */\n    tag_87:\n        /* \"#utility.yul\":17895:17898   */\n      0x00\n        /* \"#utility.yul\":17914:17934   */\n      tag_484\n        /* \"#utility.yul\":17932:17933   */\n      dup3\n        /* \"#utility.yul\":17914:17934   */\n      tag_239\n      jump\t// in\n    tag_484:\n        /* \"#utility.yul\":17909:17934   */\n      swap2\n      pop\n        /* \"#utility.yul\":17948:17968   */\n      tag_485\n        /* \"#utility.yul\":17966:17967   */\n      dup4\n        /* \"#utility.yul\":17948:17968   */\n      tag_239\n      jump\t// in\n    tag_485:\n        /* \"#utility.yul\":17943:17968   */\n      swap3\n      pop\n        /* \"#utility.yul\":17991:17992   */\n      dup3\n        /* \"#utility.yul\":17988:17989   */\n      dup3\n        /* \"#utility.yul\":17984:17993   */\n      add\n        /* \"#utility.yul\":17977:17993   */\n      swap1\n      pop\n        /* \"#utility.yul\":18012:18015   */\n      dup1\n        /* \"#utility.yul\":18009:18010   */\n      dup3\n        /* \"#utility.yul\":18006:18016   */\n      gt\n        /* \"#utility.yul\":18003:18039   */\n      iszero\n      tag_486\n      jumpi\n        /* \"#utility.yul\":18019:18037   */\n      tag_487\n      tag_282\n      jump\t// in\n    tag_487:\n        /* \"#utility.yul\":18003:18039   */\n    tag_486:\n        /* \"#utility.yul\":17855:18046   */\n      swap3\n      swap2\n      pop\n      pop\n      jump\t// out\n        /* \"#utility.yul\":18052:18232   */\n    tag_283:\n        /* \"#utility.yul\":18100:18177   */\n      0x4e487b7100000000000000000000000000000000000000000000000000000000\n        /* \"#utility.yul\":18097:18098   */\n      0x00\n        /* \"#utility.yul\":18090:18178   */\n      mstore\n        /* \"#utility.yul\":18197:18201   */\n      0x12\n        /* \"#utility.yul\":18194:18195   */\n      0x04\n        /* \"#utility.yul\":18187:18202   */\n      mstore\n        /* \"#utility.yul\":18221:18225   */\n      0x24\n        /* \"#utility.yul\":18218:18219   */\n      0x00\n        /* \"#utility.yul\":18211:18226   */\n      revert\n        /* \"#utility.yul\":18238:18423   */\n    tag_92:\n        /* \"#utility.yul\":18278:18279   */\n      0x00\n        /* \"#utility.yul\":18295:18315   */\n      tag_490\n        /* \"#utility.yul\":18313:18314   */\n      dup3\n        /* \"#utility.yul\":18295:18315   */\n      tag_239\n      jump\t// in\n    tag_490:\n        /* \"#utility.yul\":18290:18315   */\n      swap2\n      pop\n        /* \"#utility.yul\":18329:18349   */\n      tag_491\n        /* \"#utility.yul\":18347:18348   */\n      dup4\n        /* \"#utility.yul\":18329:18349   */\n      tag_239\n      jump\t// in\n    tag_491:\n        /* \"#utility.yul\":18324:18349   */\n      swap3\n      pop\n        /* \"#utility.yul\":18368:18369   */\n      dup3\n        /* \"#utility.yul\":18358:18393   */\n      tag_492\n      jumpi\n        /* \"#utility.yul\":18373:18391   */\n      tag_493\n      tag_283\n      jump\t// in\n    tag_493:\n        /* \"#utility.yul\":18358:18393   */\n    tag_492:\n        /* \"#utility.yul\":18415:18416   */\n      dup3\n        /* \"#utility.yul\":18412:18413   */\n      dup3\n        /* \"#utility.yul\":18408:18417   */\n      div\n        /* \"#utility.yul\":18403:18417   */\n      swap1\n      pop\n        /* \"#utility.yul\":18238:18423   */\n      swap3\n      swap2\n      pop\n      pop\n      jump\t// out\n        /* \"#utility.yul\":18429:18595   */\n    tag_284:\n        /* \"#utility.yul\":18569:18587   */\n      0x4e616d6520697320726571756972656400000000000000000000000000000000\n        /* \"#utility.yul\":18565:18566   */\n      0x00\n        /* \"#utility.yul\":18557:18563   */\n      dup3\n        /* \"#utility.yul\":18553:18567   */\n      add\n        /* \"#utility.yul\":18546:18588   */\n      mstore\n        /* \"#utility.yul\":18429:18595   */\n      pop\n      jump\t// out\n        /* \"#utility.yul\":18601:18967   */\n    tag_285:\n        /* \"#utility.yul\":18743:18746   */\n      0x00\n        /* \"#utility.yul\":18764:18831   */\n      tag_496\n        /* \"#utility.yul\":18828:18830   */\n      0x10\n        /* \"#utility.yul\":18823:18826   */\n      dup4\n        /* \"#utility.yul\":18764:18831   */\n      tag_247\n      jump\t// in\n    tag_496:\n        /* \"#utility.yul\":18757:18831   */\n      swap2\n      pop\n        /* \"#utility.yul\":18840:18933   */\n      tag_497\n        /* \"#utility.yul\":18929:18932   */\n      dup3\n        /* \"#utility.yul\":18840:18933   */\n      tag_284\n      jump\t// in\n    tag_497:\n        /* \"#utility.yul\":18958:18960   */\n      0x20\n        /* \"#utility.yul\":18953:18956   */\n      dup3\n        /* \"#utility.yul\":18949:18961   */\n      add\n        /* \"#utility.yul\":18942:18961   */\n      swap1\n      pop\n        /* \"#utility.yul\":18601:18967   */\n      swap2\n      swap1\n      pop\n      jump\t// out\n        /* \"#utility.yul\":18973:19392   */\n    tag_107:\n        /* \"#utility.yul\":19139:19143   */\n      0x00\n        /* \"#utility.yul\":19177:19179   */\n      0x20\n        /* \"#utility.yul\":19166:19175   */\n      dup3\n        /* \"#utility.yul\":19162:19180   */\n      add\n        /* \"#utility.yul\":19154:19180   */\n      swap1\n      pop\n        /* \"#utility.yul\":19226:19235   */\n      dup2\n        /* \"#utility.yul\":19220:19224   */\n      dup2\n        /* \"#utility.yul\":19216:19236   */\n      sub\n        /* \"#utility.yul\":19212:19213   */\n      0x00\n        /* \"#utility.yul\":19201:19210   */\n      dup4\n        /* \"#utility.yul\":19197:19214   */\n      add\n        /* \"#utility.yul\":19190:19237   */\n      mstore\n        /* \"#utility.yul\":19254:19385   */\n      tag_499\n        /* \"#utility.yul\":19380:19384   */\n      dup2\n        /* \"#utility.yul\":19254:19385   */\n      tag_285\n      jump\t// in\n    tag_499:\n        /* \"#utility.yul\":19246:19385   */\n      swap1\n      pop\n        /* \"#utility.yul\":18973:19392   */\n      swap2\n      swap1\n      pop\n      jump\t// out\n        /* \"#utility.yul\":19398:19567   */\n    tag_286:\n        /* \"#utility.yul\":19538:19559   */\n      0x46756e64696e67206d757374206265203e203000000000000000000000000000\n        /* \"#utility.yul\":19534:19535   */\n      0x00\n        /* \"#utility.yul\":19526:19532   */\n      dup3\n        /* \"#utility.yul\":19522:19536   */\n      add\n        /* \"#utility.yul\":19515:19560   */\n      mstore\n        /* \"#utility.yul\":19398:19567   */\n      pop\n      jump\t// out\n        /* \"#utility.yul\":19573:19939   */\n    tag_287:\n        /* \"#utility.yul\":19715:19718   */\n      0x00\n        /* \"#utility.yul\":19736:19803   */\n      tag_502\n        /* \"#utility.yul\":19800:19802   */\n      0x13\n        /* \"#utility.yul\":19795:19798   */\n      dup4\n        /* \"#utility.yul\":19736:19803   */\n      tag_247\n      jump\t// in\n    tag_502:\n        /* \"#utility.yul\":19729:19803   */\n      swap2\n      pop\n        /* \"#utility.yul\":19812:19905   */\n      tag_503\n        /* \"#utility.yul\":19901:19904   */\n      dup3\n        /* \"#utility.yul\":19812:19905   */\n      tag_286\n      jump\t// in\n    tag_503:\n        /* \"#utility.yul\":19930:19932   */\n      0x20\n        /* \"#utility.yul\":19925:19928   */\n      dup3\n        /* \"#utility.yul\":19921:19933   */\n      add\n        /* \"#utility.yul\":19914:19933   */\n      swap1\n      pop\n        /* \"#utility.yul\":19573:19939   */\n      swap2\n      swap1\n      pop\n      jump\t// out\n        /* \"#utility.yul\":19945:20364   */\n    tag_110:\n        /* \"#utility.yul\":20111:20115   */\n      0x00\n        /* \"#utility.yul\":20149:20151   */\n      0x20\n        /* \"#utility.yul\":20138:20147   */\n      dup3\n        /* \"#utility.yul\":20134:20152   */\n      add\n        /* \"#utility.yul\":20126:20152   */\n      swap1\n      pop\n        /* \"#utility.yul\":20198:20207   */\n      dup2\n        /* \"#utility.yul\":20192:20196   */\n      dup2\n        /* \"#utility.yul\":20188:20208   */\n      sub\n        /* \"#utility.yul\":20184:20185   */\n      0x00\n        /* \"#utility.yul\":20173:20182   */\n      dup4\n        /* \"#utility.yul\":20169:20186   */\n      add\n        /* \"#utility.yul\":20162:20209   */\n      mstore\n        /* \"#utility.yul\":20226:20357   */\n      tag_505\n        /* \"#utility.yul\":20352:20356   */\n      dup2\n        /* \"#utility.yul\":20226:20357   */\n      tag_287\n      jump\t// in\n    tag_505:\n        /* \"#utility.yul\":20218:20357   */\n      swap1\n      pop\n        /* \"#utility.yul\":19945:20364   */\n      swap2\n      swap1\n      pop\n      jump\t// out\n        /* \"#utility.yul\":20370:20540   */\n    tag_288:\n        /* \"#utility.yul\":20510:20532   */\n      0x4475726174696f6e206d757374206265203e2030000000000000000000000000\n        /* \"#utility.yul\":20506:20507   */\n      0x00\n        /* \"#utility.yul\":20498:20504   */\n      dup3\n        /* \"#utility.yul\":20494:20508   */\n      add\n        /* \"#utility.yul\":20487:20533   */\n      mstore\n        /* \"#utility.yul\":20370:20540   */\n      pop\n      jump\t// out\n        /* \"#utility.yul\":20546:20912   */\n    tag_289:\n        /* \"#utility.yul\":20688:20691   */\n      0x00\n        /* \"#utility.yul\":20709:20776   */\n      tag_508\n        /* \"#utility.yul\":20773:20775   */\n      0x14\n        /* \"#utility.yul\":20768:20771   */\n      dup4\n        /* \"#utility.yul\":20709:20776   */\n      tag_247\n      jump\t// in\n    tag_508:\n        /* \"#utility.yul\":20702:20776   */\n      swap2\n      pop\n        /* \"#utility.yul\":20785:20878   */\n      tag_509\n        /* \"#utility.yul\":20874:20877   */\n      dup3\n        /* \"#utility.yul\":20785:20878   */\n      tag_288\n      jump\t// in\n    tag_509:\n        /* \"#utility.yul\":20903:20905   */\n      0x20\n        /* \"#utility.yul\":20898:20901   */\n      dup3\n        /* \"#utility.yul\":20894:20906   */\n      add\n        /* \"#utility.yul\":20887:20906   */\n      swap1\n      pop\n        /* \"#utility.yul\":20546:20912   */\n      swap2\n      swap1\n      pop\n      jump\t// out\n        /* \"#utility.yul\":20918:21337   */\n    tag_113:\n        /* \"#utility.yul\":21084:21088   */\n      0x00\n        /* \"#utility.yul\":21122:21124   */\n      0x20\n        /* \"#utility.yul\":21111:21120   */\n      dup3\n        /* \"#utility.yul\":21107:21125   */\n      add\n        /* \"#utility.yul\":21099:21125   */\n      swap1\n      pop\n        /* \"#utility.yul\":21171:21180   */\n      dup2\n        /* \"#utility.yul\":21165:21169   */\n      dup2\n        /* \"#utility.yul\":21161:21181   */\n      sub\n        /* \"#utility.yul\":21157:21158   */\n      0x00\n        /* \"#utility.yul\":21146:21155   */\n      dup4\n        /* \"#utility.yul\":21142:21159   */\n      add\n        /* \"#utility.yul\":21135:21182   */\n      mstore\n        /* \"#utility.yul\":21199:21330   */\n      tag_511\n        /* \"#utility.yul\":21325:21329   */\n      dup2\n        /* \"#utility.yul\":21199:21330   */\n      tag_289\n      jump\t// in\n    tag_511:\n        /* \"#utility.yul\":21191:21330   */\n      swap1\n      pop\n        /* \"#utility.yul\":20918:21337   */\n      swap2\n      swap1\n      pop\n      jump\t// out\n        /* \"#utility.yul\":21343:21576   */\n    tag_115:\n        /* \"#utility.yul\":21382:21385   */\n      0x00\n        /* \"#utility.yul\":21405:21429   */\n      tag_513\n        /* \"#utility.yul\":21423:21428   */\n      dup3\n        /* \"#utility.yul\":21405:21429   */\n      tag_239\n      jump\t// in\n    tag_513:\n        /* \"#utility.yul\":21396:21429   */\n      swap2\n      pop\n        /* \"#utility.yul\":21451:21517   */\n      0xffffffffffffffffffffffffffffffffffffffffffffffffffffffffffffffff\n        /* \"#utility.yul\":21444:21449   */\n      dup3\n        /* \"#utility.yul\":21441:21518   */\n      sub\n        /* \"#utility.yul\":21438:21541   */\n      tag_514\n      jumpi\n        /* \"#utility.yul\":21521:21539   */\n      tag_515\n      tag_282\n      jump\t// in\n    tag_515:\n        /* \"#utility.yul\":21438:21541   */\n    tag_514:\n        /* \"#utility.yul\":21568:21569   */\n      0x01\n        /* \"#utility.yul\":21561:21566   */\n      dup3\n        /* \"#utility.yul\":21557:21570   */\n      add\n        /* \"#utility.yul\":21550:21570   */\n      swap1\n      pop\n        /* \"#utility.yul\":21343:21576   */\n      swap2\n      swap1\n      pop\n      jump\t// out\n        /* \"#utility.yul\":21582:21679   */\n    tag_290:\n        /* \"#utility.yul\":21641:21647   */\n      0x00\n        /* \"#utility.yul\":21669:21672   */\n      dup3\n        /* \"#utility.yul\":21659:21672   */\n      swap1\n      pop\n        /* \"#utility.yul\":21582:21679   */\n      swap3\n      swap2\n      pop\n      pop\n      jump\t// out\n        /* \"#utility.yul\":21685:21865   */\n    tag_151:\n        /* \"#utility.yul\":21733:21810   */\n      0x4e487b7100000000000000000000000000000000000000000000000000000000\n        /* \"#utility.yul\":21730:21731   */\n      0x00\n        /* \"#utility.yul\":21723:21811   */\n      mstore\n        /* \"#utility.yul\":21830:21834   */\n      0x41\n        /* \"#utility.yul\":21827:21828   */\n      0x04\n        /* \"#utility.yul\":21820:21835   */\n      mstore\n        /* \"#utility.yul\":21854:21858   */\n      0x24\n        /* \"#utility.yul\":21851:21852   */\n      0x00\n        /* \"#utility.yul\":21844:21859   */\n      revert\n        /* \"#utility.yul\":21871:22012   */\n    tag_291:\n        /* \"#utility.yul\":21920:21924   */\n      0x00\n        /* \"#utility.yul\":21943:21946   */\n      dup2\n        /* \"#utility.yul\":21935:21946   */\n      swap1\n      pop\n        /* \"#utility.yul\":21966:21969   */\n      dup2\n        /* \"#utility.yul\":21963:21964   */\n      0x00\n        /* \"#utility.yul\":21956:21970   */\n      mstore\n        /* \"#utility.yul\":22000:22004   */\n      0x20\n        /* \"#utility.yul\":21997:21998   */\n      0x00\n        /* \"#utility.yul\":21987:22005   */\n      keccak256\n        /* \"#utility.yul\":21979:22005   */\n      swap1\n      pop\n        /* \"#utility.yul\":21871:22012   */\n      swap2\n      swap1\n      pop\n      jump\t// out\n        /* \"#utility.yul\":22018:22111   */\n    tag_292:\n        /* \"#utility.yul\":22055:22061   */\n      0x00\n        /* \"#utility.yul\":22102:22104   */\n      0x20\n        /* \"#utility.yul\":22097:22099   */\n      0x1f\n        /* \"#utility.yul\":22090:22095   */\n      dup4\n        /* \"#utility.yul\":22086:22100   */\n      add\n        /* \"#utility.yul\":22082:22105   */\n      div\n        /* \"#utility.yul\":22072:22105   */\n      swap1\n      pop\n        /* \"#utility.yul\":22018:22111   */\n      swap2\n      swap1\n      pop\n      jump\t// out\n        /* \"#utility.yul\":22117:22224   */\n    tag_293:\n        /* \"#utility.yul\":22161:22169   */\n      0x00\n        /* \"#utility.yul\":22211:22216   */\n      dup3\n        /* \"#utility.yul\":22205:22209   */\n      dup3\n        /* \"#utility.yul\":22201:22217   */\n      shl\n        /* \"#utility.yul\":22180:22217   */\n      swap1\n      pop\n        /* \"#utility.yul\":22117:22224   */\n      swap3\n      swap2\n      pop\n      pop\n      jump\t// out\n        /* \"#utility.yul\":22230:22623   */\n    tag_294:\n        /* \"#utility.yul\":22299:22305   */\n      0x00\n        /* \"#utility.yul\":22349:22350   */\n      0x08\n        /* \"#utility.yul\":22337:22347   */\n      dup4\n        /* \"#utility.yul\":22333:22351   */\n      mul\n        /* \"#utility.yul\":22372:22469   */\n      tag_522\n        /* \"#utility.yul\":22402:22468   */\n      0xffffffffffffffffffffffffffffffffffffffffffffffffffffffffffffffff\n        /* \"#utility.yul\":22391:22400   */\n      dup3\n        /* \"#utility.yul\":22372:22469   */\n      tag_293\n      jump\t// in\n    tag_522:\n        /* \"#utility.yul\":22490:22529   */\n      tag_523\n        /* \"#utility.yul\":22520:22528   */\n      dup7\n        /* \"#utility.yul\":22509:22518   */\n      dup4\n        /* \"#utility.yul\":22490:22529   */\n      tag_293\n      jump\t// in\n    tag_523:\n        /* \"#utility.yul\":22478:22529   */\n      swap6\n      pop\n        /* \"#utility.yul\":22562:22566   */\n      dup1\n        /* \"#utility.yul\":22558:22567   */\n      not\n        /* \"#utility.yul\":22551:22556   */\n      dup5\n        /* \"#utility.yul\":22547:22568   */\n      and\n        /* \"#utility.yul\":22538:22568   */\n      swap4\n      pop\n        /* \"#utility.yul\":22611:22615   */\n      dup1\n        /* \"#utility.yul\":22601:22609   */\n      dup7\n        /* \"#utility.yul\":22597:22616   */\n      and\n        /* \"#utility.yul\":22590:22595   */\n      dup5\n        /* \"#utility.yul\":22587:22617   */\n      or\n        /* \"#utility.yul\":22577:22617   */\n      swap3\n      pop\n        /* \"#utility.yul\":22306:22623   */\n      pop\n      pop\n        /* \"#utility.yul\":22230:22623   */\n      swap4\n      swap3\n      pop\n      pop\n      pop\n      jump\t// out\n        /* \"#utility.yul\":22629:22689   */\n    tag_295:\n        /* \"#utility.yul\":22657:22660   */\n      0x00\n        /* \"#utility.yul\":22678:22683   */\n      dup2\n        /* \"#utility.yul\":22671:22683   */\n      swap1\n      pop\n        /* \"#utility.yul\":22629:22689   */\n      swap2\n      swap1\n      pop\n      jump\t// out\n        /* \"#utility.yul\":22695:22837   */\n    tag_296:\n        /* \"#utility.yul\":22745:22754   */\n      0x00\n        /* \"#utility.yul\":22778:22831   */\n      tag_526\n        /* \"#utility.yul\":22796:22830   */\n      tag_527\n        /* \"#utility.yul\":22805:22829   */\n      tag_528\n        /* \"#utility.yul\":22823:22828   */\n      dup5\n        /* \"#utility.yul\":22805:22829   */\n      tag_239\n      jump\t// in\n    tag_528:\n        /* \"#utility.yul\":22796:22830   */\n      tag_295\n      jump\t// in\n    tag_527:\n        /* \"#utility.yul\":22778:22831   */\n      tag_239\n      jump\t// in\n    tag_526:\n        /* \"#utility.yul\":22765:22831   */\n      swap1\n      pop\n        /* \"#utility.yul\":22695:22837   */\n      swap2\n      swap1\n      pop\n      jump\t// out\n        /* \"#utility.yul\":22843:22918   */\n    tag_297:\n        /* \"#utility.yul\":22886:22889   */\n      0x00\n        /* \"#utility.yul\":22907:22912   */\n      dup2\n        /* \"#utility.yul\":22900:22912   */\n      swap1\n      pop\n        /* \"#utility.yul\":22843:22918   */\n      swap2\n      swap1\n      pop\n      jump\t// out\n        /* \"#utility.yul\":22924:23193   */\n    tag_298:\n        /* \"#utility.yul\":23034:23073   */\n      tag_531\n        /* \"#utility.yul\":23065:23072   */\n      dup4\n        /* \"#utility.yul\":23034:23073   */\n      tag_296\n      jump\t// in\n    tag_531:\n        /* \"#utility.yul\":23095:23186   */\n      tag_532\n        /* \"#utility.yul\":23144:23185   */\n      tag_533\n        /* \"#utility.yul\":23168:23184   */\n      dup3\n        /* \"#utility.yul\":23144:23185   */\n      tag_297\n      jump\t// in\n    tag_533:\n        /* \"#utility.yul\":23136:23142   */\n      dup5\n        /* \"#utility.yul\":23129:23133   */\n      dup5\n        /* \"#utility.yul\":23123:23134   */\n      sload\n        /* \"#utility.yul\":23095:23186   */\n      tag_294\n      jump\t// in\n    tag_532:\n        /* \"#utility.yul\":23089:23093   */\n      dup3\n        /* \"#utility.yul\":23082:23187   */\n      sstore\n        /* \"#utility.yul\":23000:23193   */\n      pop\n        /* \"#utility.yul\":22924:23193   */\n      pop\n      pop\n      pop\n      jump\t// out\n        /* \"#utility.yul\":23199:23272   */\n    tag_299:\n        /* \"#utility.yul\":23244:23247   */\n      0x00\n        /* \"#utility.yul\":23265:23266   */\n      0x00\n        /* \"#utility.yul\":23258:23266   */\n      swap1\n      pop\n        /* \"#utility.yul\":23199:23272   */\n      swap1\n      jump\t// out\n        /* \"#utility.yul\":23278:23467   */\n    tag_300:\n        /* \"#utility.yul\":23355:23387   */\n      tag_536\n      tag_299\n      jump\t// in\n    tag_536:\n        /* \"#utility.yul\":23396:23461   */\n      tag_537\n        /* \"#utility.yul\":23454:23460   */\n      dup2\n        /* \"#utility.yul\":23446:23452   */\n      dup5\n        /* \"#utility.yul\":23440:23444   */\n      dup5\n        /* \"#utility.yul\":23396:23461   */\n      tag_298\n      jump\t// in\n    tag_537:\n        /* \"#utility.yul\":23331:23467   */\n      pop\n        /* \"#utility.yul\":23278:23467   */\n      pop\n      pop\n      jump\t// out\n        /* \"#utility.yul\":23473:23687   */\n    tag_301:\n        /* \"#utility.yul\":23558:23559   */\n      0x00\n        /* \"#utility.yul\":23543:23681   */\n    tag_539:\n        /* \"#utility.yul\":23568:23577   */\n      dup3\n        /* \"#utility.yul\":23565:23566   */\n      dup2\n        /* \"#utility.yul\":23562:23578   */\n      lt\n        /* \"#utility.yul\":23543:23681   */\n      iszero\n      tag_541\n      jumpi\n        /* \"#utility.yul\":23620:23671   */\n      tag_542\n        /* \"#utility.yul\":23669:23670   */\n      0x00\n        /* \"#utility.yul\":23665:23666   */\n      dup3\n        /* \"#utility.yul\":23654:23663   */\n      dup5\n        /* \"#utility.yul\":23650:23667   */\n      add\n        /* \"#utility.yul\":23620:23671   */\n      tag_300\n      jump\t// in\n    tag_542:\n        /* \"#utility.yul\":23593:23594   */\n      0x01\n        /* \"#utility.yul\":23590:23591   */\n      dup2\n        /* \"#utility.yul\":23586:23595   */\n      add\n        /* \"#utility.yul\":23581:23595   */\n      swap1\n      pop\n        /* \"#utility.yul\":23543:23681   */\n      jump(tag_539)\n    tag_541:\n        /* \"#utility.yul\":23547:23561   */\n      pop\n        /* \"#utility.yul\":23473:23687   */\n      pop\n      pop\n      jump\t// out\n        /* \"#utility.yul\":23693:24439   */\n    tag_302:\n        /* \"#utility.yul\":23794:23796   */\n      0x1f\n        /* \"#utility.yul\":23789:23792   */\n      dup3\n        /* \"#utility.yul\":23786:23797   */\n      gt\n        /* \"#utility.yul\":23783:24432   */\n      iszero\n      tag_544\n      jumpi\n        /* \"#utility.yul\":23823:23833   */\n      dup3\n        /* \"#utility.yul\":23818:23821   */\n      dup3\n        /* \"#utility.yul\":23815:23834   */\n      gt\n        /* \"#utility.yul\":23812:24422   */\n      iszero\n      tag_545\n      jumpi\n        /* \"#utility.yul\":23869:23907   */\n      tag_546\n        /* \"#utility.yul\":23901:23906   */\n      dup2\n        /* \"#utility.yul\":23869:23907   */\n      tag_291\n      jump\t// in\n    tag_546:\n        /* \"#utility.yul\":23944:23966   */\n      tag_547\n        /* \"#utility.yul\":23962:23965   */\n      dup4\n        /* \"#utility.yul\":23944:23966   */\n      tag_292\n      jump\t// in\n    tag_547:\n        /* \"#utility.yul\":24003:24032   */\n      tag_548\n        /* \"#utility.yul\":24021:24031   */\n      dup6\n        /* \"#utility.yul\":24003:24032   */\n      tag_292\n      jump\t// in\n    tag_548:\n        /* \"#utility.yul\":24193:24195   */\n      0x20\n        /* \"#utility.yul\":24181:24191   */\n      dup7\n        /* \"#utility.yul\":24178:24196   */\n      lt\n        /* \"#utility.yul\":24175:24254   */\n      iszero\n      tag_549\n      jumpi\n        /* \"#utility.yul\":24235:24236   */\n      0x00\n        /* \"#utility.yul\":24219:24236   */\n      swap1\n      pop\n        /* \"#utility.yul\":24175:24254   */\n    tag_549:\n        /* \"#utility.yul\":24304:24316   */\n      dup1\n        /* \"#utility.yul\":24294:24302   */\n      dup4\n        /* \"#utility.yul\":24290:24317   */\n      add\n        /* \"#utility.yul\":24334:24408   */\n      tag_550\n        /* \"#utility.yul\":24394:24406   */\n      dup3\n        /* \"#utility.yul\":24380:24392   */\n      dup5\n        /* \"#utility.yul\":24376:24407   */\n      sub\n        /* \"#utility.yul\":24363:24374   */\n      dup3\n        /* \"#utility.yul\":24334:24408   */\n      tag_301\n      jump\t// in\n    tag_550:\n        /* \"#utility.yul\":23835:24422   */\n      pop\n      pop\n      pop\n      pop\n        /* \"#utility.yul\":23812:24422   */\n    tag_545:\n        /* \"#utility.yul\":23783:24432   */\n    tag_544:\n        /* \"#utility.yul\":23693:24439   */\n      pop\n      pop\n      pop\n      jump\t// out\n        /* \"#utility.yul\":24445:24562   */\n    tag_303:\n        /* \"#utility.yul\":24499:24507   */\n      0x00\n        /* \"#utility.yul\":24549:24554   */\n      dup3\n        /* \"#utility.yul\":24543:24547   */\n      dup3\n        /* \"#utility.yul\":24539:24555   */\n      shr\n        /* \"#utility.yul\":24518:24555   */\n      swap1\n      pop\n        /* \"#utility.yul\":24445:24562   */\n      swap3\n      swap2\n      pop\n      pop\n      jump\t// out\n        /* \"#utility.yul\":24568:24737   */\n    tag_304:\n        /* \"#utility.yul\":24612:24618   */\n      0x00\n        /* \"#utility.yul\":24645:24696   */\n      tag_553\n        /* \"#utility.yul\":24693:24694   */\n      0x00\n        /* \"#utility.yul\":24689:24695   */\n      not\n        /* \"#utility.yul\":24681:24686   */\n      dup5\n        /* \"#utility.yul\":24678:24679   */\n      0x08\n        /* \"#utility.yul\":24674:24687   */\n      mul\n        /* \"#utility.yul\":24645:24696   */\n      tag_303\n      jump\t// in\n    tag_553:\n        /* \"#utility.yul\":24641:24697   */\n      not\n        /* \"#utility.yul\":24726:24730   */\n      dup1\n        /* \"#utility.yul\":24720:24724   */\n      dup4\n        /* \"#utility.yul\":24716:24731   */\n      and\n        /* \"#utility.yul\":24706:24731   */\n      swap2\n      pop\n        /* \"#utility.yul\":24619:24737   */\n      pop\n        /* \"#utility.yul\":24568:24737   */\n      swap3\n      swap2\n      pop\n      pop\n      jump\t// out\n        /* \"#utility.yul\":24742:25037   */\n    tag_305:\n        /* \"#utility.yul\":24818:24822   */\n      0x00\n        /* \"#utility.yul\":24964:24993   */\n      tag_555\n        /* \"#utility.yul\":24989:24992   */\n      dup4\n        /* \"#utility.yul\":24983:24987   */\n      dup4\n        /* \"#utility.yul\":24964:24993   */\n      tag_304\n      jump\t// in\n    tag_555:\n        /* \"#utility.yul\":24956:24993   */\n      swap2\n      pop\n        /* \"#utility.yul\":25026:25029   */\n      dup3\n        /* \"#utility.yul\":25023:25024   */\n      0x02\n        /* \"#utility.yul\":25019:25030   */\n      mul\n        /* \"#utility.yul\":25013:25017   */\n      dup3\n        /* \"#utility.yul\":25010:25031   */\n      or\n        /* \"#utility.yul\":25002:25031   */\n      swap1\n      pop\n        /* \"#utility.yul\":24742:25037   */\n      swap3\n      swap2\n      pop\n      pop\n      jump\t// out\n        /* \"#utility.yul\":25042:26445   */\n    tag_117:\n        /* \"#utility.yul\":25166:25210   */\n      tag_557\n        /* \"#utility.yul\":25206:25209   */\n      dup4\n        /* \"#utility.yul\":25201:25204   */\n      dup4\n        /* \"#utility.yul\":25166:25210   */\n      tag_290\n      jump\t// in\n    tag_557:\n        /* \"#utility.yul\":25275:25293   */\n      0xffffffffffffffff\n        /* \"#utility.yul\":25267:25273   */\n      dup2\n        /* \"#utility.yul\":25264:25294   */\n      gt\n        /* \"#utility.yul\":25261:25317   */\n      iszero\n      tag_558\n      jumpi\n        /* \"#utility.yul\":25297:25315   */\n      tag_559\n      tag_151\n      jump\t// in\n    tag_559:\n        /* \"#utility.yul\":25261:25317   */\n    tag_558:\n        /* \"#utility.yul\":25341:25379   */\n      tag_560\n        /* \"#utility.yul\":25373:25377   */\n      dup3\n        /* \"#utility.yul\":25367:25378   */\n      sload\n        /* \"#utility.yul\":25341:25379   */\n      tag_65\n      jump\t// in\n    tag_560:\n        /* \"#utility.yul\":25426:25493   */\n      tag_561\n        /* \"#utility.yul\":25486:25492   */\n      dup3\n        /* \"#utility.yul\":25478:25484   */\n      dup3\n        /* \"#utility.yul\":25472:25476   */\n      dup6\n        /* \"#utility.yul\":25426:25493   */\n      tag_302\n      jump\t// in\n    tag_561:\n        /* \"#utility.yul\":25520:25521   */\n      0x00\n        /* \"#utility.yul\":25549:25551   */\n      0x1f\n        /* \"#utility.yul\":25541:25547   */\n      dup4\n        /* \"#utility.yul\":25538:25552   */\n      gt\n        /* \"#utility.yul\":25566:25567   */\n      0x01\n        /* \"#utility.yul\":25561:26193   */\n      dup2\n      eq\n      tag_563\n      jumpi\n        /* \"#utility.yul\":26237:26238   */\n      0x00\n        /* \"#utility.yul\":26254:26260   */\n      dup5\n        /* \"#utility.yul\":26251:26335   */\n      iszero\n      tag_564\n      jumpi\n        /* \"#utility.yul\":26310:26319   */\n      dup3\n        /* \"#utility.yul\":26305:26308   */\n      dup8\n        /* \"#utility.yul\":26301:26320   */\n      add\n        /* \"#utility.yul\":26288:26321   */\n      calldataload\n        /* \"#utility.yul\":26279:26321   */\n      swap1\n      pop\n        /* \"#utility.yul\":26251:26335   */\n    tag_564:\n        /* \"#utility.yul\":26361:26428   */\n      tag_565\n        /* \"#utility.yul\":26421:26427   */\n      dup6\n        /* \"#utility.yul\":26414:26419   */\n      dup3\n        /* \"#utility.yul\":26361:26428   */\n      tag_305\n      jump\t// in\n    tag_565:\n        /* \"#utility.yul\":26355:26359   */\n      dup7\n        /* \"#utility.yul\":26348:26429   */\n      sstore\n        /* \"#utility.yul\":26210:26439   */\n      pop\n        /* \"#utility.yul\":25531:26439   */\n      jump(tag_562)\n        /* \"#utility.yul\":25561:26193   */\n    tag_563:\n        /* \"#utility.yul\":25613:25617   */\n      0x1f\n        /* \"#utility.yul\":25609:25618   */\n      not\n        /* \"#utility.yul\":25601:25607   */\n      dup5\n        /* \"#utility.yul\":25597:25619   */\n      and\n        /* \"#utility.yul\":25647:25684   */\n      tag_566\n        /* \"#utility.yul\":25679:25683   */\n      dup7\n        /* \"#utility.yul\":25647:25684   */\n      tag_291\n      jump\t// in\n    tag_566:\n        /* \"#utility.yul\":25706:25707   */\n      0x00\n        /* \"#utility.yul\":25720:25935   */\n    tag_567:\n        /* \"#utility.yul\":25734:25741   */\n      dup3\n        /* \"#utility.yul\":25731:25732   */\n      dup2\n        /* \"#utility.yul\":25728:25742   */\n      lt\n        /* \"#utility.yul\":25720:25935   */\n      iszero\n      tag_569\n      jumpi\n        /* \"#utility.yul\":25820:25829   */\n      dup5\n        /* \"#utility.yul\":25815:25818   */\n      dup10\n        /* \"#utility.yul\":25811:25830   */\n      add\n        /* \"#utility.yul\":25798:25831   */\n      calldataload\n        /* \"#utility.yul\":25790:25796   */\n      dup3\n        /* \"#utility.yul\":25783:25832   */\n      sstore\n        /* \"#utility.yul\":25871:25872   */\n      0x01\n        /* \"#utility.yul\":25863:25869   */\n      dup3\n        /* \"#utility.yul\":25859:25873   */\n      add\n        /* \"#utility.yul\":25849:25873   */\n      swap2\n      pop\n        /* \"#utility.yul\":25918:25920   */\n      0x20\n        /* \"#utility.yul\":25907:25916   */\n      dup6\n        /* \"#utility.yul\":25903:25921   */\n      add\n        /* \"#utility.yul\":25890:25921   */\n      swap5\n      pop\n        /* \"#utility.yul\":25757:25761   */\n      0x20\n        /* \"#utility.yul\":25754:25755   */\n      dup2\n        /* \"#utility.yul\":25750:25762   */\n      add\n        /* \"#utility.yul\":25745:25762   */\n      swap1\n      pop\n        /* \"#utility.yul\":25720:25935   */\n      jump(tag_567)\n    tag_569:\n        /* \"#utility.yul\":25963:25969   */\n      dup7\n        /* \"#utility.yul\":25954:25961   */\n      dup4\n        /* \"#utility.yul\":25951:25970   */\n      lt\n        /* \"#utility.yul\":25948:26134   */\n      iszero\n      tag_570\n      jumpi\n        /* \"#utility.yul\":26028:26037   */\n      dup5\n        /* \"#utility.yul\":26023:26026   */\n      dup10\n        /* \"#utility.yul\":26019:26038   */\n      add\n        /* \"#utility.yul\":26006:26039   */\n      calldataload\n        /* \"#utility.yul\":26071:26119   */\n      tag_571\n        /* \"#utility.yul\":26113:26117   */\n      0x1f\n        /* \"#utility.yul\":26105:26111   */\n      dup10\n        /* \"#utility.yul\":26101:26118   */\n      and\n        /* \"#utility.yul\":26090:26099   */\n      dup3\n        /* \"#utility.yul\":26071:26119   */\n      tag_304\n      jump\t// in\n    tag_571:\n        /* \"#utility.yul\":26063:26069   */\n      dup4\n        /* \"#utility.yul\":26056:26120   */\n      sstore\n        /* \"#utility.yul\":25971:26134   */\n      pop\n        /* \"#utility.yul\":25948:26134   */\n    tag_570:\n        /* \"#utility.yul\":26180:26181   */\n      0x01\n        /* \"#utility.yul\":26176:26177   */\n      0x02\n        /* \"#utility.yul\":26168:26174   */\n      dup9\n        /* \"#utility.yul\":26164:26178   */\n      mul\n        /* \"#utility.yul\":26160:26182   */\n      add\n        /* \"#utility.yul\":26154:26158   */\n      dup9\n        /* \"#utility.yul\":26147:26183   */\n      sstore\n        /* \"#utility.yul\":25568:26193   */\n      pop\n      pop\n      pop\n        /* \"#utility.yul\":25531:26439   */\n    tag_562:\n      pop\n        /* \"#utility.yul\":25141:26445   */\n      pop\n      pop\n      pop\n        /* \"#utility.yul\":25042:26445   */\n      pop\n      pop\n      pop\n      jump\t// out\n        /* \"#utility.yul\":26451:26599   */\n    tag_306:\n        /* \"#utility.yul\":26549:26555   */\n      dup3\n        /* \"#utility.yul\":26544:26547   */\n      dup2\n        /* \"#utility.yul\":26539:26542   */\n      dup4\n        /* \"#utility.yul\":26526:26556   */\n      calldatacopy\n        /* \"#utility.yul\":26590:26591   */\n      0x00\n        /* \"#utility.yul\":26581:26587   */\n      dup4\n        /* \"#utility.yul\":26576:26579   */\n      dup4\n        /* \"#utility.yul\":26572:26588   */\n      add\n        /* \"#utility.yul\":26565:26592   */\n      mstore\n        /* \"#utility.yul\":26451:26599   */\n      pop\n      pop\n      pop\n      jump\t// out\n        /* \"#utility.yul\":26629:26946   */\n    tag_307:\n        /* \"#utility.yul\":26727:26730   */\n      0x00\n        /* \"#utility.yul\":26748:26819   */\n      tag_574\n        /* \"#utility.yul\":26812:26818   */\n      dup4\n        /* \"#utility.yul\":26807:26810   */\n      dup6\n        /* \"#utility.yul\":26748:26819   */\n      tag_247\n      jump\t// in\n    tag_574:\n        /* \"#utility.yul\":26741:26819   */\n      swap4\n      pop\n        /* \"#utility.yul\":26829:26885   */\n      tag_575\n        /* \"#utility.yul\":26878:26884   */\n      dup4\n        /* \"#utility.yul\":26873:26876   */\n      dup6\n        /* \"#utility.yul\":26866:26871   */\n      dup5\n        /* \"#utility.yul\":26829:26885   */\n      tag_306\n      jump\t// in\n    tag_575:\n        /* \"#utility.yul\":26910:26939   */\n      tag_576\n        /* \"#utility.yul\":26932:26938   */\n      dup4\n        /* \"#utility.yul\":26910:26939   */\n      tag_249\n      jump\t// in\n    tag_576:\n        /* \"#utility.yul\":26905:26908   */\n      dup5\n        /* \"#utility.yul\":26901:26940   */\n      add\n        /* \"#utility.yul\":26894:26940   */\n      swap1\n      pop\n        /* \"#utility.yul\":26629:26946   */\n      swap4\n      swap3\n      pop\n      pop\n      pop\n      jump\t// out\n        /* \"#utility.yul\":26952:27616   */\n    tag_120:\n        /* \"#utility.yul\":27159:27163   */\n      0x00\n        /* \"#utility.yul\":27197:27200   */\n      0x80\n        /* \"#utility.yul\":27186:27195   */\n      dup3\n        /* \"#utility.yul\":27182:27201   */\n      add\n        /* \"#utility.yul\":27174:27201   */\n      swap1\n      pop\n        /* \"#utility.yul\":27247:27256   */\n      dup2\n        /* \"#utility.yul\":27241:27245   */\n      dup2\n        /* \"#utility.yul\":27237:27257   */\n      sub\n        /* \"#utility.yul\":27233:27234   */\n      0x00\n        /* \"#utility.yul\":27222:27231   */\n      dup4\n        /* \"#utility.yul\":27218:27235   */\n      add\n        /* \"#utility.yul\":27211:27258   */\n      mstore\n        /* \"#utility.yul\":27275:27363   */\n      tag_578\n        /* \"#utility.yul\":27358:27362   */\n      dup2\n        /* \"#utility.yul\":27349:27355   */\n      dup8\n        /* \"#utility.yul\":27341:27347   */\n      dup10\n        /* \"#utility.yul\":27275:27363   */\n      tag_307\n      jump\t// in\n    tag_578:\n        /* \"#utility.yul\":27267:27363   */\n      swap1\n      pop\n        /* \"#utility.yul\":27373:27445   */\n      tag_579\n        /* \"#utility.yul\":27441:27443   */\n      0x20\n        /* \"#utility.yul\":27430:27439   */\n      dup4\n        /* \"#utility.yul\":27426:27444   */\n      add\n        /* \"#utility.yul\":27417:27423   */\n      dup7\n        /* \"#utility.yul\":27373:27445   */\n      tag_242\n      jump\t// in\n    tag_579:\n        /* \"#utility.yul\":27455:27527   */\n      tag_580\n        /* \"#utility.yul\":27523:27525   */\n      0x40\n        /* \"#utility.yul\":27512:27521   */\n      dup4\n        /* \"#utility.yul\":27508:27526   */\n      add\n        /* \"#utility.yul\":27499:27505   */\n      dup6\n        /* \"#utility.yul\":27455:27527   */\n      tag_242\n      jump\t// in\n    tag_580:\n        /* \"#utility.yul\":27537:27609   */\n      tag_581\n        /* \"#utility.yul\":27605:27607   */\n      0x60\n        /* \"#utility.yul\":27594:27603   */\n      dup4\n        /* \"#utility.yul\":27590:27608   */\n      add\n        /* \"#utility.yul\":27581:27587   */\n      dup5\n        /* \"#utility.yul\":27537:27609   */\n      tag_242\n      jump\t// in\n    tag_581:\n        /* \"#utility.yul\":26952:27616   */\n      swap7\n      swap6\n      pop\n      pop\n      pop\n      pop\n      pop\n      pop\n      jump\t// out\n        /* \"#utility.yul\":27622:27794   */\n    tag_308:\n        /* \"#utility.yul\":27762:27786   */\n      0x496e766573746d656e74206d757374206265203e203000000000000000000000\n        /* \"#utility.yul\":27758:27759   */\n      0x00\n        /* \"#utility.yul\":27750:27756   */\n      dup3\n        /* \"#utility.yul\":27746:27760   */\n      add\n        /* \"#utility.yul\":27739:27787   */\n      mstore\n        /* \"#utility.yul\":27622:27794   */\n      pop\n      jump\t// out\n        /* \"#utility.yul\":27800:28166   */\n    tag_309:\n        /* \"#utility.yul\":27942:27945   */\n      0x00\n        /* \"#utility.yul\":27963:28030   */\n      tag_584\n        /* \"#utility.yul\":28027:28029   */\n      0x16\n        /* \"#utility.yul\":28022:28025   */\n      dup4\n        /* \"#utility.yul\":27963:28030   */\n      tag_247\n      jump\t// in\n    tag_584:\n        /* \"#utility.yul\":27956:28030   */\n      swap2\n      pop\n        /* \"#utility.yul\":28039:28132   */\n      tag_585\n        /* \"#utility.yul\":28128:28131   */\n      dup3\n        /* \"#utility.yul\":28039:28132   */\n      tag_308\n      jump\t// in\n    tag_585:\n        /* \"#utility.yul\":28157:28159   */\n      0x20\n        /* \"#utility.yul\":28152:28155   */\n      dup3\n        /* \"#utility.yul\":28148:28160   */\n      add\n        /* \"#utility.yul\":28141:28160   */\n      swap1\n      pop\n        /* \"#utility.yul\":27800:28166   */\n      swap2\n      swap1\n      pop\n      jump\t// out\n        /* \"#utility.yul\":28172:28591   */\n    tag_127:\n        /* \"#utility.yul\":28338:28342   */\n      0x00\n        /* \"#utility.yul\":28376:28378   */\n      0x20\n        /* \"#utility.yul\":28365:28374   */\n      dup3\n        /* \"#utility.yul\":28361:28379   */\n      add\n        /* \"#utility.yul\":28353:28379   */\n      swap1\n      pop\n        /* \"#utility.yul\":28425:28434   */\n      dup2\n        /* \"#utility.yul\":28419:28423   */\n      dup2\n        /* \"#utility.yul\":28415:28435   */\n      sub\n        /* \"#utility.yul\":28411:28412   */\n      0x00\n        /* \"#utility.yul\":28400:28409   */\n      dup4\n        /* \"#utility.yul\":28396:28413   */\n      add\n        /* \"#utility.yul\":28389:28436   */\n      mstore\n        /* \"#utility.yul\":28453:28584   */\n      tag_587\n        /* \"#utility.yul\":28579:28583   */\n      dup2\n        /* \"#utility.yul\":28453:28584   */\n      tag_309\n      jump\t// in\n    tag_587:\n        /* \"#utility.yul\":28445:28584   */\n      swap1\n      pop\n        /* \"#utility.yul\":28172:28591   */\n      swap2\n      swap1\n      pop\n      jump\t// out\n        /* \"#utility.yul\":28597:28817   */\n    tag_310:\n        /* \"#utility.yul\":28737:28771   */\n      0x496e766573746d656e7420657863656564732066756e64696e67207461726765\n        /* \"#utility.yul\":28733:28734   */\n      0x00\n        /* \"#utility.yul\":28725:28731   */\n      dup3\n        /* \"#utility.yul\":28721:28735   */\n      add\n        /* \"#utility.yul\":28714:28772   */\n      mstore\n        /* \"#utility.yul\":28806:28809   */\n      0x7400000000000000000000000000000000000000000000000000000000000000\n        /* \"#utility.yul\":28801:28803   */\n      0x20\n        /* \"#utility.yul\":28793:28799   */\n      dup3\n        /* \"#utility.yul\":28789:28804   */\n      add\n        /* \"#utility.yul\":28782:28810   */\n      mstore\n        /* \"#utility.yul\":28597:28817   */\n      pop\n      jump\t// out\n        /* \"#utility.yul\":28823:29189   */\n    tag_311:\n        /* \"#utility.yul\":28965:28968   */\n      0x00\n        /* \"#utility.yul\":28986:29053   */\n      tag_590\n        /* \"#utility.yul\":29050:29052   */\n      0x21\n        /* \"#utility.yul\":29045:29048   */\n      dup4\n        /* \"#utility.yul\":28986:29053   */\n      tag_247\n      jump\t// in\n    tag_590:\n        /* \"#utility.yul\":28979:29053   */\n      swap2\n      pop\n        /* \"#utility.yul\":29062:29155   */\n      tag_591\n        /* \"#utility.yul\":29151:29154   */\n      dup3\n        /* \"#utility.yul\":29062:29155   */\n      tag_310\n      jump\t// in\n    tag_591:\n        /* \"#utility.yul\":29180:29182   */\n      0x40\n        /* \"#utility.yul\":29175:29178   */\n      dup3\n        /* \"#utility.yul\":29171:29183   */\n      add\n        /* \"#utility.yul\":29164:29183   */\n      swap1\n      pop\n        /* \"#utility.yul\":28823:29189   */\n      swap2\n      swap1\n      pop\n      jump\t// out\n        /* \"#utility.yul\":29195:29614   */\n    tag_131:\n        /* \"#utility.yul\":29361:29365   */\n      0x00\n        /* \"#utility.yul\":29399:29401   */\n      0x20\n        /* \"#utility.yul\":29388:29397   */\n      dup3\n        /* \"#utility.yul\":29384:29402   */\n      add\n        /* \"#utility.yul\":29376:29402   */\n      swap1\n      pop\n        /* \"#utility.yul\":29448:29457   */\n      dup2\n        /* \"#utility.yul\":29442:29446   */\n      dup2\n        /* \"#utility.yul\":29438:29458   */\n      sub\n        /* \"#utility.yul\":29434:29435   */\n      0x00\n        /* \"#utility.yul\":29423:29432   */\n      dup4\n        /* \"#utility.yul\":29419:29436   */\n      add\n        /* \"#utility.yul\":29412:29459   */\n      mstore\n        /* \"#utility.yul\":29476:29607   */\n      tag_593\n        /* \"#utility.yul\":29602:29606   */\n      dup2\n        /* \"#utility.yul\":29476:29607   */\n      tag_311\n      jump\t// in\n    tag_593:\n        /* \"#utility.yul\":29468:29607   */\n      swap1\n      pop\n        /* \"#utility.yul\":29195:29614   */\n      swap2\n      swap1\n      pop\n      jump\t// out\n        /* \"#utility.yul\":29620:29767   */\n    tag_312:\n        /* \"#utility.yul\":29721:29732   */\n      0x00\n        /* \"#utility.yul\":29758:29761   */\n      dup2\n        /* \"#utility.yul\":29743:29761   */\n      swap1\n      pop\n        /* \"#utility.yul\":29620:29767   */\n      swap3\n      swap2\n      pop\n      pop\n      jump\t// out\n        /* \"#utility.yul\":29773:29887   */\n    tag_313:\n      pop\n      jump\t// out\n        /* \"#utility.yul\":29893:30291   */\n    tag_314:\n        /* \"#utility.yul\":30052:30055   */\n      0x00\n        /* \"#utility.yul\":30073:30156   */\n      tag_597\n        /* \"#utility.yul\":30154:30155   */\n      0x00\n        /* \"#utility.yul\":30149:30152   */\n      dup4\n        /* \"#utility.yul\":30073:30156   */\n      tag_312\n      jump\t// in\n    tag_597:\n        /* \"#utility.yul\":30066:30156   */\n      swap2\n      pop\n        /* \"#utility.yul\":30165:30258   */\n      tag_598\n        /* \"#utility.yul\":30254:30257   */\n      dup3\n        /* \"#utility.yul\":30165:30258   */\n      tag_313\n      jump\t// in\n    tag_598:\n        /* \"#utility.yul\":30283:30284   */\n      0x00\n        /* \"#utility.yul\":30278:30281   */\n      dup3\n        /* \"#utility.yul\":30274:30285   */\n      add\n        /* \"#utility.yul\":30267:30285   */\n      swap1\n      pop\n        /* \"#utility.yul\":29893:30291   */\n      swap2\n      swap1\n      pop\n      jump\t// out\n        /* \"#utility.yul\":30297:30676   */\n    tag_138:\n        /* \"#utility.yul\":30481:30484   */\n      0x00\n        /* \"#utility.yul\":30503:30650   */\n      tag_600\n        /* \"#utility.yul\":30646:30649   */\n      dup3\n        /* \"#utility.yul\":30503:30650   */\n      tag_314\n      jump\t// in\n    tag_600:\n        /* \"#utility.yul\":30496:30650   */\n      swap2\n      pop\n        /* \"#utility.yul\":30667:30670   */\n      dup2\n        /* \"#utility.yul\":30660:30670   */\n      swap1\n      pop\n        /* \"#utility.yul\":30297:30676   */\n      swap2\n      swap1\n      pop\n      jump\t// out\n        /* \"#utility.yul\":30682:30909   */\n    tag_315:\n        /* \"#utility.yul\":30822:30856   */\n      0x4661696c656420746f207472616e736665722066756e647320746f206f726761\n        /* \"#utility.yul\":30818:30819   */\n      0x00\n        /* \"#utility.yul\":30810:30816   */\n      dup3\n        /* \"#utility.yul\":30806:30820   */\n      add\n        /* \"#utility.yul\":30799:30857   */\n      mstore\n        /* \"#utility.yul\":30891:30901   */\n      0x6e697a6174696f6e000000000000000000000000000000000000000000000000\n        /* \"#utility.yul\":30886:30888   */\n      0x20\n        /* \"#utility.yul\":30878:30884   */\n      dup3\n        /* \"#utility.yul\":30874:30889   */\n      add\n        /* \"#utility.yul\":30867:30902   */\n      mstore\n        /* \"#utility.yul\":30682:30909   */\n      pop\n      jump\t// out\n        /* \"#utility.yul\":30915:31281   */\n    tag_316:\n        /* \"#utility.yul\":31057:31060   */\n      0x00\n        /* \"#utility.yul\":31078:31145   */\n      tag_603\n        /* \"#utility.yul\":31142:31144   */\n      0x28\n        /* \"#utility.yul\":31137:31140   */\n      dup4\n        /* \"#utility.yul\":31078:31145   */\n      tag_247\n      jump\t// in\n    tag_603:\n        /* \"#utility.yul\":31071:31145   */\n      swap2\n      pop\n        /* \"#utility.yul\":31154:31247   */\n      tag_604\n        /* \"#utility.yul\":31243:31246   */\n      dup3\n        /* \"#utility.yul\":31154:31247   */\n      tag_315\n      jump\t// in\n    tag_604:\n        /* \"#utility.yul\":31272:31274   */\n      0x40\n        /* \"#utility.yul\":31267:31270   */\n      dup3\n        /* \"#utility.yul\":31263:31275   */\n      add\n        /* \"#utility.yul\":31256:31275   */\n      swap1\n      pop\n        /* \"#utility.yul\":30915:31281   */\n      swap2\n      swap1\n      pop\n      jump\t// out\n        /* \"#utility.yul\":31287:31706   */\n    tag_144:\n        /* \"#utility.yul\":31453:31457   */\n      0x00\n        /* \"#utility.yul\":31491:31493   */\n      0x20\n        /* \"#utility.yul\":31480:31489   */\n      dup3\n        /* \"#utility.yul\":31476:31494   */\n      add\n        /* \"#utility.yul\":31468:31494   */\n      swap1\n      pop\n        /* \"#utility.yul\":31540:31549   */\n      dup2\n        /* \"#utility.yul\":31534:31538   */\n      dup2\n        /* \"#utility.yul\":31530:31550   */\n      sub\n        /* \"#utility.yul\":31526:31527   */\n      0x00\n        /* \"#utility.yul\":31515:31524   */\n      dup4\n        /* \"#utility.yul\":31511:31528   */\n      add\n        /* \"#utility.yul\":31504:31551   */\n      mstore\n        /* \"#utility.yul\":31568:31699   */\n      tag_606\n        /* \"#utility.yul\":31694:31698   */\n      dup2\n        /* \"#utility.yul\":31568:31699   */\n      tag_316\n      jump\t// in\n    tag_606:\n        /* \"#utility.yul\":31560:31699   */\n      swap1\n      pop\n        /* \"#utility.yul\":31287:31706   */\n      swap2\n      swap1\n      pop\n      jump\t// out\n        /* \"#utility.yul\":31712:32044   */\n    tag_146:\n        /* \"#utility.yul\":31833:31837   */\n      0x00\n        /* \"#utility.yul\":31871:31873   */\n      0x40\n        /* \"#utility.yul\":31860:31869   */\n      dup3\n        /* \"#utility.yul\":31856:31874   */\n      add\n        /* \"#utility.yul\":31848:31874   */\n      swap1\n      pop\n        /* \"#utility.yul\":31884:31955   */\n      tag_608\n        /* \"#utility.yul\":31952:31953   */\n      0x00\n        /* \"#utility.yul\":31941:31950   */\n      dup4\n        /* \"#utility.yul\":31937:31954   */\n      add\n        /* \"#utility.yul\":31928:31934   */\n      dup6\n        /* \"#utility.yul\":31884:31955   */\n      tag_242\n      jump\t// in\n    tag_608:\n        /* \"#utility.yul\":31965:32037   */\n      tag_609\n        /* \"#utility.yul\":32033:32035   */\n      0x20\n        /* \"#utility.yul\":32022:32031   */\n      dup4\n        /* \"#utility.yul\":32018:32036   */\n      add\n        /* \"#utility.yul\":32009:32015   */\n      dup5\n        /* \"#utility.yul\":31965:32037   */\n      tag_242\n      jump\t// in\n    tag_609:\n        /* \"#utility.yul\":31712:32044   */\n      swap4\n      swap3\n      pop\n      pop\n      pop\n      jump\t// out\n        /* \"#utility.yul\":32050:32230   */\n    tag_161:\n        /* \"#utility.yul\":32098:32175   */\n      0x4e487b7100000000000000000000000000000000000000000000000000000000\n        /* \"#utility.yul\":32095:32096   */\n      0x00\n        /* \"#utility.yul\":32088:32176   */\n      mstore\n        /* \"#utility.yul\":32195:32199   */\n      0x32\n        /* \"#utility.yul\":32192:32193   */\n      0x04\n        /* \"#utility.yul\":32185:32200   */\n      mstore\n        /* \"#utility.yul\":32219:32223   */\n      0x24\n        /* \"#utility.yul\":32216:32217   */\n      0x00\n        /* \"#utility.yul\":32209:32224   */\n      revert\n        /* \"#utility.yul\":32236:32456   */\n    tag_317:\n        /* \"#utility.yul\":32376:32410   */\n      0x4f6e6c792063726561746f72206f7267616e697a6174696f6e20616c6c6f7765\n        /* \"#utility.yul\":32372:32373   */\n      0x00\n        /* \"#utility.yul\":32364:32370   */\n      dup3\n        /* \"#utility.yul\":32360:32374   */\n      add\n        /* \"#utility.yul\":32353:32411   */\n      mstore\n        /* \"#utility.yul\":32445:32448   */\n      0x6400000000000000000000000000000000000000000000000000000000000000\n        /* \"#utility.yul\":32440:32442   */\n      0x20\n        /* \"#utility.yul\":32432:32438   */\n      dup3\n        /* \"#utility.yul\":32428:32443   */\n      add\n        /* \"#utility.yul\":32421:32449   */\n      mstore\n        /* \"#utility.yul\":32236:32456   */\n      pop\n      jump\t// out\n        /* \"#utility.yul\":32462:32828   */\n    tag_318:\n        /* \"#utility.yul\":32604:32607   */\n      0x00\n        /* \"#utility.yul\":32625:32692   */\n      tag_613\n        /* \"#utility.yul\":32689:32691   */\n      0x21\n        /* \"#utility.yul\":32684:32687   */\n      dup4\n        /* \"#utility.yul\":32625:32692   */\n      tag_247\n      jump\t// in\n    tag_613:\n        /* \"#utility.yul\":32618:32692   */\n      swap2\n      pop\n        /* \"#utility.yul\":32701:32794   */\n      tag_614\n        /* \"#utility.yul\":32790:32793   */\n      dup3\n        /* \"#utility.yul\":32701:32794   */\n      tag_317\n      jump\t// in\n    tag_614:\n        /* \"#utility.yul\":32819:32821   */\n      0x40\n        /* \"#utility.yul\":32814:32817   */\n      dup3\n        /* \"#utility.yul\":32810:32822   */\n      add\n        /* \"#utility.yul\":32803:32822   */\n      swap1\n      pop\n        /* \"#utility.yul\":32462:32828   */\n      swap2\n      swap1\n      pop\n      jump\t// out\n        /* \"#utility.yul\":32834:33253   */\n    tag_173:\n        /* \"#utility.yul\":33000:33004   */\n      0x00\n        /* \"#utility.yul\":33038:33040   */\n      0x20\n        /* \"#utility.yul\":33027:33036   */\n      dup3\n        /* \"#utility.yul\":33023:33041   */\n      add\n        /* \"#utility.yul\":33015:33041   */\n      swap1\n      pop\n        /* \"#utility.yul\":33087:33096   */\n      dup2\n        /* \"#utility.yul\":33081:33085   */\n      dup2\n        /* \"#utility.yul\":33077:33097   */\n      sub\n        /* \"#utility.yul\":33073:33074   */\n      0x00\n        /* \"#utility.yul\":33062:33071   */\n      dup4\n        /* \"#utility.yul\":33058:33075   */\n      add\n        /* \"#utility.yul\":33051:33098   */\n      mstore\n        /* \"#utility.yul\":33115:33246   */\n      tag_616\n        /* \"#utility.yul\":33241:33245   */\n      dup2\n        /* \"#utility.yul\":33115:33246   */\n      tag_318\n      jump\t// in\n    tag_616:\n        /* \"#utility.yul\":33107:33246   */\n      swap1\n      pop\n        /* \"#utility.yul\":32834:33253   */\n      swap2\n      swap1\n      pop\n      jump\t// out\n        /* \"#utility.yul\":33259:33432   */\n    tag_319:\n        /* \"#utility.yul\":33399:33424   */\n      0x4465736372697074696f6e206973207265717569726564000000000000000000\n        /* \"#utility.yul\":33395:33396   */\n      0x00\n        /* \"#utility.yul\":33387:33393   */\n      dup3\n        /* \"#utility.yul\":33383:33397   */\n      add\n        /* \"#utility.yul\":33376:33425   */\n      mstore\n        /* \"#utility.yul\":33259:33432   */\n      pop\n      jump\t// out\n        /* \"#utility.yul\":33438:33804   */\n    tag_320:\n        /* \"#utility.yul\":33580:33583   */\n      0x00\n        /* \"#utility.yul\":33601:33668   */\n      tag_619\n        /* \"#utility.yul\":33665:33667   */\n      0x17\n        /* \"#utility.yul\":33660:33663   */\n      dup4\n        /* \"#utility.yul\":33601:33668   */\n      tag_247\n      jump\t// in\n    tag_619:\n        /* \"#utility.yul\":33594:33668   */\n      swap2\n      pop\n        /* \"#utility.yul\":33677:33770   */\n      tag_620\n        /* \"#utility.yul\":33766:33769   */\n      dup3\n        /* \"#utility.yul\":33677:33770   */\n      tag_319\n      jump\t// in\n    tag_620:\n        /* \"#utility.yul\":33795:33797   */\n      0x20\n        /* \"#utility.yul\":33790:33793   */\n      dup3\n        /* \"#utility.yul\":33786:33798   */\n      add\n        /* \"#utility.yul\":33779:33798   */\n      swap1\n      pop\n        /* \"#utility.yul\":33438:33804   */\n      swap2\n      swap1\n      pop\n      jump\t// out\n        /* \"#utility.yul\":33810:34229   */\n    tag_177:\n        /* \"#utility.yul\":33976:33980   */\n      0x00\n        /* \"#utility.yul\":34014:34016   */\n      0x20\n        /* \"#utility.yul\":34003:34012   */\n      dup3\n        /* \"#utility.yul\":33999:34017   */\n      add\n        /* \"#utility.yul\":33991:34017   */\n      swap1\n      pop\n        /* \"#utility.yul\":34063:34072   */\n      dup2\n        /* \"#utility.yul\":34057:34061   */\n      dup2\n        /* \"#utility.yul\":34053:34073   */\n      sub\n        /* \"#utility.yul\":34049:34050   */\n      0x00\n        /* \"#utility.yul\":34038:34047   */\n      dup4\n        /* \"#utility.yul\":34034:34051   */\n      add\n        /* \"#utility.yul\":34027:34074   */\n      mstore\n        /* \"#utility.yul\":34091:34222   */\n      tag_622\n        /* \"#utility.yul\":34217:34221   */\n      dup2\n        /* \"#utility.yul\":34091:34222   */\n      tag_320\n      jump\t// in\n    tag_622:\n        /* \"#utility.yul\":34083:34222   */\n      swap1\n      pop\n        /* \"#utility.yul\":33810:34229   */\n      swap2\n      swap1\n      pop\n      jump\t// out\n        /* \"#utility.yul\":34235:34678   */\n    tag_181:\n        /* \"#utility.yul\":34386:34390   */\n      0x00\n        /* \"#utility.yul\":34424:34426   */\n      0x40\n        /* \"#utility.yul\":34413:34422   */\n      dup3\n        /* \"#utility.yul\":34409:34427   */\n      add\n        /* \"#utility.yul\":34401:34427   */\n      swap1\n      pop\n        /* \"#utility.yul\":34473:34482   */\n      dup2\n        /* \"#utility.yul\":34467:34471   */\n      dup2\n        /* \"#utility.yul\":34463:34483   */\n      sub\n        /* \"#utility.yul\":34459:34460   */\n      0x00\n        /* \"#utility.yul\":34448:34457   */\n      dup4\n        /* \"#utility.yul\":34444:34461   */\n      add\n        /* \"#utility.yul\":34437:34484   */\n      mstore\n        /* \"#utility.yul\":34501:34589   */\n      tag_624\n        /* \"#utility.yul\":34584:34588   */\n      dup2\n        /* \"#utility.yul\":34575:34581   */\n      dup6\n        /* \"#utility.yul\":34567:34573   */\n      dup8\n        /* \"#utility.yul\":34501:34589   */\n      tag_307\n      jump\t// in\n    tag_624:\n        /* \"#utility.yul\":34493:34589   */\n      swap1\n      pop\n        /* \"#utility.yul\":34599:34671   */\n      tag_625\n        /* \"#utility.yul\":34667:34669   */\n      0x20\n        /* \"#utility.yul\":34656:34665   */\n      dup4\n        /* \"#utility.yul\":34652:34670   */\n      add\n        /* \"#utility.yul\":34643:34649   */\n      dup5\n        /* \"#utility.yul\":34599:34671   */\n      tag_242\n      jump\t// in\n    tag_625:\n        /* \"#utility.yul\":34235:34678   */\n      swap5\n      swap4\n      pop\n      pop\n      pop\n      pop\n      jump\t// out\n\n    auxdata: 0xa26469706673582212205f049e44413170ccda278c79298de535ae39eadb85a1369aad51cd01973b3e7764736f6c63430008220033\n}\n",
				"bytecode": {
					"linkReferences": {},
					"object": "6080604052348015600e575f5ffd5b5061254c8061001c5f395ff3fe608060405260043610610085575f3560e01c8063a461e2b311610058578063a461e2b31461016d578063ba0ca53214610189578063baf191b2146101c6578063d5ae0e9a146101ee578063ee53a4231461021f57610085565b80630436f2f61461008957806334ae18e3146100cd57806383f3d448146101095780638ade3de014610145575b5f5ffd5b348015610094575f5ffd5b506100af60048036038101906100aa91906114ce565b610249565b6040516100c4999897969594939291906116ba565b60405180910390f35b3480156100d8575f5ffd5b506100f360048036038101906100ee91906114ce565b61048b565b6040516101009190611753565b60405180910390f35b348015610114575f5ffd5b5061012f600480360381019061012a91906114ce565b61062f565b60405161013c9190611753565b60405180910390f35b348015610150575f5ffd5b5061016b600480360381019061016691906117cd565b6106ae565b005b610187600480360381019061018291906114ce565b6108dc565b005b348015610194575f5ffd5b506101af60048036038101906101aa919061187b565b610c53565b6040516101bd92919061195d565b60405180910390f35b3480156101d1575f5ffd5b506101ec60048036038101906101e79190611992565b610dcf565b005b3480156101f9575f5ffd5b50610202610fd4565b604051610216989796959493929190611aa6565b60405180910390f35b34801561022a575f5ffd5b5061023361148e565b6040516102409190611753565b60405180910390f35b5f5f60605f5f5f5f5f60608960015f8281526020019081526020015f20600a015f9054906101000a900460ff166102b5576040517f08c379a00000000000000000000000000000000000000000000000000000000081526004016102ac90611ba4565b60405180910390fd5b5f60015f8d81526020019081526020015f209050805f0154816001015f9054906101000a900473ffffffffffffffffffffffffffffffffffffffff1682600201836003015484600401548560050154866006015487600701548860090186805461031e90611bef565b80601f016020809104026020016040519081016040528092919081815260200182805461034a90611bef565b80156103955780601f1061036c57610100808354040283529160200191610395565b820191905f5260205f20905b81548152906001019060200180831161037857829003601f168201915b5050505050965080805480602002602001604051908101604052809291908181526020015f905b82821015610464578382905f5260205f200180546103d990611bef565b80601f016020809104026020016040519081016040528092919081815260200182805461040590611bef565b80156104505780601f1061042757610100808354040283529160200191610450565b820191905f5260205f20905b81548152906001019060200180831161043357829003601f168201915b5050505050815260200190600101906103bc565b5050505090509a509a509a509a509a509a509a509a509a5050509193959799909294969850565b5f8160015f8281526020019081526020015f20600a015f9054906101000a900460ff166104ed576040517f08c379a00000000000000000000000000000000000000000000000000000000081526004016104e490611ba4565b60405180910390fd5b5f60015f8581526020019081526020015f2090505f816009018054905090505f600a8261051a9190611c4c565b9050603281111561052a57603290505b5f5f90505f8311801561054f575062093a80846008015461054b9190611c8d565b4211155b1561055957600a90505b5f5f90505f856005015411156105b7575f8560050154606487600601546105809190611c4c565b61058a9190611ced565b90506002600a8261059b9190611ced565b6105a59190611c4c565b915060148211156105b557601491505b505b5f8183856105c59190611c8d565b6105cf9190611c8d565b905060648111156105df57606490505b808660070181905550887f20d456995c74d5114f87879b10c5214b9c28e11ea422eeb922cc2e755095669f826040516106189190611753565b60405180910390a280975050505050505050919050565b5f8160015f8281526020019081526020015f20600a015f9054906101000a900460ff16610691576040517f08c379a000000000000000000000000000000000000000000000000000000000815260040161068890611ba4565b60405180910390fd5b60015f8481526020019081526020015f2060070154915050919050565b5f85859050116106f3576040517f08c379a00000000000000000000000000000000000000000000000000000000081526004016106ea90611d67565b60405180910390fd5b5f8111610735576040517f08c379a000000000000000000000000000000000000000000000000000000000815260040161072c90611dcf565b60405180910390fd5b5f8211610777576040517f08c379a000000000000000000000000000000000000000000000000000000000815260040161076e90611e37565b60405180910390fd5b5f5f5490505f5f81548092919061078d90611e55565b91905055505f60015f8381526020019081526020015f20905081815f018190555033816001015f6101000a81548173ffffffffffffffffffffffffffffffffffffffff021916908373ffffffffffffffffffffffffffffffffffffffff1602179055508686826002019182610803929190612084565b508481600301819055508381600401819055508281600501819055505f81600601819055505f8160070181905550428160080181905550600181600a015f6101000a81548160ff021916908315150217905550600282908060018154018082558091505060019003905f5260205f20015f90919091909150553373ffffffffffffffffffffffffffffffffffffffff16827fd6950a5a53a38361c24ec18c089515caede74366415bf2fb4569cb72099f5e1c89898989896040516108cb95949392919061218b565b60405180910390a350505050505050565b8060015f8281526020019081526020015f20600a015f9054906101000a900460ff1661093d576040517f08c379a000000000000000000000000000000000000000000000000000000000815260040161093490611ba4565b60405180910390fd5b5f60015f8481526020019081526020015f2090505f3411610993576040517f08c379a000000000000000000000000000000000000000000000000000000000815260040161098a90612221565b60405180910390fd5b80600501543482600601546109a89190611c8d565b11156109e9576040517f08c379a00000000000000000000000000000000000000000000000000000000081526004016109e0906122af565b60405180910390fd5b5f60035f3373ffffffffffffffffffffffffffffffffffffffff1673ffffffffffffffffffffffffffffffffffffffff1681526020019081526020015f209050806003015f9054906101000a900460ff16610a9c5733815f015f6101000a81548173ffffffffffffffffffffffffffffffffffffffff021916908373ffffffffffffffffffffffffffffffffffffffff1602179055506001816003015f6101000a81548160ff0219169083151502179055505b5f816001015f8681526020019081526020015f205403610adf578060020184908060018154018082558091505060019003905f5260205f20015f90919091909150555b34816001015f8681526020019081526020015f205f828254610b019190611c8d565b9250508190555034826006015f828254610b1b9190611c8d565b925050819055505f826001015f9054906101000a900473ffffffffffffffffffffffffffffffffffffffff1673ffffffffffffffffffffffffffffffffffffffff1634604051610b6a906122fa565b5f6040518083038185875af1925050503d805f8114610ba4576040519150601f19603f3d011682016040523d82523d5f602084013e610ba9565b606091505b5050905080610bed576040517f08c379a0000000000000000000000000000000000000000000000000000000008152600401610be49061237e565b60405180910390fd5b3373ffffffffffffffffffffffffffffffffffffffff16857f271dec505c61c970bdd791a963b7162d814edf6292f40c4beef2af1e48eea1e8348660060154604051610c3a92919061239c565b60405180910390a3610c4b8561048b565b505050505050565b6060805f60035f8573ffffffffffffffffffffffffffffffffffffffff1673ffffffffffffffffffffffffffffffffffffffff1681526020019081526020015f2090505f816002018054905090508067ffffffffffffffff811115610cbb57610cba611ea6565b5b604051908082528060200260200182016040528015610ce95781602001602082028036833780820191505090505b5093508067ffffffffffffffff811115610d0657610d05611ea6565b5b604051908082528060200260200182016040528015610d345781602001602082028036833780820191505090505b5092505f5f90505b81811015610dc7575f836002018281548110610d5b57610d5a6123c3565b5b905f5260205f200154905080868381518110610d7a57610d796123c3565b5b602002602001018181525050836001015f8281526020019081526020015f2054858381518110610dad57610dac6123c3565b5b602002602001018181525050508080600101915050610d3c565b505050915091565b8260015f8281526020019081526020015f20600a015f9054906101000a900460ff16610e30576040517f08c379a0000000000000000000000000000000000000000000000000000000008152600401610e2790611ba4565b60405180910390fd5b833373ffffffffffffffffffffffffffffffffffffffff1660015f8381526020019081526020015f206001015f9054906101000a900473ffffffffffffffffffffffffffffffffffffffff1673ffffffffffffffffffffffffffffffffffffffff1614610ed2576040517f08c379a0000000000000000000000000000000000000000000000000000000008152600401610ec990612460565b60405180910390fd5b5f8484905011610f17576040517f08c379a0000000000000000000000000000000000000000000000000000000008152600401610f0e906124c8565b60405180910390fd5b5f60015f8781526020019081526020015f20905080600901858590918060018154018082558091505060019003905f5260205f20015f909192909192909192909192509182610f67929190612084565b503373ffffffffffffffffffffffffffffffffffffffff16867fc188596f32652d64253d21c2bbb3f1b4794308b7fbe9384000ffe306650d0b9687878560090180549050604051610fba939291906124e6565b60405180910390a3610fcb8661048b565b50505050505050565b6060806060806060806060805f60028054905090508067ffffffffffffffff81111561100357611002611ea6565b5b6040519080825280602002602001820160405280156110315781602001602082028036833780820191505090505b5098508067ffffffffffffffff81111561104e5761104d611ea6565b5b60405190808252806020026020018201604052801561107c5781602001602082028036833780820191505090505b5097508067ffffffffffffffff81111561109957611098611ea6565b5b6040519080825280602002602001820160405280156110cc57816020015b60608152602001906001900390816110b75790505b5096508067ffffffffffffffff8111156110e9576110e8611ea6565b5b6040519080825280602002602001820160405280156111175781602001602082028036833780820191505090505b5095508067ffffffffffffffff81111561113457611133611ea6565b5b6040519080825280602002602001820160405280156111625781602001602082028036833780820191505090505b5094508067ffffffffffffffff81111561117f5761117e611ea6565b5b6040519080825280602002602001820160405280156111ad5781602001602082028036833780820191505090505b5093508067ffffffffffffffff8111156111ca576111c9611ea6565b5b6040519080825280602002602001820160405280156111f85781602001602082028036833780820191505090505b5092508067ffffffffffffffff81111561121557611214611ea6565b5b6040519080825280602002602001820160405280156112435781602001602082028036833780820191505090505b5091505f5f90505b81811015611482575f60015f6002848154811061126b5761126a6123c3565b5b905f5260205f20015481526020019081526020015f209050805f01548b838151811061129a576112996123c3565b5b602002602001018181525050806001015f9054906101000a900473ffffffffffffffffffffffffffffffffffffffff168a83815181106112dd576112dc6123c3565b5b602002602001019073ffffffffffffffffffffffffffffffffffffffff16908173ffffffffffffffffffffffffffffffffffffffff168152505080600201805461132690611bef565b80601f016020809104026020016040519081016040528092919081815260200182805461135290611bef565b801561139d5780601f106113745761010080835404028352916020019161139d565b820191905f5260205f20905b81548152906001019060200180831161138057829003601f168201915b50505050508983815181106113b5576113b46123c3565b5b602002602001018190525080600301548883815181106113d8576113d76123c3565b5b60200260200101818152505080600401548783815181106113fc576113fb6123c3565b5b60200260200101818152505080600501548683815181106114205761141f6123c3565b5b6020026020010181815250508060060154858381518110611444576114436123c3565b5b6020026020010181815250508060070154848381518110611468576114676123c3565b5b60200260200101818152505050808060010191505061124b565b50509091929394959697565b5f5481565b5f5ffd5b5f5ffd5b5f819050919050565b6114ad8161149b565b81146114b7575f5ffd5b50565b5f813590506114c8816114a4565b92915050565b5f602082840312156114e3576114e2611493565b5b5f6114f0848285016114ba565b91505092915050565b6115028161149b565b82525050565b5f73ffffffffffffffffffffffffffffffffffffffff82169050919050565b5f61153182611508565b9050919050565b61154181611527565b82525050565b5f81519050919050565b5f82825260208201905092915050565b8281835e5f83830152505050565b5f601f19601f8301169050919050565b5f61158982611547565b6115938185611551565b93506115a3818560208601611561565b6115ac8161156f565b840191505092915050565b5f81519050919050565b5f82825260208201905092915050565b5f819050602082019050919050565b5f82825260208201905092915050565b5f6115fa82611547565b61160481856115e0565b9350611614818560208601611561565b61161d8161156f565b840191505092915050565b5f61163383836115f0565b905092915050565b5f602082019050919050565b5f611651826115b7565b61165b81856115c1565b93508360208202850161166d856115d1565b805f5b858110156116a857848403895281516116898582611628565b94506116948361163b565b925060208a01995050600181019050611670565b50829750879550505050505092915050565b5f610120820190506116ce5f83018c6114f9565b6116db602083018b611538565b81810360408301526116ed818a61157f565b90506116fc60608301896114f9565b61170960808301886114f9565b61171660a08301876114f9565b61172360c08301866114f9565b61173060e08301856114f9565b8181036101008301526117438184611647565b90509a9950505050505050505050565b5f6020820190506117665f8301846114f9565b92915050565b5f5ffd5b5f5ffd5b5f5ffd5b5f5f83601f84011261178d5761178c61176c565b5b8235905067ffffffffffffffff8111156117aa576117a9611770565b5b6020830191508360018202830111156117c6576117c5611774565b5b9250929050565b5f5f5f5f5f608086880312156117e6576117e5611493565b5b5f86013567ffffffffffffffff81111561180357611802611497565b5b61180f88828901611778565b95509550506020611822888289016114ba565b9350506040611833888289016114ba565b9250506060611844888289016114ba565b9150509295509295909350565b61185a81611527565b8114611864575f5ffd5b50565b5f8135905061187581611851565b92915050565b5f602082840312156118905761188f611493565b5b5f61189d84828501611867565b91505092915050565b5f81519050919050565b5f82825260208201905092915050565b5f819050602082019050919050565b6118d88161149b565b82525050565b5f6118e983836118cf565b60208301905092915050565b5f602082019050919050565b5f61190b826118a6565b61191581856118b0565b9350611920836118c0565b805f5b8381101561195057815161193788826118de565b9750611942836118f5565b925050600181019050611923565b5085935050505092915050565b5f6040820190508181035f8301526119758185611901565b905081810360208301526119898184611901565b90509392505050565b5f5f5f604084860312156119a9576119a8611493565b5b5f6119b6868287016114ba565b935050602084013567ffffffffffffffff8111156119d7576119d6611497565b5b6119e386828701611778565b92509250509250925092565b5f81519050919050565b5f82825260208201905092915050565b5f819050602082019050919050565b611a2181611527565b82525050565b5f611a328383611a18565b60208301905092915050565b5f602082019050919050565b5f611a54826119ef565b611a5e81856119f9565b9350611a6983611a09565b805f5b83811015611a99578151611a808882611a27565b9750611a8b83611a3e565b925050600181019050611a6c565b5085935050505092915050565b5f610100820190508181035f830152611abf818b611901565b90508181036020830152611ad3818a611a4a565b90508181036040830152611ae78189611647565b90508181036060830152611afb8188611901565b90508181036080830152611b0f8187611901565b905081810360a0830152611b238186611901565b905081810360c0830152611b378185611901565b905081810360e0830152611b4b8184611901565b90509998505050505050505050565b7f426f6e6420646f6573206e6f74206578697374000000000000000000000000005f82015250565b5f611b8e601383611551565b9150611b9982611b5a565b602082019050919050565b5f6020820190508181035f830152611bbb81611b82565b9050919050565b7f4e487b71000000000000000000000000000000000000000000000000000000005f52602260045260245ffd5b5f6002820490506001821680611c0657607f821691505b602082108103611c1957611c18611bc2565b5b50919050565b7f4e487b71000000000000000000000000000000000000000000000000000000005f52601160045260245ffd5b5f611c568261149b565b9150611c618361149b565b9250828202611c6f8161149b565b91508282048414831517611c8657611c85611c1f565b5b5092915050565b5f611c978261149b565b9150611ca28361149b565b9250828201905080821115611cba57611cb9611c1f565b5b92915050565b7f4e487b71000000000000000000000000000000000000000000000000000000005f52601260045260245ffd5b5f611cf78261149b565b9150611d028361149b565b925082611d1257611d11611cc0565b5b828204905092915050565b7f4e616d65206973207265717569726564000000000000000000000000000000005f82015250565b5f611d51601083611551565b9150611d5c82611d1d565b602082019050919050565b5f6020820190508181035f830152611d7e81611d45565b9050919050565b7f46756e64696e67206d757374206265203e2030000000000000000000000000005f82015250565b5f611db9601383611551565b9150611dc482611d85565b602082019050919050565b5f6020820190508181035f830152611de681611dad565b9050919050565b7f4475726174696f6e206d757374206265203e20300000000000000000000000005f82015250565b5f611e21601483611551565b9150611e2c82611ded565b602082019050919050565b5f6020820190508181035f830152611e4e81611e15565b9050919050565b5f611e5f8261149b565b91507fffffffffffffffffffffffffffffffffffffffffffffffffffffffffffffffff8203611e9157611e90611c1f565b5b600182019050919050565b5f82905092915050565b7f4e487b71000000000000000000000000000000000000000000000000000000005f52604160045260245ffd5b5f819050815f5260205f209050919050565b5f6020601f8301049050919050565b5f82821b905092915050565b5f60088302611f2f7fffffffffffffffffffffffffffffffffffffffffffffffffffffffffffffffff82611ef4565b611f398683611ef4565b95508019841693508086168417925050509392505050565b5f819050919050565b5f611f74611f6f611f6a8461149b565b611f51565b61149b565b9050919050565b5f819050919050565b611f8d83611f5a565b611fa1611f9982611f7b565b848454611f00565b825550505050565b5f5f905090565b611fb8611fa9565b611fc3818484611f84565b505050565b5f5b82811015611fe957611fde5f828401611fb0565b600181019050611fca565b505050565b601f82111561203c578282111561203b5761200881611ed3565b61201183611ee5565b61201a85611ee5565b6020861015612027575f90505b80830161203682840382611fc8565b505050505b5b505050565b5f82821c905092915050565b5f61205c5f1984600802612041565b1980831691505092915050565b5f612074838361204d565b9150826002028217905092915050565b61208e8383611e9c565b67ffffffffffffffff8111156120a7576120a6611ea6565b5b6120b18254611bef565b6120bc828285611fee565b5f601f8311600181146120e9575f84156120d7578287013590505b6120e18582612069565b865550612148565b601f1984166120f786611ed3565b5f5b8281101561211e578489013582556001820191506020850194506020810190506120f9565b8683101561213b5784890135612137601f89168261204d565b8355505b6001600288020188555050505b50505050505050565b828183375f83830152505050565b5f61216a8385611551565b9350612177838584612151565b6121808361156f565b840190509392505050565b5f6080820190508181035f8301526121a481878961215f565b90506121b360208301866114f9565b6121c060408301856114f9565b6121cd60608301846114f9565b9695505050505050565b7f496e766573746d656e74206d757374206265203e2030000000000000000000005f82015250565b5f61220b601683611551565b9150612216826121d7565b602082019050919050565b5f6020820190508181035f830152612238816121ff565b9050919050565b7f496e766573746d656e7420657863656564732066756e64696e672074617267655f8201527f7400000000000000000000000000000000000000000000000000000000000000602082015250565b5f612299602183611551565b91506122a48261223f565b604082019050919050565b5f6020820190508181035f8301526122c68161228d565b9050919050565b5f81905092915050565b50565b5f6122e55f836122cd565b91506122f0826122d7565b5f82019050919050565b5f612304826122da565b9150819050919050565b7f4661696c656420746f207472616e736665722066756e647320746f206f7267615f8201527f6e697a6174696f6e000000000000000000000000000000000000000000000000602082015250565b5f612368602883611551565b91506123738261230e565b604082019050919050565b5f6020820190508181035f8301526123958161235c565b9050919050565b5f6040820190506123af5f8301856114f9565b6123bc60208301846114f9565b9392505050565b7f4e487b71000000000000000000000000000000000000000000000000000000005f52603260045260245ffd5b7f4f6e6c792063726561746f72206f7267616e697a6174696f6e20616c6c6f77655f8201527f6400000000000000000000000000000000000000000000000000000000000000602082015250565b5f61244a602183611551565b9150612455826123f0565b604082019050919050565b5f6020820190508181035f8301526124778161243e565b9050919050565b7f4465736372697074696f6e2069732072657175697265640000000000000000005f82015250565b5f6124b2601783611551565b91506124bd8261247e565b602082019050919050565b5f6020820190508181035f8301526124df816124a6565b9050919050565b5f6040820190508181035f8301526124ff81858761215f565b905061250e60208301846114f9565b94935050505056fea26469706673582212205f049e44413170ccda278c79298de535ae39eadb85a1369aad51cd01973b3e7764736f6c63430008220033",
					"opcodes": "PUSH1 0x80 PUSH1 0x40 MSTORE CALLVALUE DUP1 ISZERO PUSH1 0xE JUMPI PUSH0 PUSH0 REVERT JUMPDEST POP PUSH2 0x254C DUP1 PUSH2 0x1C PUSH0 CODECOPY PUSH0 RETURN INVALID PUSH1 0x80 PUSH1 0x40 MSTORE PUSH1 0x4 CALLDATASIZE LT PUSH2 0x85 JUMPI PUSH0 CALLDATALOAD PUSH1 0xE0 SHR DUP1 PUSH4 0xA461E2B3 GT PUSH2 0x58 JUMPI DUP1 PUSH4 0xA461E2B3 EQ PUSH2 0x16D JUMPI DUP1 PUSH4 0xBA0CA532 EQ PUSH2 0x189 JUMPI DUP1 PUSH4 0xBAF191B2 EQ PUSH2 0x1C6 JUMPI DUP1 PUSH4 0xD5AE0E9A EQ PUSH2 0x1EE JUMPI DUP1 PUSH4 0xEE53A423 EQ PUSH2 0x21F JUMPI PUSH2 0x85 JUMP JUMPDEST DUP1 PUSH4 0x436F2F6 EQ PUSH2 0x89 JUMPI DUP1 PUSH4 0x34AE18E3 EQ PUSH2 0xCD JUMPI DUP1 PUSH4 0x83F3D448 EQ PUSH2 0x109 JUMPI DUP1 PUSH4 0x8ADE3DE0 EQ PUSH2 0x145 JUMPI JUMPDEST PUSH0 PUSH0 REVERT JUMPDEST CALLVALUE DUP1 ISZERO PUSH2 0x94 JUMPI PUSH0 PUSH0 REVERT JUMPDEST POP PUSH2 0xAF PUSH1 0x4 DUP1 CALLDATASIZE SUB DUP2 ADD SWAP1 PUSH2 0xAA SWAP2 SWAP1 PUSH2 0x14CE JUMP JUMPDEST PUSH2 0x249 JUMP JUMPDEST PUSH1 0x40 MLOAD PUSH2 0xC4 SWAP10 SWAP9 SWAP8 SWAP7 SWAP6 SWAP5 SWAP4 SWAP3 SWAP2 SWAP1 PUSH2 0x16BA JUMP JUMPDEST PUSH1 0x40 MLOAD DUP1 SWAP2 SUB SWAP1 RETURN JUMPDEST CALLVALUE DUP1 ISZERO PUSH2 0xD8 JUMPI PUSH0 PUSH0 REVERT JUMPDEST POP PUSH2 0xF3 PUSH1 0x4 DUP1 CALLDATASIZE SUB DUP2 ADD SWAP1 PUSH2 0xEE SWAP2 SWAP1 PUSH2 0x14CE JUMP JUMPDEST PUSH2 0x48B JUMP JUMPDEST PUSH1 0x40 MLOAD PUSH2 0x100 SWAP2 SWAP1 PUSH2 0x1753 JUMP JUMPDEST PUSH1 0x40 MLOAD DUP1 SWAP2 SUB SWAP1 RETURN JUMPDEST CALLVALUE DUP1 ISZERO PUSH2 0x114 JUMPI PUSH0 PUSH0 REVERT JUMPDEST POP PUSH2 0x12F PUSH1 0x4 DUP1 CALLDATASIZE SUB DUP2 ADD SWAP1 PUSH2 0x12A SWAP2 SWAP1 PUSH2 0x14CE JUMP JUMPDEST PUSH2 0x62F JUMP JUMPDEST PUSH1 0x40 MLOAD PUSH2 0x13C SWAP2 SWAP1 PUSH2 0x1753 JUMP JUMPDEST PUSH1 0x40 MLOAD DUP1 SWAP2 SUB SWAP1 RETURN JUMPDEST CALLVALUE DUP1 ISZERO PUSH2 0x150 JUMPI PUSH0 PUSH0 REVERT JUMPDEST POP PUSH2 0x16B PUSH1 0x4 DUP1 CALLDATASIZE SUB DUP2 ADD SWAP1 PUSH2 0x166 SWAP2 SWAP1 PUSH2 0x17CD JUMP JUMPDEST PUSH2 0x6AE JUMP JUMPDEST STOP JUMPDEST PUSH2 0x187 PUSH1 0x4 DUP1 CALLDATASIZE SUB DUP2 ADD SWAP1 PUSH2 0x182 SWAP2 SWAP1 PUSH2 0x14CE JUMP JUMPDEST PUSH2 0x8DC JUMP JUMPDEST STOP JUMPDEST CALLVALUE DUP1 ISZERO PUSH2 0x194 JUMPI PUSH0 PUSH0 REVERT JUMPDEST POP PUSH2 0x1AF PUSH1 0x4 DUP1 CALLDATASIZE SUB DUP2 ADD SWAP1 PUSH2 0x1AA SWAP2 SWAP1 PUSH2 0x187B JUMP JUMPDEST PUSH2 0xC53 JUMP JUMPDEST PUSH1 0x40 MLOAD PUSH2 0x1BD SWAP3 SWAP2 SWAP1 PUSH2 0x195D JUMP JUMPDEST PUSH1 0x40 MLOAD DUP1 SWAP2 SUB SWAP1 RETURN JUMPDEST CALLVALUE DUP1 ISZERO PUSH2 0x1D1 JUMPI PUSH0 PUSH0 REVERT JUMPDEST POP PUSH2 0x1EC PUSH1 0x4 DUP1 CALLDATASIZE SUB DUP2 ADD SWAP1 PUSH2 0x1E7 SWAP2 SWAP1 PUSH2 0x1992 JUMP JUMPDEST PUSH2 0xDCF JUMP JUMPDEST STOP JUMPDEST CALLVALUE DUP1 ISZERO PUSH2 0x1F9 JUMPI PUSH0 PUSH0 REVERT JUMPDEST POP PUSH2 0x202 PUSH2 0xFD4 JUMP JUMPDEST PUSH1 0x40 MLOAD PUSH2 0x216 SWAP9 SWAP8 SWAP7 SWAP6 SWAP5 SWAP4 SWAP3 SWAP2 SWAP1 PUSH2 0x1AA6 JUMP JUMPDEST PUSH1 0x40 MLOAD DUP1 SWAP2 SUB SWAP1 RETURN JUMPDEST CALLVALUE DUP1 ISZERO PUSH2 0x22A JUMPI PUSH0 PUSH0 REVERT JUMPDEST POP PUSH2 0x233 PUSH2 0x148E JUMP JUMPDEST PUSH1 0x40 MLOAD PUSH2 0x240 SWAP2 SWAP1 PUSH2 0x1753 JUMP JUMPDEST PUSH1 0x40 MLOAD DUP1 SWAP2 SUB SWAP1 RETURN JUMPDEST PUSH0 PUSH0 PUSH1 0x60 PUSH0 PUSH0 PUSH0 PUSH0 PUSH0 PUSH1 0x60 DUP10 PUSH1 0x1 PUSH0 DUP3 DUP2 MSTORE PUSH1 0x20 ADD SWAP1 DUP2 MSTORE PUSH1 0x20 ADD PUSH0 KECCAK256 PUSH1 0xA ADD PUSH0 SWAP1 SLOAD SWAP1 PUSH2 0x100 EXP SWAP1 DIV PUSH1 0xFF AND PUSH2 0x2B5 JUMPI PUSH1 0x40 MLOAD PUSH32 0x8C379A000000000000000000000000000000000000000000000000000000000 DUP2 MSTORE PUSH1 0x4 ADD PUSH2 0x2AC SWAP1 PUSH2 0x1BA4 JUMP JUMPDEST PUSH1 0x40 MLOAD DUP1 SWAP2 SUB SWAP1 REVERT JUMPDEST PUSH0 PUSH1 0x1 PUSH0 DUP14 DUP2 MSTORE PUSH1 0x20 ADD SWAP1 DUP2 MSTORE PUSH1 0x20 ADD PUSH0 KECCAK256 SWAP1 POP DUP1 PUSH0 ADD SLOAD DUP2 PUSH1 0x1 ADD PUSH0 SWAP1 SLOAD SWAP1 PUSH2 0x100 EXP SWAP1 DIV PUSH20 0xFFFFFFFFFFFFFFFFFFFFFFFFFFFFFFFFFFFFFFFF AND DUP3 PUSH1 0x2 ADD DUP4 PUSH1 0x3 ADD SLOAD DUP5 PUSH1 0x4 ADD SLOAD DUP6 PUSH1 0x5 ADD SLOAD DUP7 PUSH1 0x6 ADD SLOAD DUP8 PUSH1 0x7 ADD SLOAD DUP9 PUSH1 0x9 ADD DUP7 DUP1 SLOAD PUSH2 0x31E SWAP1 PUSH2 0x1BEF JUMP JUMPDEST DUP1 PUSH1 0x1F ADD PUSH1 0x20 DUP1 SWAP2 DIV MUL PUSH1 0x20 ADD PUSH1 0x40 MLOAD SWAP1 DUP2 ADD PUSH1 0x40 MSTORE DUP1 SWAP3 SWAP2 SWAP1 DUP2 DUP2 MSTORE PUSH1 0x20 ADD DUP3 DUP1 SLOAD PUSH2 0x34A SWAP1 PUSH2 0x1BEF JUMP JUMPDEST DUP1 ISZERO PUSH2 0x395 JUMPI DUP1 PUSH1 0x1F LT PUSH2 0x36C JUMPI PUSH2 0x100 DUP1 DUP4 SLOAD DIV MUL DUP4 MSTORE SWAP2 PUSH1 0x20 ADD SWAP2 PUSH2 0x395 JUMP JUMPDEST DUP3 ADD SWAP2 SWAP1 PUSH0 MSTORE PUSH1 0x20 PUSH0 KECCAK256 SWAP1 JUMPDEST DUP2 SLOAD DUP2 MSTORE SWAP1 PUSH1 0x1 ADD SWAP1 PUSH1 0x20 ADD DUP1 DUP4 GT PUSH2 0x378 JUMPI DUP3 SWAP1 SUB PUSH1 0x1F AND DUP3 ADD SWAP2 JUMPDEST POP POP POP POP POP SWAP7 POP DUP1 DUP1 SLOAD DUP1 PUSH1 0x20 MUL PUSH1 0x20 ADD PUSH1 0x40 MLOAD SWAP1 DUP2 ADD PUSH1 0x40 MSTORE DUP1 SWAP3 SWAP2 SWAP1 DUP2 DUP2 MSTORE PUSH1 0x20 ADD PUSH0 SWAP1 JUMPDEST DUP3 DUP3 LT ISZERO PUSH2 0x464 JUMPI DUP4 DUP3 SWAP1 PUSH0 MSTORE PUSH1 0x20 PUSH0 KECCAK256 ADD DUP1 SLOAD PUSH2 0x3D9 SWAP1 PUSH2 0x1BEF JUMP JUMPDEST DUP1 PUSH1 0x1F ADD PUSH1 0x20 DUP1 SWAP2 DIV MUL PUSH1 0x20 ADD PUSH1 0x40 MLOAD SWAP1 DUP2 ADD PUSH1 0x40 MSTORE DUP1 SWAP3 SWAP2 SWAP1 DUP2 DUP2 MSTORE PUSH1 0x20 ADD DUP3 DUP1 SLOAD PUSH2 0x405 SWAP1 PUSH2 0x1BEF JUMP JUMPDEST DUP1 ISZERO PUSH2 0x450 JUMPI DUP1 PUSH1 0x1F LT PUSH2 0x427 JUMPI PUSH2 0x100 DUP1 DUP4 SLOAD DIV MUL DUP4 MSTORE SWAP2 PUSH1 0x20 ADD SWAP2 PUSH2 0x450 JUMP JUMPDEST DUP3 ADD SWAP2 SWAP1 PUSH0 MSTORE PUSH1 0x20 PUSH0 KECCAK256 SWAP1 JUMPDEST DUP2 SLOAD DUP2 MSTORE SWAP1 PUSH1 0x1 ADD SWAP1 PUSH1 0x20 ADD DUP1 DUP4 GT PUSH2 0x433 JUMPI DUP3 SWAP1 SUB PUSH1 0x1F AND DUP3 ADD SWAP2 JUMPDEST POP POP POP POP POP DUP2 MSTORE PUSH1 0x20 ADD SWAP1 PUSH1 0x1 ADD SWAP1 PUSH2 0x3BC JUMP JUMPDEST POP POP POP POP SWAP1 POP SWAP11 POP SWAP11 POP SWAP11 POP SWAP11 POP SWAP11 POP SWAP11 POP SWAP11 POP SWAP11 POP SWAP11 POP POP POP SWAP2 SWAP4 SWAP6 SWAP8 SWAP10 SWAP1 SWAP3 SWAP5 SWAP7 SWAP9 POP JUMP JUMPDEST PUSH0 DUP2 PUSH1 0x1 PUSH0 DUP3 DUP2 MSTORE PUSH1 0x20 ADD SWAP1 DUP2 MSTORE PUSH1 0x20 ADD PUSH0 KECCAK256 PUSH1 0xA ADD PUSH0 SWAP1 SLOAD SWAP1 PUSH2 0x100 EXP SWAP1 DIV PUSH1 0xFF AND PUSH2 0x4ED JUMPI PUSH1 0x40 MLOAD PUSH32 0x8C379A000000000000000000000000000000000000000000000000000000000 DUP2 MSTORE PUSH1 0x4 ADD PUSH2 0x4E4 SWAP1 PUSH2 0x1BA4 JUMP JUMPDEST PUSH1 0x40 MLOAD DUP1 SWAP2 SUB SWAP1 REVERT JUMPDEST PUSH0 PUSH1 0x1 PUSH0 DUP6 DUP2 MSTORE PUSH1 0x20 ADD SWAP1 DUP2 MSTORE PUSH1 0x20 ADD PUSH0 KECCAK256 SWAP1 POP PUSH0 DUP2 PUSH1 0x9 ADD DUP1 SLOAD SWAP1 POP SWAP1 POP PUSH0 PUSH1 0xA DUP3 PUSH2 0x51A SWAP2 SWAP1 PUSH2 0x1C4C JUMP JUMPDEST SWAP1 POP PUSH1 0x32 DUP2 GT ISZERO PUSH2 0x52A JUMPI PUSH1 0x32 SWAP1 POP JUMPDEST PUSH0 PUSH0 SWAP1 POP PUSH0 DUP4 GT DUP1 ISZERO PUSH2 0x54F JUMPI POP PUSH3 0x93A80 DUP5 PUSH1 0x8 ADD SLOAD PUSH2 0x54B SWAP2 SWAP1 PUSH2 0x1C8D JUMP JUMPDEST TIMESTAMP GT ISZERO JUMPDEST ISZERO PUSH2 0x559 JUMPI PUSH1 0xA SWAP1 POP JUMPDEST PUSH0 PUSH0 SWAP1 POP PUSH0 DUP6 PUSH1 0x5 ADD SLOAD GT ISZERO PUSH2 0x5B7 JUMPI PUSH0 DUP6 PUSH1 0x5 ADD SLOAD PUSH1 0x64 DUP8 PUSH1 0x6 ADD SLOAD PUSH2 0x580 SWAP2 SWAP1 PUSH2 0x1C4C JUMP JUMPDEST PUSH2 0x58A SWAP2 SWAP1 PUSH2 0x1CED JUMP JUMPDEST SWAP1 POP PUSH1 0x2 PUSH1 0xA DUP3 PUSH2 0x59B SWAP2 SWAP1 PUSH2 0x1CED JUMP JUMPDEST PUSH2 0x5A5 SWAP2 SWAP1 PUSH2 0x1C4C JUMP JUMPDEST SWAP2 POP PUSH1 0x14 DUP3 GT ISZERO PUSH2 0x5B5 JUMPI PUSH1 0x14 SWAP2 POP JUMPDEST POP JUMPDEST PUSH0 DUP2 DUP4 DUP6 PUSH2 0x5C5 SWAP2 SWAP1 PUSH2 0x1C8D JUMP JUMPDEST PUSH2 0x5CF SWAP2 SWAP1 PUSH2 0x1C8D JUMP JUMPDEST SWAP1 POP PUSH1 0x64 DUP2 GT ISZERO PUSH2 0x5DF JUMPI PUSH1 0x64 SWAP1 POP JUMPDEST DUP1 DUP7 PUSH1 0x7 ADD DUP2 SWAP1 SSTORE POP DUP9 PUSH32 0x20D456995C74D5114F87879B10C5214B9C28E11EA422EEB922CC2E755095669F DUP3 PUSH1 0x40 MLOAD PUSH2 0x618 SWAP2 SWAP1 PUSH2 0x1753 JUMP JUMPDEST PUSH1 0x40 MLOAD DUP1 SWAP2 SUB SWAP1 LOG2 DUP1 SWAP8 POP POP POP POP POP POP POP POP SWAP2 SWAP1 POP JUMP JUMPDEST PUSH0 DUP2 PUSH1 0x1 PUSH0 DUP3 DUP2 MSTORE PUSH1 0x20 ADD SWAP1 DUP2 MSTORE PUSH1 0x20 ADD PUSH0 KECCAK256 PUSH1 0xA ADD PUSH0 SWAP1 SLOAD SWAP1 PUSH2 0x100 EXP SWAP1 DIV PUSH1 0xFF AND PUSH2 0x691 JUMPI PUSH1 0x40 MLOAD PUSH32 0x8C379A000000000000000000000000000000000000000000000000000000000 DUP2 MSTORE PUSH1 0x4 ADD PUSH2 0x688 SWAP1 PUSH2 0x1BA4 JUMP JUMPDEST PUSH1 0x40 MLOAD DUP1 SWAP2 SUB SWAP1 REVERT JUMPDEST PUSH1 0x1 PUSH0 DUP5 DUP2 MSTORE PUSH1 0x20 ADD SWAP1 DUP2 MSTORE PUSH1 0x20 ADD PUSH0 KECCAK256 PUSH1 0x7 ADD SLOAD SWAP2 POP POP SWAP2 SWAP1 POP JUMP JUMPDEST PUSH0 DUP6 DUP6 SWAP1 POP GT PUSH2 0x6F3 JUMPI PUSH1 0x40 MLOAD PUSH32 0x8C379A000000000000000000000000000000000000000000000000000000000 DUP2 MSTORE PUSH1 0x4 ADD PUSH2 0x6EA SWAP1 PUSH2 0x1D67 JUMP JUMPDEST PUSH1 0x40 MLOAD DUP1 SWAP2 SUB SWAP1 REVERT JUMPDEST PUSH0 DUP2 GT PUSH2 0x735 JUMPI PUSH1 0x40 MLOAD PUSH32 0x8C379A000000000000000000000000000000000000000000000000000000000 DUP2 MSTORE PUSH1 0x4 ADD PUSH2 0x72C SWAP1 PUSH2 0x1DCF JUMP JUMPDEST PUSH1 0x40 MLOAD DUP1 SWAP2 SUB SWAP1 REVERT JUMPDEST PUSH0 DUP3 GT PUSH2 0x777 JUMPI PUSH1 0x40 MLOAD PUSH32 0x8C379A000000000000000000000000000000000000000000000000000000000 DUP2 MSTORE PUSH1 0x4 ADD PUSH2 0x76E SWAP1 PUSH2 0x1E37 JUMP JUMPDEST PUSH1 0x40 MLOAD DUP1 SWAP2 SUB SWAP1 REVERT JUMPDEST PUSH0 PUSH0 SLOAD SWAP1 POP PUSH0 PUSH0 DUP2 SLOAD DUP1 SWAP3 SWAP2 SWAP1 PUSH2 0x78D SWAP1 PUSH2 0x1E55 JUMP JUMPDEST SWAP2 SWAP1 POP SSTORE POP PUSH0 PUSH1 0x1 PUSH0 DUP4 DUP2 MSTORE PUSH1 0x20 ADD SWAP1 DUP2 MSTORE PUSH1 0x20 ADD PUSH0 KECCAK256 SWAP1 POP DUP2 DUP2 PUSH0 ADD DUP2 SWAP1 SSTORE POP CALLER DUP2 PUSH1 0x1 ADD PUSH0 PUSH2 0x100 EXP DUP2 SLOAD DUP2 PUSH20 0xFFFFFFFFFFFFFFFFFFFFFFFFFFFFFFFFFFFFFFFF MUL NOT AND SWAP1 DUP4 PUSH20 0xFFFFFFFFFFFFFFFFFFFFFFFFFFFFFFFFFFFFFFFF AND MUL OR SWAP1 SSTORE POP DUP7 DUP7 DUP3 PUSH1 0x2 ADD SWAP2 DUP3 PUSH2 0x803 SWAP3 SWAP2 SWAP1 PUSH2 0x2084 JUMP JUMPDEST POP DUP5 DUP2 PUSH1 0x3 ADD DUP2 SWAP1 SSTORE POP DUP4 DUP2 PUSH1 0x4 ADD DUP2 SWAP1 SSTORE POP DUP3 DUP2 PUSH1 0x5 ADD DUP2 SWAP1 SSTORE POP PUSH0 DUP2 PUSH1 0x6 ADD DUP2 SWAP1 SSTORE POP PUSH0 DUP2 PUSH1 0x7 ADD DUP2 SWAP1 SSTORE POP TIMESTAMP DUP2 PUSH1 0x8 ADD DUP2 SWAP1 SSTORE POP PUSH1 0x1 DUP2 PUSH1 0xA ADD PUSH0 PUSH2 0x100 EXP DUP2 SLOAD DUP2 PUSH1 0xFF MUL NOT AND SWAP1 DUP4 ISZERO ISZERO MUL OR SWAP1 SSTORE POP PUSH1 0x2 DUP3 SWAP1 DUP1 PUSH1 0x1 DUP2 SLOAD ADD DUP1 DUP3 SSTORE DUP1 SWAP2 POP POP PUSH1 0x1 SWAP1 SUB SWAP1 PUSH0 MSTORE PUSH1 0x20 PUSH0 KECCAK256 ADD PUSH0 SWAP1 SWAP2 SWAP1 SWAP2 SWAP1 SWAP2 POP SSTORE CALLER PUSH20 0xFFFFFFFFFFFFFFFFFFFFFFFFFFFFFFFFFFFFFFFF AND DUP3 PUSH32 0xD6950A5A53A38361C24EC18C089515CAEDE74366415BF2FB4569CB72099F5E1C DUP10 DUP10 DUP10 DUP10 DUP10 PUSH1 0x40 MLOAD PUSH2 0x8CB SWAP6 SWAP5 SWAP4 SWAP3 SWAP2 SWAP1 PUSH2 0x218B JUMP JUMPDEST PUSH1 0x40 MLOAD DUP1 SWAP2 SUB SWAP1 LOG3 POP POP POP POP POP POP POP JUMP JUMPDEST DUP1 PUSH1 0x1 PUSH0 DUP3 DUP2 MSTORE PUSH1 0x20 ADD SWAP1 DUP2 MSTORE PUSH1 0x20 ADD PUSH0 KECCAK256 PUSH1 0xA ADD PUSH0 SWAP1 SLOAD SWAP1 PUSH2 0x100 EXP SWAP1 DIV PUSH1 0xFF AND PUSH2 0x93D JUMPI PUSH1 0x40 MLOAD PUSH32 0x8C379A000000000000000000000000000000000000000000000000000000000 DUP2 MSTORE PUSH1 0x4 ADD PUSH2 0x934 SWAP1 PUSH2 0x1BA4 JUMP JUMPDEST PUSH1 0x40 MLOAD DUP1 SWAP2 SUB SWAP1 REVERT JUMPDEST PUSH0 PUSH1 0x1 PUSH0 DUP5 DUP2 MSTORE PUSH1 0x20 ADD SWAP1 DUP2 MSTORE PUSH1 0x20 ADD PUSH0 KECCAK256 SWAP1 POP PUSH0 CALLVALUE GT PUSH2 0x993 JUMPI PUSH1 0x40 MLOAD PUSH32 0x8C379A000000000000000000000000000000000000000000000000000000000 DUP2 MSTORE PUSH1 0x4 ADD PUSH2 0x98A SWAP1 PUSH2 0x2221 JUMP JUMPDEST PUSH1 0x40 MLOAD DUP1 SWAP2 SUB SWAP1 REVERT JUMPDEST DUP1 PUSH1 0x5 ADD SLOAD CALLVALUE DUP3 PUSH1 0x6 ADD SLOAD PUSH2 0x9A8 SWAP2 SWAP1 PUSH2 0x1C8D JUMP JUMPDEST GT ISZERO PUSH2 0x9E9 JUMPI PUSH1 0x40 MLOAD PUSH32 0x8C379A000000000000000000000000000000000000000000000000000000000 DUP2 MSTORE PUSH1 0x4 ADD PUSH2 0x9E0 SWAP1 PUSH2 0x22AF JUMP JUMPDEST PUSH1 0x40 MLOAD DUP1 SWAP2 SUB SWAP1 REVERT JUMPDEST PUSH0 PUSH1 0x3 PUSH0 CALLER PUSH20 0xFFFFFFFFFFFFFFFFFFFFFFFFFFFFFFFFFFFFFFFF AND PUSH20 0xFFFFFFFFFFFFFFFFFFFFFFFFFFFFFFFFFFFFFFFF AND DUP2 MSTORE PUSH1 0x20 ADD SWAP1 DUP2 MSTORE PUSH1 0x20 ADD PUSH0 KECCAK256 SWAP1 POP DUP1 PUSH1 0x3 ADD PUSH0 SWAP1 SLOAD SWAP1 PUSH2 0x100 EXP SWAP1 DIV PUSH1 0xFF AND PUSH2 0xA9C JUMPI CALLER DUP2 PUSH0 ADD PUSH0 PUSH2 0x100 EXP DUP2 SLOAD DUP2 PUSH20 0xFFFFFFFFFFFFFFFFFFFFFFFFFFFFFFFFFFFFFFFF MUL NOT AND SWAP1 DUP4 PUSH20 0xFFFFFFFFFFFFFFFFFFFFFFFFFFFFFFFFFFFFFFFF AND MUL OR SWAP1 SSTORE POP PUSH1 0x1 DUP2 PUSH1 0x3 ADD PUSH0 PUSH2 0x100 EXP DUP2 SLOAD DUP2 PUSH1 0xFF MUL NOT AND SWAP1 DUP4 ISZERO ISZERO MUL OR SWAP1 SSTORE POP JUMPDEST PUSH0 DUP2 PUSH1 0x1 ADD PUSH0 DUP7 DUP2 MSTORE PUSH1 0x20 ADD SWAP1 DUP2 MSTORE PUSH1 0x20 ADD PUSH0 KECCAK256 SLOAD SUB PUSH2 0xADF JUMPI DUP1 PUSH1 0x2 ADD DUP5 SWAP1 DUP1 PUSH1 0x1 DUP2 SLOAD ADD DUP1 DUP3 SSTORE DUP1 SWAP2 POP POP PUSH1 0x1 SWAP1 SUB SWAP1 PUSH0 MSTORE PUSH1 0x20 PUSH0 KECCAK256 ADD PUSH0 SWAP1 SWAP2 SWAP1 SWAP2 SWAP1 SWAP2 POP SSTORE JUMPDEST CALLVALUE DUP2 PUSH1 0x1 ADD PUSH0 DUP7 DUP2 MSTORE PUSH1 0x20 ADD SWAP1 DUP2 MSTORE PUSH1 0x20 ADD PUSH0 KECCAK256 PUSH0 DUP3 DUP3 SLOAD PUSH2 0xB01 SWAP2 SWAP1 PUSH2 0x1C8D JUMP JUMPDEST SWAP3 POP POP DUP2 SWAP1 SSTORE POP CALLVALUE DUP3 PUSH1 0x6 ADD PUSH0 DUP3 DUP3 SLOAD PUSH2 0xB1B SWAP2 SWAP1 PUSH2 0x1C8D JUMP JUMPDEST SWAP3 POP POP DUP2 SWAP1 SSTORE POP PUSH0 DUP3 PUSH1 0x1 ADD PUSH0 SWAP1 SLOAD SWAP1 PUSH2 0x100 EXP SWAP1 DIV PUSH20 0xFFFFFFFFFFFFFFFFFFFFFFFFFFFFFFFFFFFFFFFF AND PUSH20 0xFFFFFFFFFFFFFFFFFFFFFFFFFFFFFFFFFFFFFFFF AND CALLVALUE PUSH1 0x40 MLOAD PUSH2 0xB6A SWAP1 PUSH2 0x22FA JUMP JUMPDEST PUSH0 PUSH1 0x40 MLOAD DUP1 DUP4 SUB DUP2 DUP6 DUP8 GAS CALL SWAP3 POP POP POP RETURNDATASIZE DUP1 PUSH0 DUP2 EQ PUSH2 0xBA4 JUMPI PUSH1 0x40 MLOAD SWAP2 POP PUSH1 0x1F NOT PUSH1 0x3F RETURNDATASIZE ADD AND DUP3 ADD PUSH1 0x40 MSTORE RETURNDATASIZE DUP3 MSTORE RETURNDATASIZE PUSH0 PUSH1 0x20 DUP5 ADD RETURNDATACOPY PUSH2 0xBA9 JUMP JUMPDEST PUSH1 0x60 SWAP2 POP JUMPDEST POP POP SWAP1 POP DUP1 PUSH2 0xBED JUMPI PUSH1 0x40 MLOAD PUSH32 0x8C379A000000000000000000000000000000000000000000000000000000000 DUP2 MSTORE PUSH1 0x4 ADD PUSH2 0xBE4 SWAP1 PUSH2 0x237E JUMP JUMPDEST PUSH1 0x40 MLOAD DUP1 SWAP2 SUB SWAP1 REVERT JUMPDEST CALLER PUSH20 0xFFFFFFFFFFFFFFFFFFFFFFFFFFFFFFFFFFFFFFFF AND DUP6 PUSH32 0x271DEC505C61C970BDD791A963B7162D814EDF6292F40C4BEEF2AF1E48EEA1E8 CALLVALUE DUP7 PUSH1 0x6 ADD SLOAD PUSH1 0x40 MLOAD PUSH2 0xC3A SWAP3 SWAP2 SWAP1 PUSH2 0x239C JUMP JUMPDEST PUSH1 0x40 MLOAD DUP1 SWAP2 SUB SWAP1 LOG3 PUSH2 0xC4B DUP6 PUSH2 0x48B JUMP JUMPDEST POP POP POP POP POP POP JUMP JUMPDEST PUSH1 0x60 DUP1 PUSH0 PUSH1 0x3 PUSH0 DUP6 PUSH20 0xFFFFFFFFFFFFFFFFFFFFFFFFFFFFFFFFFFFFFFFF AND PUSH20 0xFFFFFFFFFFFFFFFFFFFFFFFFFFFFFFFFFFFFFFFF AND DUP2 MSTORE PUSH1 0x20 ADD SWAP1 DUP2 MSTORE PUSH1 0x20 ADD PUSH0 KECCAK256 SWAP1 POP PUSH0 DUP2 PUSH1 0x2 ADD DUP1 SLOAD SWAP1 POP SWAP1 POP DUP1 PUSH8 0xFFFFFFFFFFFFFFFF DUP2 GT ISZERO PUSH2 0xCBB JUMPI PUSH2 0xCBA PUSH2 0x1EA6 JUMP JUMPDEST JUMPDEST PUSH1 0x40 MLOAD SWAP1 DUP1 DUP3 MSTORE DUP1 PUSH1 0x20 MUL PUSH1 0x20 ADD DUP3 ADD PUSH1 0x40 MSTORE DUP1 ISZERO PUSH2 0xCE9 JUMPI DUP2 PUSH1 0x20 ADD PUSH1 0x20 DUP3 MUL DUP1 CALLDATASIZE DUP4 CALLDATACOPY DUP1 DUP3 ADD SWAP2 POP POP SWAP1 POP JUMPDEST POP SWAP4 POP DUP1 PUSH8 0xFFFFFFFFFFFFFFFF DUP2 GT ISZERO PUSH2 0xD06 JUMPI PUSH2 0xD05 PUSH2 0x1EA6 JUMP JUMPDEST JUMPDEST PUSH1 0x40 MLOAD SWAP1 DUP1 DUP3 MSTORE DUP1 PUSH1 0x20 MUL PUSH1 0x20 ADD DUP3 ADD PUSH1 0x40 MSTORE DUP1 ISZERO PUSH2 0xD34 JUMPI DUP2 PUSH1 0x20 ADD PUSH1 0x20 DUP3 MUL DUP1 CALLDATASIZE DUP4 CALLDATACOPY DUP1 DUP3 ADD SWAP2 POP POP SWAP1 POP JUMPDEST POP SWAP3 POP PUSH0 PUSH0 SWAP1 POP JUMPDEST DUP2 DUP2 LT ISZERO PUSH2 0xDC7 JUMPI PUSH0 DUP4 PUSH1 0x2 ADD DUP3 DUP2 SLOAD DUP2 LT PUSH2 0xD5B JUMPI PUSH2 0xD5A PUSH2 0x23C3 JUMP JUMPDEST JUMPDEST SWAP1 PUSH0 MSTORE PUSH1 0x20 PUSH0 KECCAK256 ADD SLOAD SWAP1 POP DUP1 DUP7 DUP4 DUP2 MLOAD DUP2 LT PUSH2 0xD7A JUMPI PUSH2 0xD79 PUSH2 0x23C3 JUMP JUMPDEST JUMPDEST PUSH1 0x20 MUL PUSH1 0x20 ADD ADD DUP2 DUP2 MSTORE POP POP DUP4 PUSH1 0x1 ADD PUSH0 DUP3 DUP2 MSTORE PUSH1 0x20 ADD SWAP1 DUP2 MSTORE PUSH1 0x20 ADD PUSH0 KECCAK256 SLOAD DUP6 DUP4 DUP2 MLOAD DUP2 LT PUSH2 0xDAD JUMPI PUSH2 0xDAC PUSH2 0x23C3 JUMP JUMPDEST JUMPDEST PUSH1 0x20 MUL PUSH1 0x20 ADD ADD DUP2 DUP2 MSTORE POP POP POP DUP1 DUP1 PUSH1 0x1 ADD SWAP2 POP POP PUSH2 0xD3C JUMP JUMPDEST POP POP POP SWAP2 POP SWAP2 JUMP JUMPDEST DUP3 PUSH1 0x1 PUSH0 DUP3 DUP2 MSTORE PUSH1 0x20 ADD SWAP1 DUP2 MSTORE PUSH1 0x20 ADD PUSH0 KECCAK256 PUSH1 0xA ADD PUSH0 SWAP1 SLOAD SWAP1 PUSH2 0x100 EXP SWAP1 DIV PUSH1 0xFF AND PUSH2 0xE30 JUMPI PUSH1 0x40 MLOAD PUSH32 0x8C379A000000000000000000000000000000000000000000000000000000000 DUP2 MSTORE PUSH1 0x4 ADD PUSH2 0xE27 SWAP1 PUSH2 0x1BA4 JUMP JUMPDEST PUSH1 0x40 MLOAD DUP1 SWAP2 SUB SWAP1 REVERT JUMPDEST DUP4 CALLER PUSH20 0xFFFFFFFFFFFFFFFFFFFFFFFFFFFFFFFFFFFFFFFF AND PUSH1 0x1 PUSH0 DUP4 DUP2 MSTORE PUSH1 0x20 ADD SWAP1 DUP2 MSTORE PUSH1 0x20 ADD PUSH0 KECCAK256 PUSH1 0x1 ADD PUSH0 SWAP1 SLOAD SWAP1 PUSH2 0x100 EXP SWAP1 DIV PUSH20 0xFFFFFFFFFFFFFFFFFFFFFFFFFFFFFFFFFFFFFFFF AND PUSH20 0xFFFFFFFFFFFFFFFFFFFFFFFFFFFFFFFFFFFFFFFF AND EQ PUSH2 0xED2 JUMPI PUSH1 0x40 MLOAD PUSH32 0x8C379A000000000000000000000000000000000000000000000000000000000 DUP2 MSTORE PUSH1 0x4 ADD PUSH2 0xEC9 SWAP1 PUSH2 0x2460 JUMP JUMPDEST PUSH1 0x40 MLOAD DUP1 SWAP2 SUB SWAP1 REVERT JUMPDEST PUSH0 DUP5 DUP5 SWAP1 POP GT PUSH2 0xF17 JUMPI PUSH1 0x40 MLOAD PUSH32 0x8C379A000000000000000000000000000000000000000000000000000000000 DUP2 MSTORE PUSH1 0x4 ADD PUSH2 0xF0E SWAP1 PUSH2 0x24C8 JUMP JUMPDEST PUSH1 0x40 MLOAD DUP1 SWAP2 SUB SWAP1 REVERT JUMPDEST PUSH0 PUSH1 0x1 PUSH0 DUP8 DUP2 MSTORE PUSH1 0x20 ADD SWAP1 DUP2 MSTORE PUSH1 0x20 ADD PUSH0 KECCAK256 SWAP1 POP DUP1 PUSH1 0x9 ADD DUP6 DUP6 SWAP1 SWAP2 DUP1 PUSH1 0x1 DUP2 SLOAD ADD DUP1 DUP3 SSTORE DUP1 SWAP2 POP POP PUSH1 0x1 SWAP1 SUB SWAP1 PUSH0 MSTORE PUSH1 0x20 PUSH0 KECCAK256 ADD PUSH0 SWAP1 SWAP2 SWAP3 SWAP1 SWAP2 SWAP3 SWAP1 SWAP2 SWAP3 SWAP1 SWAP2 SWAP3 POP SWAP2 DUP3 PUSH2 0xF67 SWAP3 SWAP2 SWAP1 PUSH2 0x2084 JUMP JUMPDEST POP CALLER PUSH20 0xFFFFFFFFFFFFFFFFFFFFFFFFFFFFFFFFFFFFFFFF AND DUP7 PUSH32 0xC188596F32652D64253D21C2BBB3F1B4794308B7FBE9384000FFE306650D0B96 DUP8 DUP8 DUP6 PUSH1 0x9 ADD DUP1 SLOAD SWAP1 POP PUSH1 0x40 MLOAD PUSH2 0xFBA SWAP4 SWAP3 SWAP2 SWAP1 PUSH2 0x24E6 JUMP JUMPDEST PUSH1 0x40 MLOAD DUP1 SWAP2 SUB SWAP1 LOG3 PUSH2 0xFCB DUP7 PUSH2 0x48B JUMP JUMPDEST POP POP POP POP POP POP POP JUMP JUMPDEST PUSH1 0x60 DUP1 PUSH1 0x60 DUP1 PUSH1 0x60 DUP1 PUSH1 0x60 DUP1 PUSH0 PUSH1 0x2 DUP1 SLOAD SWAP1 POP SWAP1 POP DUP1 PUSH8 0xFFFFFFFFFFFFFFFF DUP2 GT ISZERO PUSH2 0x1003 JUMPI PUSH2 0x1002 PUSH2 0x1EA6 JUMP JUMPDEST JUMPDEST PUSH1 0x40 MLOAD SWAP1 DUP1 DUP3 MSTORE DUP1 PUSH1 0x20 MUL PUSH1 0x20 ADD DUP3 ADD PUSH1 0x40 MSTORE DUP1 ISZERO PUSH2 0x1031 JUMPI DUP2 PUSH1 0x20 ADD PUSH1 0x20 DUP3 MUL DUP1 CALLDATASIZE DUP4 CALLDATACOPY DUP1 DUP3 ADD SWAP2 POP POP SWAP1 POP JUMPDEST POP SWAP9 POP DUP1 PUSH8 0xFFFFFFFFFFFFFFFF DUP2 GT ISZERO PUSH2 0x104E JUMPI PUSH2 0x104D PUSH2 0x1EA6 JUMP JUMPDEST JUMPDEST PUSH1 0x40 MLOAD SWAP1 DUP1 DUP3 MSTORE DUP1 PUSH1 0x20 MUL PUSH1 0x20 ADD DUP3 ADD PUSH1 0x40 MSTORE DUP1 ISZERO PUSH2 0x107C JUMPI DUP2 PUSH1 0x20 ADD PUSH1 0x20 DUP3 MUL DUP1 CALLDATASIZE DUP4 CALLDATACOPY DUP1 DUP3 ADD SWAP2 POP POP SWAP1 POP JUMPDEST POP SWAP8 POP DUP1 PUSH8 0xFFFFFFFFFFFFFFFF DUP2 GT ISZERO PUSH2 0x1099 JUMPI PUSH2 0x1098 PUSH2 0x1EA6 JUMP JUMPDEST JUMPDEST PUSH1 0x40 MLOAD SWAP1 DUP1 DUP3 MSTORE DUP1 PUSH1 0x20 MUL PUSH1 0x20 ADD DUP3 ADD PUSH1 0x40 MSTORE DUP1 ISZERO PUSH2 0x10CC JUMPI DUP2 PUSH1 0x20 ADD JUMPDEST PUSH1 0x60 DUP2 MSTORE PUSH1 0x20 ADD SWAP1 PUSH1 0x1 SWAP1 SUB SWAP1 DUP2 PUSH2 0x10B7 JUMPI SWAP1 POP JUMPDEST POP SWAP7 POP DUP1 PUSH8 0xFFFFFFFFFFFFFFFF DUP2 GT ISZERO PUSH2 0x10E9 JUMPI PUSH2 0x10E8 PUSH2 0x1EA6 JUMP JUMPDEST JUMPDEST PUSH1 0x40 MLOAD SWAP1 DUP1 DUP3 MSTORE DUP1 PUSH1 0x20 MUL PUSH1 0x20 ADD DUP3 ADD PUSH1 0x40 MSTORE DUP1 ISZERO PUSH2 0x1117 JUMPI DUP2 PUSH1 0x20 ADD PUSH1 0x20 DUP3 MUL DUP1 CALLDATASIZE DUP4 CALLDATACOPY DUP1 DUP3 ADD SWAP2 POP POP SWAP1 POP JUMPDEST POP SWAP6 POP DUP1 PUSH8 0xFFFFFFFFFFFFFFFF DUP2 GT ISZERO PUSH2 0x1134 JUMPI PUSH2 0x1133 PUSH2 0x1EA6 JUMP JUMPDEST JUMPDEST PUSH1 0x40 MLOAD SWAP1 DUP1 DUP3 MSTORE DUP1 PUSH1 0x20 MUL PUSH1 0x20 ADD DUP3 ADD PUSH1 0x40 MSTORE DUP1 ISZERO PUSH2 0x1162 JUMPI DUP2 PUSH1 0x20 ADD PUSH1 0x20 DUP3 MUL DUP1 CALLDATASIZE DUP4 CALLDATACOPY DUP1 DUP3 ADD SWAP2 POP POP SWAP1 POP JUMPDEST POP SWAP5 POP DUP1 PUSH8 0xFFFFFFFFFFFFFFFF DUP2 GT ISZERO PUSH2 0x117F JUMPI PUSH2 0x117E PUSH2 0x1EA6 JUMP JUMPDEST JUMPDEST PUSH1 0x40 MLOAD SWAP1 DUP1 DUP3 MSTORE DUP1 PUSH1 0x20 MUL PUSH1 0x20 ADD DUP3 ADD PUSH1 0x40 MSTORE DUP1 ISZERO PUSH2 0x11AD JUMPI DUP2 PUSH1 0x20 ADD PUSH1 0x20 DUP3 MUL DUP1 CALLDATASIZE DUP4 CALLDATACOPY DUP1 DUP3 ADD SWAP2 POP POP SWAP1 POP JUMPDEST POP SWAP4 POP DUP1 PUSH8 0xFFFFFFFFFFFFFFFF DUP2 GT ISZERO PUSH2 0x11CA JUMPI PUSH2 0x11C9 PUSH2 0x1EA6 JUMP JUMPDEST JUMPDEST PUSH1 0x40 MLOAD SWAP1 DUP1 DUP3 MSTORE DUP1 PUSH1 0x20 MUL PUSH1 0x20 ADD DUP3 ADD PUSH1 0x40 MSTORE DUP1 ISZERO PUSH2 0x11F8 JUMPI DUP2 PUSH1 0x20 ADD PUSH1 0x20 DUP3 MUL DUP1 CALLDATASIZE DUP4 CALLDATACOPY DUP1 DUP3 ADD SWAP2 POP POP SWAP1 POP JUMPDEST POP SWAP3 POP DUP1 PUSH8 0xFFFFFFFFFFFFFFFF DUP2 GT ISZERO PUSH2 0x1215 JUMPI PUSH2 0x1214 PUSH2 0x1EA6 JUMP JUMPDEST JUMPDEST PUSH1 0x40 MLOAD SWAP1 DUP1 DUP3 MSTORE DUP1 PUSH1 0x20 MUL PUSH1 0x20 ADD DUP3 ADD PUSH1 0x40 MSTORE DUP1 ISZERO PUSH2 0x1243 JUMPI DUP2 PUSH1 0x20 ADD PUSH1 0x20 DUP3 MUL DUP1 CALLDATASIZE DUP4 CALLDATACOPY DUP1 DUP3 ADD SWAP2 POP POP SWAP1 POP JUMPDEST POP SWAP2 POP PUSH0 PUSH0 SWAP1 POP JUMPDEST DUP2 DUP2 LT ISZERO PUSH2 0x1482 JUMPI PUSH0 PUSH1 0x1 PUSH0 PUSH1 0x2 DUP5 DUP2 SLOAD DUP2 LT PUSH2 0x126B JUMPI PUSH2 0x126A PUSH2 0x23C3 JUMP JUMPDEST JUMPDEST SWAP1 PUSH0 MSTORE PUSH1 0x20 PUSH0 KECCAK256 ADD SLOAD DUP2 MSTORE PUSH1 0x20 ADD SWAP1 DUP2 MSTORE PUSH1 0x20 ADD PUSH0 KECCAK256 SWAP1 POP DUP1 PUSH0 ADD SLOAD DUP12 DUP4 DUP2 MLOAD DUP2 LT PUSH2 0x129A JUMPI PUSH2 0x1299 PUSH2 0x23C3 JUMP JUMPDEST JUMPDEST PUSH1 0x20 MUL PUSH1 0x20 ADD ADD DUP2 DUP2 MSTORE POP POP DUP1 PUSH1 0x1 ADD PUSH0 SWAP1 SLOAD SWAP1 PUSH2 0x100 EXP SWAP1 DIV PUSH20 0xFFFFFFFFFFFFFFFFFFFFFFFFFFFFFFFFFFFFFFFF AND DUP11 DUP4 DUP2 MLOAD DUP2 LT PUSH2 0x12DD JUMPI PUSH2 0x12DC PUSH2 0x23C3 JUMP JUMPDEST JUMPDEST PUSH1 0x20 MUL PUSH1 0x20 ADD ADD SWAP1 PUSH20 0xFFFFFFFFFFFFFFFFFFFFFFFFFFFFFFFFFFFFFFFF AND SWAP1 DUP2 PUSH20 0xFFFFFFFFFFFFFFFFFFFFFFFFFFFFFFFFFFFFFFFF AND DUP2 MSTORE POP POP DUP1 PUSH1 0x2 ADD DUP1 SLOAD PUSH2 0x1326 SWAP1 PUSH2 0x1BEF JUMP JUMPDEST DUP1 PUSH1 0x1F ADD PUSH1 0x20 DUP1 SWAP2 DIV MUL PUSH1 0x20 ADD PUSH1 0x40 MLOAD SWAP1 DUP2 ADD PUSH1 0x40 MSTORE DUP1 SWAP3 SWAP2 SWAP1 DUP2 DUP2 MSTORE PUSH1 0x20 ADD DUP3 DUP1 SLOAD PUSH2 0x1352 SWAP1 PUSH2 0x1BEF JUMP JUMPDEST DUP1 ISZERO PUSH2 0x139D JUMPI DUP1 PUSH1 0x1F LT PUSH2 0x1374 JUMPI PUSH2 0x100 DUP1 DUP4 SLOAD DIV MUL DUP4 MSTORE SWAP2 PUSH1 0x20 ADD SWAP2 PUSH2 0x139D JUMP JUMPDEST DUP3 ADD SWAP2 SWAP1 PUSH0 MSTORE PUSH1 0x20 PUSH0 KECCAK256 SWAP1 JUMPDEST DUP2 SLOAD DUP2 MSTORE SWAP1 PUSH1 0x1 ADD SWAP1 PUSH1 0x20 ADD DUP1 DUP4 GT PUSH2 0x1380 JUMPI DUP3 SWAP1 SUB PUSH1 0x1F AND DUP3 ADD SWAP2 JUMPDEST POP POP POP POP POP DUP10 DUP4 DUP2 MLOAD DUP2 LT PUSH2 0x13B5 JUMPI PUSH2 0x13B4 PUSH2 0x23C3 JUMP JUMPDEST JUMPDEST PUSH1 0x20 MUL PUSH1 0x20 ADD ADD DUP2 SWAP1 MSTORE POP DUP1 PUSH1 0x3 ADD SLOAD DUP9 DUP4 DUP2 MLOAD DUP2 LT PUSH2 0x13D8 JUMPI PUSH2 0x13D7 PUSH2 0x23C3 JUMP JUMPDEST JUMPDEST PUSH1 0x20 MUL PUSH1 0x20 ADD ADD DUP2 DUP2 MSTORE POP POP DUP1 PUSH1 0x4 ADD SLOAD DUP8 DUP4 DUP2 MLOAD DUP2 LT PUSH2 0x13FC JUMPI PUSH2 0x13FB PUSH2 0x23C3 JUMP JUMPDEST JUMPDEST PUSH1 0x20 MUL PUSH1 0x20 ADD ADD DUP2 DUP2 MSTORE POP POP DUP1 PUSH1 0x5 ADD SLOAD DUP7 DUP4 DUP2 MLOAD DUP2 LT PUSH2 0x1420 JUMPI PUSH2 0x141F PUSH2 0x23C3 JUMP JUMPDEST JUMPDEST PUSH1 0x20 MUL PUSH1 0x20 ADD ADD DUP2 DUP2 MSTORE POP POP DUP1 PUSH1 0x6 ADD SLOAD DUP6 DUP4 DUP2 MLOAD DUP2 LT PUSH2 0x1444 JUMPI PUSH2 0x1443 PUSH2 0x23C3 JUMP JUMPDEST JUMPDEST PUSH1 0x20 MUL PUSH1 0x20 ADD ADD DUP2 DUP2 MSTORE POP POP DUP1 PUSH1 0x7 ADD SLOAD DUP5 DUP4 DUP2 MLOAD DUP2 LT PUSH2 0x1468 JUMPI PUSH2 0x1467 PUSH2 0x23C3 JUMP JUMPDEST JUMPDEST PUSH1 0x20 MUL PUSH1 0x20 ADD ADD DUP2 DUP2 MSTORE POP POP POP DUP1 DUP1 PUSH1 0x1 ADD SWAP2 POP POP PUSH2 0x124B JUMP JUMPDEST POP POP SWAP1 SWAP2 SWAP3 SWAP4 SWAP5 SWAP6 SWAP7 SWAP8 JUMP JUMPDEST PUSH0 SLOAD DUP2 JUMP JUMPDEST PUSH0 PUSH0 REVERT JUMPDEST PUSH0 PUSH0 REVERT JUMPDEST PUSH0 DUP2 SWAP1 POP SWAP2 SWAP1 POP JUMP JUMPDEST PUSH2 0x14AD DUP2 PUSH2 0x149B JUMP JUMPDEST DUP2 EQ PUSH2 0x14B7 JUMPI PUSH0 PUSH0 REVERT JUMPDEST POP JUMP JUMPDEST PUSH0 DUP2 CALLDATALOAD SWAP1 POP PUSH2 0x14C8 DUP2 PUSH2 0x14A4 JUMP JUMPDEST SWAP3 SWAP2 POP POP JUMP JUMPDEST PUSH0 PUSH1 0x20 DUP3 DUP5 SUB SLT ISZERO PUSH2 0x14E3 JUMPI PUSH2 0x14E2 PUSH2 0x1493 JUMP JUMPDEST JUMPDEST PUSH0 PUSH2 0x14F0 DUP5 DUP3 DUP6 ADD PUSH2 0x14BA JUMP JUMPDEST SWAP2 POP POP SWAP3 SWAP2 POP POP JUMP JUMPDEST PUSH2 0x1502 DUP2 PUSH2 0x149B JUMP JUMPDEST DUP3 MSTORE POP POP JUMP JUMPDEST PUSH0 PUSH20 0xFFFFFFFFFFFFFFFFFFFFFFFFFFFFFFFFFFFFFFFF DUP3 AND SWAP1 POP SWAP2 SWAP1 POP JUMP JUMPDEST PUSH0 PUSH2 0x1531 DUP3 PUSH2 0x1508 JUMP JUMPDEST SWAP1 POP SWAP2 SWAP1 POP JUMP JUMPDEST PUSH2 0x1541 DUP2 PUSH2 0x1527 JUMP JUMPDEST DUP3 MSTORE POP POP JUMP JUMPDEST PUSH0 DUP2 MLOAD SWAP1 POP SWAP2 SWAP1 POP JUMP JUMPDEST PUSH0 DUP3 DUP3 MSTORE PUSH1 0x20 DUP3 ADD SWAP1 POP SWAP3 SWAP2 POP POP JUMP JUMPDEST DUP3 DUP2 DUP4 MCOPY PUSH0 DUP4 DUP4 ADD MSTORE POP POP POP JUMP JUMPDEST PUSH0 PUSH1 0x1F NOT PUSH1 0x1F DUP4 ADD AND SWAP1 POP SWAP2 SWAP1 POP JUMP JUMPDEST PUSH0 PUSH2 0x1589 DUP3 PUSH2 0x1547 JUMP JUMPDEST PUSH2 0x1593 DUP2 DUP6 PUSH2 0x1551 JUMP JUMPDEST SWAP4 POP PUSH2 0x15A3 DUP2 DUP6 PUSH1 0x20 DUP7 ADD PUSH2 0x1561 JUMP JUMPDEST PUSH2 0x15AC DUP2 PUSH2 0x156F JUMP JUMPDEST DUP5 ADD SWAP2 POP POP SWAP3 SWAP2 POP POP JUMP JUMPDEST PUSH0 DUP2 MLOAD SWAP1 POP SWAP2 SWAP1 POP JUMP JUMPDEST PUSH0 DUP3 DUP3 MSTORE PUSH1 0x20 DUP3 ADD SWAP1 POP SWAP3 SWAP2 POP POP JUMP JUMPDEST PUSH0 DUP2 SWAP1 POP PUSH1 0x20 DUP3 ADD SWAP1 POP SWAP2 SWAP1 POP JUMP JUMPDEST PUSH0 DUP3 DUP3 MSTORE PUSH1 0x20 DUP3 ADD SWAP1 POP SWAP3 SWAP2 POP POP JUMP JUMPDEST PUSH0 PUSH2 0x15FA DUP3 PUSH2 0x1547 JUMP JUMPDEST PUSH2 0x1604 DUP2 DUP6 PUSH2 0x15E0 JUMP JUMPDEST SWAP4 POP PUSH2 0x1614 DUP2 DUP6 PUSH1 0x20 DUP7 ADD PUSH2 0x1561 JUMP JUMPDEST PUSH2 0x161D DUP2 PUSH2 0x156F JUMP JUMPDEST DUP5 ADD SWAP2 POP POP SWAP3 SWAP2 POP POP JUMP JUMPDEST PUSH0 PUSH2 0x1633 DUP4 DUP4 PUSH2 0x15F0 JUMP JUMPDEST SWAP1 POP SWAP3 SWAP2 POP POP JUMP JUMPDEST PUSH0 PUSH1 0x20 DUP3 ADD SWAP1 POP SWAP2 SWAP1 POP JUMP JUMPDEST PUSH0 PUSH2 0x1651 DUP3 PUSH2 0x15B7 JUMP JUMPDEST PUSH2 0x165B DUP2 DUP6 PUSH2 0x15C1 JUMP JUMPDEST SWAP4 POP DUP4 PUSH1 0x20 DUP3 MUL DUP6 ADD PUSH2 0x166D DUP6 PUSH2 0x15D1 JUMP JUMPDEST DUP1 PUSH0 JUMPDEST DUP6 DUP2 LT ISZERO PUSH2 0x16A8 JUMPI DUP5 DUP5 SUB DUP10 MSTORE DUP2 MLOAD PUSH2 0x1689 DUP6 DUP3 PUSH2 0x1628 JUMP JUMPDEST SWAP5 POP PUSH2 0x1694 DUP4 PUSH2 0x163B JUMP JUMPDEST SWAP3 POP PUSH1 0x20 DUP11 ADD SWAP10 POP POP PUSH1 0x1 DUP2 ADD SWAP1 POP PUSH2 0x1670 JUMP JUMPDEST POP DUP3 SWAP8 POP DUP8 SWAP6 POP POP POP POP POP POP SWAP3 SWAP2 POP POP JUMP JUMPDEST PUSH0 PUSH2 0x120 DUP3 ADD SWAP1 POP PUSH2 0x16CE PUSH0 DUP4 ADD DUP13 PUSH2 0x14F9 JUMP JUMPDEST PUSH2 0x16DB PUSH1 0x20 DUP4 ADD DUP12 PUSH2 0x1538 JUMP JUMPDEST DUP2 DUP2 SUB PUSH1 0x40 DUP4 ADD MSTORE PUSH2 0x16ED DUP2 DUP11 PUSH2 0x157F JUMP JUMPDEST SWAP1 POP PUSH2 0x16FC PUSH1 0x60 DUP4 ADD DUP10 PUSH2 0x14F9 JUMP JUMPDEST PUSH2 0x1709 PUSH1 0x80 DUP4 ADD DUP9 PUSH2 0x14F9 JUMP JUMPDEST PUSH2 0x1716 PUSH1 0xA0 DUP4 ADD DUP8 PUSH2 0x14F9 JUMP JUMPDEST PUSH2 0x1723 PUSH1 0xC0 DUP4 ADD DUP7 PUSH2 0x14F9 JUMP JUMPDEST PUSH2 0x1730 PUSH1 0xE0 DUP4 ADD DUP6 PUSH2 0x14F9 JUMP JUMPDEST DUP2 DUP2 SUB PUSH2 0x100 DUP4 ADD MSTORE PUSH2 0x1743 DUP2 DUP5 PUSH2 0x1647 JUMP JUMPDEST SWAP1 POP SWAP11 SWAP10 POP POP POP POP POP POP POP POP POP POP JUMP JUMPDEST PUSH0 PUSH1 0x20 DUP3 ADD SWAP1 POP PUSH2 0x1766 PUSH0 DUP4 ADD DUP5 PUSH2 0x14F9 JUMP JUMPDEST SWAP3 SWAP2 POP POP JUMP JUMPDEST PUSH0 PUSH0 REVERT JUMPDEST PUSH0 PUSH0 REVERT JUMPDEST PUSH0 PUSH0 REVERT JUMPDEST PUSH0 PUSH0 DUP4 PUSH1 0x1F DUP5 ADD SLT PUSH2 0x178D JUMPI PUSH2 0x178C PUSH2 0x176C JUMP JUMPDEST JUMPDEST DUP3 CALLDATALOAD SWAP1 POP PUSH8 0xFFFFFFFFFFFFFFFF DUP2 GT ISZERO PUSH2 0x17AA JUMPI PUSH2 0x17A9 PUSH2 0x1770 JUMP JUMPDEST JUMPDEST PUSH1 0x20 DUP4 ADD SWAP2 POP DUP4 PUSH1 0x1 DUP3 MUL DUP4 ADD GT ISZERO PUSH2 0x17C6 JUMPI PUSH2 0x17C5 PUSH2 0x1774 JUMP JUMPDEST JUMPDEST SWAP3 POP SWAP3 SWAP1 POP JUMP JUMPDEST PUSH0 PUSH0 PUSH0 PUSH0 PUSH0 PUSH1 0x80 DUP7 DUP9 SUB SLT ISZERO PUSH2 0x17E6 JUMPI PUSH2 0x17E5 PUSH2 0x1493 JUMP JUMPDEST JUMPDEST PUSH0 DUP7 ADD CALLDATALOAD PUSH8 0xFFFFFFFFFFFFFFFF DUP2 GT ISZERO PUSH2 0x1803 JUMPI PUSH2 0x1802 PUSH2 0x1497 JUMP JUMPDEST JUMPDEST PUSH2 0x180F DUP9 DUP3 DUP10 ADD PUSH2 0x1778 JUMP JUMPDEST SWAP6 POP SWAP6 POP POP PUSH1 0x20 PUSH2 0x1822 DUP9 DUP3 DUP10 ADD PUSH2 0x14BA JUMP JUMPDEST SWAP4 POP POP PUSH1 0x40 PUSH2 0x1833 DUP9 DUP3 DUP10 ADD PUSH2 0x14BA JUMP JUMPDEST SWAP3 POP POP PUSH1 0x60 PUSH2 0x1844 DUP9 DUP3 DUP10 ADD PUSH2 0x14BA JUMP JUMPDEST SWAP2 POP POP SWAP3 SWAP6 POP SWAP3 SWAP6 SWAP1 SWAP4 POP JUMP JUMPDEST PUSH2 0x185A DUP2 PUSH2 0x1527 JUMP JUMPDEST DUP2 EQ PUSH2 0x1864 JUMPI PUSH0 PUSH0 REVERT JUMPDEST POP JUMP JUMPDEST PUSH0 DUP2 CALLDATALOAD SWAP1 POP PUSH2 0x1875 DUP2 PUSH2 0x1851 JUMP JUMPDEST SWAP3 SWAP2 POP POP JUMP JUMPDEST PUSH0 PUSH1 0x20 DUP3 DUP5 SUB SLT ISZERO PUSH2 0x1890 JUMPI PUSH2 0x188F PUSH2 0x1493 JUMP JUMPDEST JUMPDEST PUSH0 PUSH2 0x189D DUP5 DUP3 DUP6 ADD PUSH2 0x1867 JUMP JUMPDEST SWAP2 POP POP SWAP3 SWAP2 POP POP JUMP JUMPDEST PUSH0 DUP2 MLOAD SWAP1 POP SWAP2 SWAP1 POP JUMP JUMPDEST PUSH0 DUP3 DUP3 MSTORE PUSH1 0x20 DUP3 ADD SWAP1 POP SWAP3 SWAP2 POP POP JUMP JUMPDEST PUSH0 DUP2 SWAP1 POP PUSH1 0x20 DUP3 ADD SWAP1 POP SWAP2 SWAP1 POP JUMP JUMPDEST PUSH2 0x18D8 DUP2 PUSH2 0x149B JUMP JUMPDEST DUP3 MSTORE POP POP JUMP JUMPDEST PUSH0 PUSH2 0x18E9 DUP4 DUP4 PUSH2 0x18CF JUMP JUMPDEST PUSH1 0x20 DUP4 ADD SWAP1 POP SWAP3 SWAP2 POP POP JUMP JUMPDEST PUSH0 PUSH1 0x20 DUP3 ADD SWAP1 POP SWAP2 SWAP1 POP JUMP JUMPDEST PUSH0 PUSH2 0x190B DUP3 PUSH2 0x18A6 JUMP JUMPDEST PUSH2 0x1915 DUP2 DUP6 PUSH2 0x18B0 JUMP JUMPDEST SWAP4 POP PUSH2 0x1920 DUP4 PUSH2 0x18C0 JUMP JUMPDEST DUP1 PUSH0 JUMPDEST DUP4 DUP2 LT ISZERO PUSH2 0x1950 JUMPI DUP2 MLOAD PUSH2 0x1937 DUP9 DUP3 PUSH2 0x18DE JUMP JUMPDEST SWAP8 POP PUSH2 0x1942 DUP4 PUSH2 0x18F5 JUMP JUMPDEST SWAP3 POP POP PUSH1 0x1 DUP2 ADD SWAP1 POP PUSH2 0x1923 JUMP JUMPDEST POP DUP6 SWAP4 POP POP POP POP SWAP3 SWAP2 POP POP JUMP JUMPDEST PUSH0 PUSH1 0x40 DUP3 ADD SWAP1 POP DUP2 DUP2 SUB PUSH0 DUP4 ADD MSTORE PUSH2 0x1975 DUP2 DUP6 PUSH2 0x1901 JUMP JUMPDEST SWAP1 POP DUP2 DUP2 SUB PUSH1 0x20 DUP4 ADD MSTORE PUSH2 0x1989 DUP2 DUP5 PUSH2 0x1901 JUMP JUMPDEST SWAP1 POP SWAP4 SWAP3 POP POP POP JUMP JUMPDEST PUSH0 PUSH0 PUSH0 PUSH1 0x40 DUP5 DUP7 SUB SLT ISZERO PUSH2 0x19A9 JUMPI PUSH2 0x19A8 PUSH2 0x1493 JUMP JUMPDEST JUMPDEST PUSH0 PUSH2 0x19B6 DUP7 DUP3 DUP8 ADD PUSH2 0x14BA JUMP JUMPDEST SWAP4 POP POP PUSH1 0x20 DUP5 ADD CALLDATALOAD PUSH8 0xFFFFFFFFFFFFFFFF DUP2 GT ISZERO PUSH2 0x19D7 JUMPI PUSH2 0x19D6 PUSH2 0x1497 JUMP JUMPDEST JUMPDEST PUSH2 0x19E3 DUP7 DUP3 DUP8 ADD PUSH2 0x1778 JUMP JUMPDEST SWAP3 POP SWAP3 POP POP SWAP3 POP SWAP3 POP SWAP3 JUMP JUMPDEST PUSH0 DUP2 MLOAD SWAP1 POP SWAP2 SWAP1 POP JUMP JUMPDEST PUSH0 DUP3 DUP3 MSTORE PUSH1 0x20 DUP3 ADD SWAP1 POP SWAP3 SWAP2 POP POP JUMP JUMPDEST PUSH0 DUP2 SWAP1 POP PUSH1 0x20 DUP3 ADD SWAP1 POP SWAP2 SWAP1 POP JUMP JUMPDEST PUSH2 0x1A21 DUP2 PUSH2 0x1527 JUMP JUMPDEST DUP3 MSTORE POP POP JUMP JUMPDEST PUSH0 PUSH2 0x1A32 DUP4 DUP4 PUSH2 0x1A18 JUMP JUMPDEST PUSH1 0x20 DUP4 ADD SWAP1 POP SWAP3 SWAP2 POP POP JUMP JUMPDEST PUSH0 PUSH1 0x20 DUP3 ADD SWAP1 POP SWAP2 SWAP1 POP JUMP JUMPDEST PUSH0 PUSH2 0x1A54 DUP3 PUSH2 0x19EF JUMP JUMPDEST PUSH2 0x1A5E DUP2 DUP6 PUSH2 0x19F9 JUMP JUMPDEST SWAP4 POP PUSH2 0x1A69 DUP4 PUSH2 0x1A09 JUMP JUMPDEST DUP1 PUSH0 JUMPDEST DUP4 DUP2 LT ISZERO PUSH2 0x1A99 JUMPI DUP2 MLOAD PUSH2 0x1A80 DUP9 DUP3 PUSH2 0x1A27 JUMP JUMPDEST SWAP8 POP PUSH2 0x1A8B DUP4 PUSH2 0x1A3E JUMP JUMPDEST SWAP3 POP POP PUSH1 0x1 DUP2 ADD SWAP1 POP PUSH2 0x1A6C JUMP JUMPDEST POP DUP6 SWAP4 POP POP POP POP SWAP3 SWAP2 POP POP JUMP JUMPDEST PUSH0 PUSH2 0x100 DUP3 ADD SWAP1 POP DUP2 DUP2 SUB PUSH0 DUP4 ADD MSTORE PUSH2 0x1ABF DUP2 DUP12 PUSH2 0x1901 JUMP JUMPDEST SWAP1 POP DUP2 DUP2 SUB PUSH1 0x20 DUP4 ADD MSTORE PUSH2 0x1AD3 DUP2 DUP11 PUSH2 0x1A4A JUMP JUMPDEST SWAP1 POP DUP2 DUP2 SUB PUSH1 0x40 DUP4 ADD MSTORE PUSH2 0x1AE7 DUP2 DUP10 PUSH2 0x1647 JUMP JUMPDEST SWAP1 POP DUP2 DUP2 SUB PUSH1 0x60 DUP4 ADD MSTORE PUSH2 0x1AFB DUP2 DUP9 PUSH2 0x1901 JUMP JUMPDEST SWAP1 POP DUP2 DUP2 SUB PUSH1 0x80 DUP4 ADD MSTORE PUSH2 0x1B0F DUP2 DUP8 PUSH2 0x1901 JUMP JUMPDEST SWAP1 POP DUP2 DUP2 SUB PUSH1 0xA0 DUP4 ADD MSTORE PUSH2 0x1B23 DUP2 DUP7 PUSH2 0x1901 JUMP JUMPDEST SWAP1 POP DUP2 DUP2 SUB PUSH1 0xC0 DUP4 ADD MSTORE PUSH2 0x1B37 DUP2 DUP6 PUSH2 0x1901 JUMP JUMPDEST SWAP1 POP DUP2 DUP2 SUB PUSH1 0xE0 DUP4 ADD MSTORE PUSH2 0x1B4B DUP2 DUP5 PUSH2 0x1901 JUMP JUMPDEST SWAP1 POP SWAP10 SWAP9 POP POP POP POP POP POP POP POP POP JUMP JUMPDEST PUSH32 0x426F6E6420646F6573206E6F7420657869737400000000000000000000000000 PUSH0 DUP3 ADD MSTORE POP JUMP JUMPDEST PUSH0 PUSH2 0x1B8E PUSH1 0x13 DUP4 PUSH2 0x1551 JUMP JUMPDEST SWAP2 POP PUSH2 0x1B99 DUP3 PUSH2 0x1B5A JUMP JUMPDEST PUSH1 0x20 DUP3 ADD SWAP1 POP SWAP2 SWAP1 POP JUMP JUMPDEST PUSH0 PUSH1 0x20 DUP3 ADD SWAP1 POP DUP2 DUP2 SUB PUSH0 DUP4 ADD MSTORE PUSH2 0x1BBB DUP2 PUSH2 0x1B82 JUMP JUMPDEST SWAP1 POP SWAP2 SWAP1 POP JUMP JUMPDEST PUSH32 0x4E487B7100000000000000000000000000000000000000000000000000000000 PUSH0 MSTORE PUSH1 0x22 PUSH1 0x4 MSTORE PUSH1 0x24 PUSH0 REVERT JUMPDEST PUSH0 PUSH1 0x2 DUP3 DIV SWAP1 POP PUSH1 0x1 DUP3 AND DUP1 PUSH2 0x1C06 JUMPI PUSH1 0x7F DUP3 AND SWAP2 POP JUMPDEST PUSH1 0x20 DUP3 LT DUP2 SUB PUSH2 0x1C19 JUMPI PUSH2 0x1C18 PUSH2 0x1BC2 JUMP JUMPDEST JUMPDEST POP SWAP2 SWAP1 POP JUMP JUMPDEST PUSH32 0x4E487B7100000000000000000000000000000000000000000000000000000000 PUSH0 MSTORE PUSH1 0x11 PUSH1 0x4 MSTORE PUSH1 0x24 PUSH0 REVERT JUMPDEST PUSH0 PUSH2 0x1C56 DUP3 PUSH2 0x149B JUMP JUMPDEST SWAP2 POP PUSH2 0x1C61 DUP4 PUSH2 0x149B JUMP JUMPDEST SWAP3 POP DUP3 DUP3 MUL PUSH2 0x1C6F DUP2 PUSH2 0x149B JUMP JUMPDEST SWAP2 POP DUP3 DUP3 DIV DUP5 EQ DUP4 ISZERO OR PUSH2 0x1C86 JUMPI PUSH2 0x1C85 PUSH2 0x1C1F JUMP JUMPDEST JUMPDEST POP SWAP3 SWAP2 POP POP JUMP JUMPDEST PUSH0 PUSH2 0x1C97 DUP3 PUSH2 0x149B JUMP JUMPDEST SWAP2 POP PUSH2 0x1CA2 DUP4 PUSH2 0x149B JUMP JUMPDEST SWAP3 POP DUP3 DUP3 ADD SWAP1 POP DUP1 DUP3 GT ISZERO PUSH2 0x1CBA JUMPI PUSH2 0x1CB9 PUSH2 0x1C1F JUMP JUMPDEST JUMPDEST SWAP3 SWAP2 POP POP JUMP JUMPDEST PUSH32 0x4E487B7100000000000000000000000000000000000000000000000000000000 PUSH0 MSTORE PUSH1 0x12 PUSH1 0x4 MSTORE PUSH1 0x24 PUSH0 REVERT JUMPDEST PUSH0 PUSH2 0x1CF7 DUP3 PUSH2 0x149B JUMP JUMPDEST SWAP2 POP PUSH2 0x1D02 DUP4 PUSH2 0x149B JUMP JUMPDEST SWAP3 POP DUP3 PUSH2 0x1D12 JUMPI PUSH2 0x1D11 PUSH2 0x1CC0 JUMP JUMPDEST JUMPDEST DUP3 DUP3 DIV SWAP1 POP SWAP3 SWAP2 POP POP JUMP JUMPDEST PUSH32 0x4E616D6520697320726571756972656400000000000000000000000000000000 PUSH0 DUP3 ADD MSTORE POP JUMP JUMPDEST PUSH0 PUSH2 0x1D51 PUSH1 0x10 DUP4 PUSH2 0x1551 JUMP JUMPDEST SWAP2 POP PUSH2 0x1D5C DUP3 PUSH2 0x1D1D JUMP JUMPDEST PUSH1 0x20 DUP3 ADD SWAP1 POP SWAP2 SWAP1 POP JUMP JUMPDEST PUSH0 PUSH1 0x20 DUP3 ADD SWAP1 POP DUP2 DUP2 SUB PUSH0 DUP4 ADD MSTORE PUSH2 0x1D7E DUP2 PUSH2 0x1D45 JUMP JUMPDEST SWAP1 POP SWAP2 SWAP1 POP JUMP JUMPDEST PUSH32 0x46756E64696E67206D757374206265203E203000000000000000000000000000 PUSH0 DUP3 ADD MSTORE POP JUMP JUMPDEST PUSH0 PUSH2 0x1DB9 PUSH1 0x13 DUP4 PUSH2 0x1551 JUMP JUMPDEST SWAP2 POP PUSH2 0x1DC4 DUP3 PUSH2 0x1D85 JUMP JUMPDEST PUSH1 0x20 DUP3 ADD SWAP1 POP SWAP2 SWAP1 POP JUMP JUMPDEST PUSH0 PUSH1 0x20 DUP3 ADD SWAP1 POP DUP2 DUP2 SUB PUSH0 DUP4 ADD MSTORE PUSH2 0x1DE6 DUP2 PUSH2 0x1DAD JUMP JUMPDEST SWAP1 POP SWAP2 SWAP1 POP JUMP JUMPDEST PUSH32 0x4475726174696F6E206D757374206265203E2030000000000000000000000000 PUSH0 DUP3 ADD MSTORE POP JUMP JUMPDEST PUSH0 PUSH2 0x1E21 PUSH1 0x14 DUP4 PUSH2 0x1551 JUMP JUMPDEST SWAP2 POP PUSH2 0x1E2C DUP3 PUSH2 0x1DED JUMP JUMPDEST PUSH1 0x20 DUP3 ADD SWAP1 POP SWAP2 SWAP1 POP JUMP JUMPDEST PUSH0 PUSH1 0x20 DUP3 ADD SWAP1 POP DUP2 DUP2 SUB PUSH0 DUP4 ADD MSTORE PUSH2 0x1E4E DUP2 PUSH2 0x1E15 JUMP JUMPDEST SWAP1 POP SWAP2 SWAP1 POP JUMP JUMPDEST PUSH0 PUSH2 0x1E5F DUP3 PUSH2 0x149B JUMP JUMPDEST SWAP2 POP PUSH32 0xFFFFFFFFFFFFFFFFFFFFFFFFFFFFFFFFFFFFFFFFFFFFFFFFFFFFFFFFFFFFFFFF DUP3 SUB PUSH2 0x1E91 JUMPI PUSH2 0x1E90 PUSH2 0x1C1F JUMP JUMPDEST JUMPDEST PUSH1 0x1 DUP3 ADD SWAP1 POP SWAP2 SWAP1 POP JUMP JUMPDEST PUSH0 DUP3 SWAP1 POP SWAP3 SWAP2 POP POP JUMP JUMPDEST PUSH32 0x4E487B7100000000000000000000000000000000000000000000000000000000 PUSH0 MSTORE PUSH1 0x41 PUSH1 0x4 MSTORE PUSH1 0x24 PUSH0 REVERT JUMPDEST PUSH0 DUP2 SWAP1 POP DUP2 PUSH0 MSTORE PUSH1 0x20 PUSH0 KECCAK256 SWAP1 POP SWAP2 SWAP1 POP JUMP JUMPDEST PUSH0 PUSH1 0x20 PUSH1 0x1F DUP4 ADD DIV SWAP1 POP SWAP2 SWAP1 POP JUMP JUMPDEST PUSH0 DUP3 DUP3 SHL SWAP1 POP SWAP3 SWAP2 POP POP JUMP JUMPDEST PUSH0 PUSH1 0x8 DUP4 MUL PUSH2 0x1F2F PUSH32 0xFFFFFFFFFFFFFFFFFFFFFFFFFFFFFFFFFFFFFFFFFFFFFFFFFFFFFFFFFFFFFFFF DUP3 PUSH2 0x1EF4 JUMP JUMPDEST PUSH2 0x1F39 DUP7 DUP4 PUSH2 0x1EF4 JUMP JUMPDEST SWAP6 POP DUP1 NOT DUP5 AND SWAP4 POP DUP1 DUP7 AND DUP5 OR SWAP3 POP POP POP SWAP4 SWAP3 POP POP POP JUMP JUMPDEST PUSH0 DUP2 SWAP1 POP SWAP2 SWAP1 POP JUMP JUMPDEST PUSH0 PUSH2 0x1F74 PUSH2 0x1F6F PUSH2 0x1F6A DUP5 PUSH2 0x149B JUMP JUMPDEST PUSH2 0x1F51 JUMP JUMPDEST PUSH2 0x149B JUMP JUMPDEST SWAP1 POP SWAP2 SWAP1 POP JUMP JUMPDEST PUSH0 DUP2 SWAP1 POP SWAP2 SWAP1 POP JUMP JUMPDEST PUSH2 0x1F8D DUP4 PUSH2 0x1F5A JUMP JUMPDEST PUSH2 0x1FA1 PUSH2 0x1F99 DUP3 PUSH2 0x1F7B JUMP JUMPDEST DUP5 DUP5 SLOAD PUSH2 0x1F00 JUMP JUMPDEST DUP3 SSTORE POP POP POP POP JUMP JUMPDEST PUSH0 PUSH0 SWAP1 POP SWAP1 JUMP JUMPDEST PUSH2 0x1FB8 PUSH2 0x1FA9 JUMP JUMPDEST PUSH2 0x1FC3 DUP2 DUP5 DUP5 PUSH2 0x1F84 JUMP JUMPDEST POP POP POP JUMP JUMPDEST PUSH0 JUMPDEST DUP3 DUP2 LT ISZERO PUSH2 0x1FE9 JUMPI PUSH2 0x1FDE PUSH0 DUP3 DUP5 ADD PUSH2 0x1FB0 JUMP JUMPDEST PUSH1 0x1 DUP2 ADD SWAP1 POP PUSH2 0x1FCA JUMP JUMPDEST POP POP POP JUMP JUMPDEST PUSH1 0x1F DUP3 GT ISZERO PUSH2 0x203C JUMPI DUP3 DUP3 GT ISZERO PUSH2 0x203B JUMPI PUSH2 0x2008 DUP2 PUSH2 0x1ED3 JUMP JUMPDEST PUSH2 0x2011 DUP4 PUSH2 0x1EE5 JUMP JUMPDEST PUSH2 0x201A DUP6 PUSH2 0x1EE5 JUMP JUMPDEST PUSH1 0x20 DUP7 LT ISZERO PUSH2 0x2027 JUMPI PUSH0 SWAP1 POP JUMPDEST DUP1 DUP4 ADD PUSH2 0x2036 DUP3 DUP5 SUB DUP3 PUSH2 0x1FC8 JUMP JUMPDEST POP POP POP POP JUMPDEST JUMPDEST POP POP POP JUMP JUMPDEST PUSH0 DUP3 DUP3 SHR SWAP1 POP SWAP3 SWAP2 POP POP JUMP JUMPDEST PUSH0 PUSH2 0x205C PUSH0 NOT DUP5 PUSH1 0x8 MUL PUSH2 0x2041 JUMP JUMPDEST NOT DUP1 DUP4 AND SWAP2 POP POP SWAP3 SWAP2 POP POP JUMP JUMPDEST PUSH0 PUSH2 0x2074 DUP4 DUP4 PUSH2 0x204D JUMP JUMPDEST SWAP2 POP DUP3 PUSH1 0x2 MUL DUP3 OR SWAP1 POP SWAP3 SWAP2 POP POP JUMP JUMPDEST PUSH2 0x208E DUP4 DUP4 PUSH2 0x1E9C JUMP JUMPDEST PUSH8 0xFFFFFFFFFFFFFFFF DUP2 GT ISZERO PUSH2 0x20A7 JUMPI PUSH2 0x20A6 PUSH2 0x1EA6 JUMP JUMPDEST JUMPDEST PUSH2 0x20B1 DUP3 SLOAD PUSH2 0x1BEF JUMP JUMPDEST PUSH2 0x20BC DUP3 DUP3 DUP6 PUSH2 0x1FEE JUMP JUMPDEST PUSH0 PUSH1 0x1F DUP4 GT PUSH1 0x1 DUP2 EQ PUSH2 0x20E9 JUMPI PUSH0 DUP5 ISZERO PUSH2 0x20D7 JUMPI DUP3 DUP8 ADD CALLDATALOAD SWAP1 POP JUMPDEST PUSH2 0x20E1 DUP6 DUP3 PUSH2 0x2069 JUMP JUMPDEST DUP7 SSTORE POP PUSH2 0x2148 JUMP JUMPDEST PUSH1 0x1F NOT DUP5 AND PUSH2 0x20F7 DUP7 PUSH2 0x1ED3 JUMP JUMPDEST PUSH0 JUMPDEST DUP3 DUP2 LT ISZERO PUSH2 0x211E JUMPI DUP5 DUP10 ADD CALLDATALOAD DUP3 SSTORE PUSH1 0x1 DUP3 ADD SWAP2 POP PUSH1 0x20 DUP6 ADD SWAP5 POP PUSH1 0x20 DUP2 ADD SWAP1 POP PUSH2 0x20F9 JUMP JUMPDEST DUP7 DUP4 LT ISZERO PUSH2 0x213B JUMPI DUP5 DUP10 ADD CALLDATALOAD PUSH2 0x2137 PUSH1 0x1F DUP10 AND DUP3 PUSH2 0x204D JUMP JUMPDEST DUP4 SSTORE POP JUMPDEST PUSH1 0x1 PUSH1 0x2 DUP9 MUL ADD DUP9 SSTORE POP POP POP JUMPDEST POP POP POP POP POP POP POP JUMP JUMPDEST DUP3 DUP2 DUP4 CALLDATACOPY PUSH0 DUP4 DUP4 ADD MSTORE POP POP POP JUMP JUMPDEST PUSH0 PUSH2 0x216A DUP4 DUP6 PUSH2 0x1551 JUMP JUMPDEST SWAP4 POP PUSH2 0x2177 DUP4 DUP6 DUP5 PUSH2 0x2151 JUMP JUMPDEST PUSH2 0x2180 DUP4 PUSH2 0x156F JUMP JUMPDEST DUP5 ADD SWAP1 POP SWAP4 SWAP3 POP POP POP JUMP JUMPDEST PUSH0 PUSH1 0x80 DUP3 ADD SWAP1 POP DUP2 DUP2 SUB PUSH0 DUP4 ADD MSTORE PUSH2 0x21A4 DUP2 DUP8 DUP10 PUSH2 0x215F JUMP JUMPDEST SWAP1 POP PUSH2 0x21B3 PUSH1 0x20 DUP4 ADD DUP7 PUSH2 0x14F9 JUMP JUMPDEST PUSH2 0x21C0 PUSH1 0x40 DUP4 ADD DUP6 PUSH2 0x14F9 JUMP JUMPDEST PUSH2 0x21CD PUSH1 0x60 DUP4 ADD DUP5 PUSH2 0x14F9 JUMP JUMPDEST SWAP7 SWAP6 POP POP POP POP POP POP JUMP JUMPDEST PUSH32 0x496E766573746D656E74206D757374206265203E203000000000000000000000 PUSH0 DUP3 ADD MSTORE POP JUMP JUMPDEST PUSH0 PUSH2 0x220B PUSH1 0x16 DUP4 PUSH2 0x1551 JUMP JUMPDEST SWAP2 POP PUSH2 0x2216 DUP3 PUSH2 0x21D7 JUMP JUMPDEST PUSH1 0x20 DUP3 ADD SWAP1 POP SWAP2 SWAP1 POP JUMP JUMPDEST PUSH0 PUSH1 0x20 DUP3 ADD SWAP1 POP DUP2 DUP2 SUB PUSH0 DUP4 ADD MSTORE PUSH2 0x2238 DUP2 PUSH2 0x21FF JUMP JUMPDEST SWAP1 POP SWAP2 SWAP1 POP JUMP JUMPDEST PUSH32 0x496E766573746D656E7420657863656564732066756E64696E67207461726765 PUSH0 DUP3 ADD MSTORE PUSH32 0x7400000000000000000000000000000000000000000000000000000000000000 PUSH1 0x20 DUP3 ADD MSTORE POP JUMP JUMPDEST PUSH0 PUSH2 0x2299 PUSH1 0x21 DUP4 PUSH2 0x1551 JUMP JUMPDEST SWAP2 POP PUSH2 0x22A4 DUP3 PUSH2 0x223F JUMP JUMPDEST PUSH1 0x40 DUP3 ADD SWAP1 POP SWAP2 SWAP1 POP JUMP JUMPDEST PUSH0 PUSH1 0x20 DUP3 ADD SWAP1 POP DUP2 DUP2 SUB PUSH0 DUP4 ADD MSTORE PUSH2 0x22C6 DUP2 PUSH2 0x228D JUMP JUMPDEST SWAP1 POP SWAP2 SWAP1 POP JUMP JUMPDEST PUSH0 DUP2 SWAP1 POP SWAP3 SWAP2 POP POP JUMP JUMPDEST POP JUMP JUMPDEST PUSH0 PUSH2 0x22E5 PUSH0 DUP4 PUSH2 0x22CD JUMP JUMPDEST SWAP2 POP PUSH2 0x22F0 DUP3 PUSH2 0x22D7 JUMP JUMPDEST PUSH0 DUP3 ADD SWAP1 POP SWAP2 SWAP1 POP JUMP JUMPDEST PUSH0 PUSH2 0x2304 DUP3 PUSH2 0x22DA JUMP JUMPDEST SWAP2 POP DUP2 SWAP1 POP SWAP2 SWAP1 POP JUMP JUMPDEST PUSH32 0x4661696C656420746F207472616E736665722066756E647320746F206F726761 PUSH0 DUP3 ADD MSTORE PUSH32 0x6E697A6174696F6E000000000000000000000000000000000000000000000000 PUSH1 0x20 DUP3 ADD MSTORE POP JUMP JUMPDEST PUSH0 PUSH2 0x2368 PUSH1 0x28 DUP4 PUSH2 0x1551 JUMP JUMPDEST SWAP2 POP PUSH2 0x2373 DUP3 PUSH2 0x230E JUMP JUMPDEST PUSH1 0x40 DUP3 ADD SWAP1 POP SWAP2 SWAP1 POP JUMP JUMPDEST PUSH0 PUSH1 0x20 DUP3 ADD SWAP1 POP DUP2 DUP2 SUB PUSH0 DUP4 ADD MSTORE PUSH2 0x2395 DUP2 PUSH2 0x235C JUMP JUMPDEST SWAP1 POP SWAP2 SWAP1 POP JUMP JUMPDEST PUSH0 PUSH1 0x40 DUP3 ADD SWAP1 POP PUSH2 0x23AF PUSH0 DUP4 ADD DUP6 PUSH2 0x14F9 JUMP JUMPDEST PUSH2 0x23BC PUSH1 0x20 DUP4 ADD DUP5 PUSH2 0x14F9 JUMP JUMPDEST SWAP4 SWAP3 POP POP POP JUMP JUMPDEST PUSH32 0x4E487B7100000000000000000000000000000000000000000000000000000000 PUSH0 MSTORE PUSH1 0x32 PUSH1 0x4 MSTORE PUSH1 0x24 PUSH0 REVERT JUMPDEST PUSH32 0x4F6E6C792063726561746F72206F7267616E697A6174696F6E20616C6C6F7765 PUSH0 DUP3 ADD MSTORE PUSH32 0x6400000000000000000000000000000000000000000000000000000000000000 PUSH1 0x20 DUP3 ADD MSTORE POP JUMP JUMPDEST PUSH0 PUSH2 0x244A PUSH1 0x21 DUP4 PUSH2 0x1551 JUMP JUMPDEST SWAP2 POP PUSH2 0x2455 DUP3 PUSH2 0x23F0 JUMP JUMPDEST PUSH1 0x40 DUP3 ADD SWAP1 POP SWAP2 SWAP1 POP JUMP JUMPDEST PUSH0 PUSH1 0x20 DUP3 ADD SWAP1 POP DUP2 DUP2 SUB PUSH0 DUP4 ADD MSTORE PUSH2 0x2477 DUP2 PUSH2 0x243E JUMP JUMPDEST SWAP1 POP SWAP2 SWAP1 POP JUMP JUMPDEST PUSH32 0x4465736372697074696F6E206973207265717569726564000000000000000000 PUSH0 DUP3 ADD MSTORE POP JUMP JUMPDEST PUSH0 PUSH2 0x24B2 PUSH1 0x17 DUP4 PUSH2 0x1551 JUMP JUMPDEST SWAP2 POP PUSH2 0x24BD DUP3 PUSH2 0x247E JUMP JUMPDEST PUSH1 0x20 DUP3 ADD SWAP1 POP SWAP2 SWAP1 POP JUMP JUMPDEST PUSH0 PUSH1 0x20 DUP3 ADD SWAP1 POP DUP2 DUP2 SUB PUSH0 DUP4 ADD MSTORE PUSH2 0x24DF DUP2 PUSH2 0x24A6 JUMP JUMPDEST SWAP1 POP SWAP2 SWAP1 POP JUMP JUMPDEST PUSH0 PUSH1 0x40 DUP3 ADD SWAP1 POP DUP2 DUP2 SUB PUSH0 DUP4 ADD MSTORE PUSH2 0x24FF DUP2 DUP6 DUP8 PUSH2 0x215F JUMP JUMPDEST SWAP1 POP PUSH2 0x250E PUSH1 0x20 DUP4 ADD DUP5 PUSH2 0x14F9 JUMP JUMPDEST SWAP5 SWAP4 POP POP POP POP JUMP INVALID LOG2 PUSH5 0x6970667358 0x22 SLT KECCAK256 PUSH0 DIV SWAP15 PREVRANDAO COINBASE BALANCE PUSH17 0xCCDA278C79298DE535AE39EADB85A1369A 0xAD MLOAD 0xCD ADD SWAP8 EXTCODESIZE RETURNDATACOPY PUSH24 0x64736F6C6343000822003300000000000000000000000000 "
				},
				"gasEstimates": {
					"creation": {
						"codeDepositCost": "1909600",
						"executionCost": "2017",
						"totalCost": "1911617"
					},
					"external": {
						"createBond(string,uint256,uint256,uint256)": "infinite",
						"getAllBonds()": "infinite",
						"getBondDetails(uint256)": "infinite",
						"getInvestorPortfolio(address)": "infinite",
						"getTrustScore(uint256)": "infinite",
						"investInBond(uint256)": "infinite",
						"nextBondId()": "2512",
						"updateFundUsage(uint256,string)": "infinite",
						"updateTrustScore(uint256)": "infinite"
					}
				},
				"methodIdentifiers": {
					"createBond(string,uint256,uint256,uint256)": "8ade3de0",
					"getAllBonds()": "d5ae0e9a",
					"getBondDetails(uint256)": "0436f2f6",
					"getInvestorPortfolio(address)": "ba0ca532",
					"getTrustScore(uint256)": "83f3d448",
					"investInBond(uint256)": "a461e2b3",
					"nextBondId()": "ee53a423",
					"updateFundUsage(uint256,string)": "baf191b2",
					"updateTrustScore(uint256)": "34ae18e3"
				}
			},
			"storageLayout": {
				"storage": [
					{
						"astId": 40,
						"contract": "BondMarketplace.sol:BondMarketplace",
						"label": "nextBondId",
						"offset": 0,
						"slot": "0",
						"type": "t_uint256"
					},
					{
						"astId": 45,
						"contract": "BondMarketplace.sol:BondMarketplace",
						"label": "bonds",
						"offset": 0,
						"slot": "1",
						"type": "t_mapping(t_uint256,t_struct(Bond)26_storage)"
					},
					{
						"astId": 48,
						"contract": "BondMarketplace.sol:BondMarketplace",
						"label": "bondIds",
						"offset": 0,
						"slot": "2",
						"type": "t_array(t_uint256)dyn_storage"
					},
					{
						"astId": 53,
						"contract": "BondMarketplace.sol:BondMarketplace",
						"label": "investors",
						"offset": 0,
						"slot": "3",
						"type": "t_mapping(t_address,t_struct(Investor)38_storage)"
					}
				],
				"types": {
					"t_address": {
						"encoding": "inplace",
						"label": "address",
						"numberOfBytes": "20"
					},
					"t_array(t_string_storage)dyn_storage": {
						"base": "t_string_storage",
						"encoding": "dynamic_array",
						"label": "string[]",
						"numberOfBytes": "32"
					},
					"t_array(t_uint256)dyn_storage": {
						"base": "t_uint256",
						"encoding": "dynamic_array",
						"label": "uint256[]",
						"numberOfBytes": "32"
					},
					"t_bool": {
						"encoding": "inplace",
						"label": "bool",
						"numberOfBytes": "1"
					},
					"t_mapping(t_address,t_struct(Investor)38_storage)": {
						"encoding": "mapping",
						"key": "t_address",
						"label": "mapping(address => struct BondMarketplace.Investor)",
						"numberOfBytes": "32",
						"value": "t_struct(Investor)38_storage"
					},
					"t_mapping(t_uint256,t_struct(Bond)26_storage)": {
						"encoding": "mapping",
						"key": "t_uint256",
						"label": "mapping(uint256 => struct BondMarketplace.Bond)",
						"numberOfBytes": "32",
						"value": "t_struct(Bond)26_storage"
					},
					"t_mapping(t_uint256,t_uint256)": {
						"encoding": "mapping",
						"key": "t_uint256",
						"label": "mapping(uint256 => uint256)",
						"numberOfBytes": "32",
						"value": "t_uint256"
					},
					"t_string_storage": {
						"encoding": "bytes",
						"label": "string",
						"numberOfBytes": "32"
					},
					"t_struct(Bond)26_storage": {
						"encoding": "inplace",
						"label": "struct BondMarketplace.Bond",
						"members": [
							{
								"astId": 4,
								"contract": "BondMarketplace.sol:BondMarketplace",
								"label": "id",
								"offset": 0,
								"slot": "0",
								"type": "t_uint256"
							},
							{
								"astId": 6,
								"contract": "BondMarketplace.sol:BondMarketplace",
								"label": "organization",
								"offset": 0,
								"slot": "1",
								"type": "t_address"
							},
							{
								"astId": 8,
								"contract": "BondMarketplace.sol:BondMarketplace",
								"label": "name",
								"offset": 0,
								"slot": "2",
								"type": "t_string_storage"
							},
							{
								"astId": 10,
								"contract": "BondMarketplace.sol:BondMarketplace",
								"label": "interestRate",
								"offset": 0,
								"slot": "3",
								"type": "t_uint256"
							},
							{
								"astId": 12,
								"contract": "BondMarketplace.sol:BondMarketplace",
								"label": "durationDays",
								"offset": 0,
								"slot": "4",
								"type": "t_uint256"
							},
							{
								"astId": 14,
								"contract": "BondMarketplace.sol:BondMarketplace",
								"label": "totalFundingRequired",
								"offset": 0,
								"slot": "5",
								"type": "t_uint256"
							},
							{
								"astId": 16,
								"contract": "BondMarketplace.sol:BondMarketplace",
								"label": "amountRaised",
								"offset": 0,
								"slot": "6",
								"type": "t_uint256"
							},
							{
								"astId": 18,
								"contract": "BondMarketplace.sol:BondMarketplace",
								"label": "trustScore",
								"offset": 0,
								"slot": "7",
								"type": "t_uint256"
							},
							{
								"astId": 20,
								"contract": "BondMarketplace.sol:BondMarketplace",
								"label": "createdAt",
								"offset": 0,
								"slot": "8",
								"type": "t_uint256"
							},
							{
								"astId": 23,
								"contract": "BondMarketplace.sol:BondMarketplace",
								"label": "fundUsageLogs",
								"offset": 0,
								"slot": "9",
								"type": "t_array(t_string_storage)dyn_storage"
							},
							{
								"astId": 25,
								"contract": "BondMarketplace.sol:BondMarketplace",
								"label": "exists",
								"offset": 0,
								"slot": "10",
								"type": "t_bool"
							}
						],
						"numberOfBytes": "352"
					},
					"t_struct(Investor)38_storage": {
						"encoding": "inplace",
						"label": "struct BondMarketplace.Investor",
						"members": [
							{
								"astId": 28,
								"contract": "BondMarketplace.sol:BondMarketplace",
								"label": "investorAddress",
								"offset": 0,
								"slot": "0",
								"type": "t_address"
							},
							{
								"astId": 32,
								"contract": "BondMarketplace.sol:BondMarketplace",
								"label": "investments",
								"offset": 0,
								"slot": "1",
								"type": "t_mapping(t_uint256,t_uint256)"
							},
							{
								"astId": 35,
								"contract": "BondMarketplace.sol:BondMarketplace",
								"label": "investedBondIds",
								"offset": 0,
								"slot": "2",
								"type": "t_array(t_uint256)dyn_storage"
							},
							{
								"astId": 37,
								"contract": "BondMarketplace.sol:BondMarketplace",
								"label": "initialized",
								"offset": 0,
								"slot": "3",
								"type": "t_bool"
							}
						],
						"numberOfBytes": "128"
					},
					"t_uint256": {
						"encoding": "inplace",
						"label": "uint256",
						"numberOfBytes": "32"
					}
				}
			},
			"userdoc": {
				"kind": "user",
				"methods": {
					"createBond(string,uint256,uint256,uint256)": {
						"notice": "Create and list a new bond."
					},
					"getAllBonds()": {
						"notice": "Returns summary arrays for all bonds."
					},
					"getBondDetails(uint256)": {
						"notice": "Returns complete details for one bond including usage logs."
					},
					"getInvestorPortfolio(address)": {
						"notice": "Returns investor portfolio as bondId/amount arrays."
					},
					"investInBond(uint256)": {
						"notice": "Invest ETH into a specific bond."
					},
					"updateFundUsage(uint256,string)": {
						"notice": "Add a fund usage update for a bond."
					},
					"updateTrustScore(uint256)": {
						"notice": "Updates trust score based on transparency activity."
					}
				},
				"notice": "Simplified MVP contract for listing and investing in decentralized bonds.",
				"version": 1
			}
		}
	}
}