{
	"contracts/BondMarketplace.sol": {
		"BondMarketplace": {
			"abi": [
				{
					"anonymous": false,
					"inputs": [
						{
							"indexed": true,
							"internalType": "uint256",
							"name": "bondId",
							"type": "uint256"
						},
						{
							"indexed": true,
							"internalType": "address",
							"name": "organization",
							"type": "address"
						},
						{
							"indexed": false,
							"internalType": "string",
							"name": "name",
							"type": "string"
						},
						{
							"indexed": false,
							"internalType": "uint256",
							"name": "interestRate",
							"type": "uint256"
						},
						{
							"indexed": false,
							"internalType": "uint256",
							"name": "durationDays",
							"type": "uint256"
						},
						{
							"indexed": false,
							"internalType": "uint256",
							"name": "totalFundingRequired",
							"type": "uint256"
						}
					],
					"name": "BondCreated",
					"type": "event"
				},
				{
					"anonymous": false,
					"inputs": [
						{
							"indexed": true,
							"internalType": "uint256",
							"name": "bondId",
							"type": "uint256"
						},
						{
							"indexed": true,
							"internalType": "address",
							"name": "organization",
							"type": "address"
						},
						{
							"indexed": false,
							"internalType": "string",
							"name": "description",
							"type": "string"
						},
						{
							"indexed": false,
							"internalType": "uint256",
							"name": "logCount",
							"type": "uint256"
						}
					],
					"name": "FundUsageUpdated",
					"type": "event"
				},
				{
					"anonymous": false,
					"inputs": [
						{
							"indexed": true,
							"internalType": "uint256",
							"name": "bondId",
							"type": "uint256"
						},
						{
							"indexed": true,
							"internalType": "address",
							"name": "investor",
							"type": "address"
						},
						{
							"indexed": false,
							"internalType": "uint256",
							"name": "amount",
							"type": "uint256"
						},
						{
							"indexed": false,
							"internalType": "uint256",
							"name": "newAmountRaised",
							"type": "uint256"
						}
					],
					"name": "Invested",
					"type": "event"
				},
				{
					"anonymous": false,
					"inputs": [
						{
							"indexed": true,
							"internalType": "uint256",
							"name": "bondId",
							"type": "uint256"
						},
						{
							"indexed": false,
							"internalType": "uint256",
							"name": "newTrustScore",
							"type": "uint256"
						}
					],
					"name": "TrustScoreUpdated",
					"type": "event"
				},
				{
					"inputs": [
						{
							"internalType": "string",
							"name": "name",
							"type": "string"
						},
						{
							"internalType": "uint256",
							"name": "interestRate",
							"type": "uint256"
						},
						{
							"internalType": "uint256",
							"name": "durationDays",
							"type": "uint256"
						},
						{
							"internalType": "uint256",
							"name": "totalFundingRequired",
							"type": "uint256"
						}
					],
					"name": "createBond",
					"outputs": [],
					"stateMutability": "nonpayable",
					"type": "function"
				},
				{
					"inputs": [],
					"name": "getAllBonds",
					"outputs": [
						{
							"internalType": "uint256[]",
							"name": "ids",
							"type": "uint256[]"
						},
						{
							"internalType": "address[]",
							"name": "organizations",
							"type": "address[]"
						},
						{
							"internalType": "string[]",
							"name": "names",
							"type": "string[]"
						},
						{
							"internalType": "uint256[]",
							"name": "interestRates",
							"type": "uint256[]"
						},
						{
							"internalType": "uint256[]",
							"name": "durations",
							"type": "uint256[]"
						},
						{
							"internalType": "uint256[]",
							"name": "totals",
							"type": "uint256[]"
						},
						{
							"internalType": "uint256[]",
							"name": "raised",
							"type": "uint256[]"
						},
						{
							"internalType": "uint256[]",
							"name": "trustScores",
							"type": "uint256[]"
						}
					],
					"stateMutability": "view",
					"type": "function"
				},
				{
					"inputs": [
						{
							"internalType": "uint256",
							"name": "bondId",
							"type": "uint256"
						}
					],
					"name": "getBondDetails",
					"outputs": [
						{
							"internalType": "uint256",
							"name": "id",
							"type": "uint256"
						},
						{
							"internalType": "address",
							"name": "organization",
							"type": "address"
						},
						{
							"internalType": "string",
							"name": "name",
							"type": "string"
						},
						{
							"internalType": "uint256",
							"name": "interestRate",
							"type": "uint256"
						},
						{
							"internalType": "uint256",
							"name": "durationDays",
							"type": "uint256"
						},
						{
							"internalType": "uint256",
							"name": "totalFundingRequired",
							"type": "uint256"
						},
						{
							"internalType": "uint256",
							"name": "amountRaised",
							"type": "uint256"
						},
						{
							"internalType": "uint256",
							"name": "trustScore",
							"type": "uint256"
						},
						{
							"internalType": "string[]",
							"name": "fundUsageLogs",
							"type": "string[]"
						}
					],
					"stateMutability": "view",
					"type": "function"
				},
				{
					"inputs": [
						{
							"internalType": "address",
							"name": "investorAddress",
							"type": "address"
						}
					],
					"name": "getInvestorPortfolio",
					"outputs": [
						{
							"internalType": "uint256[]",
							"name": "investedIds",
							"type": "uint256[]"
						},
						{
							"internalType": "uint256[]",
							"name": "investedAmounts",
							"type": "uint256[]"
						}
					],
					"stateMutability": "view",
					"type": "function"
				},
				{
					"inputs": [
						{
							"internalType": "uint256",
							"name": "bondId",
							"type": "uint256"
						}
					],
					"name": "getTrustScore",
					"outputs": [
						{
							"internalType": "uint256",
							"name": "",
							"type": "uint256"
						}
					],
					"stateMutability": "view",
					"type": "function"
				},
				{
					"inputs": [
						{
							"internalType": "uint256",
							"name": "bondId",
							"type": "uint256"
						}
					],
					"name": "investInBond",
					"outputs": [],
					"stateMutability": "payable",
					"type": "function"
				},
				{
					"inputs": [],
					"name": "nextBondId",
					"outputs": [
						{
							"internalType": "uint256",
							"name": "",
							"type": "uint256"
						}
					],
					"stateMutability": "view",
					"type": "function"
				},
				{
					"inputs": [
						{
							"internalType": "uint256",
							"name": "bondId",
							"type": "uint256"
						},
						{
							"internalType": "string",
							"name": "description",
							"type": "string"
						}
					],
					"name": "updateFundUsage",
					"outputs": [],
					"stateMutability": "nonpayable",
					"type": "function"
				},
				{
					"inputs": [
						{
							"internalType": "uint256",
							"name": "bondId",
							"type": "uint256"
						}
					],
					"name": "updateTrustScore",
					"outputs": [
						{
							"internalType": "uint256",
							"name": "",
							"type": "uint256"
						}
					],
					"stateMutability": "nonpayable",
					"type": "function"
				}
			],
			"devdoc": {
				"details": "This contract is intentionally simple for learning/demo purposes.",
				"kind": "dev",
				"methods": {
					"updateFundUsage(uint256,string)": {
						"details": "Only the bond creator can call this."
					},
					"updateTrustScore(uint256)": {
						"details": "Simple formula for MVP:      - Base score: min(50, logsCount * 10)      - Bonus if updated early: +10 if first update within 7 days of creation      - Bonus for momentum: +2 per 10% funding progress (max +20)      - Max score capped at 100"
					}
				},
				"title": "BondMarketplace",
				"version": 1
			},
			"evm": {
				"assembly": "    /* \"contracts/BondMarketplace.sol\":258:9431  contract BondMarketplace {... */\n  mstore(0x40, 0x80)\n  callvalue\n  dup1\n  iszero\n  tag_1\n  jumpi\n  0x00\n  dup1\n  revert\ntag_1:\n  pop\n  dataSize(sub_0)\n  dup1\n  dataOffset(sub_0)\n  0x00\n  codecopy\n  0x00\n  return\nstop\n\nsub_0: assembly {\n        /* \"contracts/BondMarketplace.sol\":258:9431  contract BondMarketplace {... */\n      mstore(0x40, 0x80)\n      jumpi(tag_1, lt(calldatasize, 0x04))\n      shr(0xe0, calldataload(0x00))\n      dup1\n      0xa461e2b3\n      gt\n      tag_11\n      jumpi\n      dup1\n      0xa461e2b3\n      eq\n      tag_6\n      jumpi\n      dup1\n      0xba0ca532\n      eq\n      tag_7\n      jumpi\n      dup1\n      0xbaf191b2\n      eq\n      tag_8\n      jumpi\n      dup1\n      0xd5ae0e9a\n      eq\n      tag_9\n      jumpi\n      dup1\n      0xee53a423\n      eq\n      tag_10\n      jumpi\n      jump(tag_1)\n    tag_11:\n      dup1\n      0x0436f2f6\n      eq\n      tag_2\n      jumpi\n      dup1\n      0x34ae18e3\n      eq\n      tag_3\n      jumpi\n      dup1\n      0x83f3d448\n      eq\n      tag_4\n      jumpi\n      dup1\n      0x8ade3de0\n      eq\n      tag_5\n      jumpi\n    tag_1:\n      0x00\n      dup1\n      revert\n        /* \"contracts/BondMarketplace.sol\":7798:8597  function getBondDetails(... */\n    tag_2:\n      callvalue\n      dup1\n      iszero\n      tag_12\n      jumpi\n      0x00\n      dup1\n      revert\n    tag_12:\n      pop\n      tag_13\n      0x04\n      dup1\n      calldatasize\n      sub\n      dup2\n      add\n      swap1\n      tag_14\n      swap2\n      swap1\n      tag_15\n      jump\t// in\n    tag_14:\n      tag_16\n      jump\t// in\n    tag_13:\n      mload(0x40)\n      tag_17\n      swap10\n      swap9\n      swap8\n      swap7\n      swap6\n      swap5\n      swap4\n      swap3\n      swap2\n      swap1\n      tag_18\n      jump\t// in\n    tag_17:\n      mload(0x40)\n      dup1\n      swap2\n      sub\n      swap1\n      return\n        /* \"contracts/BondMarketplace.sol\":4169:5260  function updateTrustScore(... */\n    tag_3:\n      callvalue\n      dup1\n      iszero\n      tag_19\n      jumpi\n      0x00\n      dup1\n      revert\n    tag_19:\n      pop\n      tag_20\n      0x04\n      dup1\n      calldatasize\n      sub\n      dup2\n      add\n      swap1\n      tag_21\n      swap2\n      swap1\n      tag_15\n      jump\t// in\n    tag_21:\n      tag_22\n      jump\t// in\n    tag_20:\n      mload(0x40)\n      tag_23\n      swap2\n      swap1\n      tag_24\n      jump\t// in\n    tag_23:\n      mload(0x40)\n      dup1\n      swap2\n      sub\n      swap1\n      return\n        /* \"contracts/BondMarketplace.sol\":8605:8748  function getTrustScore(uint256 bondId) external view bondMustExist(bondId) returns (uint256) {... */\n    tag_4:\n      callvalue\n      dup1\n      iszero\n      tag_25\n      jumpi\n      0x00\n      dup1\n      revert\n    tag_25:\n      pop\n      tag_26\n      0x04\n      dup1\n      calldatasize\n      sub\n      dup2\n      add\n      swap1\n      tag_27\n      swap2\n      swap1\n      tag_15\n      jump\t// in\n    tag_27:\n      tag_28\n      jump\t// in\n    tag_26:\n      mload(0x40)\n      tag_29\n      swap2\n      swap1\n      tag_24\n      jump\t// in\n    tag_29:\n      mload(0x40)\n      dup1\n      swap2\n      sub\n      swap1\n      return\n        /* \"contracts/BondMarketplace.sol\":2103:3145  function createBond(... */\n    tag_5:\n      callvalue\n      dup1\n      iszero\n      tag_30\n      jumpi\n      0x00\n      dup1\n      revert\n    tag_30:\n      pop\n      tag_31\n      0x04\n      dup1\n      calldatasize\n      sub\n      dup2\n      add\n      swap1\n      tag_32\n      swap2\n      swap1\n      tag_33\n      jump\t// in\n    tag_32:\n      tag_34\n      jump\t// in\n    tag_31:\n      stop\n        /* \"contracts/BondMarketplace.sol\":5335:6375  function investInBond(uint256 bondId) external payable bondMustExist(bondId) {... */\n    tag_6:\n      tag_35\n      0x04\n      dup1\n      calldatasize\n      sub\n      dup2\n      add\n      swap1\n      tag_36\n      swap2\n      swap1\n      tag_15\n      jump\t// in\n    tag_36:\n      tag_37\n      jump\t// in\n    tag_35:\n      stop\n        /* \"contracts/BondMarketplace.sol\":8842:9428  function getInvestorPortfolio(... */\n    tag_7:\n      callvalue\n      dup1\n      iszero\n      tag_38\n      jumpi\n      0x00\n      dup1\n      revert\n    tag_38:\n      pop\n      tag_39\n      0x04\n      dup1\n      calldatasize\n      sub\n      dup2\n      add\n      swap1\n      tag_40\n      swap2\n      swap1\n      tag_41\n      jump\t// in\n    tag_40:\n      tag_42\n      jump\t// in\n    tag_39:\n      mload(0x40)\n      tag_43\n      swap3\n      swap2\n      swap1\n      tag_44\n      jump\t// in\n    tag_43:\n      mload(0x40)\n      dup1\n      swap2\n      sub\n      swap1\n      return\n        /* \"contracts/BondMarketplace.sol\":3273:3790  function updateFundUsage(... */\n    tag_8:\n      callvalue\n      dup1\n      iszero\n      tag_45\n      jumpi\n      0x00\n      dup1\n      revert\n    tag_45:\n      pop\n      tag_46\n      0x04\n      dup1\n      calldatasize\n      sub\n      dup2\n      add\n      swap1\n      tag_47\n      swap2\n      swap1\n      tag_48\n      jump\t// in\n    tag_47:\n      tag_49\n      jump\t// in\n    tag_46:\n      stop\n        /* \"contracts/BondMarketplace.sol\":6455:7696  function getAllBonds()... */\n    tag_9:\n      callvalue\n      dup1\n      iszero\n      tag_50\n      jumpi\n      0x00\n      dup1\n      revert\n    tag_50:\n      pop\n      tag_51\n      tag_52\n      jump\t// in\n    tag_51:\n      mload(0x40)\n      tag_53\n      swap9\n      swap8\n      swap7\n      swap6\n      swap5\n      swap4\n      swap3\n      swap2\n      swap1\n      tag_54\n      jump\t// in\n    tag_53:\n      mload(0x40)\n      dup1\n      swap2\n      sub\n      swap1\n      return\n        /* \"contracts/BondMarketplace.sol\":909:934  uint256 public nextBondId */\n    tag_10:\n      callvalue\n      dup1\n      iszero\n      tag_55\n      jumpi\n      0x00\n      dup1\n      revert\n    tag_55:\n      pop\n      tag_56\n      tag_57\n      jump\t// in\n    tag_56:\n      mload(0x40)\n      tag_58\n      swap2\n      swap1\n      tag_24\n      jump\t// in\n    tag_58:\n      mload(0x40)\n      dup1\n      swap2\n      sub\n      swap1\n      return\n        /* \"contracts/BondMarketplace.sol\":7798:8597  function getBondDetails(... */\n    tag_16:\n        /* \"contracts/BondMarketplace.sol\":7949:7959  uint256 id */\n      0x00\n        /* \"contracts/BondMarketplace.sol\":7974:7994  address organization */\n      dup1\n        /* \"contracts/BondMarketplace.sol\":8009:8027  string memory name */\n      0x60\n        /* \"contracts/BondMarketplace.sol\":8042:8062  uint256 interestRate */\n      0x00\n        /* \"contracts/BondMarketplace.sol\":8077:8097  uint256 durationDays */\n      dup1\n        /* \"contracts/BondMarketplace.sol\":8112:8140  uint256 totalFundingRequired */\n      0x00\n        /* \"contracts/BondMarketplace.sol\":8155:8175  uint256 amountRaised */\n      dup1\n        /* \"contracts/BondMarketplace.sol\":8190:8208  uint256 trustScore */\n      0x00\n        /* \"contracts/BondMarketplace.sol\":8223:8252  string[] memory fundUsageLogs */\n      0x60\n        /* \"contracts/BondMarketplace.sol\":7909:7915  bondId */\n      dup10\n        /* \"contracts/BondMarketplace.sol\":1761:1766  bonds */\n      0x01\n        /* \"contracts/BondMarketplace.sol\":1761:1774  bonds[bondId] */\n      0x00\n        /* \"contracts/BondMarketplace.sol\":1767:1773  bondId */\n      dup3\n        /* \"contracts/BondMarketplace.sol\":1761:1774  bonds[bondId] */\n      dup2\n      mstore\n      0x20\n      add\n      swap1\n      dup2\n      mstore\n      0x20\n      add\n      0x00\n      keccak256\n        /* \"contracts/BondMarketplace.sol\":1761:1781  bonds[bondId].exists */\n      0x0a\n      add\n      0x00\n      swap1\n      sload\n      swap1\n      0x0100\n      exp\n      swap1\n      div\n      0xff\n      and\n        /* \"contracts/BondMarketplace.sol\":1753:1805  require(bonds[bondId].exists, \"Bond does not exist\") */\n      tag_60\n      jumpi\n      mload(0x40)\n      0x08c379a000000000000000000000000000000000000000000000000000000000\n      dup2\n      mstore\n      0x04\n      add\n      tag_61\n      swap1\n      tag_62\n      jump\t// in\n    tag_61:\n      mload(0x40)\n      dup1\n      swap2\n      sub\n      swap1\n      revert\n    tag_60:\n        /* \"contracts/BondMarketplace.sol\":8280:8294  Bond storage b */\n      0x00\n        /* \"contracts/BondMarketplace.sol\":8297:8302  bonds */\n      0x01\n        /* \"contracts/BondMarketplace.sol\":8297:8310  bonds[bondId] */\n      0x00\n        /* \"contracts/BondMarketplace.sol\":8303:8309  bondId */\n      dup14\n        /* \"contracts/BondMarketplace.sol\":8297:8310  bonds[bondId] */\n      dup2\n      mstore\n      0x20\n      add\n      swap1\n      dup2\n      mstore\n      0x20\n      add\n      0x00\n      keccak256\n        /* \"contracts/BondMarketplace.sol\":8280:8310  Bond storage b = bonds[bondId] */\n      swap1\n      pop\n        /* \"contracts/BondMarketplace.sol\":8343:8344  b */\n      dup1\n        /* \"contracts/BondMarketplace.sol\":8343:8347  b.id */\n      0x00\n      add\n      sload\n        /* \"contracts/BondMarketplace.sol\":8362:8363  b */\n      dup2\n        /* \"contracts/BondMarketplace.sol\":8362:8376  b.organization */\n      0x01\n      add\n      0x00\n      swap1\n      sload\n      swap1\n      0x0100\n      exp\n      swap1\n      div\n      0xffffffffffffffffffffffffffffffffffffffff\n      and\n        /* \"contracts/BondMarketplace.sol\":8391:8392  b */\n      dup3\n        /* \"contracts/BondMarketplace.sol\":8391:8397  b.name */\n      0x02\n      add\n        /* \"contracts/BondMarketplace.sol\":8412:8413  b */\n      dup4\n        /* \"contracts/BondMarketplace.sol\":8412:8426  b.interestRate */\n      0x03\n      add\n      sload\n        /* \"contracts/BondMarketplace.sol\":8441:8442  b */\n      dup5\n        /* \"contracts/BondMarketplace.sol\":8441:8455  b.durationDays */\n      0x04\n      add\n      sload\n        /* \"contracts/BondMarketplace.sol\":8470:8471  b */\n      dup6\n        /* \"contracts/BondMarketplace.sol\":8470:8492  b.totalFundingRequired */\n      0x05\n      add\n      sload\n        /* \"contracts/BondMarketplace.sol\":8507:8508  b */\n      dup7\n        /* \"contracts/BondMarketplace.sol\":8507:8521  b.amountRaised */\n      0x06\n      add\n      sload\n        /* \"contracts/BondMarketplace.sol\":8536:8537  b */\n      dup8\n        /* \"contracts/BondMarketplace.sol\":8536:8548  b.trustScore */\n      0x07\n      add\n      sload\n        /* \"contracts/BondMarketplace.sol\":8563:8564  b */\n      dup9\n        /* \"contracts/BondMarketplace.sol\":8563:8578  b.fundUsageLogs */\n      0x09\n      add\n        /* \"contracts/BondMarketplace.sol\":8321:8589  return (... */\n      dup7\n      dup1\n      sload\n      tag_64\n      swap1\n      tag_65\n      jump\t// in\n    tag_64:\n      dup1\n      0x1f\n      add\n      0x20\n      dup1\n      swap2\n      div\n      mul\n      0x20\n      add\n      mload(0x40)\n      swap1\n      dup2\n      add\n      0x40\n      mstore\n      dup1\n      swap3\n      swap2\n      swap1\n      dup2\n      dup2\n      mstore\n      0x20\n      add\n      dup3\n      dup1\n      sload\n      tag_66\n      swap1\n      tag_65\n      jump\t// in\n    tag_66:\n      dup1\n      iszero\n      tag_67\n      jumpi\n      dup1\n      0x1f\n      lt\n      tag_68\n      jumpi\n      0x0100\n      dup1\n      dup4\n      sload\n      div\n      mul\n      dup4\n      mstore\n      swap2\n      0x20\n      add\n      swap2\n      jump(tag_67)\n    tag_68:\n      dup3\n      add\n      swap2\n      swap1\n      0x00\n      mstore\n      keccak256(0x00, 0x20)\n      swap1\n    tag_69:\n      dup2\n      sload\n      dup2\n      mstore\n      swap1\n      0x01\n      add\n      swap1\n      0x20\n      add\n      dup1\n      dup4\n      gt\n      tag_69\n      jumpi\n      dup3\n      swap1\n      sub\n      0x1f\n      and\n      dup3\n      add\n      swap2\n    tag_67:\n      pop\n      pop\n      pop\n      pop\n      pop\n      swap7\n      pop\n      dup1\n      dup1\n      sload\n      dup1\n      0x20\n      mul\n      0x20\n      add\n      mload(0x40)\n      swap1\n      dup2\n      add\n      0x40\n      mstore\n      dup1\n      swap3\n      swap2\n      swap1\n      dup2\n      dup2\n      mstore\n      0x20\n      add\n      0x00\n      swap1\n    tag_70:\n      dup3\n      dup3\n      lt\n      iszero\n      tag_71\n      jumpi\n      dup4\n      dup3\n      swap1\n      0x00\n      mstore\n      keccak256(0x00, 0x20)\n      add\n      dup1\n      sload\n      tag_73\n      swap1\n      tag_65\n      jump\t// in\n    tag_73:\n      dup1\n      0x1f\n      add\n      0x20\n      dup1\n      swap2\n      div\n      mul\n      0x20\n      add\n      mload(0x40)\n      swap1\n      dup2\n      add\n      0x40\n      mstore\n      dup1\n      swap3\n      swap2\n      swap1\n      dup2\n      dup2\n      mstore\n      0x20\n      add\n      dup3\n      dup1\n      sload\n      tag_74\n      swap1\n      tag_65\n      jump\t// in\n    tag_74:\n      dup1\n      iszero\n      tag_75\n      jumpi\n      dup1\n      0x1f\n      lt\n      tag_76\n      jumpi\n      0x0100\n      dup1\n      dup4\n      sload\n      div\n      mul\n      dup4\n      mstore\n      swap2\n      0x20\n      add\n      swap2\n      jump(tag_75)\n    tag_76:\n      dup3\n      add\n      swap2\n      swap1\n      0x00\n      mstore\n      keccak256(0x00, 0x20)\n      swap1\n    tag_77:\n      dup2\n      sload\n      dup2\n      mstore\n      swap1\n      0x01\n      add\n      swap1\n      0x20\n      add\n      dup1\n      dup4\n      gt\n      tag_77\n      jumpi\n      dup3\n      swap1\n      sub\n      0x1f\n      and\n      dup3\n      add\n      swap2\n    tag_75:\n      pop\n      pop\n      pop\n      pop\n      pop\n      dup2\n      mstore\n      0x20\n      add\n      swap1\n      0x01\n      add\n      swap1\n      jump(tag_70)\n    tag_71:\n      pop\n      pop\n      pop\n      pop\n      swap1\n      pop\n      swap11\n      pop\n      swap11\n      pop\n      swap11\n      pop\n      swap11\n      pop\n      swap11\n      pop\n      swap11\n      pop\n      swap11\n      pop\n      swap11\n      pop\n      swap11\n      pop\n      pop\n        /* \"contracts/BondMarketplace.sol\":7798:8597  function getBondDetails(... */\n      pop\n      swap2\n      swap4\n      swap6\n      swap8\n      swap10\n      swap1\n      swap3\n      swap5\n      swap7\n      swap9\n      pop\n      jump\t// out\n        /* \"contracts/BondMarketplace.sol\":4169:5260  function updateTrustScore(... */\n    tag_22:\n        /* \"contracts/BondMarketplace.sol\":4265:4272  uint256 */\n      0x00\n        /* \"contracts/BondMarketplace.sol\":4248:4254  bondId */\n      dup2\n        /* \"contracts/BondMarketplace.sol\":1761:1766  bonds */\n      0x01\n        /* \"contracts/BondMarketplace.sol\":1761:1774  bonds[bondId] */\n      0x00\n        /* \"contracts/BondMarketplace.sol\":1767:1773  bondId */\n      dup3\n        /* \"contracts/BondMarketplace.sol\":1761:1774  bonds[bondId] */\n      dup2\n      mstore\n      0x20\n      add\n      swap1\n      dup2\n      mstore\n      0x20\n      add\n      0x00\n      keccak256\n        /* \"contracts/BondMarketplace.sol\":1761:1781  bonds[bondId].exists */\n      0x0a\n      add\n      0x00\n      swap1\n      sload\n      swap1\n      0x0100\n      exp\n      swap1\n      div\n      0xff\n      and\n        /* \"contracts/BondMarketplace.sol\":1753:1805  require(bonds[bondId].exists, \"Bond does not exist\") */\n      tag_79\n      jumpi\n      mload(0x40)\n      0x08c379a000000000000000000000000000000000000000000000000000000000\n      dup2\n      mstore\n      0x04\n      add\n      tag_80\n      swap1\n      tag_62\n      jump\t// in\n    tag_80:\n      mload(0x40)\n      dup1\n      swap2\n      sub\n      swap1\n      revert\n    tag_79:\n        /* \"contracts/BondMarketplace.sol\":4285:4299  Bond storage b */\n      0x00\n        /* \"contracts/BondMarketplace.sol\":4302:4307  bonds */\n      0x01\n        /* \"contracts/BondMarketplace.sol\":4302:4315  bonds[bondId] */\n      0x00\n        /* \"contracts/BondMarketplace.sol\":4308:4314  bondId */\n      dup6\n        /* \"contracts/BondMarketplace.sol\":4302:4315  bonds[bondId] */\n      dup2\n      mstore\n      0x20\n      add\n      swap1\n      dup2\n      mstore\n      0x20\n      add\n      0x00\n      keccak256\n        /* \"contracts/BondMarketplace.sol\":4285:4315  Bond storage b = bonds[bondId] */\n      swap1\n      pop\n        /* \"contracts/BondMarketplace.sol\":4328:4345  uint256 logsCount */\n      0x00\n        /* \"contracts/BondMarketplace.sol\":4348:4349  b */\n      dup2\n        /* \"contracts/BondMarketplace.sol\":4348:4363  b.fundUsageLogs */\n      0x09\n      add\n        /* \"contracts/BondMarketplace.sol\":4348:4370  b.fundUsageLogs.length */\n      dup1\n      sload\n      swap1\n      pop\n        /* \"contracts/BondMarketplace.sol\":4328:4370  uint256 logsCount = b.fundUsageLogs.length */\n      swap1\n      pop\n        /* \"contracts/BondMarketplace.sol\":4381:4393  uint256 base */\n      0x00\n        /* \"contracts/BondMarketplace.sol\":4408:4410  10 */\n      0x0a\n        /* \"contracts/BondMarketplace.sol\":4396:4405  logsCount */\n      dup3\n        /* \"contracts/BondMarketplace.sol\":4396:4410  logsCount * 10 */\n      tag_82\n      swap2\n      swap1\n      tag_83\n      jump\t// in\n    tag_82:\n        /* \"contracts/BondMarketplace.sol\":4381:4410  uint256 base = logsCount * 10 */\n      swap1\n      pop\n        /* \"contracts/BondMarketplace.sol\":4432:4434  50 */\n      0x32\n        /* \"contracts/BondMarketplace.sol\":4425:4429  base */\n      dup2\n        /* \"contracts/BondMarketplace.sol\":4425:4434  base > 50 */\n      gt\n        /* \"contracts/BondMarketplace.sol\":4421:4472  if (base > 50) {... */\n      iszero\n      tag_84\n      jumpi\n        /* \"contracts/BondMarketplace.sol\":4458:4460  50 */\n      0x32\n        /* \"contracts/BondMarketplace.sol\":4451:4460  base = 50 */\n      swap1\n      pop\n        /* \"contracts/BondMarketplace.sol\":4421:4472  if (base > 50) {... */\n    tag_84:\n        /* \"contracts/BondMarketplace.sol\":4484:4508  uint256 earlyUpdateBonus */\n      0x00\n        /* \"contracts/BondMarketplace.sol\":4539:4540  0 */\n      dup1\n        /* \"contracts/BondMarketplace.sol\":4527:4536  logsCount */\n      dup4\n        /* \"contracts/BondMarketplace.sol\":4527:4540  logsCount > 0 */\n      gt\n        /* \"contracts/BondMarketplace.sol\":4527:4583  logsCount > 0 && block.timestamp <= b.createdAt + 7 days */\n      dup1\n      iszero\n      tag_85\n      jumpi\n      pop\n        /* \"contracts/BondMarketplace.sol\":4577:4583  7 days */\n      0x093a80\n        /* \"contracts/BondMarketplace.sol\":4563:4564  b */\n      dup5\n        /* \"contracts/BondMarketplace.sol\":4563:4574  b.createdAt */\n      0x08\n      add\n      sload\n        /* \"contracts/BondMarketplace.sol\":4563:4583  b.createdAt + 7 days */\n      tag_86\n      swap2\n      swap1\n      tag_87\n      jump\t// in\n    tag_86:\n        /* \"contracts/BondMarketplace.sol\":4544:4559  block.timestamp */\n      timestamp\n        /* \"contracts/BondMarketplace.sol\":4544:4583  block.timestamp <= b.createdAt + 7 days */\n      gt\n      iszero\n        /* \"contracts/BondMarketplace.sol\":4527:4583  logsCount > 0 && block.timestamp <= b.createdAt + 7 days */\n    tag_85:\n        /* \"contracts/BondMarketplace.sol\":4523:4633  if (logsCount > 0 && block.timestamp <= b.createdAt + 7 days) {... */\n      iszero\n      tag_88\n      jumpi\n        /* \"contracts/BondMarketplace.sol\":4619:4621  10 */\n      0x0a\n        /* \"contracts/BondMarketplace.sol\":4600:4621  earlyUpdateBonus = 10 */\n      swap1\n      pop\n        /* \"contracts/BondMarketplace.sol\":4523:4633  if (logsCount > 0 && block.timestamp <= b.createdAt + 7 days) {... */\n    tag_88:\n        /* \"contracts/BondMarketplace.sol\":4645:4673  uint256 fundingProgressBonus */\n      0x00\n        /* \"contracts/BondMarketplace.sol\":4717:4718  0 */\n      dup1\n        /* \"contracts/BondMarketplace.sol\":4692:4693  b */\n      dup6\n        /* \"contracts/BondMarketplace.sol\":4692:4714  b.totalFundingRequired */\n      0x05\n      add\n      sload\n        /* \"contracts/BondMarketplace.sol\":4692:4718  b.totalFundingRequired > 0 */\n      gt\n        /* \"contracts/BondMarketplace.sol\":4688:4989  if (b.totalFundingRequired > 0) {... */\n      iszero\n      tag_89\n      jumpi\n        /* \"contracts/BondMarketplace.sol\":4735:4758  uint256 progressPercent */\n      0x00\n        /* \"contracts/BondMarketplace.sol\":4786:4787  b */\n      dup6\n        /* \"contracts/BondMarketplace.sol\":4786:4808  b.totalFundingRequired */\n      0x05\n      add\n      sload\n        /* \"contracts/BondMarketplace.sol\":4779:4782  100 */\n      0x64\n        /* \"contracts/BondMarketplace.sol\":4762:4763  b */\n      dup8\n        /* \"contracts/BondMarketplace.sol\":4762:4776  b.amountRaised */\n      0x06\n      add\n      sload\n        /* \"contracts/BondMarketplace.sol\":4762:4782  b.amountRaised * 100 */\n      tag_90\n      swap2\n      swap1\n      tag_83\n      jump\t// in\n    tag_90:\n        /* \"contracts/BondMarketplace.sol\":4761:4808  (b.amountRaised * 100) / b.totalFundingRequired */\n      tag_91\n      swap2\n      swap1\n      tag_92\n      jump\t// in\n    tag_91:\n        /* \"contracts/BondMarketplace.sol\":4735:4808  uint256 progressPercent = (b.amountRaised * 100) / b.totalFundingRequired */\n      swap1\n      pop\n        /* \"contracts/BondMarketplace.sol\":4871:4872  2 */\n      0x02\n        /* \"contracts/BondMarketplace.sol\":4865:4867  10 */\n      0x0a\n        /* \"contracts/BondMarketplace.sol\":4847:4862  progressPercent */\n      dup3\n        /* \"contracts/BondMarketplace.sol\":4847:4867  progressPercent / 10 */\n      tag_93\n      swap2\n      swap1\n      tag_92\n      jump\t// in\n    tag_93:\n        /* \"contracts/BondMarketplace.sol\":4846:4872  (progressPercent / 10) * 2 */\n      tag_94\n      swap2\n      swap1\n      tag_83\n      jump\t// in\n    tag_94:\n        /* \"contracts/BondMarketplace.sol\":4823:4872  fundingProgressBonus = (progressPercent / 10) * 2 */\n      swap2\n      pop\n        /* \"contracts/BondMarketplace.sol\":4914:4916  20 */\n      0x14\n        /* \"contracts/BondMarketplace.sol\":4891:4911  fundingProgressBonus */\n      dup3\n        /* \"contracts/BondMarketplace.sol\":4891:4916  fundingProgressBonus > 20 */\n      gt\n        /* \"contracts/BondMarketplace.sol\":4887:4978  if (fundingProgressBonus > 20) {... */\n      iszero\n      tag_95\n      jumpi\n        /* \"contracts/BondMarketplace.sol\":4960:4962  20 */\n      0x14\n        /* \"contracts/BondMarketplace.sol\":4937:4962  fundingProgressBonus = 20 */\n      swap2\n      pop\n        /* \"contracts/BondMarketplace.sol\":4887:4978  if (fundingProgressBonus > 20) {... */\n    tag_95:\n        /* \"contracts/BondMarketplace.sol\":4720:4989  {... */\n      pop\n        /* \"contracts/BondMarketplace.sol\":4688:4989  if (b.totalFundingRequired > 0) {... */\n    tag_89:\n        /* \"contracts/BondMarketplace.sol\":5001:5017  uint256 newScore */\n      0x00\n        /* \"contracts/BondMarketplace.sol\":5046:5066  fundingProgressBonus */\n      dup2\n        /* \"contracts/BondMarketplace.sol\":5027:5043  earlyUpdateBonus */\n      dup4\n        /* \"contracts/BondMarketplace.sol\":5020:5024  base */\n      dup6\n        /* \"contracts/BondMarketplace.sol\":5020:5043  base + earlyUpdateBonus */\n      tag_96\n      swap2\n      swap1\n      tag_87\n      jump\t// in\n    tag_96:\n        /* \"contracts/BondMarketplace.sol\":5020:5066  base + earlyUpdateBonus + fundingProgressBonus */\n      tag_97\n      swap2\n      swap1\n      tag_87\n      jump\t// in\n    tag_97:\n        /* \"contracts/BondMarketplace.sol\":5001:5066  uint256 newScore = base + earlyUpdateBonus + fundingProgressBonus */\n      swap1\n      pop\n        /* \"contracts/BondMarketplace.sol\":5092:5095  100 */\n      0x64\n        /* \"contracts/BondMarketplace.sol\":5081:5089  newScore */\n      dup2\n        /* \"contracts/BondMarketplace.sol\":5081:5095  newScore > 100 */\n      gt\n        /* \"contracts/BondMarketplace.sol\":5077:5138  if (newScore > 100) {... */\n      iszero\n      tag_98\n      jumpi\n        /* \"contracts/BondMarketplace.sol\":5123:5126  100 */\n      0x64\n        /* \"contracts/BondMarketplace.sol\":5112:5126  newScore = 100 */\n      swap1\n      pop\n        /* \"contracts/BondMarketplace.sol\":5077:5138  if (newScore > 100) {... */\n    tag_98:\n        /* \"contracts/BondMarketplace.sol\":5165:5173  newScore */\n      dup1\n        /* \"contracts/BondMarketplace.sol\":5150:5151  b */\n      dup7\n        /* \"contracts/BondMarketplace.sol\":5150:5162  b.trustScore */\n      0x07\n      add\n        /* \"contracts/BondMarketplace.sol\":5150:5173  b.trustScore = newScore */\n      dup2\n      swap1\n      sstore\n      pop\n        /* \"contracts/BondMarketplace.sol\":5207:5213  bondId */\n      dup9\n        /* \"contracts/BondMarketplace.sol\":5189:5224  TrustScoreUpdated(bondId, newScore) */\n      0x20d456995c74d5114f87879b10c5214b9c28e11ea422eeb922cc2e755095669f\n        /* \"contracts/BondMarketplace.sol\":5215:5223  newScore */\n      dup3\n        /* \"contracts/BondMarketplace.sol\":5189:5224  TrustScoreUpdated(bondId, newScore) */\n      mload(0x40)\n      tag_99\n      swap2\n      swap1\n      tag_24\n      jump\t// in\n    tag_99:\n      mload(0x40)\n      dup1\n      swap2\n      sub\n      swap1\n      log2\n        /* \"contracts/BondMarketplace.sol\":5244:5252  newScore */\n      dup1\n        /* \"contracts/BondMarketplace.sol\":5237:5252  return newScore */\n      swap8\n      pop\n      pop\n      pop\n      pop\n      pop\n      pop\n      pop\n        /* \"contracts/BondMarketplace.sol\":4169:5260  function updateTrustScore(... */\n      pop\n      swap2\n      swap1\n      pop\n      jump\t// out\n        /* \"contracts/BondMarketplace.sol\":8605:8748  function getTrustScore(uint256 bondId) external view bondMustExist(bondId) returns (uint256) {... */\n    tag_28:\n        /* \"contracts/BondMarketplace.sol\":8689:8696  uint256 */\n      0x00\n        /* \"contracts/BondMarketplace.sol\":8672:8678  bondId */\n      dup2\n        /* \"contracts/BondMarketplace.sol\":1761:1766  bonds */\n      0x01\n        /* \"contracts/BondMarketplace.sol\":1761:1774  bonds[bondId] */\n      0x00\n        /* \"contracts/BondMarketplace.sol\":1767:1773  bondId */\n      dup3\n        /* \"contracts/BondMarketplace.sol\":1761:1774  bonds[bondId] */\n      dup2\n      mstore\n      0x20\n      add\n      swap1\n      dup2\n      mstore\n      0x20\n      add\n      0x00\n      keccak256\n        /* \"contracts/BondMarketplace.sol\":1761:1781  bonds[bondId].exists */\n      0x0a\n      add\n      0x00\n      swap1\n      sload\n      swap1\n      0x0100\n      exp\n      swap1\n      div\n      0xff\n      and\n        /* \"contracts/BondMarketplace.sol\":1753:1805  require(bonds[bondId].exists, \"Bond does not exist\") */\n      tag_101\n      jumpi\n      mload(0x40)\n      0x08c379a000000000000000000000000000000000000000000000000000000000\n      dup2\n      mstore\n      0x04\n      add\n      tag_102\n      swap1\n      tag_62\n      jump\t// in\n    tag_102:\n      mload(0x40)\n      dup1\n      swap2\n      sub\n      swap1\n      revert\n    tag_101:\n        /* \"contracts/BondMarketplace.sol\":8716:8721  bonds */\n      0x01\n        /* \"contracts/BondMarketplace.sol\":8716:8729  bonds[bondId] */\n      0x00\n        /* \"contracts/BondMarketplace.sol\":8722:8728  bondId */\n      dup5\n        /* \"contracts/BondMarketplace.sol\":8716:8729  bonds[bondId] */\n      dup2\n      mstore\n      0x20\n      add\n      swap1\n      dup2\n      mstore\n      0x20\n      add\n      0x00\n      keccak256\n        /* \"contracts/BondMarketplace.sol\":8716:8740  bonds[bondId].trustScore */\n      0x07\n      add\n      sload\n        /* \"contracts/BondMarketplace.sol\":8709:8740  return bonds[bondId].trustScore */\n      swap2\n      pop\n        /* \"contracts/BondMarketplace.sol\":8605:8748  function getTrustScore(uint256 bondId) external view bondMustExist(bondId) returns (uint256) {... */\n      pop\n      swap2\n      swap1\n      pop\n      jump\t// out\n        /* \"contracts/BondMarketplace.sol\":2103:3145  function createBond(... */\n    tag_34:\n        /* \"contracts/BondMarketplace.sol\":2311:2312  0 */\n      0x00\n        /* \"contracts/BondMarketplace.sol\":2296:2300  name */\n      dup6\n      dup6\n        /* \"contracts/BondMarketplace.sol\":2290:2308  bytes(name).length */\n      swap1\n      pop\n        /* \"contracts/BondMarketplace.sol\":2290:2312  bytes(name).length > 0 */\n      gt\n        /* \"contracts/BondMarketplace.sol\":2282:2333  require(bytes(name).length > 0, \"Name is required\") */\n      tag_105\n      jumpi\n      mload(0x40)\n      0x08c379a000000000000000000000000000000000000000000000000000000000\n      dup2\n      mstore\n      0x04\n      add\n      tag_106\n      swap1\n      tag_107\n      jump\t// in\n    tag_106:\n      mload(0x40)\n      dup1\n      swap2\n      sub\n      swap1\n      revert\n    tag_105:\n        /* \"contracts/BondMarketplace.sol\":2375:2376  0 */\n      0x00\n        /* \"contracts/BondMarketplace.sol\":2352:2372  totalFundingRequired */\n      dup2\n        /* \"contracts/BondMarketplace.sol\":2352:2376  totalFundingRequired > 0 */\n      gt\n        /* \"contracts/BondMarketplace.sol\":2344:2400  require(totalFundingRequired > 0, \"Funding must be > 0\") */\n      tag_108\n      jumpi\n      mload(0x40)\n      0x08c379a000000000000000000000000000000000000000000000000000000000\n      dup2\n      mstore\n      0x04\n      add\n      tag_109\n      swap1\n      tag_110\n      jump\t// in\n    tag_109:\n      mload(0x40)\n      dup1\n      swap2\n      sub\n      swap1\n      revert\n    tag_108:\n        /* \"contracts/BondMarketplace.sol\":2434:2435  0 */\n      0x00\n        /* \"contracts/BondMarketplace.sol\":2419:2431  durationDays */\n      dup3\n        /* \"contracts/BondMarketplace.sol\":2419:2435  durationDays > 0 */\n      gt\n        /* \"contracts/BondMarketplace.sol\":2411:2460  require(durationDays > 0, \"Duration must be > 0\") */\n      tag_111\n      jumpi\n      mload(0x40)\n      0x08c379a000000000000000000000000000000000000000000000000000000000\n      dup2\n      mstore\n      0x04\n      add\n      tag_112\n      swap1\n      tag_113\n      jump\t// in\n    tag_112:\n      mload(0x40)\n      dup1\n      swap2\n      sub\n      swap1\n      revert\n    tag_111:\n        /* \"contracts/BondMarketplace.sol\":2473:2487  uint256 bondId */\n      0x00\n        /* \"contracts/BondMarketplace.sol\":2490:2500  nextBondId */\n      dup1\n      sload\n        /* \"contracts/BondMarketplace.sol\":2473:2500  uint256 bondId = nextBondId */\n      swap1\n      pop\n        /* \"contracts/BondMarketplace.sol\":2511:2521  nextBondId */\n      0x00\n      dup1\n        /* \"contracts/BondMarketplace.sol\":2511:2523  nextBondId++ */\n      dup2\n      sload\n      dup1\n      swap3\n      swap2\n      swap1\n      tag_114\n      swap1\n      tag_115\n      jump\t// in\n    tag_114:\n      swap2\n      swap1\n      pop\n      sstore\n      pop\n        /* \"contracts/BondMarketplace.sol\":2536:2550  Bond storage b */\n      0x00\n        /* \"contracts/BondMarketplace.sol\":2553:2558  bonds */\n      0x01\n        /* \"contracts/BondMarketplace.sol\":2553:2566  bonds[bondId] */\n      0x00\n        /* \"contracts/BondMarketplace.sol\":2559:2565  bondId */\n      dup4\n        /* \"contracts/BondMarketplace.sol\":2553:2566  bonds[bondId] */\n      dup2\n      mstore\n      0x20\n      add\n      swap1\n      dup2\n      mstore\n      0x20\n      add\n      0x00\n      keccak256\n        /* \"contracts/BondMarketplace.sol\":2536:2566  Bond storage b = bonds[bondId] */\n      swap1\n      pop\n        /* \"contracts/BondMarketplace.sol\":2584:2590  bondId */\n      dup2\n        /* \"contracts/BondMarketplace.sol\":2577:2578  b */\n      dup2\n        /* \"contracts/BondMarketplace.sol\":2577:2581  b.id */\n      0x00\n      add\n        /* \"contracts/BondMarketplace.sol\":2577:2590  b.id = bondId */\n      dup2\n      swap1\n      sstore\n      pop\n        /* \"contracts/BondMarketplace.sol\":2618:2628  msg.sender */\n      caller\n        /* \"contracts/BondMarketplace.sol\":2601:2602  b */\n      dup2\n        /* \"contracts/BondMarketplace.sol\":2601:2615  b.organization */\n      0x01\n      add\n      0x00\n        /* \"contracts/BondMarketplace.sol\":2601:2628  b.organization = msg.sender */\n      0x0100\n      exp\n      dup2\n      sload\n      dup2\n      0xffffffffffffffffffffffffffffffffffffffff\n      mul\n      not\n      and\n      swap1\n      dup4\n      0xffffffffffffffffffffffffffffffffffffffff\n      and\n      mul\n      or\n      swap1\n      sstore\n      pop\n        /* \"contracts/BondMarketplace.sol\":2648:2652  name */\n      dup7\n      dup7\n        /* \"contracts/BondMarketplace.sol\":2639:2640  b */\n      dup3\n        /* \"contracts/BondMarketplace.sol\":2639:2645  b.name */\n      0x02\n      add\n        /* \"contracts/BondMarketplace.sol\":2639:2652  b.name = name */\n      swap2\n      dup3\n      tag_116\n      swap3\n      swap2\n      swap1\n      tag_117\n      jump\t// in\n    tag_116:\n      pop\n        /* \"contracts/BondMarketplace.sol\":2680:2692  interestRate */\n      dup5\n        /* \"contracts/BondMarketplace.sol\":2663:2664  b */\n      dup2\n        /* \"contracts/BondMarketplace.sol\":2663:2677  b.interestRate */\n      0x03\n      add\n        /* \"contracts/BondMarketplace.sol\":2663:2692  b.interestRate = interestRate */\n      dup2\n      swap1\n      sstore\n      pop\n        /* \"contracts/BondMarketplace.sol\":2720:2732  durationDays */\n      dup4\n        /* \"contracts/BondMarketplace.sol\":2703:2704  b */\n      dup2\n        /* \"contracts/BondMarketplace.sol\":2703:2717  b.durationDays */\n      0x04\n      add\n        /* \"contracts/BondMarketplace.sol\":2703:2732  b.durationDays = durationDays */\n      dup2\n      swap1\n      sstore\n      pop\n        /* \"contracts/BondMarketplace.sol\":2768:2788  totalFundingRequired */\n      dup3\n        /* \"contracts/BondMarketplace.sol\":2743:2744  b */\n      dup2\n        /* \"contracts/BondMarketplace.sol\":2743:2765  b.totalFundingRequired */\n      0x05\n      add\n        /* \"contracts/BondMarketplace.sol\":2743:2788  b.totalFundingRequired = totalFundingRequired */\n      dup2\n      swap1\n      sstore\n      pop\n        /* \"contracts/BondMarketplace.sol\":2816:2817  0 */\n      0x00\n        /* \"contracts/BondMarketplace.sol\":2799:2800  b */\n      dup2\n        /* \"contracts/BondMarketplace.sol\":2799:2813  b.amountRaised */\n      0x06\n      add\n        /* \"contracts/BondMarketplace.sol\":2799:2817  b.amountRaised = 0 */\n      dup2\n      swap1\n      sstore\n      pop\n        /* \"contracts/BondMarketplace.sol\":2843:2844  0 */\n      0x00\n        /* \"contracts/BondMarketplace.sol\":2828:2829  b */\n      dup2\n        /* \"contracts/BondMarketplace.sol\":2828:2840  b.trustScore */\n      0x07\n      add\n        /* \"contracts/BondMarketplace.sol\":2828:2844  b.trustScore = 0 */\n      dup2\n      swap1\n      sstore\n      pop\n        /* \"contracts/BondMarketplace.sol\":2869:2884  block.timestamp */\n      timestamp\n        /* \"contracts/BondMarketplace.sol\":2855:2856  b */\n      dup2\n        /* \"contracts/BondMarketplace.sol\":2855:2866  b.createdAt */\n      0x08\n      add\n        /* \"contracts/BondMarketplace.sol\":2855:2884  b.createdAt = block.timestamp */\n      dup2\n      swap1\n      sstore\n      pop\n        /* \"contracts/BondMarketplace.sol\":2906:2910  true */\n      0x01\n        /* \"contracts/BondMarketplace.sol\":2895:2896  b */\n      dup2\n        /* \"contracts/BondMarketplace.sol\":2895:2903  b.exists */\n      0x0a\n      add\n      0x00\n        /* \"contracts/BondMarketplace.sol\":2895:2910  b.exists = true */\n      0x0100\n      exp\n      dup2\n      sload\n      dup2\n      0xff\n      mul\n      not\n      and\n      swap1\n      dup4\n      iszero\n      iszero\n      mul\n      or\n      swap1\n      sstore\n      pop\n        /* \"contracts/BondMarketplace.sol\":2923:2930  bondIds */\n      0x02\n        /* \"contracts/BondMarketplace.sol\":2936:2942  bondId */\n      dup3\n        /* \"contracts/BondMarketplace.sol\":2923:2943  bondIds.push(bondId) */\n      swap1\n      dup1\n      0x01\n      dup2\n      sload\n      add\n      dup1\n      dup3\n      sstore\n      dup1\n      swap2\n      pop\n      pop\n      0x01\n      swap1\n      sub\n      swap1\n      0x00\n      mstore\n      keccak256(0x00, 0x20)\n      add\n      0x00\n      swap1\n      swap2\n      swap1\n      swap2\n      swap1\n      swap2\n      pop\n      sstore\n        /* \"contracts/BondMarketplace.sol\":3008:3018  msg.sender */\n      caller\n        /* \"contracts/BondMarketplace.sol\":2961:3137  BondCreated(... */\n      0xffffffffffffffffffffffffffffffffffffffff\n      and\n        /* \"contracts/BondMarketplace.sol\":2987:2993  bondId */\n      dup3\n        /* \"contracts/BondMarketplace.sol\":2961:3137  BondCreated(... */\n      0xd6950a5a53a38361c24ec18c089515caede74366415bf2fb4569cb72099f5e1c\n        /* \"contracts/BondMarketplace.sol\":3033:3037  name */\n      dup10\n      dup10\n        /* \"contracts/BondMarketplace.sol\":3052:3064  interestRate */\n      dup10\n        /* \"contracts/BondMarketplace.sol\":3079:3091  durationDays */\n      dup10\n        /* \"contracts/BondMarketplace.sol\":3106:3126  totalFundingRequired */\n      dup10\n        /* \"contracts/BondMarketplace.sol\":2961:3137  BondCreated(... */\n      mload(0x40)\n      tag_119\n      swap6\n      swap5\n      swap4\n      swap3\n      swap2\n      swap1\n      tag_120\n      jump\t// in\n    tag_119:\n      mload(0x40)\n      dup1\n      swap2\n      sub\n      swap1\n      log3\n        /* \"contracts/BondMarketplace.sol\":2271:3145  {... */\n      pop\n      pop\n        /* \"contracts/BondMarketplace.sol\":2103:3145  function createBond(... */\n      pop\n      pop\n      pop\n      pop\n      pop\n      jump\t// out\n        /* \"contracts/BondMarketplace.sol\":5335:6375  function investInBond(uint256 bondId) external payable bondMustExist(bondId) {... */\n    tag_37:\n        /* \"contracts/BondMarketplace.sol\":5404:5410  bondId */\n      dup1\n        /* \"contracts/BondMarketplace.sol\":1761:1766  bonds */\n      0x01\n        /* \"contracts/BondMarketplace.sol\":1761:1774  bonds[bondId] */\n      0x00\n        /* \"contracts/BondMarketplace.sol\":1767:1773  bondId */\n      dup3\n        /* \"contracts/BondMarketplace.sol\":1761:1774  bonds[bondId] */\n      dup2\n      mstore\n      0x20\n      add\n      swap1\n      dup2\n      mstore\n      0x20\n      add\n      0x00\n      keccak256\n        /* \"contracts/BondMarketplace.sol\":1761:1781  bonds[bondId].exists */\n      0x0a\n      add\n      0x00\n      swap1\n      sload\n      swap1\n      0x0100\n      exp\n      swap1\n      div\n      0xff\n      and\n        /* \"contracts/BondMarketplace.sol\":1753:1805  require(bonds[bondId].exists, \"Bond does not exist\") */\n      tag_122\n      jumpi\n      mload(0x40)\n      0x08c379a000000000000000000000000000000000000000000000000000000000\n      dup2\n      mstore\n      0x04\n      add\n      tag_123\n      swap1\n      tag_62\n      jump\t// in\n    tag_123:\n      mload(0x40)\n      dup1\n      swap2\n      sub\n      swap1\n      revert\n    tag_122:\n        /* \"contracts/BondMarketplace.sol\":5423:5437  Bond storage b */\n      0x00\n        /* \"contracts/BondMarketplace.sol\":5440:5445  bonds */\n      0x01\n        /* \"contracts/BondMarketplace.sol\":5440:5453  bonds[bondId] */\n      0x00\n        /* \"contracts/BondMarketplace.sol\":5446:5452  bondId */\n      dup5\n        /* \"contracts/BondMarketplace.sol\":5440:5453  bonds[bondId] */\n      dup2\n      mstore\n      0x20\n      add\n      swap1\n      dup2\n      mstore\n      0x20\n      add\n      0x00\n      keccak256\n        /* \"contracts/BondMarketplace.sol\":5423:5453  Bond storage b = bonds[bondId] */\n      swap1\n      pop\n        /* \"contracts/BondMarketplace.sol\":5486:5487  0 */\n      0x00\n        /* \"contracts/BondMarketplace.sol\":5474:5483  msg.value */\n      callvalue\n        /* \"contracts/BondMarketplace.sol\":5474:5487  msg.value > 0 */\n      gt\n        /* \"contracts/BondMarketplace.sol\":5466:5514  require(msg.value > 0, \"Investment must be > 0\") */\n      tag_125\n      jumpi\n      mload(0x40)\n      0x08c379a000000000000000000000000000000000000000000000000000000000\n      dup2\n      mstore\n      0x04\n      add\n      tag_126\n      swap1\n      tag_127\n      jump\t// in\n    tag_126:\n      mload(0x40)\n      dup1\n      swap2\n      sub\n      swap1\n      revert\n    tag_125:\n        /* \"contracts/BondMarketplace.sol\":5577:5578  b */\n      dup1\n        /* \"contracts/BondMarketplace.sol\":5577:5599  b.totalFundingRequired */\n      0x05\n      add\n      sload\n        /* \"contracts/BondMarketplace.sol\":5564:5573  msg.value */\n      callvalue\n        /* \"contracts/BondMarketplace.sol\":5547:5548  b */\n      dup3\n        /* \"contracts/BondMarketplace.sol\":5547:5561  b.amountRaised */\n      0x06\n      add\n      sload\n        /* \"contracts/BondMarketplace.sol\":5547:5573  b.amountRaised + msg.value */\n      tag_128\n      swap2\n      swap1\n      tag_87\n      jump\t// in\n    tag_128:\n        /* \"contracts/BondMarketplace.sol\":5547:5599  b.amountRaised + msg.value <= b.totalFundingRequired */\n      gt\n      iszero\n        /* \"contracts/BondMarketplace.sol\":5525:5660  require(... */\n      tag_129\n      jumpi\n      mload(0x40)\n      0x08c379a000000000000000000000000000000000000000000000000000000000\n      dup2\n      mstore\n      0x04\n      add\n      tag_130\n      swap1\n      tag_131\n      jump\t// in\n    tag_130:\n      mload(0x40)\n      dup1\n      swap2\n      sub\n      swap1\n      revert\n    tag_129:\n        /* \"contracts/BondMarketplace.sol\":5673:5693  Investor storage inv */\n      0x00\n        /* \"contracts/BondMarketplace.sol\":5696:5705  investors */\n      0x03\n        /* \"contracts/BondMarketplace.sol\":5696:5717  investors[msg.sender] */\n      0x00\n        /* \"contracts/BondMarketplace.sol\":5706:5716  msg.sender */\n      caller\n        /* \"contracts/BondMarketplace.sol\":5696:5717  investors[msg.sender] */\n      0xffffffffffffffffffffffffffffffffffffffff\n      and\n      0xffffffffffffffffffffffffffffffffffffffff\n      and\n      dup2\n      mstore\n      0x20\n      add\n      swap1\n      dup2\n      mstore\n      0x20\n      add\n      0x00\n      keccak256\n        /* \"contracts/BondMarketplace.sol\":5673:5717  Investor storage inv = investors[msg.sender] */\n      swap1\n      pop\n        /* \"contracts/BondMarketplace.sol\":5733:5736  inv */\n      dup1\n        /* \"contracts/BondMarketplace.sol\":5733:5748  inv.initialized */\n      0x03\n      add\n      0x00\n      swap1\n      sload\n      swap1\n      0x0100\n      exp\n      swap1\n      div\n      0xff\n      and\n        /* \"contracts/BondMarketplace.sol\":5728:5846  if (!inv.initialized) {... */\n      tag_132\n      jumpi\n        /* \"contracts/BondMarketplace.sol\":5787:5797  msg.sender */\n      caller\n        /* \"contracts/BondMarketplace.sol\":5765:5768  inv */\n      dup2\n        /* \"contracts/BondMarketplace.sol\":5765:5784  inv.investorAddress */\n      0x00\n      add\n      0x00\n        /* \"contracts/BondMarketplace.sol\":5765:5797  inv.investorAddress = msg.sender */\n      0x0100\n      exp\n      dup2\n      sload\n      dup2\n      0xffffffffffffffffffffffffffffffffffffffff\n      mul\n      not\n      and\n      swap1\n      dup4\n      0xffffffffffffffffffffffffffffffffffffffff\n      and\n      mul\n      or\n      swap1\n      sstore\n      pop\n        /* \"contracts/BondMarketplace.sol\":5830:5834  true */\n      0x01\n        /* \"contracts/BondMarketplace.sol\":5812:5815  inv */\n      dup2\n        /* \"contracts/BondMarketplace.sol\":5812:5827  inv.initialized */\n      0x03\n      add\n      0x00\n        /* \"contracts/BondMarketplace.sol\":5812:5834  inv.initialized = true */\n      0x0100\n      exp\n      dup2\n      sload\n      dup2\n      0xff\n      mul\n      not\n      and\n      swap1\n      dup4\n      iszero\n      iszero\n      mul\n      or\n      swap1\n      sstore\n      pop\n        /* \"contracts/BondMarketplace.sol\":5728:5846  if (!inv.initialized) {... */\n    tag_132:\n        /* \"contracts/BondMarketplace.sol\":5889:5890  0 */\n      0x00\n        /* \"contracts/BondMarketplace.sol\":5862:5865  inv */\n      dup2\n        /* \"contracts/BondMarketplace.sol\":5862:5877  inv.investments */\n      0x01\n      add\n        /* \"contracts/BondMarketplace.sol\":5862:5885  inv.investments[bondId] */\n      0x00\n        /* \"contracts/BondMarketplace.sol\":5878:5884  bondId */\n      dup7\n        /* \"contracts/BondMarketplace.sol\":5862:5885  inv.investments[bondId] */\n      dup2\n      mstore\n      0x20\n      add\n      swap1\n      dup2\n      mstore\n      0x20\n      add\n      0x00\n      keccak256\n      sload\n        /* \"contracts/BondMarketplace.sol\":5862:5890  inv.investments[bondId] == 0 */\n      sub\n        /* \"contracts/BondMarketplace.sol\":5858:5951  if (inv.investments[bondId] == 0) {... */\n      tag_133\n      jumpi\n        /* \"contracts/BondMarketplace.sol\":5907:5910  inv */\n      dup1\n        /* \"contracts/BondMarketplace.sol\":5907:5926  inv.investedBondIds */\n      0x02\n      add\n        /* \"contracts/BondMarketplace.sol\":5932:5938  bondId */\n      dup5\n        /* \"contracts/BondMarketplace.sol\":5907:5939  inv.investedBondIds.push(bondId) */\n      swap1\n      dup1\n      0x01\n      dup2\n      sload\n      add\n      dup1\n      dup3\n      sstore\n      dup1\n      swap2\n      pop\n      pop\n      0x01\n      swap1\n      sub\n      swap1\n      0x00\n      mstore\n      keccak256(0x00, 0x20)\n      add\n      0x00\n      swap1\n      swap2\n      swap1\n      swap2\n      swap1\n      swap2\n      pop\n      sstore\n        /* \"contracts/BondMarketplace.sol\":5858:5951  if (inv.investments[bondId] == 0) {... */\n    tag_133:\n        /* \"contracts/BondMarketplace.sol\":5990:5999  msg.value */\n      callvalue\n        /* \"contracts/BondMarketplace.sol\":5963:5966  inv */\n      dup2\n        /* \"contracts/BondMarketplace.sol\":5963:5978  inv.investments */\n      0x01\n      add\n        /* \"contracts/BondMarketplace.sol\":5963:5986  inv.investments[bondId] */\n      0x00\n        /* \"contracts/BondMarketplace.sol\":5979:5985  bondId */\n      dup7\n        /* \"contracts/BondMarketplace.sol\":5963:5986  inv.investments[bondId] */\n      dup2\n      mstore\n      0x20\n      add\n      swap1\n      dup2\n      mstore\n      0x20\n      add\n      0x00\n      keccak256\n      0x00\n        /* \"contracts/BondMarketplace.sol\":5963:5999  inv.investments[bondId] += msg.value */\n      dup3\n      dup3\n      sload\n      tag_135\n      swap2\n      swap1\n      tag_87\n      jump\t// in\n    tag_135:\n      swap3\n      pop\n      pop\n      dup2\n      swap1\n      sstore\n      pop\n        /* \"contracts/BondMarketplace.sol\":6028:6037  msg.value */\n      callvalue\n        /* \"contracts/BondMarketplace.sol\":6010:6011  b */\n      dup3\n        /* \"contracts/BondMarketplace.sol\":6010:6024  b.amountRaised */\n      0x06\n      add\n      0x00\n        /* \"contracts/BondMarketplace.sol\":6010:6037  b.amountRaised += msg.value */\n      dup3\n      dup3\n      sload\n      tag_136\n      swap2\n      swap1\n      tag_87\n      jump\t// in\n    tag_136:\n      swap3\n      pop\n      pop\n      dup2\n      swap1\n      sstore\n      pop\n        /* \"contracts/BondMarketplace.sol\":6124:6133  bool sent */\n      0x00\n        /* \"contracts/BondMarketplace.sol\":6147:6148  b */\n      dup3\n        /* \"contracts/BondMarketplace.sol\":6147:6161  b.organization */\n      0x01\n      add\n      0x00\n      swap1\n      sload\n      swap1\n      0x0100\n      exp\n      swap1\n      div\n      0xffffffffffffffffffffffffffffffffffffffff\n      and\n        /* \"contracts/BondMarketplace.sol\":6139:6167  payable(b.organization).call */\n      0xffffffffffffffffffffffffffffffffffffffff\n      and\n        /* \"contracts/BondMarketplace.sol\":6175:6184  msg.value */\n      callvalue\n        /* \"contracts/BondMarketplace.sol\":6139:6189  payable(b.organization).call{value: msg.value}(\"\") */\n      mload(0x40)\n      tag_137\n      swap1\n      tag_138\n      jump\t// in\n    tag_137:\n      0x00\n      mload(0x40)\n      dup1\n      dup4\n      sub\n      dup2\n      dup6\n      dup8\n      gas\n      call\n      swap3\n      pop\n      pop\n      pop\n      returndatasize\n      dup1\n      0x00\n      dup2\n      eq\n      tag_141\n      jumpi\n      mload(0x40)\n      swap2\n      pop\n      and(add(returndatasize, 0x3f), not(0x1f))\n      dup3\n      add\n      0x40\n      mstore\n      returndatasize\n      dup3\n      mstore\n      returndatasize\n      0x00\n      0x20\n      dup5\n      add\n      returndatacopy\n      jump(tag_140)\n    tag_141:\n      0x60\n      swap2\n      pop\n    tag_140:\n      pop\n        /* \"contracts/BondMarketplace.sol\":6123:6189  (bool sent, ) = payable(b.organization).call{value: msg.value}(\"\") */\n      pop\n      swap1\n      pop\n        /* \"contracts/BondMarketplace.sol\":6208:6212  sent */\n      dup1\n        /* \"contracts/BondMarketplace.sol\":6200:6257  require(sent, \"Failed to transfer funds to organization\") */\n      tag_142\n      jumpi\n      mload(0x40)\n      0x08c379a000000000000000000000000000000000000000000000000000000000\n      dup2\n      mstore\n      0x04\n      add\n      tag_143\n      swap1\n      tag_144\n      jump\t// in\n    tag_143:\n      mload(0x40)\n      dup1\n      swap2\n      sub\n      swap1\n      revert\n    tag_142:\n        /* \"contracts/BondMarketplace.sol\":6292:6302  msg.sender */\n      caller\n        /* \"contracts/BondMarketplace.sol\":6275:6330  Invested(bondId, msg.sender, msg.value, b.amountRaised) */\n      0xffffffffffffffffffffffffffffffffffffffff\n      and\n        /* \"contracts/BondMarketplace.sol\":6284:6290  bondId */\n      dup6\n        /* \"contracts/BondMarketplace.sol\":6275:6330  Invested(bondId, msg.sender, msg.value, b.amountRaised) */\n      0x271dec505c61c970bdd791a963b7162d814edf6292f40c4beef2af1e48eea1e8\n        /* \"contracts/BondMarketplace.sol\":6304:6313  msg.value */\n      callvalue\n        /* \"contracts/BondMarketplace.sol\":6315:6316  b */\n      dup7\n        /* \"contracts/BondMarketplace.sol\":6315:6329  b.amountRaised */\n      0x06\n      add\n      sload\n        /* \"contracts/BondMarketplace.sol\":6275:6330  Invested(bondId, msg.sender, msg.value, b.amountRaised) */\n      mload(0x40)\n      tag_145\n      swap3\n      swap2\n      swap1\n      tag_146\n      jump\t// in\n    tag_145:\n      mload(0x40)\n      dup1\n      swap2\n      sub\n      swap1\n      log3\n        /* \"contracts/BondMarketplace.sol\":6343:6367  updateTrustScore(bondId) */\n      tag_147\n        /* \"contracts/BondMarketplace.sol\":6360:6366  bondId */\n      dup6\n        /* \"contracts/BondMarketplace.sol\":6343:6359  updateTrustScore */\n      tag_22\n        /* \"contracts/BondMarketplace.sol\":6343:6367  updateTrustScore(bondId) */\n      jump\t// in\n    tag_147:\n      pop\n        /* \"contracts/BondMarketplace.sol\":5412:6375  {... */\n      pop\n      pop\n      pop\n        /* \"contracts/BondMarketplace.sol\":5335:6375  function investInBond(uint256 bondId) external payable bondMustExist(bondId) {... */\n      pop\n      pop\n      jump\t// out\n        /* \"contracts/BondMarketplace.sol\":8842:9428  function getInvestorPortfolio(... */\n    tag_42:\n        /* \"contracts/BondMarketplace.sol\":8936:8964  uint256[] memory investedIds */\n      0x60\n        /* \"contracts/BondMarketplace.sol\":8966:8998  uint256[] memory investedAmounts */\n      dup1\n        /* \"contracts/BondMarketplace.sol\":9011:9031  Investor storage inv */\n      0x00\n        /* \"contracts/BondMarketplace.sol\":9034:9043  investors */\n      0x03\n        /* \"contracts/BondMarketplace.sol\":9034:9060  investors[investorAddress] */\n      0x00\n        /* \"contracts/BondMarketplace.sol\":9044:9059  investorAddress */\n      dup6\n        /* \"contracts/BondMarketplace.sol\":9034:9060  investors[investorAddress] */\n      0xffffffffffffffffffffffffffffffffffffffff\n      and\n      0xffffffffffffffffffffffffffffffffffffffff\n      and\n      dup2\n      mstore\n      0x20\n      add\n      swap1\n      dup2\n      mstore\n      0x20\n      add\n      0x00\n      keccak256\n        /* \"contracts/BondMarketplace.sol\":9011:9060  Investor storage inv = investors[investorAddress] */\n      swap1\n      pop\n        /* \"contracts/BondMarketplace.sol\":9071:9084  uint256 count */\n      0x00\n        /* \"contracts/BondMarketplace.sol\":9087:9090  inv */\n      dup2\n        /* \"contracts/BondMarketplace.sol\":9087:9106  inv.investedBondIds */\n      0x02\n      add\n        /* \"contracts/BondMarketplace.sol\":9087:9113  inv.investedBondIds.length */\n      dup1\n      sload\n      swap1\n      pop\n        /* \"contracts/BondMarketplace.sol\":9071:9113  uint256 count = inv.investedBondIds.length */\n      swap1\n      pop\n        /* \"contracts/BondMarketplace.sol\":9154:9159  count */\n      dup1\n        /* \"contracts/BondMarketplace.sol\":9140:9160  new uint256[](count) */\n      0xffffffffffffffff\n      dup2\n      gt\n      iszero\n      tag_149\n      jumpi\n      tag_150\n      tag_151\n      jump\t// in\n    tag_150:\n    tag_149:\n      mload(0x40)\n      swap1\n      dup1\n      dup3\n      mstore\n      dup1\n      0x20\n      mul\n      0x20\n      add\n      dup3\n      add\n      0x40\n      mstore\n      dup1\n      iszero\n      tag_152\n      jumpi\n      dup2\n      0x20\n      add\n      0x20\n      dup3\n      mul\n      dup1\n      calldatasize\n      dup4\n      calldatacopy\n      dup1\n      dup3\n      add\n      swap2\n      pop\n      pop\n      swap1\n      pop\n    tag_152:\n      pop\n        /* \"contracts/BondMarketplace.sol\":9126:9160  investedIds = new uint256[](count) */\n      swap4\n      pop\n        /* \"contracts/BondMarketplace.sol\":9203:9208  count */\n      dup1\n        /* \"contracts/BondMarketplace.sol\":9189:9209  new uint256[](count) */\n      0xffffffffffffffff\n      dup2\n      gt\n      iszero\n      tag_153\n      jumpi\n      tag_154\n      tag_151\n      jump\t// in\n    tag_154:\n    tag_153:\n      mload(0x40)\n      swap1\n      dup1\n      dup3\n      mstore\n      dup1\n      0x20\n      mul\n      0x20\n      add\n      dup3\n      add\n      0x40\n      mstore\n      dup1\n      iszero\n      tag_155\n      jumpi\n      dup2\n      0x20\n      add\n      0x20\n      dup3\n      mul\n      dup1\n      calldatasize\n      dup4\n      calldatacopy\n      dup1\n      dup3\n      add\n      swap2\n      pop\n      pop\n      swap1\n      pop\n    tag_155:\n      pop\n        /* \"contracts/BondMarketplace.sol\":9171:9209  investedAmounts = new uint256[](count) */\n      swap3\n      pop\n        /* \"contracts/BondMarketplace.sol\":9227:9236  uint256 i */\n      0x00\n        /* \"contracts/BondMarketplace.sol\":9222:9421  for (uint256 i = 0; i < count; i++) {... */\n    tag_156:\n        /* \"contracts/BondMarketplace.sol\":9246:9251  count */\n      dup2\n        /* \"contracts/BondMarketplace.sol\":9242:9243  i */\n      dup2\n        /* \"contracts/BondMarketplace.sol\":9242:9251  i < count */\n      lt\n        /* \"contracts/BondMarketplace.sol\":9222:9421  for (uint256 i = 0; i < count; i++) {... */\n      iszero\n      tag_157\n      jumpi\n        /* \"contracts/BondMarketplace.sol\":9273:9287  uint256 bondId */\n      0x00\n        /* \"contracts/BondMarketplace.sol\":9290:9293  inv */\n      dup4\n        /* \"contracts/BondMarketplace.sol\":9290:9309  inv.investedBondIds */\n      0x02\n      add\n        /* \"contracts/BondMarketplace.sol\":9310:9311  i */\n      dup3\n        /* \"contracts/BondMarketplace.sol\":9290:9312  inv.investedBondIds[i] */\n      dup2\n      sload\n      dup2\n      lt\n      tag_159\n      jumpi\n      tag_160\n      tag_161\n      jump\t// in\n    tag_160:\n    tag_159:\n      swap1\n      0x00\n      mstore\n      keccak256(0x00, 0x20)\n      add\n      sload\n        /* \"contracts/BondMarketplace.sol\":9273:9312  uint256 bondId = inv.investedBondIds[i] */\n      swap1\n      pop\n        /* \"contracts/BondMarketplace.sol\":9344:9350  bondId */\n      dup1\n        /* \"contracts/BondMarketplace.sol\":9327:9338  investedIds */\n      dup7\n        /* \"contracts/BondMarketplace.sol\":9339:9340  i */\n      dup4\n        /* \"contracts/BondMarketplace.sol\":9327:9341  investedIds[i] */\n      dup2\n      mload\n      dup2\n      lt\n      tag_163\n      jumpi\n      tag_164\n      tag_161\n      jump\t// in\n    tag_164:\n    tag_163:\n      0x20\n      mul\n      0x20\n      add\n      add\n        /* \"contracts/BondMarketplace.sol\":9327:9350  investedIds[i] = bondId */\n      dup2\n      dup2\n      mstore\n      pop\n      pop\n        /* \"contracts/BondMarketplace.sol\":9386:9389  inv */\n      dup4\n        /* \"contracts/BondMarketplace.sol\":9386:9401  inv.investments */\n      0x01\n      add\n        /* \"contracts/BondMarketplace.sol\":9386:9409  inv.investments[bondId] */\n      0x00\n        /* \"contracts/BondMarketplace.sol\":9402:9408  bondId */\n      dup3\n        /* \"contracts/BondMarketplace.sol\":9386:9409  inv.investments[bondId] */\n      dup2\n      mstore\n      0x20\n      add\n      swap1\n      dup2\n      mstore\n      0x20\n      add\n      0x00\n      keccak256\n      sload\n        /* \"contracts/BondMarketplace.sol\":9365:9380  investedAmounts */\n      dup6\n        /* \"contracts/BondMarketplace.sol\":9381:9382  i */\n      dup4\n        /* \"contracts/BondMarketplace.sol\":9365:9383  investedAmounts[i] */\n      dup2\n      mload\n      dup2\n      lt\n      tag_165\n      jumpi\n      tag_166\n      tag_161\n      jump\t// in\n    tag_166:\n    tag_165:\n      0x20\n      mul\n      0x20\n      add\n      add\n        /* \"contracts/BondMarketplace.sol\":9365:9409  investedAmounts[i] = inv.investments[bondId] */\n      dup2\n      dup2\n      mstore\n      pop\n      pop\n        /* \"contracts/BondMarketplace.sol\":9258:9421  {... */\n      pop\n        /* \"contracts/BondMarketplace.sol\":9253:9256  i++ */\n      dup1\n      dup1\n      tag_167\n      swap1\n      tag_115\n      jump\t// in\n    tag_167:\n      swap2\n      pop\n      pop\n        /* \"contracts/BondMarketplace.sol\":9222:9421  for (uint256 i = 0; i < count; i++) {... */\n      jump(tag_156)\n    tag_157:\n      pop\n        /* \"contracts/BondMarketplace.sol\":9000:9428  {... */\n      pop\n      pop\n        /* \"contracts/BondMarketplace.sol\":8842:9428  function getInvestorPortfolio(... */\n      swap2\n      pop\n      swap2\n      jump\t// out\n        /* \"contracts/BondMarketplace.sol\":3273:3790  function updateFundUsage(... */\n    tag_49:\n        /* \"contracts/BondMarketplace.sol\":3391:3397  bondId */\n      dup3\n        /* \"contracts/BondMarketplace.sol\":1761:1766  bonds */\n      0x01\n        /* \"contracts/BondMarketplace.sol\":1761:1774  bonds[bondId] */\n      0x00\n        /* \"contracts/BondMarketplace.sol\":1767:1773  bondId */\n      dup3\n        /* \"contracts/BondMarketplace.sol\":1761:1774  bonds[bondId] */\n      dup2\n      mstore\n      0x20\n      add\n      swap1\n      dup2\n      mstore\n      0x20\n      add\n      0x00\n      keccak256\n        /* \"contracts/BondMarketplace.sol\":1761:1781  bonds[bondId].exists */\n      0x0a\n      add\n      0x00\n      swap1\n      sload\n      swap1\n      0x0100\n      exp\n      swap1\n      div\n      0xff\n      and\n        /* \"contracts/BondMarketplace.sol\":1753:1805  require(bonds[bondId].exists, \"Bond does not exist\") */\n      tag_169\n      jumpi\n      mload(0x40)\n      0x08c379a000000000000000000000000000000000000000000000000000000000\n      dup2\n      mstore\n      0x04\n      add\n      tag_170\n      swap1\n      tag_62\n      jump\t// in\n    tag_170:\n      mload(0x40)\n      dup1\n      swap2\n      sub\n      swap1\n      revert\n    tag_169:\n        /* \"contracts/BondMarketplace.sol\":3420:3426  bondId */\n      dup4\n        /* \"contracts/BondMarketplace.sol\":1942:1952  msg.sender */\n      caller\n        /* \"contracts/BondMarketplace.sol\":1912:1952  bonds[bondId].organization == msg.sender */\n      0xffffffffffffffffffffffffffffffffffffffff\n      and\n        /* \"contracts/BondMarketplace.sol\":1912:1917  bonds */\n      0x01\n        /* \"contracts/BondMarketplace.sol\":1912:1925  bonds[bondId] */\n      0x00\n        /* \"contracts/BondMarketplace.sol\":1918:1924  bondId */\n      dup4\n        /* \"contracts/BondMarketplace.sol\":1912:1925  bonds[bondId] */\n      dup2\n      mstore\n      0x20\n      add\n      swap1\n      dup2\n      mstore\n      0x20\n      add\n      0x00\n      keccak256\n        /* \"contracts/BondMarketplace.sol\":1912:1938  bonds[bondId].organization */\n      0x01\n      add\n      0x00\n      swap1\n      sload\n      swap1\n      0x0100\n      exp\n      swap1\n      div\n      0xffffffffffffffffffffffffffffffffffffffff\n      and\n        /* \"contracts/BondMarketplace.sol\":1912:1952  bonds[bondId].organization == msg.sender */\n      0xffffffffffffffffffffffffffffffffffffffff\n      and\n      eq\n        /* \"contracts/BondMarketplace.sol\":1890:2013  require(... */\n      tag_172\n      jumpi\n      mload(0x40)\n      0x08c379a000000000000000000000000000000000000000000000000000000000\n      dup2\n      mstore\n      0x04\n      add\n      tag_173\n      swap1\n      tag_174\n      jump\t// in\n    tag_173:\n      mload(0x40)\n      dup1\n      swap2\n      sub\n      swap1\n      revert\n    tag_172:\n        /* \"contracts/BondMarketplace.sol\":3475:3476  0 */\n      0x00\n        /* \"contracts/BondMarketplace.sol\":3453:3464  description */\n      dup5\n      dup5\n        /* \"contracts/BondMarketplace.sol\":3447:3472  bytes(description).length */\n      swap1\n      pop\n        /* \"contracts/BondMarketplace.sol\":3447:3476  bytes(description).length > 0 */\n      gt\n        /* \"contracts/BondMarketplace.sol\":3439:3504  require(bytes(description).length > 0, \"Description is required\") */\n      tag_176\n      jumpi\n      mload(0x40)\n      0x08c379a000000000000000000000000000000000000000000000000000000000\n      dup2\n      mstore\n      0x04\n      add\n      tag_177\n      swap1\n      tag_178\n      jump\t// in\n    tag_177:\n      mload(0x40)\n      dup1\n      swap2\n      sub\n      swap1\n      revert\n    tag_176:\n        /* \"contracts/BondMarketplace.sol\":3517:3531  Bond storage b */\n      0x00\n        /* \"contracts/BondMarketplace.sol\":3534:3539  bonds */\n      0x01\n        /* \"contracts/BondMarketplace.sol\":3534:3547  bonds[bondId] */\n      0x00\n        /* \"contracts/BondMarketplace.sol\":3540:3546  bondId */\n      dup8\n        /* \"contracts/BondMarketplace.sol\":3534:3547  bonds[bondId] */\n      dup2\n      mstore\n      0x20\n      add\n      swap1\n      dup2\n      mstore\n      0x20\n      add\n      0x00\n      keccak256\n        /* \"contracts/BondMarketplace.sol\":3517:3547  Bond storage b = bonds[bondId] */\n      swap1\n      pop\n        /* \"contracts/BondMarketplace.sol\":3558:3559  b */\n      dup1\n        /* \"contracts/BondMarketplace.sol\":3558:3573  b.fundUsageLogs */\n      0x09\n      add\n        /* \"contracts/BondMarketplace.sol\":3579:3590  description */\n      dup6\n      dup6\n        /* \"contracts/BondMarketplace.sol\":3558:3591  b.fundUsageLogs.push(description) */\n      swap1\n      swap2\n      dup1\n      0x01\n      dup2\n      sload\n      add\n      dup1\n      dup3\n      sstore\n      dup1\n      swap2\n      pop\n      pop\n      0x01\n      swap1\n      sub\n      swap1\n      0x00\n      mstore\n      keccak256(0x00, 0x20)\n      add\n      0x00\n      swap1\n      swap2\n      swap3\n      swap1\n      swap2\n      swap3\n      swap1\n      swap2\n      swap3\n      swap1\n      swap2\n      swap3\n      pop\n      swap2\n      dup3\n      tag_180\n      swap3\n      swap2\n      swap1\n      tag_117\n      jump\t// in\n    tag_180:\n      pop\n        /* \"contracts/BondMarketplace.sol\":3661:3671  msg.sender */\n      caller\n        /* \"contracts/BondMarketplace.sol\":3609:3745  FundUsageUpdated(... */\n      0xffffffffffffffffffffffffffffffffffffffff\n      and\n        /* \"contracts/BondMarketplace.sol\":3640:3646  bondId */\n      dup7\n        /* \"contracts/BondMarketplace.sol\":3609:3745  FundUsageUpdated(... */\n      0xc188596f32652d64253d21c2bbb3f1b4794308b7fbe9384000ffe306650d0b96\n        /* \"contracts/BondMarketplace.sol\":3686:3697  description */\n      dup8\n      dup8\n        /* \"contracts/BondMarketplace.sol\":3712:3713  b */\n      dup6\n        /* \"contracts/BondMarketplace.sol\":3712:3727  b.fundUsageLogs */\n      0x09\n      add\n        /* \"contracts/BondMarketplace.sol\":3712:3734  b.fundUsageLogs.length */\n      dup1\n      sload\n      swap1\n      pop\n        /* \"contracts/BondMarketplace.sol\":3609:3745  FundUsageUpdated(... */\n      mload(0x40)\n      tag_181\n      swap4\n      swap3\n      swap2\n      swap1\n      tag_182\n      jump\t// in\n    tag_181:\n      mload(0x40)\n      dup1\n      swap2\n      sub\n      swap1\n      log3\n        /* \"contracts/BondMarketplace.sol\":3758:3782  updateTrustScore(bondId) */\n      tag_183\n        /* \"contracts/BondMarketplace.sol\":3775:3781  bondId */\n      dup7\n        /* \"contracts/BondMarketplace.sol\":3758:3774  updateTrustScore */\n      tag_22\n        /* \"contracts/BondMarketplace.sol\":3758:3782  updateTrustScore(bondId) */\n      jump\t// in\n    tag_183:\n      pop\n        /* \"contracts/BondMarketplace.sol\":3428:3790  {... */\n      pop\n        /* \"contracts/BondMarketplace.sol\":1816:1817  _ */\n      pop\n        /* \"contracts/BondMarketplace.sol\":3273:3790  function updateFundUsage(... */\n      pop\n      pop\n      pop\n      pop\n      jump\t// out\n        /* \"contracts/BondMarketplace.sol\":6455:7696  function getAllBonds()... */\n    tag_52:\n        /* \"contracts/BondMarketplace.sol\":6542:6562  uint256[] memory ids */\n      0x60\n        /* \"contracts/BondMarketplace.sol\":6577:6607  address[] memory organizations */\n      dup1\n        /* \"contracts/BondMarketplace.sol\":6622:6643  string[] memory names */\n      0x60\n        /* \"contracts/BondMarketplace.sol\":6658:6688  uint256[] memory interestRates */\n      dup1\n        /* \"contracts/BondMarketplace.sol\":6703:6729  uint256[] memory durations */\n      0x60\n        /* \"contracts/BondMarketplace.sol\":6744:6767  uint256[] memory totals */\n      dup1\n        /* \"contracts/BondMarketplace.sol\":6782:6805  uint256[] memory raised */\n      0x60\n        /* \"contracts/BondMarketplace.sol\":6820:6848  uint256[] memory trustScores */\n      dup1\n        /* \"contracts/BondMarketplace.sol\":6876:6889  uint256 count */\n      0x00\n        /* \"contracts/BondMarketplace.sol\":6892:6899  bondIds */\n      0x02\n        /* \"contracts/BondMarketplace.sol\":6892:6906  bondIds.length */\n      dup1\n      sload\n      swap1\n      pop\n        /* \"contracts/BondMarketplace.sol\":6876:6906  uint256 count = bondIds.length */\n      swap1\n      pop\n        /* \"contracts/BondMarketplace.sol\":6939:6944  count */\n      dup1\n        /* \"contracts/BondMarketplace.sol\":6925:6945  new uint256[](count) */\n      0xffffffffffffffff\n      dup2\n      gt\n      iszero\n      tag_185\n      jumpi\n      tag_186\n      tag_151\n      jump\t// in\n    tag_186:\n    tag_185:\n      mload(0x40)\n      swap1\n      dup1\n      dup3\n      mstore\n      dup1\n      0x20\n      mul\n      0x20\n      add\n      dup3\n      add\n      0x40\n      mstore\n      dup1\n      iszero\n      tag_187\n      jumpi\n      dup2\n      0x20\n      add\n      0x20\n      dup3\n      mul\n      dup1\n      calldatasize\n      dup4\n      calldatacopy\n      dup1\n      dup3\n      add\n      swap2\n      pop\n      pop\n      swap1\n      pop\n    tag_187:\n      pop\n        /* \"contracts/BondMarketplace.sol\":6919:6945  ids = new uint256[](count) */\n      swap9\n      pop\n        /* \"contracts/BondMarketplace.sol\":6986:6991  count */\n      dup1\n        /* \"contracts/BondMarketplace.sol\":6972:6992  new address[](count) */\n      0xffffffffffffffff\n      dup2\n      gt\n      iszero\n      tag_188\n      jumpi\n      tag_189\n      tag_151\n      jump\t// in\n    tag_189:\n    tag_188:\n      mload(0x40)\n      swap1\n      dup1\n      dup3\n      mstore\n      dup1\n      0x20\n      mul\n      0x20\n      add\n      dup3\n      add\n      0x40\n      mstore\n      dup1\n      iszero\n      tag_190\n      jumpi\n      dup2\n      0x20\n      add\n      0x20\n      dup3\n      mul\n      dup1\n      calldatasize\n      dup4\n      calldatacopy\n      dup1\n      dup3\n      add\n      swap2\n      pop\n      pop\n      swap1\n      pop\n    tag_190:\n      pop\n        /* \"contracts/BondMarketplace.sol\":6956:6992  organizations = new address[](count) */\n      swap8\n      pop\n        /* \"contracts/BondMarketplace.sol\":7024:7029  count */\n      dup1\n        /* \"contracts/BondMarketplace.sol\":7011:7030  new string[](count) */\n      0xffffffffffffffff\n      dup2\n      gt\n      iszero\n      tag_191\n      jumpi\n      tag_192\n      tag_151\n      jump\t// in\n    tag_192:\n    tag_191:\n      mload(0x40)\n      swap1\n      dup1\n      dup3\n      mstore\n      dup1\n      0x20\n      mul\n      0x20\n      add\n      dup3\n      add\n      0x40\n      mstore\n      dup1\n      iszero\n      tag_193\n      jumpi\n      dup2\n      0x20\n      add\n    tag_194:\n      0x60\n      dup2\n      mstore\n      0x20\n      add\n      swap1\n      0x01\n      swap1\n      sub\n      swap1\n      dup2\n      tag_194\n      jumpi\n      swap1\n      pop\n    tag_193:\n      pop\n        /* \"contracts/BondMarketplace.sol\":7003:7030  names = new string[](count) */\n      swap7\n      pop\n        /* \"contracts/BondMarketplace.sol\":7071:7076  count */\n      dup1\n        /* \"contracts/BondMarketplace.sol\":7057:7077  new uint256[](count) */\n      0xffffffffffffffff\n      dup2\n      gt\n      iszero\n      tag_195\n      jumpi\n      tag_196\n      tag_151\n      jump\t// in\n    tag_196:\n    tag_195:\n      mload(0x40)\n      swap1\n      dup1\n      dup3\n      mstore\n      dup1\n      0x20\n      mul\n      0x20\n      add\n      dup3\n      add\n      0x40\n      mstore\n      dup1\n      iszero\n      tag_197\n      jumpi\n      dup2\n      0x20\n      add\n      0x20\n      dup3\n      mul\n      dup1\n      calldatasize\n      dup4\n      calldatacopy\n      dup1\n      dup3\n      add\n      swap2\n      pop\n      pop\n      swap1\n      pop\n    tag_197:\n      pop\n        /* \"contracts/BondMarketplace.sol\":7041:7077  interestRates = new uint256[](count) */\n      swap6\n      pop\n        /* \"contracts/BondMarketplace.sol\":7114:7119  count */\n      dup1\n        /* \"contracts/BondMarketplace.sol\":7100:7120  new uint256[](count) */\n      0xffffffffffffffff\n      dup2\n      gt\n      iszero\n      tag_198\n      jumpi\n      tag_199\n      tag_151\n      jump\t// in\n    tag_199:\n    tag_198:\n      mload(0x40)\n      swap1\n      dup1\n      dup3\n      mstore\n      dup1\n      0x20\n      mul\n      0x20\n      add\n      dup3\n      add\n      0x40\n      mstore\n      dup1\n      iszero\n      tag_200\n      jumpi\n      dup2\n      0x20\n      add\n      0x20\n      dup3\n      mul\n      dup1\n      calldatasize\n      dup4\n      calldatacopy\n      dup1\n      dup3\n      add\n      swap2\n      pop\n      pop\n      swap1\n      pop\n    tag_200:\n      pop\n        /* \"contracts/BondMarketplace.sol\":7088:7120  durations = new uint256[](count) */\n      swap5\n      pop\n        /* \"contracts/BondMarketplace.sol\":7154:7159  count */\n      dup1\n        /* \"contracts/BondMarketplace.sol\":7140:7160  new uint256[](count) */\n      0xffffffffffffffff\n      dup2\n      gt\n      iszero\n      tag_201\n      jumpi\n      tag_202\n      tag_151\n      jump\t// in\n    tag_202:\n    tag_201:\n      mload(0x40)\n      swap1\n      dup1\n      dup3\n      mstore\n      dup1\n      0x20\n      mul\n      0x20\n      add\n      dup3\n      add\n      0x40\n      mstore\n      dup1\n      iszero\n      tag_203\n      jumpi\n      dup2\n      0x20\n      add\n      0x20\n      dup3\n      mul\n      dup1\n      calldatasize\n      dup4\n      calldatacopy\n      dup1\n      dup3\n      add\n      swap2\n      pop\n      pop\n      swap1\n      pop\n    tag_203:\n      pop\n        /* \"contracts/BondMarketplace.sol\":7131:7160  totals = new uint256[](count) */\n      swap4\n      pop\n        /* \"contracts/BondMarketplace.sol\":7194:7199  count */\n      dup1\n        /* \"contracts/BondMarketplace.sol\":7180:7200  new uint256[](count) */\n      0xffffffffffffffff\n      dup2\n      gt\n      iszero\n      tag_204\n      jumpi\n      tag_205\n      tag_151\n      jump\t// in\n    tag_205:\n    tag_204:\n      mload(0x40)\n      swap1\n      dup1\n      dup3\n      mstore\n      dup1\n      0x20\n      mul\n      0x20\n      add\n      dup3\n      add\n      0x40\n      mstore\n      dup1\n      iszero\n      tag_206\n      jumpi\n      dup2\n      0x20\n      add\n      0x20\n      dup3\n      mul\n      dup1\n      calldatasize\n      dup4\n      calldatacopy\n      dup1\n      dup3\n      add\n      swap2\n      pop\n      pop\n      swap1\n      pop\n    tag_206:\n      pop\n        /* \"contracts/BondMarketplace.sol\":7171:7200  raised = new uint256[](count) */\n      swap3\n      pop\n        /* \"contracts/BondMarketplace.sol\":7239:7244  count */\n      dup1\n        /* \"contracts/BondMarketplace.sol\":7225:7245  new uint256[](count) */\n      0xffffffffffffffff\n      dup2\n      gt\n      iszero\n      tag_207\n      jumpi\n      tag_208\n      tag_151\n      jump\t// in\n    tag_208:\n    tag_207:\n      mload(0x40)\n      swap1\n      dup1\n      dup3\n      mstore\n      dup1\n      0x20\n      mul\n      0x20\n      add\n      dup3\n      add\n      0x40\n      mstore\n      dup1\n      iszero\n      tag_209\n      jumpi\n      dup2\n      0x20\n      add\n      0x20\n      dup3\n      mul\n      dup1\n      calldatasize\n      dup4\n      calldatacopy\n      dup1\n      dup3\n      add\n      swap2\n      pop\n      pop\n      swap1\n      pop\n    tag_209:\n      pop\n        /* \"contracts/BondMarketplace.sol\":7211:7245  trustScores = new uint256[](count) */\n      swap2\n      pop\n        /* \"contracts/BondMarketplace.sol\":7263:7272  uint256 i */\n      0x00\n        /* \"contracts/BondMarketplace.sol\":7258:7689  for (uint256 i = 0; i < count; i++) {... */\n    tag_210:\n        /* \"contracts/BondMarketplace.sol\":7282:7287  count */\n      dup2\n        /* \"contracts/BondMarketplace.sol\":7278:7279  i */\n      dup2\n        /* \"contracts/BondMarketplace.sol\":7278:7287  i < count */\n      lt\n        /* \"contracts/BondMarketplace.sol\":7258:7689  for (uint256 i = 0; i < count; i++) {... */\n      iszero\n      tag_211\n      jumpi\n        /* \"contracts/BondMarketplace.sol\":7309:7323  Bond storage b */\n      0x00\n        /* \"contracts/BondMarketplace.sol\":7326:7331  bonds */\n      0x01\n        /* \"contracts/BondMarketplace.sol\":7326:7343  bonds[bondIds[i]] */\n      0x00\n        /* \"contracts/BondMarketplace.sol\":7332:7339  bondIds */\n      0x02\n        /* \"contracts/BondMarketplace.sol\":7340:7341  i */\n      dup5\n        /* \"contracts/BondMarketplace.sol\":7332:7342  bondIds[i] */\n      dup2\n      sload\n      dup2\n      lt\n      tag_213\n      jumpi\n      tag_214\n      tag_161\n      jump\t// in\n    tag_214:\n    tag_213:\n      swap1\n      0x00\n      mstore\n      keccak256(0x00, 0x20)\n      add\n      sload\n        /* \"contracts/BondMarketplace.sol\":7326:7343  bonds[bondIds[i]] */\n      dup2\n      mstore\n      0x20\n      add\n      swap1\n      dup2\n      mstore\n      0x20\n      add\n      0x00\n      keccak256\n        /* \"contracts/BondMarketplace.sol\":7309:7343  Bond storage b = bonds[bondIds[i]] */\n      swap1\n      pop\n        /* \"contracts/BondMarketplace.sol\":7367:7368  b */\n      dup1\n        /* \"contracts/BondMarketplace.sol\":7367:7371  b.id */\n      0x00\n      add\n      sload\n        /* \"contracts/BondMarketplace.sol\":7358:7361  ids */\n      dup12\n        /* \"contracts/BondMarketplace.sol\":7362:7363  i */\n      dup4\n        /* \"contracts/BondMarketplace.sol\":7358:7364  ids[i] */\n      dup2\n      mload\n      dup2\n      lt\n      tag_216\n      jumpi\n      tag_217\n      tag_161\n      jump\t// in\n    tag_217:\n    tag_216:\n      0x20\n      mul\n      0x20\n      add\n      add\n        /* \"contracts/BondMarketplace.sol\":7358:7371  ids[i] = b.id */\n      dup2\n      dup2\n      mstore\n      pop\n      pop\n        /* \"contracts/BondMarketplace.sol\":7405:7406  b */\n      dup1\n        /* \"contracts/BondMarketplace.sol\":7405:7419  b.organization */\n      0x01\n      add\n      0x00\n      swap1\n      sload\n      swap1\n      0x0100\n      exp\n      swap1\n      div\n      0xffffffffffffffffffffffffffffffffffffffff\n      and\n        /* \"contracts/BondMarketplace.sol\":7386:7399  organizations */\n      dup11\n        /* \"contracts/BondMarketplace.sol\":7400:7401  i */\n      dup4\n        /* \"contracts/BondMarketplace.sol\":7386:7402  organizations[i] */\n      dup2\n      mload\n      dup2\n      lt\n      tag_218\n      jumpi\n      tag_219\n      tag_161\n      jump\t// in\n    tag_219:\n    tag_218:\n      0x20\n      mul\n      0x20\n      add\n      add\n        /* \"contracts/BondMarketplace.sol\":7386:7419  organizations[i] = b.organization */\n      swap1\n      0xffffffffffffffffffffffffffffffffffffffff\n      and\n      swap1\n      dup2\n      0xffffffffffffffffffffffffffffffffffffffff\n      and\n      dup2\n      mstore\n      pop\n      pop\n        /* \"contracts/BondMarketplace.sol\":7445:7446  b */\n      dup1\n        /* \"contracts/BondMarketplace.sol\":7445:7451  b.name */\n      0x02\n      add\n        /* \"contracts/BondMarketplace.sol\":7434:7451  names[i] = b.name */\n      dup1\n      sload\n      tag_220\n      swap1\n      tag_65\n      jump\t// in\n    tag_220:\n      dup1\n      0x1f\n      add\n      0x20\n      dup1\n      swap2\n      div\n      mul\n      0x20\n      add\n      mload(0x40)\n      swap1\n      dup2\n      add\n      0x40\n      mstore\n      dup1\n      swap3\n      swap2\n      swap1\n      dup2\n      dup2\n      mstore\n      0x20\n      add\n      dup3\n      dup1\n      sload\n      tag_221\n      swap1\n      tag_65\n      jump\t// in\n    tag_221:\n      dup1\n      iszero\n      tag_222\n      jumpi\n      dup1\n      0x1f\n      lt\n      tag_223\n      jumpi\n      0x0100\n      dup1\n      dup4\n      sload\n      div\n      mul\n      dup4\n      mstore\n      swap2\n      0x20\n      add\n      swap2\n      jump(tag_222)\n    tag_223:\n      dup3\n      add\n      swap2\n      swap1\n      0x00\n      mstore\n      keccak256(0x00, 0x20)\n      swap1\n    tag_224:\n      dup2\n      sload\n      dup2\n      mstore\n      swap1\n      0x01\n      add\n      swap1\n      0x20\n      add\n      dup1\n      dup4\n      gt\n      tag_224\n      jumpi\n      dup3\n      swap1\n      sub\n      0x1f\n      and\n      dup3\n      add\n      swap2\n    tag_222:\n      pop\n      pop\n      pop\n      pop\n      pop\n        /* \"contracts/BondMarketplace.sol\":7434:7439  names */\n      dup10\n        /* \"contracts/BondMarketplace.sol\":7440:7441  i */\n      dup4\n        /* \"contracts/BondMarketplace.sol\":7434:7442  names[i] */\n      dup2\n      mload\n      dup2\n      lt\n      tag_225\n      jumpi\n      tag_226\n      tag_161\n      jump\t// in\n    tag_226:\n    tag_225:\n      0x20\n      mul\n      0x20\n      add\n      add\n        /* \"contracts/BondMarketplace.sol\":7434:7451  names[i] = b.name */\n      dup2\n      swap1\n      mstore\n      pop\n        /* \"contracts/BondMarketplace.sol\":7485:7486  b */\n      dup1\n        /* \"contracts/BondMarketplace.sol\":7485:7499  b.interestRate */\n      0x03\n      add\n      sload\n        /* \"contracts/BondMarketplace.sol\":7466:7479  interestRates */\n      dup9\n        /* \"contracts/BondMarketplace.sol\":7480:7481  i */\n      dup4\n        /* \"contracts/BondMarketplace.sol\":7466:7482  interestRates[i] */\n      dup2\n      mload\n      dup2\n      lt\n      tag_227\n      jumpi\n      tag_228\n      tag_161\n      jump\t// in\n    tag_228:\n    tag_227:\n      0x20\n      mul\n      0x20\n      add\n      add\n        /* \"contracts/BondMarketplace.sol\":7466:7499  interestRates[i] = b.interestRate */\n      dup2\n      dup2\n      mstore\n      pop\n      pop\n        /* \"contracts/BondMarketplace.sol\":7529:7530  b */\n      dup1\n        /* \"contracts/BondMarketplace.sol\":7529:7543  b.durationDays */\n      0x04\n      add\n      sload\n        /* \"contracts/BondMarketplace.sol\":7514:7523  durations */\n      dup8\n        /* \"contracts/BondMarketplace.sol\":7524:7525  i */\n      dup4\n        /* \"contracts/BondMarketplace.sol\":7514:7526  durations[i] */\n      dup2\n      mload\n      dup2\n      lt\n      tag_229\n      jumpi\n      tag_230\n      tag_161\n      jump\t// in\n    tag_230:\n    tag_229:\n      0x20\n      mul\n      0x20\n      add\n      add\n        /* \"contracts/BondMarketplace.sol\":7514:7543  durations[i] = b.durationDays */\n      dup2\n      dup2\n      mstore\n      pop\n      pop\n        /* \"contracts/BondMarketplace.sol\":7570:7571  b */\n      dup1\n        /* \"contracts/BondMarketplace.sol\":7570:7592  b.totalFundingRequired */\n      0x05\n      add\n      sload\n        /* \"contracts/BondMarketplace.sol\":7558:7564  totals */\n      dup7\n        /* \"contracts/BondMarketplace.sol\":7565:7566  i */\n      dup4\n        /* \"contracts/BondMarketplace.sol\":7558:7567  totals[i] */\n      dup2\n      mload\n      dup2\n      lt\n      tag_231\n      jumpi\n      tag_232\n      tag_161\n      jump\t// in\n    tag_232:\n    tag_231:\n      0x20\n      mul\n      0x20\n      add\n      add\n        /* \"contracts/BondMarketplace.sol\":7558:7592  totals[i] = b.totalFundingRequired */\n      dup2\n      dup2\n      mstore\n      pop\n      pop\n        /* \"contracts/BondMarketplace.sol\":7619:7620  b */\n      dup1\n        /* \"contracts/BondMarketplace.sol\":7619:7633  b.amountRaised */\n      0x06\n      add\n      sload\n        /* \"contracts/BondMarketplace.sol\":7607:7613  raised */\n      dup6\n        /* \"contracts/BondMarketplace.sol\":7614:7615  i */\n      dup4\n        /* \"contracts/BondMarketplace.sol\":7607:7616  raised[i] */\n      dup2\n      mload\n      dup2\n      lt\n      tag_233\n      jumpi\n      tag_234\n      tag_161\n      jump\t// in\n    tag_234:\n    tag_233:\n      0x20\n      mul\n      0x20\n      add\n      add\n        /* \"contracts/BondMarketplace.sol\":7607:7633  raised[i] = b.amountRaised */\n      dup2\n      dup2\n      mstore\n      pop\n      pop\n        /* \"contracts/BondMarketplace.sol\":7665:7666  b */\n      dup1\n        /* \"contracts/BondMarketplace.sol\":7665:7677  b.trustScore */\n      0x07\n      add\n      sload\n        /* \"contracts/BondMarketplace.sol\":7648:7659  trustScores */\n      dup5\n        /* \"contracts/BondMarketplace.sol\":7660:7661  i */\n      dup4\n        /* \"contracts/BondMarketplace.sol\":7648:7662  trustScores[i] */\n      dup2\n      mload\n      dup2\n      lt\n      tag_235\n      jumpi\n      tag_236\n      tag_161\n      jump\t// in\n    tag_236:\n    tag_235:\n      0x20\n      mul\n      0x20\n      add\n      add\n        /* \"contracts/BondMarketplace.sol\":7648:7677  trustScores[i] = b.trustScore */\n      dup2\n      dup2\n      mstore\n      pop\n      pop\n        /* \"contracts/BondMarketplace.sol\":7294:7689  {... */\n      pop\n        /* \"contracts/BondMarketplace.sol\":7289:7292  i++ */\n      dup1\n      dup1\n      tag_237\n      swap1\n      tag_115\n      jump\t// in\n    tag_237:\n      swap2\n      pop\n      pop\n        /* \"contracts/BondMarketplace.sol\":7258:7689  for (uint256 i = 0; i < count; i++) {... */\n      jump(tag_210)\n    tag_211:\n      pop\n        /* \"contracts/BondMarketplace.sol\":6865:7696  {... */\n      pop\n        /* \"contracts/BondMarketplace.sol\":6455:7696  function getAllBonds()... */\n      swap1\n      swap2\n      swap3\n      swap4\n      swap5\n      swap6\n      swap7\n      swap8\n      jump\t// out\n        /* \"contracts/BondMarketplace.sol\":909:934  uint256 public nextBondId */\n    tag_57:\n      sload(0x00)\n      dup2\n      jump\t// out\n        /* \"#utility.yul\":88:205   */\n    tag_239:\n        /* \"#utility.yul\":197:198   */\n      0x00\n        /* \"#utility.yul\":194:195   */\n      dup1\n        /* \"#utility.yul\":187:199   */\n      revert\n        /* \"#utility.yul\":211:328   */\n    tag_240:\n        /* \"#utility.yul\":320:321   */\n      0x00\n        /* \"#utility.yul\":317:318   */\n      dup1\n        /* \"#utility.yul\":310:322   */\n      revert\n        /* \"#utility.yul\":334:411   */\n    tag_241:\n        /* \"#utility.yul\":371:378   */\n      0x00\n        /* \"#utility.yul\":400:405   */\n      dup2\n        /* \"#utility.yul\":389:405   */\n      swap1\n      pop\n        /* \"#utility.yul\":334:411   */\n      swap2\n      swap1\n      pop\n      jump\t// out\n        /* \"#utility.yul\":417:539   */\n    tag_242:\n        /* \"#utility.yul\":490:514   */\n      tag_329\n        /* \"#utility.yul\":508:513   */\n      dup2\n        /* \"#utility.yul\":490:514   */\n      tag_241\n      jump\t// in\n    tag_329:\n        /* \"#utility.yul\":483:488   */\n      dup2\n        /* \"#utility.yul\":480:515   */\n      eq\n        /* \"#utility.yul\":470:533   */\n      tag_330\n      jumpi\n        /* \"#utility.yul\":529:530   */\n      0x00\n        /* \"#utility.yul\":526:527   */\n      dup1\n        /* \"#utility.yul\":519:531   */\n      revert\n        /* \"#utility.yul\":470:533   */\n    tag_330:\n        /* \"#utility.yul\":417:539   */\n      pop\n      jump\t// out\n        /* \"#utility.yul\":545:684   */\n    tag_243:\n        /* \"#utility.yul\":591:596   */\n      0x00\n        /* \"#utility.yul\":629:635   */\n      dup2\n        /* \"#utility.yul\":616:636   */\n      calldataload\n        /* \"#utility.yul\":607:636   */\n      swap1\n      pop\n        /* \"#utility.yul\":645:678   */\n      tag_332\n        /* \"#utility.yul\":672:677   */\n      dup2\n        /* \"#utility.yul\":645:678   */\n      tag_242\n      jump\t// in\n    tag_332:\n        /* \"#utility.yul\":545:684   */\n      swap3\n      swap2\n      pop\n      pop\n      jump\t// out\n        /* \"#utility.yul\":690:1019   */\n    tag_15:\n        /* \"#utility.yul\":749:755   */\n      0x00\n        /* \"#utility.yul\":798:800   */\n      0x20\n        /* \"#utility.yul\":786:795   */\n      dup3\n        /* \"#utility.yul\":777:784   */\n      dup5\n        /* \"#utility.yul\":773:796   */\n      sub\n        /* \"#utility.yul\":769:801   */\n      slt\n        /* \"#utility.yul\":766:885   */\n      iszero\n      tag_334\n      jumpi\n        /* \"#utility.yul\":804:883   */\n      tag_335\n      tag_239\n      jump\t// in\n    tag_335:\n        /* \"#utility.yul\":766:885   */\n    tag_334:\n        /* \"#utility.yul\":924:925   */\n      0x00\n        /* \"#utility.yul\":949:1002   */\n      tag_336\n        /* \"#utility.yul\":994:1001   */\n      dup5\n        /* \"#utility.yul\":985:991   */\n      dup3\n        /* \"#utility.yul\":974:983   */\n      dup6\n        /* \"#utility.yul\":970:992   */\n      add\n        /* \"#utility.yul\":949:1002   */\n      tag_243\n      jump\t// in\n    tag_336:\n        /* \"#utility.yul\":939:1002   */\n      swap2\n      pop\n        /* \"#utility.yul\":895:1012   */\n      pop\n        /* \"#utility.yul\":690:1019   */\n      swap3\n      swap2\n      pop\n      pop\n      jump\t// out\n        /* \"#utility.yul\":1025:1143   */\n    tag_244:\n        /* \"#utility.yul\":1112:1136   */\n      tag_338\n        /* \"#utility.yul\":1130:1135   */\n      dup2\n        /* \"#utility.yul\":1112:1136   */\n      tag_241\n      jump\t// in\n    tag_338:\n        /* \"#utility.yul\":1107:1110   */\n      dup3\n        /* \"#utility.yul\":1100:1137   */\n      mstore\n        /* \"#utility.yul\":1025:1143   */\n      pop\n      pop\n      jump\t// out\n        /* \"#utility.yul\":1149:1275   */\n    tag_245:\n        /* \"#utility.yul\":1186:1193   */\n      0x00\n        /* \"#utility.yul\":1226:1268   */\n      0xffffffffffffffffffffffffffffffffffffffff\n        /* \"#utility.yul\":1219:1224   */\n      dup3\n        /* \"#utility.yul\":1215:1269   */\n      and\n        /* \"#utility.yul\":1204:1269   */\n      swap1\n      pop\n        /* \"#utility.yul\":1149:1275   */\n      swap2\n      swap1\n      pop\n      jump\t// out\n        /* \"#utility.yul\":1281:1377   */\n    tag_246:\n        /* \"#utility.yul\":1318:1325   */\n      0x00\n        /* \"#utility.yul\":1347:1371   */\n      tag_341\n        /* \"#utility.yul\":1365:1370   */\n      dup3\n        /* \"#utility.yul\":1347:1371   */\n      tag_245\n      jump\t// in\n    tag_341:\n        /* \"#utility.yul\":1336:1371   */\n      swap1\n      pop\n        /* \"#utility.yul\":1281:1377   */\n      swap2\n      swap1\n      pop\n      jump\t// out\n        /* \"#utility.yul\":1383:1501   */\n    tag_247:\n        /* \"#utility.yul\":1470:1494   */\n      tag_343\n        /* \"#utility.yul\":1488:1493   */\n      dup2\n        /* \"#utility.yul\":1470:1494   */\n      tag_246\n      jump\t// in\n    tag_343:\n        /* \"#utility.yul\":1465:1468   */\n      dup3\n        /* \"#utility.yul\":1458:1495   */\n      mstore\n        /* \"#utility.yul\":1383:1501   */\n      pop\n      pop\n      jump\t// out\n        /* \"#utility.yul\":1507:1606   */\n    tag_248:\n        /* \"#utility.yul\":1559:1565   */\n      0x00\n        /* \"#utility.yul\":1593:1598   */\n      dup2\n        /* \"#utility.yul\":1587:1599   */\n      mload\n        /* \"#utility.yul\":1577:1599   */\n      swap1\n      pop\n        /* \"#utility.yul\":1507:1606   */\n      swap2\n      swap1\n      pop\n      jump\t// out\n        /* \"#utility.yul\":1612:1781   */\n    tag_249:\n        /* \"#utility.yul\":1696:1707   */\n      0x00\n        /* \"#utility.yul\":1730:1736   */\n      dup3\n        /* \"#utility.yul\":1725:1728   */\n      dup3\n        /* \"#utility.yul\":1718:1737   */\n      mstore\n        /* \"#utility.yul\":1770:1774   */\n      0x20\n        /* \"#utility.yul\":1765:1768   */\n      dup3\n        /* \"#utility.yul\":1761:1775   */\n      add\n        /* \"#utility.yul\":1746:1775   */\n      swap1\n      pop\n        /* \"#utility.yul\":1612:1781   */\n      swap3\n      swap2\n      pop\n      pop\n      jump\t// out\n        /* \"#utility.yul\":1787:2033   */\n    tag_250:\n        /* \"#utility.yul\":1868:1869   */\n      0x00\n        /* \"#utility.yul\":1878:1991   */\n    tag_347:\n        /* \"#utility.yul\":1892:1898   */\n      dup4\n        /* \"#utility.yul\":1889:1890   */\n      dup2\n        /* \"#utility.yul\":1886:1899   */\n      lt\n        /* \"#utility.yul\":1878:1991   */\n      iszero\n      tag_349\n      jumpi\n        /* \"#utility.yul\":1977:1978   */\n      dup1\n        /* \"#utility.yul\":1972:1975   */\n      dup3\n        /* \"#utility.yul\":1968:1979   */\n      add\n        /* \"#utility.yul\":1962:1980   */\n      mload\n        /* \"#utility.yul\":1958:1959   */\n      dup2\n        /* \"#utility.yul\":1953:1956   */\n      dup5\n        /* \"#utility.yul\":1949:1960   */\n      add\n        /* \"#utility.yul\":1942:1981   */\n      mstore\n        /* \"#utility.yul\":1914:1916   */\n      0x20\n        /* \"#utility.yul\":1911:1912   */\n      dup2\n        /* \"#utility.yul\":1907:1917   */\n      add\n        /* \"#utility.yul\":1902:1917   */\n      swap1\n      pop\n        /* \"#utility.yul\":1878:1991   */\n      jump(tag_347)\n    tag_349:\n        /* \"#utility.yul\":2025:2026   */\n      0x00\n        /* \"#utility.yul\":2016:2022   */\n      dup5\n        /* \"#utility.yul\":2011:2014   */\n      dup5\n        /* \"#utility.yul\":2007:2023   */\n      add\n        /* \"#utility.yul\":2000:2027   */\n      mstore\n        /* \"#utility.yul\":1849:2033   */\n      pop\n        /* \"#utility.yul\":1787:2033   */\n      pop\n      pop\n      pop\n      jump\t// out\n        /* \"#utility.yul\":2039:2141   */\n    tag_251:\n        /* \"#utility.yul\":2080:2086   */\n      0x00\n        /* \"#utility.yul\":2131:2133   */\n      0x1f\n        /* \"#utility.yul\":2127:2134   */\n      not\n        /* \"#utility.yul\":2122:2124   */\n      0x1f\n        /* \"#utility.yul\":2115:2120   */\n      dup4\n        /* \"#utility.yul\":2111:2125   */\n      add\n        /* \"#utility.yul\":2107:2135   */\n      and\n        /* \"#utility.yul\":2097:2135   */\n      swap1\n      pop\n        /* \"#utility.yul\":2039:2141   */\n      swap2\n      swap1\n      pop\n      jump\t// out\n        /* \"#utility.yul\":2147:2524   */\n    tag_252:\n        /* \"#utility.yul\":2235:2238   */\n      0x00\n        /* \"#utility.yul\":2263:2302   */\n      tag_352\n        /* \"#utility.yul\":2296:2301   */\n      dup3\n        /* \"#utility.yul\":2263:2302   */\n      tag_248\n      jump\t// in\n    tag_352:\n        /* \"#utility.yul\":2318:2389   */\n      tag_353\n        /* \"#utility.yul\":2382:2388   */\n      dup2\n        /* \"#utility.yul\":2377:2380   */\n      dup6\n        /* \"#utility.yul\":2318:2389   */\n      tag_249\n      jump\t// in\n    tag_353:\n        /* \"#utility.yul\":2311:2389   */\n      swap4\n      pop\n        /* \"#utility.yul\":2398:2463   */\n      tag_354\n        /* \"#utility.yul\":2456:2462   */\n      dup2\n        /* \"#utility.yul\":2451:2454   */\n      dup6\n        /* \"#utility.yul\":2444:2448   */\n      0x20\n        /* \"#utility.yul\":2437:2442   */\n      dup7\n        /* \"#utility.yul\":2433:2449   */\n      add\n        /* \"#utility.yul\":2398:2463   */\n      tag_250\n      jump\t// in\n    tag_354:\n        /* \"#utility.yul\":2488:2517   */\n      tag_355\n        /* \"#utility.yul\":2510:2516   */\n      dup2\n        /* \"#utility.yul\":2488:2517   */\n      tag_251\n      jump\t// in\n    tag_355:\n        /* \"#utility.yul\":2483:2486   */\n      dup5\n        /* \"#utility.yul\":2479:2518   */\n      add\n        /* \"#utility.yul\":2472:2518   */\n      swap2\n      pop\n        /* \"#utility.yul\":2239:2524   */\n      pop\n        /* \"#utility.yul\":2147:2524   */\n      swap3\n      swap2\n      pop\n      pop\n      jump\t// out\n        /* \"#utility.yul\":2530:2654   */\n    tag_253:\n        /* \"#utility.yul\":2607:2613   */\n      0x00\n        /* \"#utility.yul\":2641:2646   */\n      dup2\n        /* \"#utility.yul\":2635:2647   */\n      mload\n        /* \"#utility.yul\":2625:2647   */\n      swap1\n      pop\n        /* \"#utility.yul\":2530:2654   */\n      swap2\n      swap1\n      pop\n      jump\t// out\n        /* \"#utility.yul\":2660:2854   */\n    tag_254:\n        /* \"#utility.yul\":2769:2780   */\n      0x00\n        /* \"#utility.yul\":2803:2809   */\n      dup3\n        /* \"#utility.yul\":2798:2801   */\n      dup3\n        /* \"#utility.yul\":2791:2810   */\n      mstore\n        /* \"#utility.yul\":2843:2847   */\n      0x20\n        /* \"#utility.yul\":2838:2841   */\n      dup3\n        /* \"#utility.yul\":2834:2848   */\n      add\n        /* \"#utility.yul\":2819:2848   */\n      swap1\n      pop\n        /* \"#utility.yul\":2660:2854   */\n      swap3\n      swap2\n      pop\n      pop\n      jump\t// out\n        /* \"#utility.yul\":2860:3002   */\n    tag_255:\n        /* \"#utility.yul\":2937:2941   */\n      0x00\n        /* \"#utility.yul\":2960:2963   */\n      dup2\n        /* \"#utility.yul\":2952:2963   */\n      swap1\n      pop\n        /* \"#utility.yul\":2990:2994   */\n      0x20\n        /* \"#utility.yul\":2985:2988   */\n      dup3\n        /* \"#utility.yul\":2981:2995   */\n      add\n        /* \"#utility.yul\":2973:2995   */\n      swap1\n      pop\n        /* \"#utility.yul\":2860:3002   */\n      swap2\n      swap1\n      pop\n      jump\t// out\n        /* \"#utility.yul\":3008:3167   */\n    tag_256:\n        /* \"#utility.yul\":3082:3093   */\n      0x00\n        /* \"#utility.yul\":3116:3122   */\n      dup3\n        /* \"#utility.yul\":3111:3114   */\n      dup3\n        /* \"#utility.yul\":3104:3123   */\n      mstore\n        /* \"#utility.yul\":3156:3160   */\n      0x20\n        /* \"#utility.yul\":3151:3154   */\n      dup3\n        /* \"#utility.yul\":3147:3161   */\n      add\n        /* \"#utility.yul\":3132:3161   */\n      swap1\n      pop\n        /* \"#utility.yul\":3008:3167   */\n      swap3\n      swap2\n      pop\n      pop\n      jump\t// out\n        /* \"#utility.yul\":3173:3530   */\n    tag_257:\n        /* \"#utility.yul\":3251:3254   */\n      0x00\n        /* \"#utility.yul\":3279:3318   */\n      tag_361\n        /* \"#utility.yul\":3312:3317   */\n      dup3\n        /* \"#utility.yul\":3279:3318   */\n      tag_248\n      jump\t// in\n    tag_361:\n        /* \"#utility.yul\":3334:3395   */\n      tag_362\n        /* \"#utility.yul\":3388:3394   */\n      dup2\n        /* \"#utility.yul\":3383:3386   */\n      dup6\n        /* \"#utility.yul\":3334:3395   */\n      tag_256\n      jump\t// in\n    tag_362:\n        /* \"#utility.yul\":3327:3395   */\n      swap4\n      pop\n        /* \"#utility.yul\":3404:3469   */\n      tag_363\n        /* \"#utility.yul\":3462:3468   */\n      dup2\n        /* \"#utility.yul\":3457:3460   */\n      dup6\n        /* \"#utility.yul\":3450:3454   */\n      0x20\n        /* \"#utility.yul\":3443:3448   */\n      dup7\n        /* \"#utility.yul\":3439:3455   */\n      add\n        /* \"#utility.yul\":3404:3469   */\n      tag_250\n      jump\t// in\n    tag_363:\n        /* \"#utility.yul\":3494:3523   */\n      tag_364\n        /* \"#utility.yul\":3516:3522   */\n      dup2\n        /* \"#utility.yul\":3494:3523   */\n      tag_251\n      jump\t// in\n    tag_364:\n        /* \"#utility.yul\":3489:3492   */\n      dup5\n        /* \"#utility.yul\":3485:3524   */\n      add\n        /* \"#utility.yul\":3478:3524   */\n      swap2\n      pop\n        /* \"#utility.yul\":3255:3530   */\n      pop\n        /* \"#utility.yul\":3173:3530   */\n      swap3\n      swap2\n      pop\n      pop\n      jump\t// out\n        /* \"#utility.yul\":3536:3732   */\n    tag_258:\n        /* \"#utility.yul\":3625:3635   */\n      0x00\n        /* \"#utility.yul\":3660:3726   */\n      tag_366\n        /* \"#utility.yul\":3722:3725   */\n      dup4\n        /* \"#utility.yul\":3714:3720   */\n      dup4\n        /* \"#utility.yul\":3660:3726   */\n      tag_257\n      jump\t// in\n    tag_366:\n        /* \"#utility.yul\":3646:3726   */\n      swap1\n      pop\n        /* \"#utility.yul\":3536:3732   */\n      swap3\n      swap2\n      pop\n      pop\n      jump\t// out\n        /* \"#utility.yul\":3738:3861   */\n    tag_259:\n        /* \"#utility.yul\":3818:3822   */\n      0x00\n        /* \"#utility.yul\":3850:3854   */\n      0x20\n        /* \"#utility.yul\":3845:3848   */\n      dup3\n        /* \"#utility.yul\":3841:3855   */\n      add\n        /* \"#utility.yul\":3833:3855   */\n      swap1\n      pop\n        /* \"#utility.yul\":3738:3861   */\n      swap2\n      swap1\n      pop\n      jump\t// out\n        /* \"#utility.yul\":3895:4886   */\n    tag_260:\n        /* \"#utility.yul\":4034:4037   */\n      0x00\n        /* \"#utility.yul\":4063:4127   */\n      tag_369\n        /* \"#utility.yul\":4121:4126   */\n      dup3\n        /* \"#utility.yul\":4063:4127   */\n      tag_253\n      jump\t// in\n    tag_369:\n        /* \"#utility.yul\":4143:4239   */\n      tag_370\n        /* \"#utility.yul\":4232:4238   */\n      dup2\n        /* \"#utility.yul\":4227:4230   */\n      dup6\n        /* \"#utility.yul\":4143:4239   */\n      tag_254\n      jump\t// in\n    tag_370:\n        /* \"#utility.yul\":4136:4239   */\n      swap4\n      pop\n        /* \"#utility.yul\":4265:4268   */\n      dup4\n        /* \"#utility.yul\":4310:4314   */\n      0x20\n        /* \"#utility.yul\":4302:4308   */\n      dup3\n        /* \"#utility.yul\":4298:4315   */\n      mul\n        /* \"#utility.yul\":4293:4296   */\n      dup6\n        /* \"#utility.yul\":4289:4316   */\n      add\n        /* \"#utility.yul\":4340:4406   */\n      tag_371\n        /* \"#utility.yul\":4400:4405   */\n      dup6\n        /* \"#utility.yul\":4340:4406   */\n      tag_255\n      jump\t// in\n    tag_371:\n        /* \"#utility.yul\":4429:4436   */\n      dup1\n        /* \"#utility.yul\":4460:4461   */\n      0x00\n        /* \"#utility.yul\":4445:4841   */\n    tag_372:\n        /* \"#utility.yul\":4470:4476   */\n      dup6\n        /* \"#utility.yul\":4467:4468   */\n      dup2\n        /* \"#utility.yul\":4464:4477   */\n      lt\n        /* \"#utility.yul\":4445:4841   */\n      iszero\n      tag_374\n      jumpi\n        /* \"#utility.yul\":4541:4550   */\n      dup5\n        /* \"#utility.yul\":4535:4539   */\n      dup5\n        /* \"#utility.yul\":4531:4551   */\n      sub\n        /* \"#utility.yul\":4526:4529   */\n      dup10\n        /* \"#utility.yul\":4519:4552   */\n      mstore\n        /* \"#utility.yul\":4592:4598   */\n      dup2\n        /* \"#utility.yul\":4586:4599   */\n      mload\n        /* \"#utility.yul\":4620:4704   */\n      tag_375\n        /* \"#utility.yul\":4699:4703   */\n      dup6\n        /* \"#utility.yul\":4684:4697   */\n      dup3\n        /* \"#utility.yul\":4620:4704   */\n      tag_258\n      jump\t// in\n    tag_375:\n        /* \"#utility.yul\":4612:4704   */\n      swap5\n      pop\n        /* \"#utility.yul\":4727:4797   */\n      tag_376\n        /* \"#utility.yul\":4790:4796   */\n      dup4\n        /* \"#utility.yul\":4727:4797   */\n      tag_259\n      jump\t// in\n    tag_376:\n        /* \"#utility.yul\":4717:4797   */\n      swap3\n      pop\n        /* \"#utility.yul\":4826:4830   */\n      0x20\n        /* \"#utility.yul\":4821:4824   */\n      dup11\n        /* \"#utility.yul\":4817:4831   */\n      add\n        /* \"#utility.yul\":4810:4831   */\n      swap10\n      pop\n        /* \"#utility.yul\":4505:4841   */\n      pop\n        /* \"#utility.yul\":4492:4493   */\n      0x01\n        /* \"#utility.yul\":4489:4490   */\n      dup2\n        /* \"#utility.yul\":4485:4494   */\n      add\n        /* \"#utility.yul\":4480:4494   */\n      swap1\n      pop\n        /* \"#utility.yul\":4445:4841   */\n      jump(tag_372)\n    tag_374:\n        /* \"#utility.yul\":4449:4463   */\n      pop\n        /* \"#utility.yul\":4857:4861   */\n      dup3\n        /* \"#utility.yul\":4850:4861   */\n      swap8\n      pop\n        /* \"#utility.yul\":4877:4880   */\n      dup8\n        /* \"#utility.yul\":4870:4880   */\n      swap6\n      pop\n        /* \"#utility.yul\":4039:4886   */\n      pop\n      pop\n      pop\n      pop\n      pop\n        /* \"#utility.yul\":3895:4886   */\n      swap3\n      swap2\n      pop\n      pop\n      jump\t// out\n        /* \"#utility.yul\":4892:6282   */\n    tag_18:\n        /* \"#utility.yul\":5299:5303   */\n      0x00\n        /* \"#utility.yul\":5337:5340   */\n      0x0120\n        /* \"#utility.yul\":5326:5335   */\n      dup3\n        /* \"#utility.yul\":5322:5341   */\n      add\n        /* \"#utility.yul\":5314:5341   */\n      swap1\n      pop\n        /* \"#utility.yul\":5351:5422   */\n      tag_378\n        /* \"#utility.yul\":5419:5420   */\n      0x00\n        /* \"#utility.yul\":5408:5417   */\n      dup4\n        /* \"#utility.yul\":5404:5421   */\n      add\n        /* \"#utility.yul\":5395:5401   */\n      dup13\n        /* \"#utility.yul\":5351:5422   */\n      tag_244\n      jump\t// in\n    tag_378:\n        /* \"#utility.yul\":5432:5504   */\n      tag_379\n        /* \"#utility.yul\":5500:5502   */\n      0x20\n        /* \"#utility.yul\":5489:5498   */\n      dup4\n        /* \"#utility.yul\":5485:5503   */\n      add\n        /* \"#utility.yul\":5476:5482   */\n      dup12\n        /* \"#utility.yul\":5432:5504   */\n      tag_247\n      jump\t// in\n    tag_379:\n        /* \"#utility.yul\":5551:5560   */\n      dup2\n        /* \"#utility.yul\":5545:5549   */\n      dup2\n        /* \"#utility.yul\":5541:5561   */\n      sub\n        /* \"#utility.yul\":5536:5538   */\n      0x40\n        /* \"#utility.yul\":5525:5534   */\n      dup4\n        /* \"#utility.yul\":5521:5539   */\n      add\n        /* \"#utility.yul\":5514:5562   */\n      mstore\n        /* \"#utility.yul\":5579:5657   */\n      tag_380\n        /* \"#utility.yul\":5652:5656   */\n      dup2\n        /* \"#utility.yul\":5643:5649   */\n      dup11\n        /* \"#utility.yul\":5579:5657   */\n      tag_252\n      jump\t// in\n    tag_380:\n        /* \"#utility.yul\":5571:5657   */\n      swap1\n      pop\n        /* \"#utility.yul\":5667:5739   */\n      tag_381\n        /* \"#utility.yul\":5735:5737   */\n      0x60\n        /* \"#utility.yul\":5724:5733   */\n      dup4\n        /* \"#utility.yul\":5720:5738   */\n      add\n        /* \"#utility.yul\":5711:5717   */\n      dup10\n        /* \"#utility.yul\":5667:5739   */\n      tag_244\n      jump\t// in\n    tag_381:\n        /* \"#utility.yul\":5749:5822   */\n      tag_382\n        /* \"#utility.yul\":5817:5820   */\n      0x80\n        /* \"#utility.yul\":5806:5815   */\n      dup4\n        /* \"#utility.yul\":5802:5821   */\n      add\n        /* \"#utility.yul\":5793:5799   */\n      dup9\n        /* \"#utility.yul\":5749:5822   */\n      tag_244\n      jump\t// in\n    tag_382:\n        /* \"#utility.yul\":5832:5905   */\n      tag_383\n        /* \"#utility.yul\":5900:5903   */\n      0xa0\n        /* \"#utility.yul\":5889:5898   */\n      dup4\n        /* \"#utility.yul\":5885:5904   */\n      add\n        /* \"#utility.yul\":5876:5882   */\n      dup8\n        /* \"#utility.yul\":5832:5905   */\n      tag_244\n      jump\t// in\n    tag_383:\n        /* \"#utility.yul\":5915:5988   */\n      tag_384\n        /* \"#utility.yul\":5983:5986   */\n      0xc0\n        /* \"#utility.yul\":5972:5981   */\n      dup4\n        /* \"#utility.yul\":5968:5987   */\n      add\n        /* \"#utility.yul\":5959:5965   */\n      dup7\n        /* \"#utility.yul\":5915:5988   */\n      tag_244\n      jump\t// in\n    tag_384:\n        /* \"#utility.yul\":5998:6071   */\n      tag_385\n        /* \"#utility.yul\":6066:6069   */\n      0xe0\n        /* \"#utility.yul\":6055:6064   */\n      dup4\n        /* \"#utility.yul\":6051:6070   */\n      add\n        /* \"#utility.yul\":6042:6048   */\n      dup6\n        /* \"#utility.yul\":5998:6071   */\n      tag_244\n      jump\t// in\n    tag_385:\n        /* \"#utility.yul\":6119:6128   */\n      dup2\n        /* \"#utility.yul\":6113:6117   */\n      dup2\n        /* \"#utility.yul\":6109:6129   */\n      sub\n        /* \"#utility.yul\":6103:6106   */\n      0x0100\n        /* \"#utility.yul\":6092:6101   */\n      dup4\n        /* \"#utility.yul\":6088:6107   */\n      add\n        /* \"#utility.yul\":6081:6130   */\n      mstore\n        /* \"#utility.yul\":6147:6275   */\n      tag_386\n        /* \"#utility.yul\":6270:6274   */\n      dup2\n        /* \"#utility.yul\":6261:6267   */\n      dup5\n        /* \"#utility.yul\":6147:6275   */\n      tag_260\n      jump\t// in\n    tag_386:\n        /* \"#utility.yul\":6139:6275   */\n      swap1\n      pop\n        /* \"#utility.yul\":4892:6282   */\n      swap11\n      swap10\n      pop\n      pop\n      pop\n      pop\n      pop\n      pop\n      pop\n      pop\n      pop\n      pop\n      jump\t// out\n        /* \"#utility.yul\":6288:6510   */\n    tag_24:\n        /* \"#utility.yul\":6381:6385   */\n      0x00\n        /* \"#utility.yul\":6419:6421   */\n      0x20\n        /* \"#utility.yul\":6408:6417   */\n      dup3\n        /* \"#utility.yul\":6404:6422   */\n      add\n        /* \"#utility.yul\":6396:6422   */\n      swap1\n      pop\n        /* \"#utility.yul\":6432:6503   */\n      tag_388\n        /* \"#utility.yul\":6500:6501   */\n      0x00\n        /* \"#utility.yul\":6489:6498   */\n      dup4\n        /* \"#utility.yul\":6485:6502   */\n      add\n        /* \"#utility.yul\":6476:6482   */\n      dup5\n        /* \"#utility.yul\":6432:6503   */\n      tag_244\n      jump\t// in\n    tag_388:\n        /* \"#utility.yul\":6288:6510   */\n      swap3\n      swap2\n      pop\n      pop\n      jump\t// out\n        /* \"#utility.yul\":6516:6633   */\n    tag_261:\n        /* \"#utility.yul\":6625:6626   */\n      0x00\n        /* \"#utility.yul\":6622:6623   */\n      dup1\n        /* \"#utility.yul\":6615:6627   */\n      revert\n        /* \"#utility.yul\":6639:6756   */\n    tag_262:\n        /* \"#utility.yul\":6748:6749   */\n      0x00\n        /* \"#utility.yul\":6745:6746   */\n      dup1\n        /* \"#utility.yul\":6738:6750   */\n      revert\n        /* \"#utility.yul\":6762:6879   */\n    tag_263:\n        /* \"#utility.yul\":6871:6872   */\n      0x00\n        /* \"#utility.yul\":6868:6869   */\n      dup1\n        /* \"#utility.yul\":6861:6873   */\n      revert\n        /* \"#utility.yul\":6899:7452   */\n    tag_264:\n        /* \"#utility.yul\":6957:6965   */\n      0x00\n        /* \"#utility.yul\":6967:6973   */\n      dup1\n        /* \"#utility.yul\":7017:7020   */\n      dup4\n        /* \"#utility.yul\":7010:7014   */\n      0x1f\n        /* \"#utility.yul\":7002:7008   */\n      dup5\n        /* \"#utility.yul\":6998:7015   */\n      add\n        /* \"#utility.yul\":6994:7021   */\n      slt\n        /* \"#utility.yul\":6984:7106   */\n      tag_393\n      jumpi\n        /* \"#utility.yul\":7025:7104   */\n      tag_394\n      tag_261\n      jump\t// in\n    tag_394:\n        /* \"#utility.yul\":6984:7106   */\n    tag_393:\n        /* \"#utility.yul\":7138:7144   */\n      dup3\n        /* \"#utility.yul\":7125:7145   */\n      calldataload\n        /* \"#utility.yul\":7115:7145   */\n      swap1\n      pop\n        /* \"#utility.yul\":7168:7186   */\n      0xffffffffffffffff\n        /* \"#utility.yul\":7160:7166   */\n      dup2\n        /* \"#utility.yul\":7157:7187   */\n      gt\n        /* \"#utility.yul\":7154:7271   */\n      iszero\n      tag_395\n      jumpi\n        /* \"#utility.yul\":7190:7269   */\n      tag_396\n      tag_262\n      jump\t// in\n    tag_396:\n        /* \"#utility.yul\":7154:7271   */\n    tag_395:\n        /* \"#utility.yul\":7304:7308   */\n      0x20\n        /* \"#utility.yul\":7296:7302   */\n      dup4\n        /* \"#utility.yul\":7292:7309   */\n      add\n        /* \"#utility.yul\":7280:7309   */\n      swap2\n      pop\n        /* \"#utility.yul\":7358:7361   */\n      dup4\n        /* \"#utility.yul\":7350:7354   */\n      0x01\n        /* \"#utility.yul\":7342:7348   */\n      dup3\n        /* \"#utility.yul\":7338:7355   */\n      mul\n        /* \"#utility.yul\":7328:7336   */\n      dup4\n        /* \"#utility.yul\":7324:7356   */\n      add\n        /* \"#utility.yul\":7321:7362   */\n      gt\n        /* \"#utility.yul\":7318:7446   */\n      iszero\n      tag_397\n      jumpi\n        /* \"#utility.yul\":7365:7444   */\n      tag_398\n      tag_263\n      jump\t// in\n    tag_398:\n        /* \"#utility.yul\":7318:7446   */\n    tag_397:\n        /* \"#utility.yul\":6899:7452   */\n      swap3\n      pop\n      swap3\n      swap1\n      pop\n      jump\t// out\n        /* \"#utility.yul\":7458:8423   */\n    tag_33:\n        /* \"#utility.yul\":7556:7562   */\n      0x00\n        /* \"#utility.yul\":7564:7570   */\n      dup1\n        /* \"#utility.yul\":7572:7578   */\n      0x00\n        /* \"#utility.yul\":7580:7586   */\n      dup1\n        /* \"#utility.yul\":7588:7594   */\n      0x00\n        /* \"#utility.yul\":7637:7640   */\n      0x80\n        /* \"#utility.yul\":7625:7634   */\n      dup7\n        /* \"#utility.yul\":7616:7623   */\n      dup9\n        /* \"#utility.yul\":7612:7635   */\n      sub\n        /* \"#utility.yul\":7608:7641   */\n      slt\n        /* \"#utility.yul\":7605:7725   */\n      iszero\n      tag_400\n      jumpi\n        /* \"#utility.yul\":7644:7723   */\n      tag_401\n      tag_239\n      jump\t// in\n    tag_401:\n        /* \"#utility.yul\":7605:7725   */\n    tag_400:\n        /* \"#utility.yul\":7792:7793   */\n      0x00\n        /* \"#utility.yul\":7781:7790   */\n      dup7\n        /* \"#utility.yul\":7777:7794   */\n      add\n        /* \"#utility.yul\":7764:7795   */\n      calldataload\n        /* \"#utility.yul\":7822:7840   */\n      0xffffffffffffffff\n        /* \"#utility.yul\":7814:7820   */\n      dup2\n        /* \"#utility.yul\":7811:7841   */\n      gt\n        /* \"#utility.yul\":7808:7925   */\n      iszero\n      tag_402\n      jumpi\n        /* \"#utility.yul\":7844:7923   */\n      tag_403\n      tag_240\n      jump\t// in\n    tag_403:\n        /* \"#utility.yul\":7808:7925   */\n    tag_402:\n        /* \"#utility.yul\":7957:8022   */\n      tag_404\n        /* \"#utility.yul\":8014:8021   */\n      dup9\n        /* \"#utility.yul\":8005:8011   */\n      dup3\n        /* \"#utility.yul\":7994:8003   */\n      dup10\n        /* \"#utility.yul\":7990:8012   */\n      add\n        /* \"#utility.yul\":7957:8022   */\n      tag_264\n      jump\t// in\n    tag_404:\n        /* \"#utility.yul\":7939:8022   */\n      swap6\n      pop\n      swap6\n      pop\n        /* \"#utility.yul\":7735:8032   */\n      pop\n        /* \"#utility.yul\":8071:8073   */\n      0x20\n        /* \"#utility.yul\":8097:8150   */\n      tag_405\n        /* \"#utility.yul\":8142:8149   */\n      dup9\n        /* \"#utility.yul\":8133:8139   */\n      dup3\n        /* \"#utility.yul\":8122:8131   */\n      dup10\n        /* \"#utility.yul\":8118:8140   */\n      add\n        /* \"#utility.yul\":8097:8150   */\n      tag_243\n      jump\t// in\n    tag_405:\n        /* \"#utility.yul\":8087:8150   */\n      swap4\n      pop\n        /* \"#utility.yul\":8042:8160   */\n      pop\n        /* \"#utility.yul\":8199:8201   */\n      0x40\n        /* \"#utility.yul\":8225:8278   */\n      tag_406\n        /* \"#utility.yul\":8270:8277   */\n      dup9\n        /* \"#utility.yul\":8261:8267   */\n      dup3\n        /* \"#utility.yul\":8250:8259   */\n      dup10\n        /* \"#utility.yul\":8246:8268   */\n      add\n        /* \"#utility.yul\":8225:8278   */\n      tag_243\n      jump\t// in\n    tag_406:\n        /* \"#utility.yul\":8215:8278   */\n      swap3\n      pop\n        /* \"#utility.yul\":8170:8288   */\n      pop\n        /* \"#utility.yul\":8327:8329   */\n      0x60\n        /* \"#utility.yul\":8353:8406   */\n      tag_407\n        /* \"#utility.yul\":8398:8405   */\n      dup9\n        /* \"#utility.yul\":8389:8395   */\n      dup3\n        /* \"#utility.yul\":8378:8387   */\n      dup10\n        /* \"#utility.yul\":8374:8396   */\n      add\n        /* \"#utility.yul\":8353:8406   */\n      tag_243\n      jump\t// in\n    tag_407:\n        /* \"#utility.yul\":8343:8406   */\n      swap2\n      pop\n        /* \"#utility.yul\":8298:8416   */\n      pop\n        /* \"#utility.yul\":7458:8423   */\n      swap3\n      swap6\n      pop\n      swap3\n      swap6\n      swap1\n      swap4\n      pop\n      jump\t// out\n        /* \"#utility.yul\":8429:8551   */\n    tag_265:\n        /* \"#utility.yul\":8502:8526   */\n      tag_409\n        /* \"#utility.yul\":8520:8525   */\n      dup2\n        /* \"#utility.yul\":8502:8526   */\n      tag_246\n      jump\t// in\n    tag_409:\n        /* \"#utility.yul\":8495:8500   */\n      dup2\n        /* \"#utility.yul\":8492:8527   */\n      eq\n        /* \"#utility.yul\":8482:8545   */\n      tag_410\n      jumpi\n        /* \"#utility.yul\":8541:8542   */\n      0x00\n        /* \"#utility.yul\":8538:8539   */\n      dup1\n        /* \"#utility.yul\":8531:8543   */\n      revert\n        /* \"#utility.yul\":8482:8545   */\n    tag_410:\n        /* \"#utility.yul\":8429:8551   */\n      pop\n      jump\t// out\n        /* \"#utility.yul\":8557:8696   */\n    tag_266:\n        /* \"#utility.yul\":8603:8608   */\n      0x00\n        /* \"#utility.yul\":8641:8647   */\n      dup2\n        /* \"#utility.yul\":8628:8648   */\n      calldataload\n        /* \"#utility.yul\":8619:8648   */\n      swap1\n      pop\n        /* \"#utility.yul\":8657:8690   */\n      tag_412\n        /* \"#utility.yul\":8684:8689   */\n      dup2\n        /* \"#utility.yul\":8657:8690   */\n      tag_265\n      jump\t// in\n    tag_412:\n        /* \"#utility.yul\":8557:8696   */\n      swap3\n      swap2\n      pop\n      pop\n      jump\t// out\n        /* \"#utility.yul\":8702:9031   */\n    tag_41:\n        /* \"#utility.yul\":8761:8767   */\n      0x00\n        /* \"#utility.yul\":8810:8812   */\n      0x20\n        /* \"#utility.yul\":8798:8807   */\n      dup3\n        /* \"#utility.yul\":8789:8796   */\n      dup5\n        /* \"#utility.yul\":8785:8808   */\n      sub\n        /* \"#utility.yul\":8781:8813   */\n      slt\n        /* \"#utility.yul\":8778:8897   */\n      iszero\n      tag_414\n      jumpi\n        /* \"#utility.yul\":8816:8895   */\n      tag_415\n      tag_239\n      jump\t// in\n    tag_415:\n        /* \"#utility.yul\":8778:8897   */\n    tag_414:\n        /* \"#utility.yul\":8936:8937   */\n      0x00\n        /* \"#utility.yul\":8961:9014   */\n      tag_416\n        /* \"#utility.yul\":9006:9013   */\n      dup5\n        /* \"#utility.yul\":8997:9003   */\n      dup3\n        /* \"#utility.yul\":8986:8995   */\n      dup6\n        /* \"#utility.yul\":8982:9004   */\n      add\n        /* \"#utility.yul\":8961:9014   */\n      tag_266\n      jump\t// in\n    tag_416:\n        /* \"#utility.yul\":8951:9014   */\n      swap2\n      pop\n        /* \"#utility.yul\":8907:9024   */\n      pop\n        /* \"#utility.yul\":8702:9031   */\n      swap3\n      swap2\n      pop\n      pop\n      jump\t// out\n        /* \"#utility.yul\":9037:9151   */\n    tag_267:\n        /* \"#utility.yul\":9104:9110   */\n      0x00\n        /* \"#utility.yul\":9138:9143   */\n      dup2\n        /* \"#utility.yul\":9132:9144   */\n      mload\n        /* \"#utility.yul\":9122:9144   */\n      swap1\n      pop\n        /* \"#utility.yul\":9037:9151   */\n      swap2\n      swap1\n      pop\n      jump\t// out\n        /* \"#utility.yul\":9157:9341   */\n    tag_268:\n        /* \"#utility.yul\":9256:9267   */\n      0x00\n        /* \"#utility.yul\":9290:9296   */\n      dup3\n        /* \"#utility.yul\":9285:9288   */\n      dup3\n        /* \"#utility.yul\":9278:9297   */\n      mstore\n        /* \"#utility.yul\":9330:9334   */\n      0x20\n        /* \"#utility.yul\":9325:9328   */\n      dup3\n        /* \"#utility.yul\":9321:9335   */\n      add\n        /* \"#utility.yul\":9306:9335   */\n      swap1\n      pop\n        /* \"#utility.yul\":9157:9341   */\n      swap3\n      swap2\n      pop\n      pop\n      jump\t// out\n        /* \"#utility.yul\":9347:9479   */\n    tag_269:\n        /* \"#utility.yul\":9414:9418   */\n      0x00\n        /* \"#utility.yul\":9437:9440   */\n      dup2\n        /* \"#utility.yul\":9429:9440   */\n      swap1\n      pop\n        /* \"#utility.yul\":9467:9471   */\n      0x20\n        /* \"#utility.yul\":9462:9465   */\n      dup3\n        /* \"#utility.yul\":9458:9472   */\n      add\n        /* \"#utility.yul\":9450:9472   */\n      swap1\n      pop\n        /* \"#utility.yul\":9347:9479   */\n      swap2\n      swap1\n      pop\n      jump\t// out\n        /* \"#utility.yul\":9485:9593   */\n    tag_270:\n        /* \"#utility.yul\":9562:9586   */\n      tag_421\n        /* \"#utility.yul\":9580:9585   */\n      dup2\n        /* \"#utility.yul\":9562:9586   */\n      tag_241\n      jump\t// in\n    tag_421:\n        /* \"#utility.yul\":9557:9560   */\n      dup3\n        /* \"#utility.yul\":9550:9587   */\n      mstore\n        /* \"#utility.yul\":9485:9593   */\n      pop\n      pop\n      jump\t// out\n        /* \"#utility.yul\":9599:9778   */\n    tag_271:\n        /* \"#utility.yul\":9668:9678   */\n      0x00\n        /* \"#utility.yul\":9689:9735   */\n      tag_423\n        /* \"#utility.yul\":9731:9734   */\n      dup4\n        /* \"#utility.yul\":9723:9729   */\n      dup4\n        /* \"#utility.yul\":9689:9735   */\n      tag_270\n      jump\t// in\n    tag_423:\n        /* \"#utility.yul\":9767:9771   */\n      0x20\n        /* \"#utility.yul\":9762:9765   */\n      dup4\n        /* \"#utility.yul\":9758:9772   */\n      add\n        /* \"#utility.yul\":9744:9772   */\n      swap1\n      pop\n        /* \"#utility.yul\":9599:9778   */\n      swap3\n      swap2\n      pop\n      pop\n      jump\t// out\n        /* \"#utility.yul\":9784:9897   */\n    tag_272:\n        /* \"#utility.yul\":9854:9858   */\n      0x00\n        /* \"#utility.yul\":9886:9890   */\n      0x20\n        /* \"#utility.yul\":9881:9884   */\n      dup3\n        /* \"#utility.yul\":9877:9891   */\n      add\n        /* \"#utility.yul\":9869:9891   */\n      swap1\n      pop\n        /* \"#utility.yul\":9784:9897   */\n      swap2\n      swap1\n      pop\n      jump\t// out\n        /* \"#utility.yul\":9933:10665   */\n    tag_273:\n        /* \"#utility.yul\":10052:10055   */\n      0x00\n        /* \"#utility.yul\":10081:10135   */\n      tag_426\n        /* \"#utility.yul\":10129:10134   */\n      dup3\n        /* \"#utility.yul\":10081:10135   */\n      tag_267\n      jump\t// in\n    tag_426:\n        /* \"#utility.yul\":10151:10237   */\n      tag_427\n        /* \"#utility.yul\":10230:10236   */\n      dup2\n        /* \"#utility.yul\":10225:10228   */\n      dup6\n        /* \"#utility.yul\":10151:10237   */\n      tag_268\n      jump\t// in\n    tag_427:\n        /* \"#utility.yul\":10144:10237   */\n      swap4\n      pop\n        /* \"#utility.yul\":10261:10317   */\n      tag_428\n        /* \"#utility.yul\":10311:10316   */\n      dup4\n        /* \"#utility.yul\":10261:10317   */\n      tag_269\n      jump\t// in\n    tag_428:\n        /* \"#utility.yul\":10340:10347   */\n      dup1\n        /* \"#utility.yul\":10371:10372   */\n      0x00\n        /* \"#utility.yul\":10356:10640   */\n    tag_429:\n        /* \"#utility.yul\":10381:10387   */\n      dup4\n        /* \"#utility.yul\":10378:10379   */\n      dup2\n        /* \"#utility.yul\":10375:10388   */\n      lt\n        /* \"#utility.yul\":10356:10640   */\n      iszero\n      tag_431\n      jumpi\n        /* \"#utility.yul\":10457:10463   */\n      dup2\n        /* \"#utility.yul\":10451:10464   */\n      mload\n        /* \"#utility.yul\":10484:10547   */\n      tag_432\n        /* \"#utility.yul\":10543:10546   */\n      dup9\n        /* \"#utility.yul\":10528:10541   */\n      dup3\n        /* \"#utility.yul\":10484:10547   */\n      tag_271\n      jump\t// in\n    tag_432:\n        /* \"#utility.yul\":10477:10547   */\n      swap8\n      pop\n        /* \"#utility.yul\":10570:10630   */\n      tag_433\n        /* \"#utility.yul\":10623:10629   */\n      dup4\n        /* \"#utility.yul\":10570:10630   */\n      tag_272\n      jump\t// in\n    tag_433:\n        /* \"#utility.yul\":10560:10630   */\n      swap3\n      pop\n        /* \"#utility.yul\":10416:10640   */\n      pop\n        /* \"#utility.yul\":10403:10404   */\n      0x01\n        /* \"#utility.yul\":10400:10401   */\n      dup2\n        /* \"#utility.yul\":10396:10405   */\n      add\n        /* \"#utility.yul\":10391:10405   */\n      swap1\n      pop\n        /* \"#utility.yul\":10356:10640   */\n      jump(tag_429)\n    tag_431:\n        /* \"#utility.yul\":10360:10374   */\n      pop\n        /* \"#utility.yul\":10656:10659   */\n      dup6\n        /* \"#utility.yul\":10649:10659   */\n      swap4\n      pop\n        /* \"#utility.yul\":10057:10665   */\n      pop\n      pop\n      pop\n        /* \"#utility.yul\":9933:10665   */\n      swap3\n      swap2\n      pop\n      pop\n      jump\t// out\n        /* \"#utility.yul\":10671:11305   */\n    tag_44:\n        /* \"#utility.yul\":10892:10896   */\n      0x00\n        /* \"#utility.yul\":10930:10932   */\n      0x40\n        /* \"#utility.yul\":10919:10928   */\n      dup3\n        /* \"#utility.yul\":10915:10933   */\n      add\n        /* \"#utility.yul\":10907:10933   */\n      swap1\n      pop\n        /* \"#utility.yul\":10979:10988   */\n      dup2\n        /* \"#utility.yul\":10973:10977   */\n      dup2\n        /* \"#utility.yul\":10969:10989   */\n      sub\n        /* \"#utility.yul\":10965:10966   */\n      0x00\n        /* \"#utility.yul\":10954:10963   */\n      dup4\n        /* \"#utility.yul\":10950:10967   */\n      add\n        /* \"#utility.yul\":10943:10990   */\n      mstore\n        /* \"#utility.yul\":11007:11115   */\n      tag_435\n        /* \"#utility.yul\":11110:11114   */\n      dup2\n        /* \"#utility.yul\":11101:11107   */\n      dup6\n        /* \"#utility.yul\":11007:11115   */\n      tag_273\n      jump\t// in\n    tag_435:\n        /* \"#utility.yul\":10999:11115   */\n      swap1\n      pop\n        /* \"#utility.yul\":11162:11171   */\n      dup2\n        /* \"#utility.yul\":11156:11160   */\n      dup2\n        /* \"#utility.yul\":11152:11172   */\n      sub\n        /* \"#utility.yul\":11147:11149   */\n      0x20\n        /* \"#utility.yul\":11136:11145   */\n      dup4\n        /* \"#utility.yul\":11132:11150   */\n      add\n        /* \"#utility.yul\":11125:11173   */\n      mstore\n        /* \"#utility.yul\":11190:11298   */\n      tag_436\n        /* \"#utility.yul\":11293:11297   */\n      dup2\n        /* \"#utility.yul\":11284:11290   */\n      dup5\n        /* \"#utility.yul\":11190:11298   */\n      tag_273\n      jump\t// in\n    tag_436:\n        /* \"#utility.yul\":11182:11298   */\n      swap1\n      pop\n        /* \"#utility.yul\":10671:11305   */\n      swap4\n      swap3\n      pop\n      pop\n      pop\n      jump\t// out\n        /* \"#utility.yul\":11311:11985   */\n    tag_48:\n        /* \"#utility.yul\":11391:11397   */\n      0x00\n        /* \"#utility.yul\":11399:11405   */\n      dup1\n        /* \"#utility.yul\":11407:11413   */\n      0x00\n        /* \"#utility.yul\":11456:11458   */\n      0x40\n        /* \"#utility.yul\":11444:11453   */\n      dup5\n        /* \"#utility.yul\":11435:11442   */\n      dup7\n        /* \"#utility.yul\":11431:11454   */\n      sub\n        /* \"#utility.yul\":11427:11459   */\n      slt\n        /* \"#utility.yul\":11424:11543   */\n      iszero\n      tag_438\n      jumpi\n        /* \"#utility.yul\":11462:11541   */\n      tag_439\n      tag_239\n      jump\t// in\n    tag_439:\n        /* \"#utility.yul\":11424:11543   */\n    tag_438:\n        /* \"#utility.yul\":11582:11583   */\n      0x00\n        /* \"#utility.yul\":11607:11660   */\n      tag_440\n        /* \"#utility.yul\":11652:11659   */\n      dup7\n        /* \"#utility.yul\":11643:11649   */\n      dup3\n        /* \"#utility.yul\":11632:11641   */\n      dup8\n        /* \"#utility.yul\":11628:11650   */\n      add\n        /* \"#utility.yul\":11607:11660   */\n      tag_243\n      jump\t// in\n    tag_440:\n        /* \"#utility.yul\":11597:11660   */\n      swap4\n      pop\n        /* \"#utility.yul\":11553:11670   */\n      pop\n        /* \"#utility.yul\":11737:11739   */\n      0x20\n        /* \"#utility.yul\":11726:11735   */\n      dup5\n        /* \"#utility.yul\":11722:11740   */\n      add\n        /* \"#utility.yul\":11709:11741   */\n      calldataload\n        /* \"#utility.yul\":11768:11786   */\n      0xffffffffffffffff\n        /* \"#utility.yul\":11760:11766   */\n      dup2\n        /* \"#utility.yul\":11757:11787   */\n      gt\n        /* \"#utility.yul\":11754:11871   */\n      iszero\n      tag_441\n      jumpi\n        /* \"#utility.yul\":11790:11869   */\n      tag_442\n      tag_240\n      jump\t// in\n    tag_442:\n        /* \"#utility.yul\":11754:11871   */\n    tag_441:\n        /* \"#utility.yul\":11903:11968   */\n      tag_443\n        /* \"#utility.yul\":11960:11967   */\n      dup7\n        /* \"#utility.yul\":11951:11957   */\n      dup3\n        /* \"#utility.yul\":11940:11949   */\n      dup8\n        /* \"#utility.yul\":11936:11958   */\n      add\n        /* \"#utility.yul\":11903:11968   */\n      tag_264\n      jump\t// in\n    tag_443:\n        /* \"#utility.yul\":11885:11968   */\n      swap3\n      pop\n      swap3\n      pop\n        /* \"#utility.yul\":11680:11978   */\n      pop\n        /* \"#utility.yul\":11311:11985   */\n      swap3\n      pop\n      swap3\n      pop\n      swap3\n      jump\t// out\n        /* \"#utility.yul\":11991:12105   */\n    tag_274:\n        /* \"#utility.yul\":12058:12064   */\n      0x00\n        /* \"#utility.yul\":12092:12097   */\n      dup2\n        /* \"#utility.yul\":12086:12098   */\n      mload\n        /* \"#utility.yul\":12076:12098   */\n      swap1\n      pop\n        /* \"#utility.yul\":11991:12105   */\n      swap2\n      swap1\n      pop\n      jump\t// out\n        /* \"#utility.yul\":12111:12295   */\n    tag_275:\n        /* \"#utility.yul\":12210:12221   */\n      0x00\n        /* \"#utility.yul\":12244:12250   */\n      dup3\n        /* \"#utility.yul\":12239:12242   */\n      dup3\n        /* \"#utility.yul\":12232:12251   */\n      mstore\n        /* \"#utility.yul\":12284:12288   */\n      0x20\n        /* \"#utility.yul\":12279:12282   */\n      dup3\n        /* \"#utility.yul\":12275:12289   */\n      add\n        /* \"#utility.yul\":12260:12289   */\n      swap1\n      pop\n        /* \"#utility.yul\":12111:12295   */\n      swap3\n      swap2\n      pop\n      pop\n      jump\t// out\n        /* \"#utility.yul\":12301:12433   */\n    tag_276:\n        /* \"#utility.yul\":12368:12372   */\n      0x00\n        /* \"#utility.yul\":12391:12394   */\n      dup2\n        /* \"#utility.yul\":12383:12394   */\n      swap1\n      pop\n        /* \"#utility.yul\":12421:12425   */\n      0x20\n        /* \"#utility.yul\":12416:12419   */\n      dup3\n        /* \"#utility.yul\":12412:12426   */\n      add\n        /* \"#utility.yul\":12404:12426   */\n      swap1\n      pop\n        /* \"#utility.yul\":12301:12433   */\n      swap2\n      swap1\n      pop\n      jump\t// out\n        /* \"#utility.yul\":12439:12547   */\n    tag_277:\n        /* \"#utility.yul\":12516:12540   */\n      tag_448\n        /* \"#utility.yul\":12534:12539   */\n      dup2\n        /* \"#utility.yul\":12516:12540   */\n      tag_246\n      jump\t// in\n    tag_448:\n        /* \"#utility.yul\":12511:12514   */\n      dup3\n        /* \"#utility.yul\":12504:12541   */\n      mstore\n        /* \"#utility.yul\":12439:12547   */\n      pop\n      pop\n      jump\t// out\n        /* \"#utility.yul\":12553:12732   */\n    tag_278:\n        /* \"#utility.yul\":12622:12632   */\n      0x00\n        /* \"#utility.yul\":12643:12689   */\n      tag_450\n        /* \"#utility.yul\":12685:12688   */\n      dup4\n        /* \"#utility.yul\":12677:12683   */\n      dup4\n        /* \"#utility.yul\":12643:12689   */\n      tag_277\n      jump\t// in\n    tag_450:\n        /* \"#utility.yul\":12721:12725   */\n      0x20\n        /* \"#utility.yul\":12716:12719   */\n      dup4\n        /* \"#utility.yul\":12712:12726   */\n      add\n        /* \"#utility.yul\":12698:12726   */\n      swap1\n      pop\n        /* \"#utility.yul\":12553:12732   */\n      swap3\n      swap2\n      pop\n      pop\n      jump\t// out\n        /* \"#utility.yul\":12738:12851   */\n    tag_279:\n        /* \"#utility.yul\":12808:12812   */\n      0x00\n        /* \"#utility.yul\":12840:12844   */\n      0x20\n        /* \"#utility.yul\":12835:12838   */\n      dup3\n        /* \"#utility.yul\":12831:12845   */\n      add\n        /* \"#utility.yul\":12823:12845   */\n      swap1\n      pop\n        /* \"#utility.yul\":12738:12851   */\n      swap2\n      swap1\n      pop\n      jump\t// out\n        /* \"#utility.yul\":12887:13619   */\n    tag_280:\n        /* \"#utility.yul\":13006:13009   */\n      0x00\n        /* \"#utility.yul\":13035:13089   */\n      tag_453\n        /* \"#utility.yul\":13083:13088   */\n      dup3\n        /* \"#utility.yul\":13035:13089   */\n      tag_274\n      jump\t// in\n    tag_453:\n        /* \"#utility.yul\":13105:13191   */\n      tag_454\n        /* \"#utility.yul\":13184:13190   */\n      dup2\n        /* \"#utility.yul\":13179:13182   */\n      dup6\n        /* \"#utility.yul\":13105:13191   */\n      tag_275\n      jump\t// in\n    tag_454:\n        /* \"#utility.yul\":13098:13191   */\n      swap4\n      pop\n        /* \"#utility.yul\":13215:13271   */\n      tag_455\n        /* \"#utility.yul\":13265:13270   */\n      dup4\n        /* \"#utility.yul\":13215:13271   */\n      tag_276\n      jump\t// in\n    tag_455:\n        /* \"#utility.yul\":13294:13301   */\n      dup1\n        /* \"#utility.yul\":13325:13326   */\n      0x00\n        /* \"#utility.yul\":13310:13594   */\n    tag_456:\n        /* \"#utility.yul\":13335:13341   */\n      dup4\n        /* \"#utility.yul\":13332:13333   */\n      dup2\n        /* \"#utility.yul\":13329:13342   */\n      lt\n        /* \"#utility.yul\":13310:13594   */\n      iszero\n      tag_458\n      jumpi\n        /* \"#utility.yul\":13411:13417   */\n      dup2\n        /* \"#utility.yul\":13405:13418   */\n      mload\n        /* \"#utility.yul\":13438:13501   */\n      tag_459\n        /* \"#utility.yul\":13497:13500   */\n      dup9\n        /* \"#utility.yul\":13482:13495   */\n      dup3\n        /* \"#utility.yul\":13438:13501   */\n      tag_278\n      jump\t// in\n    tag_459:\n        /* \"#utility.yul\":13431:13501   */\n      swap8\n      pop\n        /* \"#utility.yul\":13524:13584   */\n      tag_460\n        /* \"#utility.yul\":13577:13583   */\n      dup4\n        /* \"#utility.yul\":13524:13584   */\n      tag_279\n      jump\t// in\n    tag_460:\n        /* \"#utility.yul\":13514:13584   */\n      swap3\n      pop\n        /* \"#utility.yul\":13370:13594   */\n      pop\n        /* \"#utility.yul\":13357:13358   */\n      0x01\n        /* \"#utility.yul\":13354:13355   */\n      dup2\n        /* \"#utility.yul\":13350:13359   */\n      add\n        /* \"#utility.yul\":13345:13359   */\n      swap1\n      pop\n        /* \"#utility.yul\":13310:13594   */\n      jump(tag_456)\n    tag_458:\n        /* \"#utility.yul\":13314:13328   */\n      pop\n        /* \"#utility.yul\":13610:13613   */\n      dup6\n        /* \"#utility.yul\":13603:13613   */\n      swap4\n      pop\n        /* \"#utility.yul\":13011:13619   */\n      pop\n      pop\n      pop\n        /* \"#utility.yul\":12887:13619   */\n      swap3\n      swap2\n      pop\n      pop\n      jump\t// out\n        /* \"#utility.yul\":13625:15870   */\n    tag_54:\n        /* \"#utility.yul\":14334:14338   */\n      0x00\n        /* \"#utility.yul\":14372:14375   */\n      0x0100\n        /* \"#utility.yul\":14361:14370   */\n      dup3\n        /* \"#utility.yul\":14357:14376   */\n      add\n        /* \"#utility.yul\":14349:14376   */\n      swap1\n      pop\n        /* \"#utility.yul\":14422:14431   */\n      dup2\n        /* \"#utility.yul\":14416:14420   */\n      dup2\n        /* \"#utility.yul\":14412:14432   */\n      sub\n        /* \"#utility.yul\":14408:14409   */\n      0x00\n        /* \"#utility.yul\":14397:14406   */\n      dup4\n        /* \"#utility.yul\":14393:14410   */\n      add\n        /* \"#utility.yul\":14386:14433   */\n      mstore\n        /* \"#utility.yul\":14450:14558   */\n      tag_462\n        /* \"#utility.yul\":14553:14557   */\n      dup2\n        /* \"#utility.yul\":14544:14550   */\n      dup12\n        /* \"#utility.yul\":14450:14558   */\n      tag_273\n      jump\t// in\n    tag_462:\n        /* \"#utility.yul\":14442:14558   */\n      swap1\n      pop\n        /* \"#utility.yul\":14605:14614   */\n      dup2\n        /* \"#utility.yul\":14599:14603   */\n      dup2\n        /* \"#utility.yul\":14595:14615   */\n      sub\n        /* \"#utility.yul\":14590:14592   */\n      0x20\n        /* \"#utility.yul\":14579:14588   */\n      dup4\n        /* \"#utility.yul\":14575:14593   */\n      add\n        /* \"#utility.yul\":14568:14616   */\n      mstore\n        /* \"#utility.yul\":14633:14741   */\n      tag_463\n        /* \"#utility.yul\":14736:14740   */\n      dup2\n        /* \"#utility.yul\":14727:14733   */\n      dup11\n        /* \"#utility.yul\":14633:14741   */\n      tag_280\n      jump\t// in\n    tag_463:\n        /* \"#utility.yul\":14625:14741   */\n      swap1\n      pop\n        /* \"#utility.yul\":14788:14797   */\n      dup2\n        /* \"#utility.yul\":14782:14786   */\n      dup2\n        /* \"#utility.yul\":14778:14798   */\n      sub\n        /* \"#utility.yul\":14773:14775   */\n      0x40\n        /* \"#utility.yul\":14762:14771   */\n      dup4\n        /* \"#utility.yul\":14758:14776   */\n      add\n        /* \"#utility.yul\":14751:14799   */\n      mstore\n        /* \"#utility.yul\":14816:14944   */\n      tag_464\n        /* \"#utility.yul\":14939:14943   */\n      dup2\n        /* \"#utility.yul\":14930:14936   */\n      dup10\n        /* \"#utility.yul\":14816:14944   */\n      tag_260\n      jump\t// in\n    tag_464:\n        /* \"#utility.yul\":14808:14944   */\n      swap1\n      pop\n        /* \"#utility.yul\":14991:15000   */\n      dup2\n        /* \"#utility.yul\":14985:14989   */\n      dup2\n        /* \"#utility.yul\":14981:15001   */\n      sub\n        /* \"#utility.yul\":14976:14978   */\n      0x60\n        /* \"#utility.yul\":14965:14974   */\n      dup4\n        /* \"#utility.yul\":14961:14979   */\n      add\n        /* \"#utility.yul\":14954:15002   */\n      mstore\n        /* \"#utility.yul\":15019:15127   */\n      tag_465\n        /* \"#utility.yul\":15122:15126   */\n      dup2\n        /* \"#utility.yul\":15113:15119   */\n      dup9\n        /* \"#utility.yul\":15019:15127   */\n      tag_273\n      jump\t// in\n    tag_465:\n        /* \"#utility.yul\":15011:15127   */\n      swap1\n      pop\n        /* \"#utility.yul\":15175:15184   */\n      dup2\n        /* \"#utility.yul\":15169:15173   */\n      dup2\n        /* \"#utility.yul\":15165:15185   */\n      sub\n        /* \"#utility.yul\":15159:15162   */\n      0x80\n        /* \"#utility.yul\":15148:15157   */\n      dup4\n        /* \"#utility.yul\":15144:15163   */\n      add\n        /* \"#utility.yul\":15137:15186   */\n      mstore\n        /* \"#utility.yul\":15203:15311   */\n      tag_466\n        /* \"#utility.yul\":15306:15310   */\n      dup2\n        /* \"#utility.yul\":15297:15303   */\n      dup8\n        /* \"#utility.yul\":15203:15311   */\n      tag_273\n      jump\t// in\n    tag_466:\n        /* \"#utility.yul\":15195:15311   */\n      swap1\n      pop\n        /* \"#utility.yul\":15359:15368   */\n      dup2\n        /* \"#utility.yul\":15353:15357   */\n      dup2\n        /* \"#utility.yul\":15349:15369   */\n      sub\n        /* \"#utility.yul\":15343:15346   */\n      0xa0\n        /* \"#utility.yul\":15332:15341   */\n      dup4\n        /* \"#utility.yul\":15328:15347   */\n      add\n        /* \"#utility.yul\":15321:15370   */\n      mstore\n        /* \"#utility.yul\":15387:15495   */\n      tag_467\n        /* \"#utility.yul\":15490:15494   */\n      dup2\n        /* \"#utility.yul\":15481:15487   */\n      dup7\n        /* \"#utility.yul\":15387:15495   */\n      tag_273\n      jump\t// in\n    tag_467:\n        /* \"#utility.yul\":15379:15495   */\n      swap1\n      pop\n        /* \"#utility.yul\":15543:15552   */\n      dup2\n        /* \"#utility.yul\":15537:15541   */\n      dup2\n        /* \"#utility.yul\":15533:15553   */\n      sub\n        /* \"#utility.yul\":15527:15530   */\n      0xc0\n        /* \"#utility.yul\":15516:15525   */\n      dup4\n        /* \"#utility.yul\":15512:15531   */\n      add\n        /* \"#utility.yul\":15505:15554   */\n      mstore\n        /* \"#utility.yul\":15571:15679   */\n      tag_468\n        /* \"#utility.yul\":15674:15678   */\n      dup2\n        /* \"#utility.yul\":15665:15671   */\n      dup6\n        /* \"#utility.yul\":15571:15679   */\n      tag_273\n      jump\t// in\n    tag_468:\n        /* \"#utility.yul\":15563:15679   */\n      swap1\n      pop\n        /* \"#utility.yul\":15727:15736   */\n      dup2\n        /* \"#utility.yul\":15721:15725   */\n      dup2\n        /* \"#utility.yul\":15717:15737   */\n      sub\n        /* \"#utility.yul\":15711:15714   */\n      0xe0\n        /* \"#utility.yul\":15700:15709   */\n      dup4\n        /* \"#utility.yul\":15696:15715   */\n      add\n        /* \"#utility.yul\":15689:15738   */\n      mstore\n        /* \"#utility.yul\":15755:15863   */\n      tag_469\n        /* \"#utility.yul\":15858:15862   */\n      dup2\n        /* \"#utility.yul\":15849:15855   */\n      dup5\n        /* \"#utility.yul\":15755:15863   */\n      tag_273\n      jump\t// in\n    tag_469:\n        /* \"#utility.yul\":15747:15863   */\n      swap1\n      pop\n        /* \"#utility.yul\":13625:15870   */\n      swap10\n      swap9\n      pop\n      pop\n      pop\n      pop\n      pop\n      pop\n      pop\n      pop\n      pop\n      jump\t// out\n        /* \"#utility.yul\":15876:16045   */\n    tag_281:\n        /* \"#utility.yul\":16016:16037   */\n      0x426f6e6420646f6573206e6f7420657869737400000000000000000000000000\n        /* \"#utility.yul\":16012:16013   */\n      0x00\n        /* \"#utility.yul\":16004:16010   */\n      dup3\n        /* \"#utility.yul\":16000:16014   */\n      add\n        /* \"#utility.yul\":15993:16038   */\n      mstore\n        /* \"#utility.yul\":15876:16045   */\n      pop\n      jump\t// out\n        /* \"#utility.yul\":16051:16417   */\n    tag_282:\n        /* \"#utility.yul\":16193:16196   */\n      0x00\n        /* \"#utility.yul\":16214:16281   */\n      tag_472\n        /* \"#utility.yul\":16278:16280   */\n      0x13\n        /* \"#utility.yul\":16273:16276   */\n      dup4\n        /* \"#utility.yul\":16214:16281   */\n      tag_249\n      jump\t// in\n    tag_472:\n        /* \"#utility.yul\":16207:16281   */\n      swap2\n      pop\n        /* \"#utility.yul\":16290:16383   */\n      tag_473\n        /* \"#utility.yul\":16379:16382   */\n      dup3\n        /* \"#utility.yul\":16290:16383   */\n      tag_281\n      jump\t// in\n    tag_473:\n        /* \"#utility.yul\":16408:16410   */\n      0x20\n        /* \"#utility.yul\":16403:16406   */\n      dup3\n        /* \"#utility.yul\":16399:16411   */\n      add\n        /* \"#utility.yul\":16392:16411   */\n      swap1\n      pop\n        /* \"#utility.yul\":16051:16417   */\n      swap2\n      swap1\n      pop\n      jump\t// out\n        /* \"#utility.yul\":16423:16842   */\n    tag_62:\n        /* \"#utility.yul\":16589:16593   */\n      0x00\n        /* \"#utility.yul\":16627:16629   */\n      0x20\n        /* \"#utility.yul\":16616:16625   */\n      dup3\n        /* \"#utility.yul\":16612:16630   */\n      add\n        /* \"#utility.yul\":16604:16630   */\n      swap1\n      pop\n        /* \"#utility.yul\":16676:16685   */\n      dup2\n        /* \"#utility.yul\":16670:16674   */\n      dup2\n        /* \"#utility.yul\":16666:16686   */\n      sub\n        /* \"#utility.yul\":16662:16663   */\n      0x00\n        /* \"#utility.yul\":16651:16660   */\n      dup4\n        /* \"#utility.yul\":16647:16664   */\n      add\n        /* \"#utility.yul\":16640:16687   */\n      mstore\n        /* \"#utility.yul\":16704:16835   */\n      tag_475\n        /* \"#utility.yul\":16830:16834   */\n      dup2\n        /* \"#utility.yul\":16704:16835   */\n      tag_282\n      jump\t// in\n    tag_475:\n        /* \"#utility.yul\":16696:16835   */\n      swap1\n      pop\n        /* \"#utility.yul\":16423:16842   */\n      swap2\n      swap1\n      pop\n      jump\t// out\n        /* \"#utility.yul\":16848:17028   */\n    tag_283:\n        /* \"#utility.yul\":16896:16973   */\n      0x4e487b7100000000000000000000000000000000000000000000000000000000\n        /* \"#utility.yul\":16893:16894   */\n      0x00\n        /* \"#utility.yul\":16886:16974   */\n      mstore\n        /* \"#utility.yul\":16993:16997   */\n      0x22\n        /* \"#utility.yul\":16990:16991   */\n      0x04\n        /* \"#utility.yul\":16983:16998   */\n      mstore\n        /* \"#utility.yul\":17017:17021   */\n      0x24\n        /* \"#utility.yul\":17014:17015   */\n      0x00\n        /* \"#utility.yul\":17007:17022   */\n      revert\n        /* \"#utility.yul\":17034:17354   */\n    tag_65:\n        /* \"#utility.yul\":17078:17084   */\n      0x00\n        /* \"#utility.yul\":17115:17116   */\n      0x02\n        /* \"#utility.yul\":17109:17113   */\n      dup3\n        /* \"#utility.yul\":17105:17117   */\n      div\n        /* \"#utility.yul\":17095:17117   */\n      swap1\n      pop\n        /* \"#utility.yul\":17162:17163   */\n      0x01\n        /* \"#utility.yul\":17156:17160   */\n      dup3\n        /* \"#utility.yul\":17152:17164   */\n      and\n        /* \"#utility.yul\":17183:17201   */\n      dup1\n        /* \"#utility.yul\":17173:17254   */\n      tag_478\n      jumpi\n        /* \"#utility.yul\":17239:17243   */\n      0x7f\n        /* \"#utility.yul\":17231:17237   */\n      dup3\n        /* \"#utility.yul\":17227:17244   */\n      and\n        /* \"#utility.yul\":17217:17244   */\n      swap2\n      pop\n        /* \"#utility.yul\":17173:17254   */\n    tag_478:\n        /* \"#utility.yul\":17301:17303   */\n      0x20\n        /* \"#utility.yul\":17293:17299   */\n      dup3\n        /* \"#utility.yul\":17290:17304   */\n      lt\n        /* \"#utility.yul\":17270:17288   */\n      dup2\n        /* \"#utility.yul\":17267:17305   */\n      sub\n        /* \"#utility.yul\":17264:17348   */\n      tag_479\n      jumpi\n        /* \"#utility.yul\":17320:17338   */\n      tag_480\n      tag_283\n      jump\t// in\n    tag_480:\n        /* \"#utility.yul\":17264:17348   */\n    tag_479:\n        /* \"#utility.yul\":17085:17354   */\n      pop\n        /* \"#utility.yul\":17034:17354   */\n      swap2\n      swap1\n      pop\n      jump\t// out\n        /* \"#utility.yul\":17360:17540   */\n    tag_284:\n        /* \"#utility.yul\":17408:17485   */\n      0x4e487b7100000000000000000000000000000000000000000000000000000000\n        /* \"#utility.yul\":17405:17406   */\n      0x00\n        /* \"#utility.yul\":17398:17486   */\n      mstore\n        /* \"#utility.yul\":17505:17509   */\n      0x11\n        /* \"#utility.yul\":17502:17503   */\n      0x04\n        /* \"#utility.yul\":17495:17510   */\n      mstore\n        /* \"#utility.yul\":17529:17533   */\n      0x24\n        /* \"#utility.yul\":17526:17527   */\n      0x00\n        /* \"#utility.yul\":17519:17534   */\n      revert\n        /* \"#utility.yul\":17546:17956   */\n    tag_83:\n        /* \"#utility.yul\":17586:17593   */\n      0x00\n        /* \"#utility.yul\":17609:17629   */\n      tag_483\n        /* \"#utility.yul\":17627:17628   */\n      dup3\n        /* \"#utility.yul\":17609:17629   */\n      tag_241\n      jump\t// in\n    tag_483:\n        /* \"#utility.yul\":17604:17629   */\n      swap2\n      pop\n        /* \"#utility.yul\":17643:17663   */\n      tag_484\n        /* \"#utility.yul\":17661:17662   */\n      dup4\n        /* \"#utility.yul\":17643:17663   */\n      tag_241\n      jump\t// in\n    tag_484:\n        /* \"#utility.yul\":17638:17663   */\n      swap3\n      pop\n        /* \"#utility.yul\":17698:17699   */\n      dup3\n        /* \"#utility.yul\":17695:17696   */\n      dup3\n        /* \"#utility.yul\":17691:17700   */\n      mul\n        /* \"#utility.yul\":17720:17750   */\n      tag_485\n        /* \"#utility.yul\":17738:17749   */\n      dup2\n        /* \"#utility.yul\":17720:17750   */\n      tag_241\n      jump\t// in\n    tag_485:\n        /* \"#utility.yul\":17709:17750   */\n      swap2\n      pop\n        /* \"#utility.yul\":17899:17900   */\n      dup3\n        /* \"#utility.yul\":17890:17897   */\n      dup3\n        /* \"#utility.yul\":17886:17901   */\n      div\n        /* \"#utility.yul\":17883:17884   */\n      dup5\n        /* \"#utility.yul\":17880:17902   */\n      eq\n        /* \"#utility.yul\":17860:17861   */\n      dup4\n        /* \"#utility.yul\":17853:17862   */\n      iszero\n        /* \"#utility.yul\":17833:17916   */\n      or\n        /* \"#utility.yul\":17810:17949   */\n      tag_486\n      jumpi\n        /* \"#utility.yul\":17929:17947   */\n      tag_487\n      tag_284\n      jump\t// in\n    tag_487:\n        /* \"#utility.yul\":17810:17949   */\n    tag_486:\n        /* \"#utility.yul\":17594:17956   */\n      pop\n        /* \"#utility.yul\":17546:17956   */\n      swap3\n      swap2\n      pop\n      pop\n      jump\t// out\n        /* \"#utility.yul\":17962:18153   */\n    tag_87:\n        /* \"#utility.yul\":18002:18005   */\n      0x00\n        /* \"#utility.yul\":18021:18041   */\n      tag_489\n        /* \"#utility.yul\":18039:18040   */\n      dup3\n        /* \"#utility.yul\":18021:18041   */\n      tag_241\n      jump\t// in\n    tag_489:\n        /* \"#utility.yul\":18016:18041   */\n      swap2\n      pop\n        /* \"#utility.yul\":18055:18075   */\n      tag_490\n        /* \"#utility.yul\":18073:18074   */\n      dup4\n        /* \"#utility.yul\":18055:18075   */\n      tag_241\n      jump\t// in\n    tag_490:\n        /* \"#utility.yul\":18050:18075   */\n      swap3\n      pop\n        /* \"#utility.yul\":18098:18099   */\n      dup3\n        /* \"#utility.yul\":18095:18096   */\n      dup3\n        /* \"#utility.yul\":18091:18100   */\n      add\n        /* \"#utility.yul\":18084:18100   */\n      swap1\n      pop\n        /* \"#utility.yul\":18119:18122   */\n      dup1\n        /* \"#utility.yul\":18116:18117   */\n      dup3\n        /* \"#utility.yul\":18113:18123   */\n      gt\n        /* \"#utility.yul\":18110:18146   */\n      iszero\n      tag_491\n      jumpi\n        /* \"#utility.yul\":18126:18144   */\n      tag_492\n      tag_284\n      jump\t// in\n    tag_492:\n        /* \"#utility.yul\":18110:18146   */\n    tag_491:\n        /* \"#utility.yul\":17962:18153   */\n      swap3\n      swap2\n      pop\n      pop\n      jump\t// out\n        /* \"#utility.yul\":18159:18339   */\n    tag_285:\n        /* \"#utility.yul\":18207:18284   */\n      0x4e487b7100000000000000000000000000000000000000000000000000000000\n        /* \"#utility.yul\":18204:18205   */\n      0x00\n        /* \"#utility.yul\":18197:18285   */\n      mstore\n        /* \"#utility.yul\":18304:18308   */\n      0x12\n        /* \"#utility.yul\":18301:18302   */\n      0x04\n        /* \"#utility.yul\":18294:18309   */\n      mstore\n        /* \"#utility.yul\":18328:18332   */\n      0x24\n        /* \"#utility.yul\":18325:18326   */\n      0x00\n        /* \"#utility.yul\":18318:18333   */\n      revert\n        /* \"#utility.yul\":18345:18530   */\n    tag_92:\n        /* \"#utility.yul\":18385:18386   */\n      0x00\n        /* \"#utility.yul\":18402:18422   */\n      tag_495\n        /* \"#utility.yul\":18420:18421   */\n      dup3\n        /* \"#utility.yul\":18402:18422   */\n      tag_241\n      jump\t// in\n    tag_495:\n        /* \"#utility.yul\":18397:18422   */\n      swap2\n      pop\n        /* \"#utility.yul\":18436:18456   */\n      tag_496\n        /* \"#utility.yul\":18454:18455   */\n      dup4\n        /* \"#utility.yul\":18436:18456   */\n      tag_241\n      jump\t// in\n    tag_496:\n        /* \"#utility.yul\":18431:18456   */\n      swap3\n      pop\n        /* \"#utility.yul\":18475:18476   */\n      dup3\n        /* \"#utility.yul\":18465:18500   */\n      tag_497\n      jumpi\n        /* \"#utility.yul\":18480:18498   */\n      tag_498\n      tag_285\n      jump\t// in\n    tag_498:\n        /* \"#utility.yul\":18465:18500   */\n    tag_497:\n        /* \"#utility.yul\":18522:18523   */\n      dup3\n        /* \"#utility.yul\":18519:18520   */\n      dup3\n        /* \"#utility.yul\":18515:18524   */\n      div\n        /* \"#utility.yul\":18510:18524   */\n      swap1\n      pop\n        /* \"#utility.yul\":18345:18530   */\n      swap3\n      swap2\n      pop\n      pop\n      jump\t// out\n        /* \"#utility.yul\":18536:18702   */\n    tag_286:\n        /* \"#utility.yul\":18676:18694   */\n      0x4e616d6520697320726571756972656400000000000000000000000000000000\n        /* \"#utility.yul\":18672:18673   */\n      0x00\n        /* \"#utility.yul\":18664:18670   */\n      dup3\n        /* \"#utility.yul\":18660:18674   */\n      add\n        /* \"#utility.yul\":18653:18695   */\n      mstore\n        /* \"#utility.yul\":18536:18702   */\n      pop\n      jump\t// out\n        /* \"#utility.yul\":18708:19074   */\n    tag_287:\n        /* \"#utility.yul\":18850:18853   */\n      0x00\n        /* \"#utility.yul\":18871:18938   */\n      tag_501\n        /* \"#utility.yul\":18935:18937   */\n      0x10\n        /* \"#utility.yul\":18930:18933   */\n      dup4\n        /* \"#utility.yul\":18871:18938   */\n      tag_249\n      jump\t// in\n    tag_501:\n        /* \"#utility.yul\":18864:18938   */\n      swap2\n      pop\n        /* \"#utility.yul\":18947:19040   */\n      tag_502\n        /* \"#utility.yul\":19036:19039   */\n      dup3\n        /* \"#utility.yul\":18947:19040   */\n      tag_286\n      jump\t// in\n    tag_502:\n        /* \"#utility.yul\":19065:19067   */\n      0x20\n        /* \"#utility.yul\":19060:19063   */\n      dup3\n        /* \"#utility.yul\":19056:19068   */\n      add\n        /* \"#utility.yul\":19049:19068   */\n      swap1\n      pop\n        /* \"#utility.yul\":18708:19074   */\n      swap2\n      swap1\n      pop\n      jump\t// out\n        /* \"#utility.yul\":19080:19499   */\n    tag_107:\n        /* \"#utility.yul\":19246:19250   */\n      0x00\n        /* \"#utility.yul\":19284:19286   */\n      0x20\n        /* \"#utility.yul\":19273:19282   */\n      dup3\n        /* \"#utility.yul\":19269:19287   */\n      add\n        /* \"#utility.yul\":19261:19287   */\n      swap1\n      pop\n        /* \"#utility.yul\":19333:19342   */\n      dup2\n        /* \"#utility.yul\":19327:19331   */\n      dup2\n        /* \"#utility.yul\":19323:19343   */\n      sub\n        /* \"#utility.yul\":19319:19320   */\n      0x00\n        /* \"#utility.yul\":19308:19317   */\n      dup4\n        /* \"#utility.yul\":19304:19321   */\n      add\n        /* \"#utility.yul\":19297:19344   */\n      mstore\n        /* \"#utility.yul\":19361:19492   */\n      tag_504\n        /* \"#utility.yul\":19487:19491   */\n      dup2\n        /* \"#utility.yul\":19361:19492   */\n      tag_287\n      jump\t// in\n    tag_504:\n        /* \"#utility.yul\":19353:19492   */\n      swap1\n      pop\n        /* \"#utility.yul\":19080:19499   */\n      swap2\n      swap1\n      pop\n      jump\t// out\n        /* \"#utility.yul\":19505:19674   */\n    tag_288:\n        /* \"#utility.yul\":19645:19666   */\n      0x46756e64696e67206d757374206265203e203000000000000000000000000000\n        /* \"#utility.yul\":19641:19642   */\n      0x00\n        /* \"#utility.yul\":19633:19639   */\n      dup3\n        /* \"#utility.yul\":19629:19643   */\n      add\n        /* \"#utility.yul\":19622:19667   */\n      mstore\n        /* \"#utility.yul\":19505:19674   */\n      pop\n      jump\t// out\n        /* \"#utility.yul\":19680:20046   */\n    tag_289:\n        /* \"#utility.yul\":19822:19825   */\n      0x00\n        /* \"#utility.yul\":19843:19910   */\n      tag_507\n        /* \"#utility.yul\":19907:19909   */\n      0x13\n        /* \"#utility.yul\":19902:19905   */\n      dup4\n        /* \"#utility.yul\":19843:19910   */\n      tag_249\n      jump\t// in\n    tag_507:\n        /* \"#utility.yul\":19836:19910   */\n      swap2\n      pop\n        /* \"#utility.yul\":19919:20012   */\n      tag_508\n        /* \"#utility.yul\":20008:20011   */\n      dup3\n        /* \"#utility.yul\":19919:20012   */\n      tag_288\n      jump\t// in\n    tag_508:\n        /* \"#utility.yul\":20037:20039   */\n      0x20\n        /* \"#utility.yul\":20032:20035   */\n      dup3\n        /* \"#utility.yul\":20028:20040   */\n      add\n        /* \"#utility.yul\":20021:20040   */\n      swap1\n      pop\n        /* \"#utility.yul\":19680:20046   */\n      swap2\n      swap1\n      pop\n      jump\t// out\n        /* \"#utility.yul\":20052:20471   */\n    tag_110:\n        /* \"#utility.yul\":20218:20222   */\n      0x00\n        /* \"#utility.yul\":20256:20258   */\n      0x20\n        /* \"#utility.yul\":20245:20254   */\n      dup3\n        /* \"#utility.yul\":20241:20259   */\n      add\n        /* \"#utility.yul\":20233:20259   */\n      swap1\n      pop\n        /* \"#utility.yul\":20305:20314   */\n      dup2\n        /* \"#utility.yul\":20299:20303   */\n      dup2\n        /* \"#utility.yul\":20295:20315   */\n      sub\n        /* \"#utility.yul\":20291:20292   */\n      0x00\n        /* \"#utility.yul\":20280:20289   */\n      dup4\n        /* \"#utility.yul\":20276:20293   */\n      add\n        /* \"#utility.yul\":20269:20316   */\n      mstore\n        /* \"#utility.yul\":20333:20464   */\n      tag_510\n        /* \"#utility.yul\":20459:20463   */\n      dup2\n        /* \"#utility.yul\":20333:20464   */\n      tag_289\n      jump\t// in\n    tag_510:\n        /* \"#utility.yul\":20325:20464   */\n      swap1\n      pop\n        /* \"#utility.yul\":20052:20471   */\n      swap2\n      swap1\n      pop\n      jump\t// out\n        /* \"#utility.yul\":20477:20647   */\n    tag_290:\n        /* \"#utility.yul\":20617:20639   */\n      0x4475726174696f6e206d757374206265203e2030000000000000000000000000\n        /* \"#utility.yul\":20613:20614   */\n      0x00\n        /* \"#utility.yul\":20605:20611   */\n      dup3\n        /* \"#utility.yul\":20601:20615   */\n      add\n        /* \"#utility.yul\":20594:20640   */\n      mstore\n        /* \"#utility.yul\":20477:20647   */\n      pop\n      jump\t// out\n        /* \"#utility.yul\":20653:21019   */\n    tag_291:\n        /* \"#utility.yul\":20795:20798   */\n      0x00\n        /* \"#utility.yul\":20816:20883   */\n      tag_513\n        /* \"#utility.yul\":20880:20882   */\n      0x14\n        /* \"#utility.yul\":20875:20878   */\n      dup4\n        /* \"#utility.yul\":20816:20883   */\n      tag_249\n      jump\t// in\n    tag_513:\n        /* \"#utility.yul\":20809:20883   */\n      swap2\n      pop\n        /* \"#utility.yul\":20892:20985   */\n      tag_514\n        /* \"#utility.yul\":20981:20984   */\n      dup3\n        /* \"#utility.yul\":20892:20985   */\n      tag_290\n      jump\t// in\n    tag_514:\n        /* \"#utility.yul\":21010:21012   */\n      0x20\n        /* \"#utility.yul\":21005:21008   */\n      dup3\n        /* \"#utility.yul\":21001:21013   */\n      add\n        /* \"#utility.yul\":20994:21013   */\n      swap1\n      pop\n        /* \"#utility.yul\":20653:21019   */\n      swap2\n      swap1\n      pop\n      jump\t// out\n        /* \"#utility.yul\":21025:21444   */\n    tag_113:\n        /* \"#utility.yul\":21191:21195   */\n      0x00\n        /* \"#utility.yul\":21229:21231   */\n      0x20\n        /* \"#utility.yul\":21218:21227   */\n      dup3\n        /* \"#utility.yul\":21214:21232   */\n      add\n        /* \"#utility.yul\":21206:21232   */\n      swap1\n      pop\n        /* \"#utility.yul\":21278:21287   */\n      dup2\n        /* \"#utility.yul\":21272:21276   */\n      dup2\n        /* \"#utility.yul\":21268:21288   */\n      sub\n        /* \"#utility.yul\":21264:21265   */\n      0x00\n        /* \"#utility.yul\":21253:21262   */\n      dup4\n        /* \"#utility.yul\":21249:21266   */\n      add\n        /* \"#utility.yul\":21242:21289   */\n      mstore\n        /* \"#utility.yul\":21306:21437   */\n      tag_516\n        /* \"#utility.yul\":21432:21436   */\n      dup2\n        /* \"#utility.yul\":21306:21437   */\n      tag_291\n      jump\t// in\n    tag_516:\n        /* \"#utility.yul\":21298:21437   */\n      swap1\n      pop\n        /* \"#utility.yul\":21025:21444   */\n      swap2\n      swap1\n      pop\n      jump\t// out\n        /* \"#utility.yul\":21450:21683   */\n    tag_115:\n        /* \"#utility.yul\":21489:21492   */\n      0x00\n        /* \"#utility.yul\":21512:21536   */\n      tag_518\n        /* \"#utility.yul\":21530:21535   */\n      dup3\n        /* \"#utility.yul\":21512:21536   */\n      tag_241\n      jump\t// in\n    tag_518:\n        /* \"#utility.yul\":21503:21536   */\n      swap2\n      pop\n        /* \"#utility.yul\":21558:21624   */\n      0xffffffffffffffffffffffffffffffffffffffffffffffffffffffffffffffff\n        /* \"#utility.yul\":21551:21556   */\n      dup3\n        /* \"#utility.yul\":21548:21625   */\n      sub\n        /* \"#utility.yul\":21545:21648   */\n      tag_519\n      jumpi\n        /* \"#utility.yul\":21628:21646   */\n      tag_520\n      tag_284\n      jump\t// in\n    tag_520:\n        /* \"#utility.yul\":21545:21648   */\n    tag_519:\n        /* \"#utility.yul\":21675:21676   */\n      0x01\n        /* \"#utility.yul\":21668:21673   */\n      dup3\n        /* \"#utility.yul\":21664:21677   */\n      add\n        /* \"#utility.yul\":21657:21677   */\n      swap1\n      pop\n        /* \"#utility.yul\":21450:21683   */\n      swap2\n      swap1\n      pop\n      jump\t// out\n        /* \"#utility.yul\":21689:21786   */\n    tag_292:\n        /* \"#utility.yul\":21748:21754   */\n      0x00\n        /* \"#utility.yul\":21776:21779   */\n      dup3\n        /* \"#utility.yul\":21766:21779   */\n      swap1\n      pop\n        /* \"#utility.yul\":21689:21786   */\n      swap3\n      swap2\n      pop\n      pop\n      jump\t// out\n        /* \"#utility.yul\":21792:21972   */\n    tag_151:\n        /* \"#utility.yul\":21840:21917   */\n      0x4e487b7100000000000000000000000000000000000000000000000000000000\n        /* \"#utility.yul\":21837:21838   */\n      0x00\n        /* \"#utility.yul\":21830:21918   */\n      mstore\n        /* \"#utility.yul\":21937:21941   */\n      0x41\n        /* \"#utility.yul\":21934:21935   */\n      0x04\n        /* \"#utility.yul\":21927:21942   */\n      mstore\n        /* \"#utility.yul\":21961:21965   */\n      0x24\n        /* \"#utility.yul\":21958:21959   */\n      0x00\n        /* \"#utility.yul\":21951:21966   */\n      revert\n        /* \"#utility.yul\":21978:22119   */\n    tag_293:\n        /* \"#utility.yul\":22027:22031   */\n      0x00\n        /* \"#utility.yul\":22050:22053   */\n      dup2\n        /* \"#utility.yul\":22042:22053   */\n      swap1\n      pop\n        /* \"#utility.yul\":22073:22076   */\n      dup2\n        /* \"#utility.yul\":22070:22071   */\n      0x00\n        /* \"#utility.yul\":22063:22077   */\n      mstore\n        /* \"#utility.yul\":22107:22111   */\n      0x20\n        /* \"#utility.yul\":22104:22105   */\n      0x00\n        /* \"#utility.yul\":22094:22112   */\n      keccak256\n        /* \"#utility.yul\":22086:22112   */\n      swap1\n      pop\n        /* \"#utility.yul\":21978:22119   */\n      swap2\n      swap1\n      pop\n      jump\t// out\n        /* \"#utility.yul\":22125:22218   */\n    tag_294:\n        /* \"#utility.yul\":22162:22168   */\n      0x00\n        /* \"#utility.yul\":22209:22211   */\n      0x20\n        /* \"#utility.yul\":22204:22206   */\n      0x1f\n        /* \"#utility.yul\":22197:22202   */\n      dup4\n        /* \"#utility.yul\":22193:22207   */\n      add\n        /* \"#utility.yul\":22189:22212   */\n      div\n        /* \"#utility.yul\":22179:22212   */\n      swap1\n      pop\n        /* \"#utility.yul\":22125:22218   */\n      swap2\n      swap1\n      pop\n      jump\t// out\n        /* \"#utility.yul\":22224:22331   */\n    tag_295:\n        /* \"#utility.yul\":22268:22276   */\n      0x00\n        /* \"#utility.yul\":22318:22323   */\n      dup3\n        /* \"#utility.yul\":22312:22316   */\n      dup3\n        /* \"#utility.yul\":22308:22324   */\n      shl\n        /* \"#utility.yul\":22287:22324   */\n      swap1\n      pop\n        /* \"#utility.yul\":22224:22331   */\n      swap3\n      swap2\n      pop\n      pop\n      jump\t// out\n        /* \"#utility.yul\":22337:22730   */\n    tag_296:\n        /* \"#utility.yul\":22406:22412   */\n      0x00\n        /* \"#utility.yul\":22456:22457   */\n      0x08\n        /* \"#utility.yul\":22444:22454   */\n      dup4\n        /* \"#utility.yul\":22440:22458   */\n      mul\n        /* \"#utility.yul\":22479:22576   */\n      tag_527\n        /* \"#utility.yul\":22509:22575   */\n      0xffffffffffffffffffffffffffffffffffffffffffffffffffffffffffffffff\n        /* \"#utility.yul\":22498:22507   */\n      dup3\n        /* \"#utility.yul\":22479:22576   */\n      tag_295\n      jump\t// in\n    tag_527:\n        /* \"#utility.yul\":22597:22636   */\n      tag_528\n        /* \"#utility.yul\":22627:22635   */\n      dup7\n        /* \"#utility.yul\":22616:22625   */\n      dup4\n        /* \"#utility.yul\":22597:22636   */\n      tag_295\n      jump\t// in\n    tag_528:\n        /* \"#utility.yul\":22585:22636   */\n      swap6\n      pop\n        /* \"#utility.yul\":22669:22673   */\n      dup1\n        /* \"#utility.yul\":22665:22674   */\n      not\n        /* \"#utility.yul\":22658:22663   */\n      dup5\n        /* \"#utility.yul\":22654:22675   */\n      and\n        /* \"#utility.yul\":22645:22675   */\n      swap4\n      pop\n        /* \"#utility.yul\":22718:22722   */\n      dup1\n        /* \"#utility.yul\":22708:22716   */\n      dup7\n        /* \"#utility.yul\":22704:22723   */\n      and\n        /* \"#utility.yul\":22697:22702   */\n      dup5\n        /* \"#utility.yul\":22694:22724   */\n      or\n        /* \"#utility.yul\":22684:22724   */\n      swap3\n      pop\n        /* \"#utility.yul\":22413:22730   */\n      pop\n      pop\n        /* \"#utility.yul\":22337:22730   */\n      swap4\n      swap3\n      pop\n      pop\n      pop\n      jump\t// out\n        /* \"#utility.yul\":22736:22796   */\n    tag_297:\n        /* \"#utility.yul\":22764:22767   */\n      0x00\n        /* \"#utility.yul\":22785:22790   */\n      dup2\n        /* \"#utility.yul\":22778:22790   */\n      swap1\n      pop\n        /* \"#utility.yul\":22736:22796   */\n      swap2\n      swap1\n      pop\n      jump\t// out\n        /* \"#utility.yul\":22802:22944   */\n    tag_298:\n        /* \"#utility.yul\":22852:22861   */\n      0x00\n        /* \"#utility.yul\":22885:22938   */\n      tag_531\n        /* \"#utility.yul\":22903:22937   */\n      tag_532\n        /* \"#utility.yul\":22912:22936   */\n      tag_533\n        /* \"#utility.yul\":22930:22935   */\n      dup5\n        /* \"#utility.yul\":22912:22936   */\n      tag_241\n      jump\t// in\n    tag_533:\n        /* \"#utility.yul\":22903:22937   */\n      tag_297\n      jump\t// in\n    tag_532:\n        /* \"#utility.yul\":22885:22938   */\n      tag_241\n      jump\t// in\n    tag_531:\n        /* \"#utility.yul\":22872:22938   */\n      swap1\n      pop\n        /* \"#utility.yul\":22802:22944   */\n      swap2\n      swap1\n      pop\n      jump\t// out\n        /* \"#utility.yul\":22950:23025   */\n    tag_299:\n        /* \"#utility.yul\":22993:22996   */\n      0x00\n        /* \"#utility.yul\":23014:23019   */\n      dup2\n        /* \"#utility.yul\":23007:23019   */\n      swap1\n      pop\n        /* \"#utility.yul\":22950:23025   */\n      swap2\n      swap1\n      pop\n      jump\t// out\n        /* \"#utility.yul\":23031:23300   */\n    tag_300:\n        /* \"#utility.yul\":23141:23180   */\n      tag_536\n        /* \"#utility.yul\":23172:23179   */\n      dup4\n        /* \"#utility.yul\":23141:23180   */\n      tag_298\n      jump\t// in\n    tag_536:\n        /* \"#utility.yul\":23202:23293   */\n      tag_537\n        /* \"#utility.yul\":23251:23292   */\n      tag_538\n        /* \"#utility.yul\":23275:23291   */\n      dup3\n        /* \"#utility.yul\":23251:23292   */\n      tag_299\n      jump\t// in\n    tag_538:\n        /* \"#utility.yul\":23243:23249   */\n      dup5\n        /* \"#utility.yul\":23236:23240   */\n      dup5\n        /* \"#utility.yul\":23230:23241   */\n      sload\n        /* \"#utility.yul\":23202:23293   */\n      tag_296\n      jump\t// in\n    tag_537:\n        /* \"#utility.yul\":23196:23200   */\n      dup3\n        /* \"#utility.yul\":23189:23294   */\n      sstore\n        /* \"#utility.yul\":23107:23300   */\n      pop\n        /* \"#utility.yul\":23031:23300   */\n      pop\n      pop\n      pop\n      jump\t// out\n        /* \"#utility.yul\":23306:23379   */\n    tag_301:\n        /* \"#utility.yul\":23351:23354   */\n      0x00\n        /* \"#utility.yul\":23306:23379   */\n      swap1\n      jump\t// out\n        /* \"#utility.yul\":23385:23574   */\n    tag_302:\n        /* \"#utility.yul\":23462:23494   */\n      tag_541\n      tag_301\n      jump\t// in\n    tag_541:\n        /* \"#utility.yul\":23503:23568   */\n      tag_542\n        /* \"#utility.yul\":23561:23567   */\n      dup2\n        /* \"#utility.yul\":23553:23559   */\n      dup5\n        /* \"#utility.yul\":23547:23551   */\n      dup5\n        /* \"#utility.yul\":23503:23568   */\n      tag_300\n      jump\t// in\n    tag_542:\n        /* \"#utility.yul\":23438:23574   */\n      pop\n        /* \"#utility.yul\":23385:23574   */\n      pop\n      pop\n      jump\t// out\n        /* \"#utility.yul\":23580:23766   */\n    tag_303:\n        /* \"#utility.yul\":23640:23760   */\n    tag_544:\n        /* \"#utility.yul\":23657:23660   */\n      dup2\n        /* \"#utility.yul\":23650:23655   */\n      dup2\n        /* \"#utility.yul\":23647:23661   */\n      lt\n        /* \"#utility.yul\":23640:23760   */\n      iszero\n      tag_546\n      jumpi\n        /* \"#utility.yul\":23711:23750   */\n      tag_547\n        /* \"#utility.yul\":23748:23749   */\n      0x00\n        /* \"#utility.yul\":23741:23746   */\n      dup3\n        /* \"#utility.yul\":23711:23750   */\n      tag_302\n      jump\t// in\n    tag_547:\n        /* \"#utility.yul\":23684:23685   */\n      0x01\n        /* \"#utility.yul\":23677:23682   */\n      dup2\n        /* \"#utility.yul\":23673:23686   */\n      add\n        /* \"#utility.yul\":23664:23686   */\n      swap1\n      pop\n        /* \"#utility.yul\":23640:23760   */\n      jump(tag_544)\n    tag_546:\n        /* \"#utility.yul\":23580:23766   */\n      pop\n      pop\n      jump\t// out\n        /* \"#utility.yul\":23772:24315   */\n    tag_304:\n        /* \"#utility.yul\":23873:23875   */\n      0x1f\n        /* \"#utility.yul\":23868:23871   */\n      dup3\n        /* \"#utility.yul\":23865:23876   */\n      gt\n        /* \"#utility.yul\":23862:24308   */\n      iszero\n      tag_549\n      jumpi\n        /* \"#utility.yul\":23907:23945   */\n      tag_550\n        /* \"#utility.yul\":23939:23944   */\n      dup2\n        /* \"#utility.yul\":23907:23945   */\n      tag_293\n      jump\t// in\n    tag_550:\n        /* \"#utility.yul\":23991:24020   */\n      tag_551\n        /* \"#utility.yul\":24009:24019   */\n      dup5\n        /* \"#utility.yul\":23991:24020   */\n      tag_294\n      jump\t// in\n    tag_551:\n        /* \"#utility.yul\":23981:23989   */\n      dup2\n        /* \"#utility.yul\":23977:24021   */\n      add\n        /* \"#utility.yul\":24174:24176   */\n      0x20\n        /* \"#utility.yul\":24162:24172   */\n      dup6\n        /* \"#utility.yul\":24159:24177   */\n      lt\n        /* \"#utility.yul\":24156:24205   */\n      iszero\n      tag_552\n      jumpi\n        /* \"#utility.yul\":24195:24203   */\n      dup2\n        /* \"#utility.yul\":24180:24203   */\n      swap1\n      pop\n        /* \"#utility.yul\":24156:24205   */\n    tag_552:\n        /* \"#utility.yul\":24218:24298   */\n      tag_553\n        /* \"#utility.yul\":24274:24296   */\n      tag_554\n        /* \"#utility.yul\":24292:24295   */\n      dup6\n        /* \"#utility.yul\":24274:24296   */\n      tag_294\n      jump\t// in\n    tag_554:\n        /* \"#utility.yul\":24264:24272   */\n      dup4\n        /* \"#utility.yul\":24260:24297   */\n      add\n        /* \"#utility.yul\":24247:24258   */\n      dup3\n        /* \"#utility.yul\":24218:24298   */\n      tag_303\n      jump\t// in\n    tag_553:\n        /* \"#utility.yul\":23877:24308   */\n      pop\n      pop\n        /* \"#utility.yul\":23862:24308   */\n    tag_549:\n        /* \"#utility.yul\":23772:24315   */\n      pop\n      pop\n      pop\n      jump\t// out\n        /* \"#utility.yul\":24321:24438   */\n    tag_305:\n        /* \"#utility.yul\":24375:24383   */\n      0x00\n        /* \"#utility.yul\":24425:24430   */\n      dup3\n        /* \"#utility.yul\":24419:24423   */\n      dup3\n        /* \"#utility.yul\":24415:24431   */\n      shr\n        /* \"#utility.yul\":24394:24431   */\n      swap1\n      pop\n        /* \"#utility.yul\":24321:24438   */\n      swap3\n      swap2\n      pop\n      pop\n      jump\t// out\n        /* \"#utility.yul\":24444:24613   */\n    tag_306:\n        /* \"#utility.yul\":24488:24494   */\n      0x00\n        /* \"#utility.yul\":24521:24572   */\n      tag_557\n        /* \"#utility.yul\":24569:24570   */\n      0x00\n        /* \"#utility.yul\":24565:24571   */\n      not\n        /* \"#utility.yul\":24557:24562   */\n      dup5\n        /* \"#utility.yul\":24554:24555   */\n      0x08\n        /* \"#utility.yul\":24550:24563   */\n      mul\n        /* \"#utility.yul\":24521:24572   */\n      tag_305\n      jump\t// in\n    tag_557:\n        /* \"#utility.yul\":24517:24573   */\n      not\n        /* \"#utility.yul\":24602:24606   */\n      dup1\n        /* \"#utility.yul\":24596:24600   */\n      dup4\n        /* \"#utility.yul\":24592:24607   */\n      and\n        /* \"#utility.yul\":24582:24607   */\n      swap2\n      pop\n        /* \"#utility.yul\":24495:24613   */\n      pop\n        /* \"#utility.yul\":24444:24613   */\n      swap3\n      swap2\n      pop\n      pop\n      jump\t// out\n        /* \"#utility.yul\":24618:24913   */\n    tag_307:\n        /* \"#utility.yul\":24694:24698   */\n      0x00\n        /* \"#utility.yul\":24840:24869   */\n      tag_559\n        /* \"#utility.yul\":24865:24868   */\n      dup4\n        /* \"#utility.yul\":24859:24863   */\n      dup4\n        /* \"#utility.yul\":24840:24869   */\n      tag_306\n      jump\t// in\n    tag_559:\n        /* \"#utility.yul\":24832:24869   */\n      swap2\n      pop\n        /* \"#utility.yul\":24902:24905   */\n      dup3\n        /* \"#utility.yul\":24899:24900   */\n      0x02\n        /* \"#utility.yul\":24895:24906   */\n      mul\n        /* \"#utility.yul\":24889:24893   */\n      dup3\n        /* \"#utility.yul\":24886:24907   */\n      or\n        /* \"#utility.yul\":24878:24907   */\n      swap1\n      pop\n        /* \"#utility.yul\":24618:24913   */\n      swap3\n      swap2\n      pop\n      pop\n      jump\t// out\n        /* \"#utility.yul\":24918:26321   */\n    tag_117:\n        /* \"#utility.yul\":25042:25086   */\n      tag_561\n        /* \"#utility.yul\":25082:25085   */\n      dup4\n        /* \"#utility.yul\":25077:25080   */\n      dup4\n        /* \"#utility.yul\":25042:25086   */\n      tag_292\n      jump\t// in\n    tag_561:\n        /* \"#utility.yul\":25151:25169   */\n      0xffffffffffffffff\n        /* \"#utility.yul\":25143:25149   */\n      dup2\n        /* \"#utility.yul\":25140:25170   */\n      gt\n        /* \"#utility.yul\":25137:25193   */\n      iszero\n      tag_562\n      jumpi\n        /* \"#utility.yul\":25173:25191   */\n      tag_563\n      tag_151\n      jump\t// in\n    tag_563:\n        /* \"#utility.yul\":25137:25193   */\n    tag_562:\n        /* \"#utility.yul\":25217:25255   */\n      tag_564\n        /* \"#utility.yul\":25249:25253   */\n      dup3\n        /* \"#utility.yul\":25243:25254   */\n      sload\n        /* \"#utility.yul\":25217:25255   */\n      tag_65\n      jump\t// in\n    tag_564:\n        /* \"#utility.yul\":25302:25369   */\n      tag_565\n        /* \"#utility.yul\":25362:25368   */\n      dup3\n        /* \"#utility.yul\":25354:25360   */\n      dup3\n        /* \"#utility.yul\":25348:25352   */\n      dup6\n        /* \"#utility.yul\":25302:25369   */\n      tag_304\n      jump\t// in\n    tag_565:\n        /* \"#utility.yul\":25396:25397   */\n      0x00\n        /* \"#utility.yul\":25425:25427   */\n      0x1f\n        /* \"#utility.yul\":25417:25423   */\n      dup4\n        /* \"#utility.yul\":25414:25428   */\n      gt\n        /* \"#utility.yul\":25442:25443   */\n      0x01\n        /* \"#utility.yul\":25437:26069   */\n      dup2\n      eq\n      tag_567\n      jumpi\n        /* \"#utility.yul\":26113:26114   */\n      0x00\n        /* \"#utility.yul\":26130:26136   */\n      dup5\n        /* \"#utility.yul\":26127:26211   */\n      iszero\n      tag_568\n      jumpi\n        /* \"#utility.yul\":26186:26195   */\n      dup3\n        /* \"#utility.yul\":26181:26184   */\n      dup8\n        /* \"#utility.yul\":26177:26196   */\n      add\n        /* \"#utility.yul\":26164:26197   */\n      calldataload\n        /* \"#utility.yul\":26155:26197   */\n      swap1\n      pop\n        /* \"#utility.yul\":26127:26211   */\n    tag_568:\n        /* \"#utility.yul\":26237:26304   */\n      tag_569\n        /* \"#utility.yul\":26297:26303   */\n      dup6\n        /* \"#utility.yul\":26290:26295   */\n      dup3\n        /* \"#utility.yul\":26237:26304   */\n      tag_307\n      jump\t// in\n    tag_569:\n        /* \"#utility.yul\":26231:26235   */\n      dup7\n        /* \"#utility.yul\":26224:26305   */\n      sstore\n        /* \"#utility.yul\":26086:26315   */\n      pop\n        /* \"#utility.yul\":25407:26315   */\n      jump(tag_566)\n        /* \"#utility.yul\":25437:26069   */\n    tag_567:\n        /* \"#utility.yul\":25489:25493   */\n      0x1f\n        /* \"#utility.yul\":25485:25494   */\n      not\n        /* \"#utility.yul\":25477:25483   */\n      dup5\n        /* \"#utility.yul\":25473:25495   */\n      and\n        /* \"#utility.yul\":25523:25560   */\n      tag_570\n        /* \"#utility.yul\":25555:25559   */\n      dup7\n        /* \"#utility.yul\":25523:25560   */\n      tag_293\n      jump\t// in\n    tag_570:\n        /* \"#utility.yul\":25582:25583   */\n      0x00\n        /* \"#utility.yul\":25596:25811   */\n    tag_571:\n        /* \"#utility.yul\":25610:25617   */\n      dup3\n        /* \"#utility.yul\":25607:25608   */\n      dup2\n        /* \"#utility.yul\":25604:25618   */\n      lt\n        /* \"#utility.yul\":25596:25811   */\n      iszero\n      tag_573\n      jumpi\n        /* \"#utility.yul\":25696:25705   */\n      dup5\n        /* \"#utility.yul\":25691:25694   */\n      dup10\n        /* \"#utility.yul\":25687:25706   */\n      add\n        /* \"#utility.yul\":25674:25707   */\n      calldataload\n        /* \"#utility.yul\":25666:25672   */\n      dup3\n        /* \"#utility.yul\":25659:25708   */\n      sstore\n        /* \"#utility.yul\":25747:25748   */\n      0x01\n        /* \"#utility.yul\":25739:25745   */\n      dup3\n        /* \"#utility.yul\":25735:25749   */\n      add\n        /* \"#utility.yul\":25725:25749   */\n      swap2\n      pop\n        /* \"#utility.yul\":25794:25796   */\n      0x20\n        /* \"#utility.yul\":25783:25792   */\n      dup6\n        /* \"#utility.yul\":25779:25797   */\n      add\n        /* \"#utility.yul\":25766:25797   */\n      swap5\n      pop\n        /* \"#utility.yul\":25633:25637   */\n      0x20\n        /* \"#utility.yul\":25630:25631   */\n      dup2\n        /* \"#utility.yul\":25626:25638   */\n      add\n        /* \"#utility.yul\":25621:25638   */\n      swap1\n      pop\n        /* \"#utility.yul\":25596:25811   */\n      jump(tag_571)\n    tag_573:\n        /* \"#utility.yul\":25839:25845   */\n      dup7\n        /* \"#utility.yul\":25830:25837   */\n      dup4\n        /* \"#utility.yul\":25827:25846   */\n      lt\n        /* \"#utility.yul\":25824:26010   */\n      iszero\n      tag_574\n      jumpi\n        /* \"#utility.yul\":25904:25913   */\n      dup5\n        /* \"#utility.yul\":25899:25902   */\n      dup10\n        /* \"#utility.yul\":25895:25914   */\n      add\n        /* \"#utility.yul\":25882:25915   */\n      calldataload\n        /* \"#utility.yul\":25947:25995   */\n      tag_575\n        /* \"#utility.yul\":25989:25993   */\n      0x1f\n        /* \"#utility.yul\":25981:25987   */\n      dup10\n        /* \"#utility.yul\":25977:25994   */\n      and\n        /* \"#utility.yul\":25966:25975   */\n      dup3\n        /* \"#utility.yul\":25947:25995   */\n      tag_306\n      jump\t// in\n    tag_575:\n        /* \"#utility.yul\":25939:25945   */\n      dup4\n        /* \"#utility.yul\":25932:25996   */\n      sstore\n        /* \"#utility.yul\":25847:26010   */\n      pop\n        /* \"#utility.yul\":25824:26010   */\n    tag_574:\n        /* \"#utility.yul\":26056:26057   */\n      0x01\n        /* \"#utility.yul\":26052:26053   */\n      0x02\n        /* \"#utility.yul\":26044:26050   */\n      dup9\n        /* \"#utility.yul\":26040:26054   */\n      mul\n        /* \"#utility.yul\":26036:26058   */\n      add\n        /* \"#utility.yul\":26030:26034   */\n      dup9\n        /* \"#utility.yul\":26023:26059   */\n      sstore\n        /* \"#utility.yul\":25444:26069   */\n      pop\n      pop\n      pop\n        /* \"#utility.yul\":25407:26315   */\n    tag_566:\n      pop\n        /* \"#utility.yul\":25017:26321   */\n      pop\n      pop\n      pop\n        /* \"#utility.yul\":24918:26321   */\n      pop\n      pop\n      pop\n      jump\t// out\n        /* \"#utility.yul\":26327:26473   */\n    tag_308:\n        /* \"#utility.yul\":26424:26430   */\n      dup3\n        /* \"#utility.yul\":26419:26422   */\n      dup2\n        /* \"#utility.yul\":26414:26417   */\n      dup4\n        /* \"#utility.yul\":26401:26431   */\n      calldatacopy\n        /* \"#utility.yul\":26465:26466   */\n      0x00\n        /* \"#utility.yul\":26456:26462   */\n      dup4\n        /* \"#utility.yul\":26451:26454   */\n      dup4\n        /* \"#utility.yul\":26447:26463   */\n      add\n        /* \"#utility.yul\":26440:26467   */\n      mstore\n        /* \"#utility.yul\":26327:26473   */\n      pop\n      pop\n      pop\n      jump\t// out\n        /* \"#utility.yul\":26503:26820   */\n    tag_309:\n        /* \"#utility.yul\":26601:26604   */\n      0x00\n        /* \"#utility.yul\":26622:26693   */\n      tag_578\n        /* \"#utility.yul\":26686:26692   */\n      dup4\n        /* \"#utility.yul\":26681:26684   */\n      dup6\n        /* \"#utility.yul\":26622:26693   */\n      tag_249\n      jump\t// in\n    tag_578:\n        /* \"#utility.yul\":26615:26693   */\n      swap4\n      pop\n        /* \"#utility.yul\":26703:26759   */\n      tag_579\n        /* \"#utility.yul\":26752:26758   */\n      dup4\n        /* \"#utility.yul\":26747:26750   */\n      dup6\n        /* \"#utility.yul\":26740:26745   */\n      dup5\n        /* \"#utility.yul\":26703:26759   */\n      tag_308\n      jump\t// in\n    tag_579:\n        /* \"#utility.yul\":26784:26813   */\n      tag_580\n        /* \"#utility.yul\":26806:26812   */\n      dup4\n        /* \"#utility.yul\":26784:26813   */\n      tag_251\n      jump\t// in\n    tag_580:\n        /* \"#utility.yul\":26779:26782   */\n      dup5\n        /* \"#utility.yul\":26775:26814   */\n      add\n        /* \"#utility.yul\":26768:26814   */\n      swap1\n      pop\n        /* \"#utility.yul\":26503:26820   */\n      swap4\n      swap3\n      pop\n      pop\n      pop\n      jump\t// out\n        /* \"#utility.yul\":26826:27490   */\n    tag_120:\n        /* \"#utility.yul\":27033:27037   */\n      0x00\n        /* \"#utility.yul\":27071:27074   */\n      0x80\n        /* \"#utility.yul\":27060:27069   */\n      dup3\n        /* \"#utility.yul\":27056:27075   */\n      add\n        /* \"#utility.yul\":27048:27075   */\n      swap1\n      pop\n        /* \"#utility.yul\":27121:27130   */\n      dup2\n        /* \"#utility.yul\":27115:27119   */\n      dup2\n        /* \"#utility.yul\":27111:27131   */\n      sub\n        /* \"#utility.yul\":27107:27108   */\n      0x00\n        /* \"#utility.yul\":27096:27105   */\n      dup4\n        /* \"#utility.yul\":27092:27109   */\n      add\n        /* \"#utility.yul\":27085:27132   */\n      mstore\n        /* \"#utility.yul\":27149:27237   */\n      tag_582\n        /* \"#utility.yul\":27232:27236   */\n      dup2\n        /* \"#utility.yul\":27223:27229   */\n      dup8\n        /* \"#utility.yul\":27215:27221   */\n      dup10\n        /* \"#utility.yul\":27149:27237   */\n      tag_309\n      jump\t// in\n    tag_582:\n        /* \"#utility.yul\":27141:27237   */\n      swap1\n      pop\n        /* \"#utility.yul\":27247:27319   */\n      tag_583\n        /* \"#utility.yul\":27315:27317   */\n      0x20\n        /* \"#utility.yul\":27304:27313   */\n      dup4\n        /* \"#utility.yul\":27300:27318   */\n      add\n        /* \"#utility.yul\":27291:27297   */\n      dup7\n        /* \"#utility.yul\":27247:27319   */\n      tag_244\n      jump\t// in\n    tag_583:\n        /* \"#utility.yul\":27329:27401   */\n      tag_584\n        /* \"#utility.yul\":27397:27399   */\n      0x40\n        /* \"#utility.yul\":27386:27395   */\n      dup4\n        /* \"#utility.yul\":27382:27400   */\n      add\n        /* \"#utility.yul\":27373:27379   */\n      dup6\n        /* \"#utility.yul\":27329:27401   */\n      tag_244\n      jump\t// in\n    tag_584:\n        /* \"#utility.yul\":27411:27483   */\n      tag_585\n        /* \"#utility.yul\":27479:27481   */\n      0x60\n        /* \"#utility.yul\":27468:27477   */\n      dup4\n        /* \"#utility.yul\":27464:27482   */\n      add\n        /* \"#utility.yul\":27455:27461   */\n      dup5\n        /* \"#utility.yul\":27411:27483   */\n      tag_244\n      jump\t// in\n    tag_585:\n        /* \"#utility.yul\":26826:27490   */\n      swap7\n      swap6\n      pop\n      pop\n      pop\n      pop\n      pop\n      pop\n      jump\t// out\n        /* \"#utility.yul\":27496:27668   */\n    tag_310:\n        /* \"#utility.yul\":27636:27660   */\n      0x496e766573746d656e74206d757374206265203e203000000000000000000000\n        /* \"#utility.yul\":27632:27633   */\n      0x00\n        /* \"#utility.yul\":27624:27630   */\n      dup3\n        /* \"#utility.yul\":27620:27634   */\n      add\n        /* \"#utility.yul\":27613:27661   */\n      mstore\n        /* \"#utility.yul\":27496:27668   */\n      pop\n      jump\t// out\n        /* \"#utility.yul\":27674:28040   */\n    tag_311:\n        /* \"#utility.yul\":27816:27819   */\n      0x00\n        /* \"#utility.yul\":27837:27904   */\n      tag_588\n        /* \"#utility.yul\":27901:27903   */\n      0x16\n        /* \"#utility.yul\":27896:27899   */\n      dup4\n        /* \"#utility.yul\":27837:27904   */\n      tag_249\n      jump\t// in\n    tag_588:\n        /* \"#utility.yul\":27830:27904   */\n      swap2\n      pop\n        /* \"#utility.yul\":27913:28006   */\n      tag_589\n        /* \"#utility.yul\":28002:28005   */\n      dup3\n        /* \"#utility.yul\":27913:28006   */\n      tag_310\n      jump\t// in\n    tag_589:\n        /* \"#utility.yul\":28031:28033   */\n      0x20\n        /* \"#utility.yul\":28026:28029   */\n      dup3\n        /* \"#utility.yul\":28022:28034   */\n      add\n        /* \"#utility.yul\":28015:28034   */\n      swap1\n      pop\n        /* \"#utility.yul\":27674:28040   */\n      swap2\n      swap1\n      pop\n      jump\t// out\n        /* \"#utility.yul\":28046:28465   */\n    tag_127:\n        /* \"#utility.yul\":28212:28216   */\n      0x00\n        /* \"#utility.yul\":28250:28252   */\n      0x20\n        /* \"#utility.yul\":28239:28248   */\n      dup3\n        /* \"#utility.yul\":28235:28253   */\n      add\n        /* \"#utility.yul\":28227:28253   */\n      swap1\n      pop\n        /* \"#utility.yul\":28299:28308   */\n      dup2\n        /* \"#utility.yul\":28293:28297   */\n      dup2\n        /* \"#utility.yul\":28289:28309   */\n      sub\n        /* \"#utility.yul\":28285:28286   */\n      0x00\n        /* \"#utility.yul\":28274:28283   */\n      dup4\n        /* \"#utility.yul\":28270:28287   */\n      add\n        /* \"#utility.yul\":28263:28310   */\n      mstore\n        /* \"#utility.yul\":28327:28458   */\n      tag_591\n        /* \"#utility.yul\":28453:28457   */\n      dup2\n        /* \"#utility.yul\":28327:28458   */\n      tag_311\n      jump\t// in\n    tag_591:\n        /* \"#utility.yul\":28319:28458   */\n      swap1\n      pop\n        /* \"#utility.yul\":28046:28465   */\n      swap2\n      swap1\n      pop\n      jump\t// out\n        /* \"#utility.yul\":28471:28691   */\n    tag_312:\n        /* \"#utility.yul\":28611:28645   */\n      0x496e766573746d656e7420657863656564732066756e64696e67207461726765\n        /* \"#utility.yul\":28607:28608   */\n      0x00\n        /* \"#utility.yul\":28599:28605   */\n      dup3\n        /* \"#utility.yul\":28595:28609   */\n      add\n        /* \"#utility.yul\":28588:28646   */\n      mstore\n        /* \"#utility.yul\":28680:28683   */\n      0x7400000000000000000000000000000000000000000000000000000000000000\n        /* \"#utility.yul\":28675:28677   */\n      0x20\n        /* \"#utility.yul\":28667:28673   */\n      dup3\n        /* \"#utility.yul\":28663:28678   */\n      add\n        /* \"#utility.yul\":28656:28684   */\n      mstore\n        /* \"#utility.yul\":28471:28691   */\n      pop\n      jump\t// out\n        /* \"#utility.yul\":28697:29063   */\n    tag_313:\n        /* \"#utility.yul\":28839:28842   */\n      0x00\n        /* \"#utility.yul\":28860:28927   */\n      tag_594\n        /* \"#utility.yul\":28924:28926   */\n      0x21\n        /* \"#utility.yul\":28919:28922   */\n      dup4\n        /* \"#utility.yul\":28860:28927   */\n      tag_249\n      jump\t// in\n    tag_594:\n        /* \"#utility.yul\":28853:28927   */\n      swap2\n      pop\n        /* \"#utility.yul\":28936:29029   */\n      tag_595\n        /* \"#utility.yul\":29025:29028   */\n      dup3\n        /* \"#utility.yul\":28936:29029   */\n      tag_312\n      jump\t// in\n    tag_595:\n        /* \"#utility.yul\":29054:29056   */\n      0x40\n        /* \"#utility.yul\":29049:29052   */\n      dup3\n        /* \"#utility.yul\":29045:29057   */\n      add\n        /* \"#utility.yul\":29038:29057   */\n      swap1\n      pop\n        /* \"#utility.yul\":28697:29063   */\n      swap2\n      swap1\n      pop\n      jump\t// out\n        /* \"#utility.yul\":29069:29488   */\n    tag_131:\n        /* \"#utility.yul\":29235:29239   */\n      0x00\n        /* \"#utility.yul\":29273:29275   */\n      0x20\n        /* \"#utility.yul\":29262:29271   */\n      dup3\n        /* \"#utility.yul\":29258:29276   */\n      add\n        /* \"#utility.yul\":29250:29276   */\n      swap1\n      pop\n        /* \"#utility.yul\":29322:29331   */\n      dup2\n        /* \"#utility.yul\":29316:29320   */\n      dup2\n        /* \"#utility.yul\":29312:29332   */\n      sub\n        /* \"#utility.yul\":29308:29309   */\n      0x00\n        /* \"#utility.yul\":29297:29306   */\n      dup4\n        /* \"#utility.yul\":29293:29310   */\n      add\n        /* \"#utility.yul\":29286:29333   */\n      mstore\n        /* \"#utility.yul\":29350:29481   */\n      tag_597\n        /* \"#utility.yul\":29476:29480   */\n      dup2\n        /* \"#utility.yul\":29350:29481   */\n      tag_313\n      jump\t// in\n    tag_597:\n        /* \"#utility.yul\":29342:29481   */\n      swap1\n      pop\n        /* \"#utility.yul\":29069:29488   */\n      swap2\n      swap1\n      pop\n      jump\t// out\n        /* \"#utility.yul\":29494:29641   */\n    tag_314:\n        /* \"#utility.yul\":29595:29606   */\n      0x00\n        /* \"#utility.yul\":29632:29635   */\n      dup2\n        /* \"#utility.yul\":29617:29635   */\n      swap1\n      pop\n        /* \"#utility.yul\":29494:29641   */\n      swap3\n      swap2\n      pop\n      pop\n      jump\t// out\n        /* \"#utility.yul\":29647:29761   */\n    tag_315:\n      pop\n      jump\t// out\n        /* \"#utility.yul\":29767:30165   */\n    tag_316:\n        /* \"#utility.yul\":29926:29929   */\n      0x00\n        /* \"#utility.yul\":29947:30030   */\n      tag_601\n        /* \"#utility.yul\":30028:30029   */\n      0x00\n        /* \"#utility.yul\":30023:30026   */\n      dup4\n        /* \"#utility.yul\":29947:30030   */\n      tag_314\n      jump\t// in\n    tag_601:\n        /* \"#utility.yul\":29940:30030   */\n      swap2\n      pop\n        /* \"#utility.yul\":30039:30132   */\n      tag_602\n        /* \"#utility.yul\":30128:30131   */\n      dup3\n        /* \"#utility.yul\":30039:30132   */\n      tag_315\n      jump\t// in\n    tag_602:\n        /* \"#utility.yul\":30157:30158   */\n      0x00\n        /* \"#utility.yul\":30152:30155   */\n      dup3\n        /* \"#utility.yul\":30148:30159   */\n      add\n        /* \"#utility.yul\":30141:30159   */\n      swap1\n      pop\n        /* \"#utility.yul\":29767:30165   */\n      swap2\n      swap1\n      pop\n      jump\t// out\n        /* \"#utility.yul\":30171:30550   */\n    tag_138:\n        /* \"#utility.yul\":30355:30358   */\n      0x00\n        /* \"#utility.yul\":30377:30524   */\n      tag_604\n        /* \"#utility.yul\":30520:30523   */\n      dup3\n        /* \"#utility.yul\":30377:30524   */\n      tag_316\n      jump\t// in\n    tag_604:\n        /* \"#utility.yul\":30370:30524   */\n      swap2\n      pop\n        /* \"#utility.yul\":30541:30544   */\n      dup2\n        /* \"#utility.yul\":30534:30544   */\n      swap1\n      pop\n        /* \"#utility.yul\":30171:30550   */\n      swap2\n      swap1\n      pop\n      jump\t// out\n        /* \"#utility.yul\":30556:30783   */\n    tag_317:\n        /* \"#utility.yul\":30696:30730   */\n      0x4661696c656420746f207472616e736665722066756e647320746f206f726761\n        /* \"#utility.yul\":30692:30693   */\n      0x00\n        /* \"#utility.yul\":30684:30690   */\n      dup3\n        /* \"#utility.yul\":30680:30694   */\n      add\n        /* \"#utility.yul\":30673:30731   */\n      mstore\n        /* \"#utility.yul\":30765:30775   */\n      0x6e697a6174696f6e000000000000000000000000000000000000000000000000\n        /* \"#utility.yul\":30760:30762   */\n      0x20\n        /* \"#utility.yul\":30752:30758   */\n      dup3\n        /* \"#utility.yul\":30748:30763   */\n      add\n        /* \"#utility.yul\":30741:30776   */\n      mstore\n        /* \"#utility.yul\":30556:30783   */\n      pop\n      jump\t// out\n        /* \"#utility.yul\":30789:31155   */\n    tag_318:\n        /* \"#utility.yul\":30931:30934   */\n      0x00\n        /* \"#utility.yul\":30952:31019   */\n      tag_607\n        /* \"#utility.yul\":31016:31018   */\n      0x28\n        /* \"#utility.yul\":31011:31014   */\n      dup4\n        /* \"#utility.yul\":30952:31019   */\n      tag_249\n      jump\t// in\n    tag_607:\n        /* \"#utility.yul\":30945:31019   */\n      swap2\n      pop\n        /* \"#utility.yul\":31028:31121   */\n      tag_608\n        /* \"#utility.yul\":31117:31120   */\n      dup3\n        /* \"#utility.yul\":31028:31121   */\n      tag_317\n      jump\t// in\n    tag_608:\n        /* \"#utility.yul\":31146:31148   */\n      0x40\n        /* \"#utility.yul\":31141:31144   */\n      dup3\n        /* \"#utility.yul\":31137:31149   */\n      add\n        /* \"#utility.yul\":31130:31149   */\n      swap1\n      pop\n        /* \"#utility.yul\":30789:31155   */\n      swap2\n      swap1\n      pop\n      jump\t// out\n        /* \"#utility.yul\":31161:31580   */\n    tag_144:\n        /* \"#utility.yul\":31327:31331   */\n      0x00\n        /* \"#utility.yul\":31365:31367   */\n      0x20\n        /* \"#utility.yul\":31354:31363   */\n      dup3\n        /* \"#utility.yul\":31350:31368   */\n      add\n        /* \"#utility.yul\":31342:31368   */\n      swap1\n      pop\n        /* \"#utility.yul\":31414:31423   */\n      dup2\n        /* \"#utility.yul\":31408:31412   */\n      dup2\n        /* \"#utility.yul\":31404:31424   */\n      sub\n        /* \"#utility.yul\":31400:31401   */\n      0x00\n        /* \"#utility.yul\":31389:31398   */\n      dup4\n        /* \"#utility.yul\":31385:31402   */\n      add\n        /* \"#utility.yul\":31378:31425   */\n      mstore\n        /* \"#utility.yul\":31442:31573   */\n      tag_610\n        /* \"#utility.yul\":31568:31572   */\n      dup2\n        /* \"#utility.yul\":31442:31573   */\n      tag_318\n      jump\t// in\n    tag_610:\n        /* \"#utility.yul\":31434:31573   */\n      swap1\n      pop\n        /* \"#utility.yul\":31161:31580   */\n      swap2\n      swap1\n      pop\n      jump\t// out\n        /* \"#utility.yul\":31586:31918   */\n    tag_146:\n        /* \"#utility.yul\":31707:31711   */\n      0x00\n        /* \"#utility.yul\":31745:31747   */\n      0x40\n        /* \"#utility.yul\":31734:31743   */\n      dup3\n        /* \"#utility.yul\":31730:31748   */\n      add\n        /* \"#utility.yul\":31722:31748   */\n      swap1\n      pop\n        /* \"#utility.yul\":31758:31829   */\n      tag_612\n        /* \"#utility.yul\":31826:31827   */\n      0x00\n        /* \"#utility.yul\":31815:31824   */\n      dup4\n        /* \"#utility.yul\":31811:31828   */\n      add\n        /* \"#utility.yul\":31802:31808   */\n      dup6\n        /* \"#utility.yul\":31758:31829   */\n      tag_244\n      jump\t// in\n    tag_612:\n        /* \"#utility.yul\":31839:31911   */\n      tag_613\n        /* \"#utility.yul\":31907:31909   */\n      0x20\n        /* \"#utility.yul\":31896:31905   */\n      dup4\n        /* \"#utility.yul\":31892:31910   */\n      add\n        /* \"#utility.yul\":31883:31889   */\n      dup5\n        /* \"#utility.yul\":31839:31911   */\n      tag_244\n      jump\t// in\n    tag_613:\n        /* \"#utility.yul\":31586:31918   */\n      swap4\n      swap3\n      pop\n      pop\n      pop\n      jump\t// out\n        /* \"#utility.yul\":31924:32104   */\n    tag_161:\n        /* \"#utility.yul\":31972:32049   */\n      0x4e487b7100000000000000000000000000000000000000000000000000000000\n        /* \"#utility.yul\":31969:31970   */\n      0x00\n        /* \"#utility.yul\":31962:32050   */\n      mstore\n        /* \"#utility.yul\":32069:32073   */\n      0x32\n        /* \"#utility.yul\":32066:32067   */\n      0x04\n        /* \"#utility.yul\":32059:32074   */\n      mstore\n        /* \"#utility.yul\":32093:32097   */\n      0x24\n        /* \"#utility.yul\":32090:32091   */\n      0x00\n        /* \"#utility.yul\":32083:32098   */\n      revert\n        /* \"#utility.yul\":32110:32330   */\n    tag_319:\n        /* \"#utility.yul\":32250:32284   */\n      0x4f6e6c792063726561746f72206f7267616e697a6174696f6e20616c6c6f7765\n        /* \"#utility.yul\":32246:32247   */\n      0x00\n        /* \"#utility.yul\":32238:32244   */\n      dup3\n        /* \"#utility.yul\":32234:32248   */\n      add\n        /* \"#utility.yul\":32227:32285   */\n      mstore\n        /* \"#utility.yul\":32319:32322   */\n      0x6400000000000000000000000000000000000000000000000000000000000000\n        /* \"#utility.yul\":32314:32316   */\n      0x20\n        /* \"#utility.yul\":32306:32312   */\n      dup3\n        /* \"#utility.yul\":32302:32317   */\n      add\n        /* \"#utility.yul\":32295:32323   */\n      mstore\n        /* \"#utility.yul\":32110:32330   */\n      pop\n      jump\t// out\n        /* \"#utility.yul\":32336:32702   */\n    tag_320:\n        /* \"#utility.yul\":32478:32481   */\n      0x00\n        /* \"#utility.yul\":32499:32566   */\n      tag_617\n        /* \"#utility.yul\":32563:32565   */\n      0x21\n        /* \"#utility.yul\":32558:32561   */\n      dup4\n        /* \"#utility.yul\":32499:32566   */\n      tag_249\n      jump\t// in\n    tag_617:\n        /* \"#utility.yul\":32492:32566   */\n      swap2\n      pop\n        /* \"#utility.yul\":32575:32668   */\n      tag_618\n        /* \"#utility.yul\":32664:32667   */\n      dup3\n        /* \"#utility.yul\":32575:32668   */\n      tag_319\n      jump\t// in\n    tag_618:\n        /* \"#utility.yul\":32693:32695   */\n      0x40\n        /* \"#utility.yul\":32688:32691   */\n      dup3\n        /* \"#utility.yul\":32684:32696   */\n      add\n        /* \"#utility.yul\":32677:32696   */\n      swap1\n      pop\n        /* \"#utility.yul\":32336:32702   */\n      swap2\n      swap1\n      pop\n      jump\t// out\n        /* \"#utility.yul\":32708:33127   */\n    tag_174:\n        /* \"#utility.yul\":32874:32878   */\n      0x00\n        /* \"#utility.yul\":32912:32914   */\n      0x20\n        /* \"#utility.yul\":32901:32910   */\n      dup3\n        /* \"#utility.yul\":32897:32915   */\n      add\n        /* \"#utility.yul\":32889:32915   */\n      swap1\n      pop\n        /* \"#utility.yul\":32961:32970   */\n      dup2\n        /* \"#utility.yul\":32955:32959   */\n      dup2\n        /* \"#utility.yul\":32951:32971   */\n      sub\n        /* \"#utility.yul\":32947:32948   */\n      0x00\n        /* \"#utility.yul\":32936:32945   */\n      dup4\n        /* \"#utility.yul\":32932:32949   */\n      add\n        /* \"#utility.yul\":32925:32972   */\n      mstore\n        /* \"#utility.yul\":32989:33120   */\n      tag_620\n        /* \"#utility.yul\":33115:33119   */\n      dup2\n        /* \"#utility.yul\":32989:33120   */\n      tag_320\n      jump\t// in\n    tag_620:\n        /* \"#utility.yul\":32981:33120   */\n      swap1\n      pop\n        /* \"#utility.yul\":32708:33127   */\n      swap2\n      swap1\n      pop\n      jump\t// out\n        /* \"#utility.yul\":33133:33306   */\n    tag_321:\n        /* \"#utility.yul\":33273:33298   */\n      0x4465736372697074696f6e206973207265717569726564000000000000000000\n        /* \"#utility.yul\":33269:33270   */\n      0x00\n        /* \"#utility.yul\":33261:33267   */\n      dup3\n        /* \"#utility.yul\":33257:33271   */\n      add\n        /* \"#utility.yul\":33250:33299   */\n      mstore\n        /* \"#utility.yul\":33133:33306   */\n      pop\n      jump\t// out\n        /* \"#utility.yul\":33312:33678   */\n    tag_322:\n        /* \"#utility.yul\":33454:33457   */\n      0x00\n        /* \"#utility.yul\":33475:33542   */\n      tag_623\n        /* \"#utility.yul\":33539:33541   */\n      0x17\n        /* \"#utility.yul\":33534:33537   */\n      dup4\n        /* \"#utility.yul\":33475:33542   */\n      tag_249\n      jump\t// in\n    tag_623:\n        /* \"#utility.yul\":33468:33542   */\n      swap2\n      pop\n        /* \"#utility.yul\":33551:33644   */\n      tag_624\n        /* \"#utility.yul\":33640:33643   */\n      dup3\n        /* \"#utility.yul\":33551:33644   */\n      tag_321\n      jump\t// in\n    tag_624:\n        /* \"#utility.yul\":33669:33671   */\n      0x20\n        /* \"#utility.yul\":33664:33667   */\n      dup3\n        /* \"#utility.yul\":33660:33672   */\n      add\n        /* \"#utility.yul\":33653:33672   */\n      swap1\n      pop\n        /* \"#utility.yul\":33312:33678   */\n      swap2\n      swap1\n      pop\n      jump\t// out\n        /* \"#utility.yul\":33684:34103   */\n    tag_178:\n        /* \"#utility.yul\":33850:33854   */\n      0x00\n        /* \"#utility.yul\":33888:33890   */\n      0x20\n        /* \"#utility.yul\":33877:33886   */\n      dup3\n        /* \"#utility.yul\":33873:33891   */\n      add\n        /* \"#utility.yul\":33865:33891   */\n      swap1\n      pop\n        /* \"#utility.yul\":33937:33946   */\n      dup2\n        /* \"#utility.yul\":33931:33935   */\n      dup2\n        /* \"#utility.yul\":33927:33947   */\n      sub\n        /* \"#utility.yul\":33923:33924   */\n      0x00\n        /* \"#utility.yul\":33912:33921   */\n      dup4\n        /* \"#utility.yul\":33908:33925   */\n      add\n        /* \"#utility.yul\":33901:33948   */\n      mstore\n        /* \"#utility.yul\":33965:34096   */\n      tag_626\n        /* \"#utility.yul\":34091:34095   */\n      dup2\n        /* \"#utility.yul\":33965:34096   */\n      tag_322\n      jump\t// in\n    tag_626:\n        /* \"#utility.yul\":33957:34096   */\n      swap1\n      pop\n        /* \"#utility.yul\":33684:34103   */\n      swap2\n      swap1\n      pop\n      jump\t// out\n        /* \"#utility.yul\":34109:34552   */\n    tag_182:\n        /* \"#utility.yul\":34260:34264   */\n      0x00\n        /* \"#utility.yul\":34298:34300   */\n      0x40\n        /* \"#utility.yul\":34287:34296   */\n      dup3\n        /* \"#utility.yul\":34283:34301   */\n      add\n        /* \"#utility.yul\":34275:34301   */\n      swap1\n      pop\n        /* \"#utility.yul\":34347:34356   */\n      dup2\n        /* \"#utility.yul\":34341:34345   */\n      dup2\n        /* \"#utility.yul\":34337:34357   */\n      sub\n        /* \"#utility.yul\":34333:34334   */\n      0x00\n        /* \"#utility.yul\":34322:34331   */\n      dup4\n        /* \"#utility.yul\":34318:34335   */\n      add\n        /* \"#utility.yul\":34311:34358   */\n      mstore\n        /* \"#utility.yul\":34375:34463   */\n      tag_628\n        /* \"#utility.yul\":34458:34462   */\n      dup2\n        /* \"#utility.yul\":34449:34455   */\n      dup6\n        /* \"#utility.yul\":34441:34447   */\n      dup8\n        /* \"#utility.yul\":34375:34463   */\n      tag_309\n      jump\t// in\n    tag_628:\n        /* \"#utility.yul\":34367:34463   */\n      swap1\n      pop\n        /* \"#utility.yul\":34473:34545   */\n      tag_629\n        /* \"#utility.yul\":34541:34543   */\n      0x20\n        /* \"#utility.yul\":34530:34539   */\n      dup4\n        /* \"#utility.yul\":34526:34544   */\n      add\n        /* \"#utility.yul\":34517:34523   */\n      dup5\n        /* \"#utility.yul\":34473:34545   */\n      tag_244\n      jump\t// in\n    tag_629:\n        /* \"#utility.yul\":34109:34552   */\n      swap5\n      swap4\n      pop\n      pop\n      pop\n      pop\n      jump\t// out\n\n    auxdata: 0xa26469706673582212203ee169fc0bd451bb4e7c5c4f8ee10516deaa4e1580379b1b287ac3791b0631b964736f6c63430008130033\n}\n",
				"bytecode": {
					"linkReferences": {},
					"object": "608060405234801561001057600080fd5b50612662806100206000396000f3fe6080604052600436106100865760003560e01c8063a461e2b311610059578063a461e2b314610173578063ba0ca5321461018f578063baf191b2146101cd578063d5ae0e9a146101f6578063ee53a4231461022857610086565b80630436f2f61461008b57806334ae18e3146100d057806383f3d4481461010d5780638ade3de01461014a575b600080fd5b34801561009757600080fd5b506100b260048036038101906100ad9190611553565b610253565b6040516100c79998979695949392919061176c565b60405180910390f35b3480156100dc57600080fd5b506100f760048036038101906100f29190611553565b6104a8565b6040516101049190611807565b60405180910390f35b34801561011957600080fd5b50610134600480360381019061012f9190611553565b610653565b6040516101419190611807565b60405180910390f35b34801561015657600080fd5b50610171600480360381019061016c9190611887565b6106d8565b005b61018d60048036038101906101889190611553565b610916565b005b34801561019b57600080fd5b506101b660048036038101906101b1919061193b565b610caa565b6040516101c4929190611a26565b60405180910390f35b3480156101d957600080fd5b506101f460048036038101906101ef9190611a5d565b610e33565b005b34801561020257600080fd5b5061020b611045565b60405161021f989796959493929190611b7b565b60405180910390f35b34801561023457600080fd5b5061023d61150d565b60405161024a9190611807565b60405180910390f35b6000806060600080600080600060608960016000828152602001908152602001600020600a0160009054906101000a900460ff166102c6576040517f08c379a00000000000000000000000000000000000000000000000000000000081526004016102bd90611c7d565b60405180910390fd5b6000600160008d8152602001908152602001600020905080600001548160010160009054906101000a900473ffffffffffffffffffffffffffffffffffffffff1682600201836003015484600401548560050154866006015487600701548860090186805461033490611ccc565b80601f016020809104026020016040519081016040528092919081815260200182805461036090611ccc565b80156103ad5780601f10610382576101008083540402835291602001916103ad565b820191906000526020600020905b81548152906001019060200180831161039057829003601f168201915b5050505050965080805480602002602001604051908101604052809291908181526020016000905b828210156104815783829060005260206000200180546103f490611ccc565b80601f016020809104026020016040519081016040528092919081815260200182805461042090611ccc565b801561046d5780601f106104425761010080835404028352916020019161046d565b820191906000526020600020905b81548152906001019060200180831161045057829003601f168201915b5050505050815260200190600101906103d5565b5050505090509a509a509a509a509a509a509a509a509a5050509193959799909294969850565b60008160016000828152602001908152602001600020600a0160009054906101000a900460ff1661050e576040517f08c379a000000000000000000000000000000000000000000000000000000000815260040161050590611c7d565b60405180910390fd5b60006001600085815260200190815260200160002090506000816009018054905090506000600a826105409190611d2c565b9050603281111561055057603290505b60008083118015610573575062093a80846008015461056f9190611d6e565b4211155b1561057d57600a90505b600080856005015411156105da5760008560050154606487600601546105a39190611d2c565b6105ad9190611dd1565b90506002600a826105be9190611dd1565b6105c89190611d2c565b915060148211156105d857601491505b505b60008183856105e99190611d6e565b6105f39190611d6e565b9050606481111561060357606490505b808660070181905550887f20d456995c74d5114f87879b10c5214b9c28e11ea422eeb922cc2e755095669f8260405161063c9190611807565b60405180910390a280975050505050505050919050565b60008160016000828152602001908152602001600020600a0160009054906101000a900460ff166106b9576040517f08c379a00000000000000000000000000000000000000000000000000000000081526004016106b090611c7d565b60405180910390fd5b6001600084815260200190815260200160002060070154915050919050565b6000858590501161071e576040517f08c379a000000000000000000000000000000000000000000000000000000000815260040161071590611e4e565b60405180910390fd5b60008111610761576040517f08c379a000000000000000000000000000000000000000000000000000000000815260040161075890611eba565b60405180910390fd5b600082116107a4576040517f08c379a000000000000000000000000000000000000000000000000000000000815260040161079b90611f26565b60405180910390fd5b6000805490506000808154809291906107bc90611f46565b91905055506000600160008381526020019081526020016000209050818160000181905550338160010160006101000a81548173ffffffffffffffffffffffffffffffffffffffff021916908373ffffffffffffffffffffffffffffffffffffffff1602179055508686826002019182610837929190612174565b508481600301819055508381600401819055508281600501819055506000816006018190555060008160070181905550428160080181905550600181600a0160006101000a81548160ff02191690831515021790555060028290806001815401808255809150506001900390600052602060002001600090919091909150553373ffffffffffffffffffffffffffffffffffffffff16827fd6950a5a53a38361c24ec18c089515caede74366415bf2fb4569cb72099f5e1c8989898989604051610905959493929190612280565b60405180910390a350505050505050565b8060016000828152602001908152602001600020600a0160009054906101000a900460ff1661097a576040517f08c379a000000000000000000000000000000000000000000000000000000000815260040161097190611c7d565b60405180910390fd5b6000600160008481526020019081526020016000209050600034116109d4576040517f08c379a00000000000000000000000000000000000000000000000000000000081526004016109cb9061231a565b60405180910390fd5b80600501543482600601546109e99190611d6e565b1115610a2a576040517f08c379a0000000000000000000000000000000000000000000000000000000008152600401610a21906123ac565b60405180910390fd5b6000600360003373ffffffffffffffffffffffffffffffffffffffff1673ffffffffffffffffffffffffffffffffffffffff16815260200190815260200160002090508060030160009054906101000a900460ff16610ae457338160000160006101000a81548173ffffffffffffffffffffffffffffffffffffffff021916908373ffffffffffffffffffffffffffffffffffffffff16021790555060018160030160006101000a81548160ff0219169083151502179055505b60008160010160008681526020019081526020016000205403610b2d57806002018490806001815401808255809150506001900390600052602060002001600090919091909150555b348160010160008681526020019081526020016000206000828254610b529190611d6e565b9250508190555034826006016000828254610b6d9190611d6e565b9250508190555060008260010160009054906101000a900473ffffffffffffffffffffffffffffffffffffffff1673ffffffffffffffffffffffffffffffffffffffff1634604051610bbe906123fd565b60006040518083038185875af1925050503d8060008114610bfb576040519150601f19603f3d011682016040523d82523d6000602084013e610c00565b606091505b5050905080610c44576040517f08c379a0000000000000000000000000000000000000000000000000000000008152600401610c3b90612484565b60405180910390fd5b3373ffffffffffffffffffffffffffffffffffffffff16857f271dec505c61c970bdd791a963b7162d814edf6292f40c4beef2af1e48eea1e8348660060154604051610c919291906124a4565b60405180910390a3610ca2856104a8565b505050505050565b6060806000600360008573ffffffffffffffffffffffffffffffffffffffff1673ffffffffffffffffffffffffffffffffffffffff16815260200190815260200160002090506000816002018054905090508067ffffffffffffffff811115610d1657610d15611f99565b5b604051908082528060200260200182016040528015610d445781602001602082028036833780820191505090505b5093508067ffffffffffffffff811115610d6157610d60611f99565b5b604051908082528060200260200182016040528015610d8f5781602001602082028036833780820191505090505b50925060005b81811015610e2b576000836002018281548110610db557610db46124cd565b5b9060005260206000200154905080868381518110610dd657610dd56124cd565b5b60200260200101818152505083600101600082815260200190815260200160002054858381518110610e0b57610e0a6124cd565b5b602002602001018181525050508080610e2390611f46565b915050610d95565b505050915091565b8260016000828152602001908152602001600020600a0160009054906101000a900460ff16610e97576040517f08c379a0000000000000000000000000000000000000000000000000000000008152600401610e8e90611c7d565b60405180910390fd5b833373ffffffffffffffffffffffffffffffffffffffff166001600083815260200190815260200160002060010160009054906101000a900473ffffffffffffffffffffffffffffffffffffffff1673ffffffffffffffffffffffffffffffffffffffff1614610f3c576040517f08c379a0000000000000000000000000000000000000000000000000000000008152600401610f339061256e565b60405180910390fd5b60008484905011610f82576040517f08c379a0000000000000000000000000000000000000000000000000000000008152600401610f79906125da565b60405180910390fd5b600060016000878152602001908152602001600020905080600901858590918060018154018082558091505060019003906000526020600020016000909192909192909192909192509182610fd8929190612174565b503373ffffffffffffffffffffffffffffffffffffffff16867fc188596f32652d64253d21c2bbb3f1b4794308b7fbe9384000ffe306650d0b968787856009018054905060405161102b939291906125fa565b60405180910390a361103c866104a8565b50505050505050565b606080606080606080606080600060028054905090508067ffffffffffffffff81111561107557611074611f99565b5b6040519080825280602002602001820160405280156110a35781602001602082028036833780820191505090505b5098508067ffffffffffffffff8111156110c0576110bf611f99565b5b6040519080825280602002602001820160405280156110ee5781602001602082028036833780820191505090505b5097508067ffffffffffffffff81111561110b5761110a611f99565b5b60405190808252806020026020018201604052801561113e57816020015b60608152602001906001900390816111295790505b5096508067ffffffffffffffff81111561115b5761115a611f99565b5b6040519080825280602002602001820160405280156111895781602001602082028036833780820191505090505b5095508067ffffffffffffffff8111156111a6576111a5611f99565b5b6040519080825280602002602001820160405280156111d45781602001602082028036833780820191505090505b5094508067ffffffffffffffff8111156111f1576111f0611f99565b5b60405190808252806020026020018201604052801561121f5781602001602082028036833780820191505090505b5093508067ffffffffffffffff81111561123c5761123b611f99565b5b60405190808252806020026020018201604052801561126a5781602001602082028036833780820191505090505b5092508067ffffffffffffffff81111561128757611286611f99565b5b6040519080825280602002602001820160405280156112b55781602001602082028036833780820191505090505b50915060005b8181101561150157600060016000600284815481106112dd576112dc6124cd565b5b90600052602060002001548152602001908152602001600020905080600001548b83815181106113105761130f6124cd565b5b6020026020010181815250508060010160009054906101000a900473ffffffffffffffffffffffffffffffffffffffff168a8381518110611354576113536124cd565b5b602002602001019073ffffffffffffffffffffffffffffffffffffffff16908173ffffffffffffffffffffffffffffffffffffffff168152505080600201805461139d90611ccc565b80601f01602080910402602001604051908101604052809291908181526020018280546113c990611ccc565b80156114165780601f106113eb57610100808354040283529160200191611416565b820191906000526020600020905b8154815290600101906020018083116113f957829003601f168201915b505050505089838151811061142e5761142d6124cd565b5b60200260200101819052508060030154888381518110611451576114506124cd565b5b6020026020010181815250508060040154878381518110611475576114746124cd565b5b6020026020010181815250508060050154868381518110611499576114986124cd565b5b60200260200101818152505080600601548583815181106114bd576114bc6124cd565b5b60200260200101818152505080600701548483815181106114e1576114e06124cd565b5b6020026020010181815250505080806114f990611f46565b9150506112bb565b50509091929394959697565b60005481565b600080fd5b600080fd5b6000819050919050565b6115308161151d565b811461153b57600080fd5b50565b60008135905061154d81611527565b92915050565b60006020828403121561156957611568611513565b5b60006115778482850161153e565b91505092915050565b6115898161151d565b82525050565b600073ffffffffffffffffffffffffffffffffffffffff82169050919050565b60006115ba8261158f565b9050919050565b6115ca816115af565b82525050565b600081519050919050565b600082825260208201905092915050565b60005b8381101561160a5780820151818401526020810190506115ef565b60008484015250505050565b6000601f19601f8301169050919050565b6000611632826115d0565b61163c81856115db565b935061164c8185602086016115ec565b61165581611616565b840191505092915050565b600081519050919050565b600082825260208201905092915050565b6000819050602082019050919050565b600082825260208201905092915050565b60006116a8826115d0565b6116b2818561168c565b93506116c28185602086016115ec565b6116cb81611616565b840191505092915050565b60006116e2838361169d565b905092915050565b6000602082019050919050565b600061170282611660565b61170c818561166b565b93508360208202850161171e8561167c565b8060005b8581101561175a578484038952815161173b85826116d6565b9450611746836116ea565b925060208a01995050600181019050611722565b50829750879550505050505092915050565b600061012082019050611782600083018c611580565b61178f602083018b6115c1565b81810360408301526117a1818a611627565b90506117b06060830189611580565b6117bd6080830188611580565b6117ca60a0830187611580565b6117d760c0830186611580565b6117e460e0830185611580565b8181036101008301526117f781846116f7565b90509a9950505050505050505050565b600060208201905061181c6000830184611580565b92915050565b600080fd5b600080fd5b600080fd5b60008083601f84011261184757611846611822565b5b8235905067ffffffffffffffff81111561186457611863611827565b5b6020830191508360018202830111156118805761187f61182c565b5b9250929050565b6000806000806000608086880312156118a3576118a2611513565b5b600086013567ffffffffffffffff8111156118c1576118c0611518565b5b6118cd88828901611831565b955095505060206118e08882890161153e565b93505060406118f18882890161153e565b92505060606119028882890161153e565b9150509295509295909350565b611918816115af565b811461192357600080fd5b50565b6000813590506119358161190f565b92915050565b60006020828403121561195157611950611513565b5b600061195f84828501611926565b91505092915050565b600081519050919050565b600082825260208201905092915050565b6000819050602082019050919050565b61199d8161151d565b82525050565b60006119af8383611994565b60208301905092915050565b6000602082019050919050565b60006119d382611968565b6119dd8185611973565b93506119e883611984565b8060005b83811015611a19578151611a0088826119a3565b9750611a0b836119bb565b9250506001810190506119ec565b5085935050505092915050565b60006040820190508181036000830152611a4081856119c8565b90508181036020830152611a5481846119c8565b90509392505050565b600080600060408486031215611a7657611a75611513565b5b6000611a848682870161153e565b935050602084013567ffffffffffffffff811115611aa557611aa4611518565b5b611ab186828701611831565b92509250509250925092565b600081519050919050565b600082825260208201905092915050565b6000819050602082019050919050565b611af2816115af565b82525050565b6000611b048383611ae9565b60208301905092915050565b6000602082019050919050565b6000611b2882611abd565b611b328185611ac8565b9350611b3d83611ad9565b8060005b83811015611b6e578151611b558882611af8565b9750611b6083611b10565b925050600181019050611b41565b5085935050505092915050565b6000610100820190508181036000830152611b96818b6119c8565b90508181036020830152611baa818a611b1d565b90508181036040830152611bbe81896116f7565b90508181036060830152611bd281886119c8565b90508181036080830152611be681876119c8565b905081810360a0830152611bfa81866119c8565b905081810360c0830152611c0e81856119c8565b905081810360e0830152611c2281846119c8565b90509998505050505050505050565b7f426f6e6420646f6573206e6f7420657869737400000000000000000000000000600082015250565b6000611c676013836115db565b9150611c7282611c31565b602082019050919050565b60006020820190508181036000830152611c9681611c5a565b9050919050565b7f4e487b7100000000000000000000000000000000000000000000000000000000600052602260045260246000fd5b60006002820490506001821680611ce457607f821691505b602082108103611cf757611cf6611c9d565b5b50919050565b7f4e487b7100000000000000000000000000000000000000000000000000000000600052601160045260246000fd5b6000611d378261151d565b9150611d428361151d565b9250828202611d508161151d565b91508282048414831517611d6757611d66611cfd565b5b5092915050565b6000611d798261151d565b9150611d848361151d565b9250828201905080821115611d9c57611d9b611cfd565b5b92915050565b7f4e487b7100000000000000000000000000000000000000000000000000000000600052601260045260246000fd5b6000611ddc8261151d565b9150611de78361151d565b925082611df757611df6611da2565b5b828204905092915050565b7f4e616d6520697320726571756972656400000000000000000000000000000000600082015250565b6000611e386010836115db565b9150611e4382611e02565b602082019050919050565b60006020820190508181036000830152611e6781611e2b565b9050919050565b7f46756e64696e67206d757374206265203e203000000000000000000000000000600082015250565b6000611ea46013836115db565b9150611eaf82611e6e565b602082019050919050565b60006020820190508181036000830152611ed381611e97565b9050919050565b7f4475726174696f6e206d757374206265203e2030000000000000000000000000600082015250565b6000611f106014836115db565b9150611f1b82611eda565b602082019050919050565b60006020820190508181036000830152611f3f81611f03565b9050919050565b6000611f518261151d565b91507fffffffffffffffffffffffffffffffffffffffffffffffffffffffffffffffff8203611f8357611f82611cfd565b5b600182019050919050565b600082905092915050565b7f4e487b7100000000000000000000000000000000000000000000000000000000600052604160045260246000fd5b60008190508160005260206000209050919050565b60006020601f8301049050919050565b600082821b905092915050565b60006008830261202a7fffffffffffffffffffffffffffffffffffffffffffffffffffffffffffffffff82611fed565b6120348683611fed565b95508019841693508086168417925050509392505050565b6000819050919050565b600061207161206c6120678461151d565b61204c565b61151d565b9050919050565b6000819050919050565b61208b83612056565b61209f61209782612078565b848454611ffa565b825550505050565b600090565b6120b46120a7565b6120bf818484612082565b505050565b5b818110156120e3576120d86000826120ac565b6001810190506120c5565b5050565b601f821115612128576120f981611fc8565b61210284611fdd565b81016020851015612111578190505b61212561211d85611fdd565b8301826120c4565b50505b505050565b600082821c905092915050565b600061214b6000198460080261212d565b1980831691505092915050565b6000612164838361213a565b9150826002028217905092915050565b61217e8383611f8e565b67ffffffffffffffff81111561219757612196611f99565b5b6121a18254611ccc565b6121ac8282856120e7565b6000601f8311600181146121db57600084156121c9578287013590505b6121d38582612158565b86555061223b565b601f1984166121e986611fc8565b60005b82811015612211578489013582556001820191506020850194506020810190506121ec565b8683101561222e578489013561222a601f89168261213a565b8355505b6001600288020188555050505b50505050505050565b82818337600083830152505050565b600061225f83856115db565b935061226c838584612244565b61227583611616565b840190509392505050565b6000608082019050818103600083015261229b818789612253565b90506122aa6020830186611580565b6122b76040830185611580565b6122c46060830184611580565b9695505050505050565b7f496e766573746d656e74206d757374206265203e203000000000000000000000600082015250565b60006123046016836115db565b915061230f826122ce565b602082019050919050565b60006020820190508181036000830152612333816122f7565b9050919050565b7f496e766573746d656e7420657863656564732066756e64696e6720746172676560008201527f7400000000000000000000000000000000000000000000000000000000000000602082015250565b60006123966021836115db565b91506123a18261233a565b604082019050919050565b600060208201905081810360008301526123c581612389565b9050919050565b600081905092915050565b50565b60006123e76000836123cc565b91506123f2826123d7565b600082019050919050565b6000612408826123da565b9150819050919050565b7f4661696c656420746f207472616e736665722066756e647320746f206f72676160008201527f6e697a6174696f6e000000000000000000000000000000000000000000000000602082015250565b600061246e6028836115db565b915061247982612412565b604082019050919050565b6000602082019050818103600083015261249d81612461565b9050919050565b60006040820190506124b96000830185611580565b6124c66020830184611580565b9392505050565b7f4e487b7100000000000000000000000000000000000000000000000000000000600052603260045260246000fd5b7f4f6e6c792063726561746f72206f7267616e697a6174696f6e20616c6c6f776560008201527f6400000000000000000000000000000000000000000000000000000000000000602082015250565b60006125586021836115db565b9150612563826124fc565b604082019050919050565b600060208201905081810360008301526125878161254b565b9050919050565b7f4465736372697074696f6e206973207265717569726564000000000000000000600082015250565b60006125c46017836115db565b91506125cf8261258e565b602082019050919050565b600060208201905081810360008301526125f3816125b7565b9050919050565b60006040820190508181036000830152612615818587612253565b90506126246020830184611580565b94935050505056fea26469706673582212203ee169fc0bd451bb4e7c5c4f8ee10516deaa4e1580379b1b287ac3791b0631b964736f6c63430008130033",
					"opcodes": "PUSH1 0x80 PUSH1 0x40 MSTORE CALLVALUE DUP1 ISZERO PUSH2 0x10 JUMPI PUSH1 0x0 DUP1 REVERT JUMPDEST POP PUSH2 0x2662 DUP1 PUSH2 0x20 PUSH1 0x0 CODECOPY PUSH1 0x0 RETURN INVALID PUSH1 0x80 PUSH1 0x40 MSTORE PUSH1 0x4 CALLDATASIZE LT PUSH2 0x86 JUMPI PUSH1 0x0 CALLDATALOAD PUSH1 0xE0 SHR DUP1 PUSH4 0xA461E2B3 GT PUSH2 0x59 JUMPI DUP1 PUSH4 0xA461E2B3 EQ PUSH2 0x173 JUMPI DUP1 PUSH4 0xBA0CA532 EQ PUSH2 0x18F JUMPI DUP1 PUSH4 0xBAF191B2 EQ PUSH2 0x1CD JUMPI DUP1 PUSH4 0xD5AE0E9A EQ PUSH2 0x1F6 JUMPI DUP1 PUSH4 0xEE53A423 EQ PUSH2 0x228 JUMPI PUSH2 0x86 JUMP JUMPDEST DUP1 PUSH4 0x436F2F6 EQ PUSH2 0x8B JUMPI DUP1 PUSH4 0x34AE18E3 EQ PUSH2 0xD0 JUMPI DUP1 PUSH4 0x83F3D448 EQ PUSH2 0x10D JUMPI DUP1 PUSH4 0x8ADE3DE0 EQ PUSH2 0x14A JUMPI JUMPDEST PUSH1 0x0 DUP1 REVERT JUMPDEST CALLVALUE DUP1 ISZERO PUSH2 0x97 JUMPI PUSH1 0x0 DUP1 REVERT JUMPDEST POP PUSH2 0xB2 PUSH1 0x4 DUP1 CALLDATASIZE SUB DUP2 ADD SWAP1 PUSH2 0xAD SWAP2 SWAP1 PUSH2 0x1553 JUMP JUMPDEST PUSH2 0x253 JUMP JUMPDEST PUSH1 0x40 MLOAD PUSH2 0xC7 SWAP10 SWAP9 SWAP8 SWAP7 SWAP6 SWAP5 SWAP4 SWAP3 SWAP2 SWAP1 PUSH2 0x176C JUMP JUMPDEST PUSH1 0x40 MLOAD DUP1 SWAP2 SUB SWAP1 RETURN JUMPDEST CALLVALUE DUP1 ISZERO PUSH2 0xDC JUMPI PUSH1 0x0 DUP1 REVERT JUMPDEST POP PUSH2 0xF7 PUSH1 0x4 DUP1 CALLDATASIZE SUB DUP2 ADD SWAP1 PUSH2 0xF2 SWAP2 SWAP1 PUSH2 0x1553 JUMP JUMPDEST PUSH2 0x4A8 JUMP JUMPDEST PUSH1 0x40 MLOAD PUSH2 0x104 SWAP2 SWAP1 PUSH2 0x1807 JUMP JUMPDEST PUSH1 0x40 MLOAD DUP1 SWAP2 SUB SWAP1 RETURN JUMPDEST CALLVALUE DUP1 ISZERO PUSH2 0x119 JUMPI PUSH1 0x0 DUP1 REVERT JUMPDEST POP PUSH2 0x134 PUSH1 0x4 DUP1 CALLDATASIZE SUB DUP2 ADD SWAP1 PUSH2 0x12F SWAP2 SWAP1 PUSH2 0x1553 JUMP JUMPDEST PUSH2 0x653 JUMP JUMPDEST PUSH1 0x40 MLOAD PUSH2 0x141 SWAP2 SWAP1 PUSH2 0x1807 JUMP JUMPDEST PUSH1 0x40 MLOAD DUP1 SWAP2 SUB SWAP1 RETURN JUMPDEST CALLVALUE DUP1 ISZERO PUSH2 0x156 JUMPI PUSH1 0x0 DUP1 REVERT JUMPDEST POP PUSH2 0x171 PUSH1 0x4 DUP1 CALLDATASIZE SUB DUP2 ADD SWAP1 PUSH2 0x16C SWAP2 SWAP1 PUSH2 0x1887 JUMP JUMPDEST PUSH2 0x6D8 JUMP JUMPDEST STOP JUMPDEST PUSH2 0x18D PUSH1 0x4 DUP1 CALLDATASIZE SUB DUP2 ADD SWAP1 PUSH2 0x188 SWAP2 SWAP1 PUSH2 0x1553 JUMP JUMPDEST PUSH2 0x916 JUMP JUMPDEST STOP JUMPDEST CALLVALUE DUP1 ISZERO PUSH2 0x19B JUMPI PUSH1 0x0 DUP1 REVERT JUMPDEST POP PUSH2 0x1B6 PUSH1 0x4 DUP1 CALLDATASIZE SUB DUP2 ADD SWAP1 PUSH2 0x1B1 SWAP2 SWAP1 PUSH2 0x193B JUMP JUMPDEST PUSH2 0xCAA JUMP JUMPDEST PUSH1 0x40 MLOAD PUSH2 0x1C4 SWAP3 SWAP2 SWAP1 PUSH2 0x1A26 JUMP JUMPDEST PUSH1 0x40 MLOAD DUP1 SWAP2 SUB SWAP1 RETURN JUMPDEST CALLVALUE DUP1 ISZERO PUSH2 0x1D9 JUMPI PUSH1 0x0 DUP1 REVERT JUMPDEST POP PUSH2 0x1F4 PUSH1 0x4 DUP1 CALLDATASIZE SUB DUP2 ADD SWAP1 PUSH2 0x1EF SWAP2 SWAP1 PUSH2 0x1A5D JUMP JUMPDEST PUSH2 0xE33 JUMP JUMPDEST STOP JUMPDEST CALLVALUE DUP1 ISZERO PUSH2 0x202 JUMPI PUSH1 0x0 DUP1 REVERT JUMPDEST POP PUSH2 0x20B PUSH2 0x1045 JUMP JUMPDEST PUSH1 0x40 MLOAD PUSH2 0x21F SWAP9 SWAP8 SWAP7 SWAP6 SWAP5 SWAP4 SWAP3 SWAP2 SWAP1 PUSH2 0x1B7B JUMP JUMPDEST PUSH1 0x40 MLOAD DUP1 SWAP2 SUB SWAP1 RETURN JUMPDEST CALLVALUE DUP1 ISZERO PUSH2 0x234 JUMPI PUSH1 0x0 DUP1 REVERT JUMPDEST POP PUSH2 0x23D PUSH2 0x150D JUMP JUMPDEST PUSH1 0x40 MLOAD PUSH2 0x24A SWAP2 SWAP1 PUSH2 0x1807 JUMP JUMPDEST PUSH1 0x40 MLOAD DUP1 SWAP2 SUB SWAP1 RETURN JUMPDEST PUSH1 0x0 DUP1 PUSH1 0x60 PUSH1 0x0 DUP1 PUSH1 0x0 DUP1 PUSH1 0x0 PUSH1 0x60 DUP10 PUSH1 0x1 PUSH1 0x0 DUP3 DUP2 MSTORE PUSH1 0x20 ADD SWAP1 DUP2 MSTORE PUSH1 0x20 ADD PUSH1 0x0 KECCAK256 PUSH1 0xA ADD PUSH1 0x0 SWAP1 SLOAD SWAP1 PUSH2 0x100 EXP SWAP1 DIV PUSH1 0xFF AND PUSH2 0x2C6 JUMPI PUSH1 0x40 MLOAD PUSH32 0x8C379A000000000000000000000000000000000000000000000000000000000 DUP2 MSTORE PUSH1 0x4 ADD PUSH2 0x2BD SWAP1 PUSH2 0x1C7D JUMP JUMPDEST PUSH1 0x40 MLOAD DUP1 SWAP2 SUB SWAP1 REVERT JUMPDEST PUSH1 0x0 PUSH1 0x1 PUSH1 0x0 DUP14 DUP2 MSTORE PUSH1 0x20 ADD SWAP1 DUP2 MSTORE PUSH1 0x20 ADD PUSH1 0x0 KECCAK256 SWAP1 POP DUP1 PUSH1 0x0 ADD SLOAD DUP2 PUSH1 0x1 ADD PUSH1 0x0 SWAP1 SLOAD SWAP1 PUSH2 0x100 EXP SWAP1 DIV PUSH20 0xFFFFFFFFFFFFFFFFFFFFFFFFFFFFFFFFFFFFFFFF AND DUP3 PUSH1 0x2 ADD DUP4 PUSH1 0x3 ADD SLOAD DUP5 PUSH1 0x4 ADD SLOAD DUP6 PUSH1 0x5 ADD SLOAD DUP7 PUSH1 0x6 ADD SLOAD DUP8 PUSH1 0x7 ADD SLOAD DUP9 PUSH1 0x9 ADD DUP7 DUP1 SLOAD PUSH2 0x334 SWAP1 PUSH2 0x1CCC JUMP JUMPDEST DUP1 PUSH1 0x1F ADD PUSH1 0x20 DUP1 SWAP2 DIV MUL PUSH1 0x20 ADD PUSH1 0x40 MLOAD SWAP1 DUP2 ADD PUSH1 0x40 MSTORE DUP1 SWAP3 SWAP2 SWAP1 DUP2 DUP2 MSTORE PUSH1 0x20 ADD DUP3 DUP1 SLOAD PUSH2 0x360 SWAP1 PUSH2 0x1CCC JUMP JUMPDEST DUP1 ISZERO PUSH2 0x3AD JUMPI DUP1 PUSH1 0x1F LT PUSH2 0x382 JUMPI PUSH2 0x100 DUP1 DUP4 SLOAD DIV MUL DUP4 MSTORE SWAP2 PUSH1 0x20 ADD SWAP2 PUSH2 0x3AD JUMP JUMPDEST DUP3 ADD SWAP2 SWAP1 PUSH1 0x0 MSTORE PUSH1 0x20 PUSH1 0x0 KECCAK256 SWAP1 JUMPDEST DUP2 SLOAD DUP2 MSTORE SWAP1 PUSH1 0x1 ADD SWAP1 PUSH1 0x20 ADD DUP1 DUP4 GT PUSH2 0x390 JUMPI DUP3 SWAP1 SUB PUSH1 0x1F AND DUP3 ADD SWAP2 JUMPDEST POP POP POP POP POP SWAP7 POP DUP1 DUP1 SLOAD DUP1 PUSH1 0x20 MUL PUSH1 0x20 ADD PUSH1 0x40 MLOAD SWAP1 DUP2 ADD PUSH1 0x40 MSTORE DUP1 SWAP3 SWAP2 SWAP1 DUP2 DUP2 MSTORE PUSH1 0x20 ADD PUSH1 0x0 SWAP1 JUMPDEST DUP3 DUP3 LT ISZERO PUSH2 0x481 JUMPI DUP4 DUP3 SWAP1 PUSH1 0x0 MSTORE PUSH1 0x20 PUSH1 0x0 KECCAK256 ADD DUP1 SLOAD PUSH2 0x3F4 SWAP1 PUSH2 0x1CCC JUMP JUMPDEST DUP1 PUSH1 0x1F ADD PUSH1 0x20 DUP1 SWAP2 DIV MUL PUSH1 0x20 ADD PUSH1 0x40 MLOAD SWAP1 DUP2 ADD PUSH1 0x40 MSTORE DUP1 SWAP3 SWAP2 SWAP1 DUP2 DUP2 MSTORE PUSH1 0x20 ADD DUP3 DUP1 SLOAD PUSH2 0x420 SWAP1 PUSH2 0x1CCC JUMP JUMPDEST DUP1 ISZERO PUSH2 0x46D JUMPI DUP1 PUSH1 0x1F LT PUSH2 0x442 JUMPI PUSH2 0x100 DUP1 DUP4 SLOAD DIV MUL DUP4 MSTORE SWAP2 PUSH1 0x20 ADD SWAP2 PUSH2 0x46D JUMP JUMPDEST DUP3 ADD SWAP2 SWAP1 PUSH1 0x0 MSTORE PUSH1 0x20 PUSH1 0x0 KECCAK256 SWAP1 JUMPDEST DUP2 SLOAD DUP2 MSTORE SWAP1 PUSH1 0x1 ADD SWAP1 PUSH1 0x20 ADD DUP1 DUP4 GT PUSH2 0x450 JUMPI DUP3 SWAP1 SUB PUSH1 0x1F AND DUP3 ADD SWAP2 JUMPDEST POP POP POP POP POP DUP2 MSTORE PUSH1 0x20 ADD SWAP1 PUSH1 0x1 ADD SWAP1 PUSH2 0x3D5 JUMP JUMPDEST POP POP POP POP SWAP1 POP SWAP11 POP SWAP11 POP SWAP11 POP SWAP11 POP SWAP11 POP SWAP11 POP SWAP11 POP SWAP11 POP SWAP11 POP POP POP SWAP2 SWAP4 SWAP6 SWAP8 SWAP10 SWAP1 SWAP3 SWAP5 SWAP7 SWAP9 POP JUMP JUMPDEST PUSH1 0x0 DUP2 PUSH1 0x1 PUSH1 0x0 DUP3 DUP2 MSTORE PUSH1 0x20 ADD SWAP1 DUP2 MSTORE PUSH1 0x20 ADD PUSH1 0x0 KECCAK256 PUSH1 0xA ADD PUSH1 0x0 SWAP1 SLOAD SWAP1 PUSH2 0x100 EXP SWAP1 DIV PUSH1 0xFF AND PUSH2 0x50E JUMPI PUSH1 0x40 MLOAD PUSH32 0x8C379A000000000000000000000000000000000000000000000000000000000 DUP2 MSTORE PUSH1 0x4 ADD PUSH2 0x505 SWAP1 PUSH2 0x1C7D JUMP JUMPDEST PUSH1 0x40 MLOAD DUP1 SWAP2 SUB SWAP1 REVERT JUMPDEST PUSH1 0x0 PUSH1 0x1 PUSH1 0x0 DUP6 DUP2 MSTORE PUSH1 0x20 ADD SWAP1 DUP2 MSTORE PUSH1 0x20 ADD PUSH1 0x0 KECCAK256 SWAP1 POP PUSH1 0x0 DUP2 PUSH1 0x9 ADD DUP1 SLOAD SWAP1 POP SWAP1 POP PUSH1 0x0 PUSH1 0xA DUP3 PUSH2 0x540 SWAP2 SWAP1 PUSH2 0x1D2C JUMP JUMPDEST SWAP1 POP PUSH1 0x32 DUP2 GT ISZERO PUSH2 0x550 JUMPI PUSH1 0x32 SWAP1 POP JUMPDEST PUSH1 0x0 DUP1 DUP4 GT DUP1 ISZERO PUSH2 0x573 JUMPI POP PUSH3 0x93A80 DUP5 PUSH1 0x8 ADD SLOAD PUSH2 0x56F SWAP2 SWAP1 PUSH2 0x1D6E JUMP JUMPDEST TIMESTAMP GT ISZERO JUMPDEST ISZERO PUSH2 0x57D JUMPI PUSH1 0xA SWAP1 POP JUMPDEST PUSH1 0x0 DUP1 DUP6 PUSH1 0x5 ADD SLOAD GT ISZERO PUSH2 0x5DA JUMPI PUSH1 0x0 DUP6 PUSH1 0x5 ADD SLOAD PUSH1 0x64 DUP8 PUSH1 0x6 ADD SLOAD PUSH2 0x5A3 SWAP2 SWAP1 PUSH2 0x1D2C JUMP JUMPDEST PUSH2 0x5AD SWAP2 SWAP1 PUSH2 0x1DD1 JUMP JUMPDEST SWAP1 POP PUSH1 0x2 PUSH1 0xA DUP3 PUSH2 0x5BE SWAP2 SWAP1 PUSH2 0x1DD1 JUMP JUMPDEST PUSH2 0x5C8 SWAP2 SWAP1 PUSH2 0x1D2C JUMP JUMPDEST SWAP2 POP PUSH1 0x14 DUP3 GT ISZERO PUSH2 0x5D8 JUMPI PUSH1 0x14 SWAP2 POP JUMPDEST POP JUMPDEST PUSH1 0x0 DUP2 DUP4 DUP6 PUSH2 0x5E9 SWAP2 SWAP1 PUSH2 0x1D6E JUMP JUMPDEST PUSH2 0x5F3 SWAP2 SWAP1 PUSH2 0x1D6E JUMP JUMPDEST SWAP1 POP PUSH1 0x64 DUP2 GT ISZERO PUSH2 0x603 JUMPI PUSH1 0x64 SWAP1 POP JUMPDEST DUP1 DUP7 PUSH1 0x7 ADD DUP2 SWAP1 SSTORE POP DUP9 PUSH32 0x20D456995C74D5114F87879B10C5214B9C28E11EA422EEB922CC2E755095669F DUP3 PUSH1 0x40 MLOAD PUSH2 0x63C SWAP2 SWAP1 PUSH2 0x1807 JUMP JUMPDEST PUSH1 0x40 MLOAD DUP1 SWAP2 SUB SWAP1 LOG2 DUP1 SWAP8 POP POP POP POP POP POP POP POP SWAP2 SWAP1 POP JUMP JUMPDEST PUSH1 0x0 DUP2 PUSH1 0x1 PUSH1 0x0 DUP3 DUP2 MSTORE PUSH1 0x20 ADD SWAP1 DUP2 MSTORE PUSH1 0x20 ADD PUSH1 0x0 KECCAK256 PUSH1 0xA ADD PUSH1 0x0 SWAP1 SLOAD SWAP1 PUSH2 0x100 EXP SWAP1 DIV PUSH1 0xFF AND PUSH2 0x6B9 JUMPI PUSH1 0x40 MLOAD PUSH32 0x8C379A000000000000000000000000000000000000000000000000000000000 DUP2 MSTORE PUSH1 0x4 ADD PUSH2 0x6B0 SWAP1 PUSH2 0x1C7D JUMP JUMPDEST PUSH1 0x40 MLOAD DUP1 SWAP2 SUB SWAP1 REVERT JUMPDEST PUSH1 0x1 PUSH1 0x0 DUP5 DUP2 MSTORE PUSH1 0x20 ADD SWAP1 DUP2 MSTORE PUSH1 0x20 ADD PUSH1 0x0 KECCAK256 PUSH1 0x7 ADD SLOAD SWAP2 POP POP SWAP2 SWAP1 POP JUMP JUMPDEST PUSH1 0x0 DUP6 DUP6 SWAP1 POP GT PUSH2 0x71E JUMPI PUSH1 0x40 MLOAD PUSH32 0x8C379A000000000000000000000000000000000000000000000000000000000 DUP2 MSTORE PUSH1 0x4 ADD PUSH2 0x715 SWAP1 PUSH2 0x1E4E JUMP JUMPDEST PUSH1 0x40 MLOAD DUP1 SWAP2 SUB SWAP1 REVERT JUMPDEST PUSH1 0x0 DUP2 GT PUSH2 0x761 JUMPI PUSH1 0x40 MLOAD PUSH32 0x8C379A000000000000000000000000000000000000000000000000000000000 DUP2 MSTORE PUSH1 0x4 ADD PUSH2 0x758 SWAP1 PUSH2 0x1EBA JUMP JUMPDEST PUSH1 0x40 MLOAD DUP1 SWAP2 SUB SWAP1 REVERT JUMPDEST PUSH1 0x0 DUP3 GT PUSH2 0x7A4 JUMPI PUSH1 0x40 MLOAD PUSH32 0x8C379A000000000000000000000000000000000000000000000000000000000 DUP2 MSTORE PUSH1 0x4 ADD PUSH2 0x79B SWAP1 PUSH2 0x1F26 JUMP JUMPDEST PUSH1 0x40 MLOAD DUP1 SWAP2 SUB SWAP1 REVERT JUMPDEST PUSH1 0x0 DUP1 SLOAD SWAP1 POP PUSH1 0x0 DUP1 DUP2 SLOAD DUP1 SWAP3 SWAP2 SWAP1 PUSH2 0x7BC SWAP1 PUSH2 0x1F46 JUMP JUMPDEST SWAP2 SWAP1 POP SSTORE POP PUSH1 0x0 PUSH1 0x1 PUSH1 0x0 DUP4 DUP2 MSTORE PUSH1 0x20 ADD SWAP1 DUP2 MSTORE PUSH1 0x20 ADD PUSH1 0x0 KECCAK256 SWAP1 POP DUP2 DUP2 PUSH1 0x0 ADD DUP2 SWAP1 SSTORE POP CALLER DUP2 PUSH1 0x1 ADD PUSH1 0x0 PUSH2 0x100 EXP DUP2 SLOAD DUP2 PUSH20 0xFFFFFFFFFFFFFFFFFFFFFFFFFFFFFFFFFFFFFFFF MUL NOT AND SWAP1 DUP4 PUSH20 0xFFFFFFFFFFFFFFFFFFFFFFFFFFFFFFFFFFFFFFFF AND MUL OR SWAP1 SSTORE POP DUP7 DUP7 DUP3 PUSH1 0x2 ADD SWAP2 DUP3 PUSH2 0x837 SWAP3 SWAP2 SWAP1 PUSH2 0x2174 JUMP JUMPDEST POP DUP5 DUP2 PUSH1 0x3 ADD DUP2 SWAP1 SSTORE POP DUP4 DUP2 PUSH1 0x4 ADD DUP2 SWAP1 SSTORE POP DUP3 DUP2 PUSH1 0x5 ADD DUP2 SWAP1 SSTORE POP PUSH1 0x0 DUP2 PUSH1 0x6 ADD DUP2 SWAP1 SSTORE POP PUSH1 0x0 DUP2 PUSH1 0x7 ADD DUP2 SWAP1 SSTORE POP TIMESTAMP DUP2 PUSH1 0x8 ADD DUP2 SWAP1 SSTORE POP PUSH1 0x1 DUP2 PUSH1 0xA ADD PUSH1 0x0 PUSH2 0x100 EXP DUP2 SLOAD DUP2 PUSH1 0xFF MUL NOT AND SWAP1 DUP4 ISZERO ISZERO MUL OR SWAP1 SSTORE POP PUSH1 0x2 DUP3 SWAP1 DUP1 PUSH1 0x1 DUP2 SLOAD ADD DUP1 DUP3 SSTORE DUP1 SWAP2 POP POP PUSH1 0x1 SWAP1 SUB SWAP1 PUSH1 0x0 MSTORE PUSH1 0x20 PUSH1 0x0 KECCAK256 ADD PUSH1 0x0 SWAP1 SWAP2 SWAP1 SWAP2 SWAP1 SWAP2 POP SSTORE CALLER PUSH20 0xFFFFFFFFFFFFFFFFFFFFFFFFFFFFFFFFFFFFFFFF AND DUP3 PUSH32 0xD6950A5A53A38361C24EC18C089515CAEDE74366415BF2FB4569CB72099F5E1C DUP10 DUP10 DUP10 DUP10 DUP10 PUSH1 0x40 MLOAD PUSH2 0x905 SWAP6 SWAP5 SWAP4 SWAP3 SWAP2 SWAP1 PUSH2 0x2280 JUMP JUMPDEST PUSH1 0x40 MLOAD DUP1 SWAP2 SUB SWAP1 LOG3 POP POP POP POP POP POP POP JUMP JUMPDEST DUP1 PUSH1 0x1 PUSH1 0x0 DUP3 DUP2 MSTORE PUSH1 0x20 ADD SWAP1 DUP2 MSTORE PUSH1 0x20 ADD PUSH1 0x0 KECCAK256 PUSH1 0xA ADD PUSH1 0x0 SWAP1 SLOAD SWAP1 PUSH2 0x100 EXP SWAP1 DIV PUSH1 0xFF AND PUSH2 0x97A JUMPI PUSH1 0x40 MLOAD PUSH32 0x8C379A000000000000000000000000000000000000000000000000000000000 DUP2 MSTORE PUSH1 0x4 ADD PUSH2 0x971 SWAP1 PUSH2 0x1C7D JUMP JUMPDEST PUSH1 0x40 MLOAD DUP1 SWAP2 SUB SWAP1 REVERT JUMPDEST PUSH1 0x0 PUSH1 0x1 PUSH1 0x0 DUP5 DUP2 MSTORE PUSH1 0x20 ADD SWAP1 DUP2 MSTORE PUSH1 0x20 ADD PUSH1 0x0 KECCAK256 SWAP1 POP PUSH1 0x0 CALLVALUE GT PUSH2 0x9D4 JUMPI PUSH1 0x40 MLOAD PUSH32 0x8C379A000000000000000000000000000000000000000000000000000000000 DUP2 MSTORE PUSH1 0x4 ADD PUSH2 0x9CB SWAP1 PUSH2 0x231A JUMP JUMPDEST PUSH1 0x40 MLOAD DUP1 SWAP2 SUB SWAP1 REVERT JUMPDEST DUP1 PUSH1 0x5 ADD SLOAD CALLVALUE DUP3 PUSH1 0x6 ADD SLOAD PUSH2 0x9E9 SWAP2 SWAP1 PUSH2 0x1D6E JUMP JUMPDEST GT ISZERO PUSH2 0xA2A JUMPI PUSH1 0x40 MLOAD PUSH32 0x8C379A000000000000000000000000000000000000000000000000000000000 DUP2 MSTORE PUSH1 0x4 ADD PUSH2 0xA21 SWAP1 PUSH2 0x23AC JUMP JUMPDEST PUSH1 0x40 MLOAD DUP1 SWAP2 SUB SWAP1 REVERT JUMPDEST PUSH1 0x0 PUSH1 0x3 PUSH1 0x0 CALLER PUSH20 0xFFFFFFFFFFFFFFFFFFFFFFFFFFFFFFFFFFFFFFFF AND PUSH20 0xFFFFFFFFFFFFFFFFFFFFFFFFFFFFFFFFFFFFFFFF AND DUP2 MSTORE PUSH1 0x20 ADD SWAP1 DUP2 MSTORE PUSH1 0x20 ADD PUSH1 0x0 KECCAK256 SWAP1 POP DUP1 PUSH1 0x3 ADD PUSH1 0x0 SWAP1 SLOAD SWAP1 PUSH2 0x100 EXP SWAP1 DIV PUSH1 0xFF AND PUSH2 0xAE4 JUMPI CALLER DUP2 PUSH1 0x0 ADD PUSH1 0x0 PUSH2 0x100 EXP DUP2 SLOAD DUP2 PUSH20 0xFFFFFFFFFFFFFFFFFFFFFFFFFFFFFFFFFFFFFFFF MUL NOT AND SWAP1 DUP4 PUSH20 0xFFFFFFFFFFFFFFFFFFFFFFFFFFFFFFFFFFFFFFFF AND MUL OR SWAP1 SSTORE POP PUSH1 0x1 DUP2 PUSH1 0x3 ADD PUSH1 0x0 PUSH2 0x100 EXP DUP2 SLOAD DUP2 PUSH1 0xFF MUL NOT AND SWAP1 DUP4 ISZERO ISZERO MUL OR SWAP1 SSTORE POP JUMPDEST PUSH1 0x0 DUP2 PUSH1 0x1 ADD PUSH1 0x0 DUP7 DUP2 MSTORE PUSH1 0x20 ADD SWAP1 DUP2 MSTORE PUSH1 0x20 ADD PUSH1 0x0 KECCAK256 SLOAD SUB PUSH2 0xB2D JUMPI DUP1 PUSH1 0x2 ADD DUP5 SWAP1 DUP1 PUSH1 0x1 DUP2 SLOAD ADD DUP1 DUP3 SSTORE DUP1 SWAP2 POP POP PUSH1 0x1 SWAP1 SUB SWAP1 PUSH1 0x0 MSTORE PUSH1 0x20 PUSH1 0x0 KECCAK256 ADD PUSH1 0x0 SWAP1 SWAP2 SWAP1 SWAP2 SWAP1 SWAP2 POP SSTORE JUMPDEST CALLVALUE DUP2 PUSH1 0x1 ADD PUSH1 0x0 DUP7 DUP2 MSTORE PUSH1 0x20 ADD SWAP1 DUP2 MSTORE PUSH1 0x20 ADD PUSH1 0x0 KECCAK256 PUSH1 0x0 DUP3 DUP3 SLOAD PUSH2 0xB52 SWAP2 SWAP1 PUSH2 0x1D6E JUMP JUMPDEST SWAP3 POP POP DUP2 SWAP1 SSTORE POP CALLVALUE DUP3 PUSH1 0x6 ADD PUSH1 0x0 DUP3 DUP3 SLOAD PUSH2 0xB6D SWAP2 SWAP1 PUSH2 0x1D6E JUMP JUMPDEST SWAP3 POP POP DUP2 SWAP1 SSTORE POP PUSH1 0x0 DUP3 PUSH1 0x1 ADD PUSH1 0x0 SWAP1 SLOAD SWAP1 PUSH2 0x100 EXP SWAP1 DIV PUSH20 0xFFFFFFFFFFFFFFFFFFFFFFFFFFFFFFFFFFFFFFFF AND PUSH20 0xFFFFFFFFFFFFFFFFFFFFFFFFFFFFFFFFFFFFFFFF AND CALLVALUE PUSH1 0x40 MLOAD PUSH2 0xBBE SWAP1 PUSH2 0x23FD JUMP JUMPDEST PUSH1 0x0 PUSH1 0x40 MLOAD DUP1 DUP4 SUB DUP2 DUP6 DUP8 GAS CALL SWAP3 POP POP POP RETURNDATASIZE DUP1 PUSH1 0x0 DUP2 EQ PUSH2 0xBFB JUMPI PUSH1 0x40 MLOAD SWAP2 POP PUSH1 0x1F NOT PUSH1 0x3F RETURNDATASIZE ADD AND DUP3 ADD PUSH1 0x40 MSTORE RETURNDATASIZE DUP3 MSTORE RETURNDATASIZE PUSH1 0x0 PUSH1 0x20 DUP5 ADD RETURNDATACOPY PUSH2 0xC00 JUMP JUMPDEST PUSH1 0x60 SWAP2 POP JUMPDEST POP POP SWAP1 POP DUP1 PUSH2 0xC44 JUMPI PUSH1 0x40 MLOAD PUSH32 0x8C379A000000000000000000000000000000000000000000000000000000000 DUP2 MSTORE PUSH1 0x4 ADD PUSH2 0xC3B SWAP1 PUSH2 0x2484 JUMP JUMPDEST PUSH1 0x40 MLOAD DUP1 SWAP2 SUB SWAP1 REVERT JUMPDEST CALLER PUSH20 0xFFFFFFFFFFFFFFFFFFFFFFFFFFFFFFFFFFFFFFFF AND DUP6 PUSH32 0x271DEC505C61C970BDD791A963B7162D814EDF6292F40C4BEEF2AF1E48EEA1E8 CALLVALUE DUP7 PUSH1 0x6 ADD SLOAD PUSH1 0x40 MLOAD PUSH2 0xC91 SWAP3 SWAP2 SWAP1 PUSH2 0x24A4 JUMP JUMPDEST PUSH1 0x40 MLOAD DUP1 SWAP2 SUB SWAP1 LOG3 PUSH2 0xCA2 DUP6 PUSH2 0x4A8 JUMP JUMPDEST POP POP POP POP POP POP JUMP JUMPDEST PUSH1 0x60 DUP1 PUSH1 0x0 PUSH1 0x3 PUSH1 0x0 DUP6 PUSH20 0xFFFFFFFFFFFFFFFFFFFFFFFFFFFFFFFFFFFFFFFF AND PUSH20 0xFFFFFFFFFFFFFFFFFFFFFFFFFFFFFFFFFFFFFFFF AND DUP2 MSTORE PUSH1 0x20 ADD SWAP1 DUP2 MSTORE PUSH1 0x20 ADD PUSH1 0x0 KECCAK256 SWAP1 POP PUSH1 0x0 DUP2 PUSH1 0x2 ADD DUP1 SLOAD SWAP1 POP SWAP1 POP DUP1 PUSH8 0xFFFFFFFFFFFFFFFF DUP2 GT ISZERO PUSH2 0xD16 JUMPI PUSH2 0xD15 PUSH2 0x1F99 JUMP JUMPDEST JUMPDEST PUSH1 0x40 MLOAD SWAP1 DUP1 DUP3 MSTORE DUP1 PUSH1 0x20 MUL PUSH1 0x20 ADD DUP3 ADD PUSH1 0x40 MSTORE DUP1 ISZERO PUSH2 0xD44 JUMPI DUP2 PUSH1 0x20 ADD PUSH1 0x20 DUP3 MUL DUP1 CALLDATASIZE DUP4 CALLDATACOPY DUP1 DUP3 ADD SWAP2 POP POP SWAP1 POP JUMPDEST POP SWAP4 POP DUP1 PUSH8 0xFFFFFFFFFFFFFFFF DUP2 GT ISZERO PUSH2 0xD61 JUMPI PUSH2 0xD60 PUSH2 0x1F99 JUMP JUMPDEST JUMPDEST PUSH1 0x40 MLOAD SWAP1 DUP1 DUP3 MSTORE DUP1 PUSH1 0x20 MUL PUSH1 0x20 ADD DUP3 ADD PUSH1 0x40 MSTORE DUP1 ISZERO PUSH2 0xD8F JUMPI DUP2 PUSH1 0x20 ADD PUSH1 0x20 DUP3 MUL DUP1 CALLDATASIZE DUP4 CALLDATACOPY DUP1 DUP3 ADD SWAP2 POP POP SWAP1 POP JUMPDEST POP SWAP3 POP PUSH1 0x0 JUMPDEST DUP2 DUP2 LT ISZERO PUSH2 0xE2B JUMPI PUSH1 0x0 DUP4 PUSH1 0x2 ADD DUP3 DUP2 SLOAD DUP2 LT PUSH2 0xDB5 JUMPI PUSH2 0xDB4 PUSH2 0x24CD JUMP JUMPDEST JUMPDEST SWAP1 PUSH1 0x0 MSTORE PUSH1 0x20 PUSH1 0x0 KECCAK256 ADD SLOAD SWAP1 POP DUP1 DUP7 DUP4 DUP2 MLOAD DUP2 LT PUSH2 0xDD6 JUMPI PUSH2 0xDD5 PUSH2 0x24CD JUMP JUMPDEST JUMPDEST PUSH1 0x20 MUL PUSH1 0x20 ADD ADD DUP2 DUP2 MSTORE POP POP DUP4 PUSH1 0x1 ADD PUSH1 0x0 DUP3 DUP2 MSTORE PUSH1 0x20 ADD SWAP1 DUP2 MSTORE PUSH1 0x20 ADD PUSH1 0x0 KECCAK256 SLOAD DUP6 DUP4 DUP2 MLOAD DUP2 LT PUSH2 0xE0B JUMPI PUSH2 0xE0A PUSH2 0x24CD JUMP JUMPDEST JUMPDEST PUSH1 0x20 MUL PUSH1 0x20 ADD ADD DUP2 DUP2 MSTORE POP POP POP DUP1 DUP1 PUSH2 0xE23 SWAP1 PUSH2 0x1F46 JUMP JUMPDEST SWAP2 POP POP PUSH2 0xD95 JUMP JUMPDEST POP POP POP SWAP2 POP SWAP2 JUMP JUMPDEST DUP3 PUSH1 0x1 PUSH1 0x0 DUP3 DUP2 MSTORE PUSH1 0x20 ADD SWAP1 DUP2 MSTORE PUSH1 0x20 ADD PUSH1 0x0 KECCAK256 PUSH1 0xA ADD PUSH1 0x0 SWAP1 SLOAD SWAP1 PUSH2 0x100 EXP SWAP1 DIV PUSH1 0xFF AND PUSH2 0xE97 JUMPI PUSH1 0x40 MLOAD PUSH32 0x8C379A000000000000000000000000000000000000000000000000000000000 DUP2 MSTORE PUSH1 0x4 ADD PUSH2 0xE8E SWAP1 PUSH2 0x1C7D JUMP JUMPDEST PUSH1 0x40 MLOAD DUP1 SWAP2 SUB SWAP1 REVERT JUMPDEST DUP4 CALLER PUSH20 0xFFFFFFFFFFFFFFFFFFFFFFFFFFFFFFFFFFFFFFFF AND PUSH1 0x1 PUSH1 0x0 DUP4 DUP2 MSTORE PUSH1 0x20 ADD SWAP1 DUP2 MSTORE PUSH1 0x20 ADD PUSH1 0x0 KECCAK256 PUSH1 0x1 ADD PUSH1 0x0 SWAP1 SLOAD SWAP1 PUSH2 0x100 EXP SWAP1 DIV PUSH20 0xFFFFFFFFFFFFFFFFFFFFFFFFFFFFFFFFFFFFFFFF AND PUSH20 0xFFFFFFFFFFFFFFFFFFFFFFFFFFFFFFFFFFFFFFFF AND EQ PUSH2 0xF3C JUMPI PUSH1 0x40 MLOAD PUSH32 0x8C379A000000000000000000000000000000000000000000000000000000000 DUP2 MSTORE PUSH1 0x4 ADD PUSH2 0xF33 SWAP1 PUSH2 0x256E JUMP JUMPDEST PUSH1 0x40 MLOAD DUP1 SWAP2 SUB SWAP1 REVERT JUMPDEST PUSH1 0x0 DUP5 DUP5 SWAP1 POP GT PUSH2 0xF82 JUMPI PUSH1 0x40 MLOAD PUSH32 0x8C379A000000000000000000000000000000000000000000000000000000000 DUP2 MSTORE PUSH1 0x4 ADD PUSH2 0xF79 SWAP1 PUSH2 0x25DA JUMP JUMPDEST PUSH1 0x40 MLOAD DUP1 SWAP2 SUB SWAP1 REVERT JUMPDEST PUSH1 0x0 PUSH1 0x1 PUSH1 0x0 DUP8 DUP2 MSTORE PUSH1 0x20 ADD SWAP1 DUP2 MSTORE PUSH1 0x20 ADD PUSH1 0x0 KECCAK256 SWAP1 POP DUP1 PUSH1 0x9 ADD DUP6 DUP6 SWAP1 SWAP2 DUP1 PUSH1 0x1 DUP2 SLOAD ADD DUP1 DUP3 SSTORE DUP1 SWAP2 POP POP PUSH1 0x1 SWAP1 SUB SWAP1 PUSH1 0x0 MSTORE PUSH1 0x20 PUSH1 0x0 KECCAK256 ADD PUSH1 0x0 SWAP1 SWAP2 SWAP3 SWAP1 SWAP2 SWAP3 SWAP1 SWAP2 SWAP3 SWAP1 SWAP2 SWAP3 POP SWAP2 DUP3 PUSH2 0xFD8 SWAP3 SWAP2 SWAP1 PUSH2 0x2174 JUMP JUMPDEST POP CALLER PUSH20 0xFFFFFFFFFFFFFFFFFFFFFFFFFFFFFFFFFFFFFFFF AND DUP7 PUSH32 0xC188596F32652D64253D21C2BBB3F1B4794308B7FBE9384000FFE306650D0B96 DUP8 DUP8 DUP6 PUSH1 0x9 ADD DUP1 SLOAD SWAP1 POP PUSH1 0x40 MLOAD PUSH2 0x102B SWAP4 SWAP3 SWAP2 SWAP1 PUSH2 0x25FA JUMP JUMPDEST PUSH1 0x40 MLOAD DUP1 SWAP2 SUB SWAP1 LOG3 PUSH2 0x103C DUP7 PUSH2 0x4A8 JUMP JUMPDEST POP POP POP POP POP POP POP JUMP JUMPDEST PUSH1 0x60 DUP1 PUSH1 0x60 DUP1 PUSH1 0x60 DUP1 PUSH1 0x60 DUP1 PUSH1 0x0 PUSH1 0x2 DUP1 SLOAD SWAP1 POP SWAP1 POP DUP1 PUSH8 0xFFFFFFFFFFFFFFFF DUP2 GT ISZERO PUSH2 0x1075 JUMPI PUSH2 0x1074 PUSH2 0x1F99 JUMP JUMPDEST JUMPDEST PUSH1 0x40 MLOAD SWAP1 DUP1 DUP3 MSTORE DUP1 PUSH1 0x20 MUL PUSH1 0x20 ADD DUP3 ADD PUSH1 0x40 MSTORE DUP1 ISZERO PUSH2 0x10A3 JUMPI DUP2 PUSH1 0x20 ADD PUSH1 0x20 DUP3 MUL DUP1 CALLDATASIZE DUP4 CALLDATACOPY DUP1 DUP3 ADD SWAP2 POP POP SWAP1 POP JUMPDEST POP SWAP9 POP DUP1 PUSH8 0xFFFFFFFFFFFFFFFF DUP2 GT ISZERO PUSH2 0x10C0 JUMPI PUSH2 0x10BF PUSH2 0x1F99 JUMP JUMPDEST JUMPDEST PUSH1 0x40 MLOAD SWAP1 DUP1 DUP3 MSTORE DUP1 PUSH1 0x20 MUL PUSH1 0x20 ADD DUP3 ADD PUSH1 0x40 MSTORE DUP1 ISZERO PUSH2 0x10EE JUMPI DUP2 PUSH1 0x20 ADD PUSH1 0x20 DUP3 MUL DUP1 CALLDATASIZE DUP4 CALLDATACOPY DUP1 DUP3 ADD SWAP2 POP POP SWAP1 POP JUMPDEST POP SWAP8 POP DUP1 PUSH8 0xFFFFFFFFFFFFFFFF DUP2 GT ISZERO PUSH2 0x110B JUMPI PUSH2 0x110A PUSH2 0x1F99 JUMP JUMPDEST JUMPDEST PUSH1 0x40 MLOAD SWAP1 DUP1 DUP3 MSTORE DUP1 PUSH1 0x20 MUL PUSH1 0x20 ADD DUP3 ADD PUSH1 0x40 MSTORE DUP1 ISZERO PUSH2 0x113E JUMPI DUP2 PUSH1 0x20 ADD JUMPDEST PUSH1 0x60 DUP2 MSTORE PUSH1 0x20 ADD SWAP1 PUSH1 0x1 SWAP1 SUB SWAP1 DUP2 PUSH2 0x1129 JUMPI SWAP1 POP JUMPDEST POP SWAP7 POP DUP1 PUSH8 0xFFFFFFFFFFFFFFFF DUP2 GT ISZERO PUSH2 0x115B JUMPI PUSH2 0x115A PUSH2 0x1F99 JUMP JUMPDEST JUMPDEST PUSH1 0x40 MLOAD SWAP1 DUP1 DUP3 MSTORE DUP1 PUSH1 0x20 MUL PUSH1 0x20 ADD DUP3 ADD PUSH1 0x40 MSTORE DUP1 ISZERO PUSH2 0x1189 JUMPI DUP2 PUSH1 0x20 ADD PUSH1 0x20 DUP3 MUL DUP1 CALLDATASIZE DUP4 CALLDATACOPY DUP1 DUP3 ADD SWAP2 POP POP SWAP1 POP JUMPDEST POP SWAP6 POP DUP1 PUSH8 0xFFFFFFFFFFFFFFFF DUP2 GT ISZERO PUSH2 0x11A6 JUMPI PUSH2 0x11A5 PUSH2 0x1F99 JUMP JUMPDEST JUMPDEST PUSH1 0x40 MLOAD SWAP1 DUP1 DUP3 MSTORE DUP1 PUSH1 0x20 MUL PUSH1 0x20 ADD DUP3 ADD PUSH1 0x40 MSTORE DUP1 ISZERO PUSH2 0x11D4 JUMPI DUP2 PUSH1 0x20 ADD PUSH1 0x20 DUP3 MUL DUP1 CALLDATASIZE DUP4 CALLDATACOPY DUP1 DUP3 ADD SWAP2 POP POP SWAP1 POP JUMPDEST POP SWAP5 POP DUP1 PUSH8 0xFFFFFFFFFFFFFFFF DUP2 GT ISZERO PUSH2 0x11F1 JUMPI PUSH2 0x11F0 PUSH2 0x1F99 JUMP JUMPDEST JUMPDEST PUSH1 0x40 MLOAD SWAP1 DUP1 DUP3 MSTORE DUP1 PUSH1 0x20 MUL PUSH1 0x20 ADD DUP3 ADD PUSH1 0x40 MSTORE DUP1 ISZERO PUSH2 0x121F JUMPI DUP2 PUSH1 0x20 ADD PUSH1 0x20 DUP3 MUL DUP1 CALLDATASIZE DUP4 CALLDATACOPY DUP1 DUP3 ADD SWAP2 POP POP SWAP1 POP JUMPDEST POP SWAP4 POP DUP1 PUSH8 0xFFFFFFFFFFFFFFFF DUP2 GT ISZERO PUSH2 0x123C JUMPI PUSH2 0x123B PUSH2 0x1F99 JUMP JUMPDEST JUMPDEST PUSH1 0x40 MLOAD SWAP1 DUP1 DUP3 MSTORE DUP1 PUSH1 0x20 MUL PUSH1 0x20 ADD DUP3 ADD PUSH1 0x40 MSTORE DUP1 ISZERO PUSH2 0x126A JUMPI DUP2 PUSH1 0x20 ADD PUSH1 0x20 DUP3 MUL DUP1 CALLDATASIZE DUP4 CALLDATACOPY DUP1 DUP3 ADD SWAP2 POP POP SWAP1 POP JUMPDEST POP SWAP3 POP DUP1 PUSH8 0xFFFFFFFFFFFFFFFF DUP2 GT ISZERO PUSH2 0x1287 JUMPI PUSH2 0x1286 PUSH2 0x1F99 JUMP JUMPDEST JUMPDEST PUSH1 0x40 MLOAD SWAP1 DUP1 DUP3 MSTORE DUP1 PUSH1 0x20 MUL PUSH1 0x20 ADD DUP3 ADD PUSH1 0x40 MSTORE DUP1 ISZERO PUSH2 0x12B5 JUMPI DUP2 PUSH1 0x20 ADD PUSH1 0x20 DUP3 MUL DUP1 CALLDATASIZE DUP4 CALLDATACOPY DUP1 DUP3 ADD SWAP2 POP POP SWAP1 POP JUMPDEST POP SWAP2 POP PUSH1 0x0 JUMPDEST DUP2 DUP2 LT ISZERO PUSH2 0x1501 JUMPI PUSH1 0x0 PUSH1 0x1 PUSH1 0x0 PUSH1 0x2 DUP5 DUP2 SLOAD DUP2 LT PUSH2 0x12DD JUMPI PUSH2 0x12DC PUSH2 0x24CD JUMP JUMPDEST JUMPDEST SWAP1 PUSH1 0x0 MSTORE PUSH1 0x20 PUSH1 0x0 KECCAK256 ADD SLOAD DUP2 MSTORE PUSH1 0x20 ADD SWAP1 DUP2 MSTORE PUSH1 0x20 ADD PUSH1 0x0 KECCAK256 SWAP1 POP DUP1 PUSH1 0x0 ADD SLOAD DUP12 DUP4 DUP2 MLOAD DUP2 LT PUSH2 0x1310 JUMPI PUSH2 0x130F PUSH2 0x24CD JUMP JUMPDEST JUMPDEST PUSH1 0x20 MUL PUSH1 0x20 ADD ADD DUP2 DUP2 MSTORE POP POP DUP1 PUSH1 0x1 ADD PUSH1 0x0 SWAP1 SLOAD SWAP1 PUSH2 0x100 EXP SWAP1 DIV PUSH20 0xFFFFFFFFFFFFFFFFFFFFFFFFFFFFFFFFFFFFFFFF AND DUP11 DUP4 DUP2 MLOAD DUP2 LT PUSH2 0x1354 JUMPI PUSH2 0x1353 PUSH2 0x24CD JUMP JUMPDEST JUMPDEST PUSH1 0x20 MUL PUSH1 0x20 ADD ADD SWAP1 PUSH20 0xFFFFFFFFFFFFFFFFFFFFFFFFFFFFFFFFFFFFFFFF AND SWAP1 DUP2 PUSH20 0xFFFFFFFFFFFFFFFFFFFFFFFFFFFFFFFFFFFFFFFF AND DUP2 MSTORE POP POP DUP1 PUSH1 0x2 ADD DUP1 SLOAD PUSH2 0x139D SWAP1 PUSH2 0x1CCC JUMP JUMPDEST DUP1 PUSH1 0x1F ADD PUSH1 0x20 DUP1 SWAP2 DIV MUL PUSH1 0x20 ADD PUSH1 0x40 MLOAD SWAP1 DUP2 ADD PUSH1 0x40 MSTORE DUP1 SWAP3 SWAP2 SWAP1 DUP2 DUP2 MSTORE PUSH1 0x20 ADD DUP3 DUP1 SLOAD PUSH2 0x13C9 SWAP1 PUSH2 0x1CCC JUMP JUMPDEST DUP1 ISZERO PUSH2 0x1416 JUMPI DUP1 PUSH1 0x1F LT PUSH2 0x13EB JUMPI PUSH2 0x100 DUP1 DUP4 SLOAD DIV MUL DUP4 MSTORE SWAP2 PUSH1 0x20 ADD SWAP2 PUSH2 0x1416 JUMP JUMPDEST DUP3 ADD SWAP2 SWAP1 PUSH1 0x0 MSTORE PUSH1 0x20 PUSH1 0x0 KECCAK256 SWAP1 JUMPDEST DUP2 SLOAD DUP2 MSTORE SWAP1 PUSH1 0x1 ADD SWAP1 PUSH1 0x20 ADD DUP1 DUP4 GT PUSH2 0x13F9 JUMPI DUP3 SWAP1 SUB PUSH1 0x1F AND DUP3 ADD SWAP2 JUMPDEST POP POP POP POP POP DUP10 DUP4 DUP2 MLOAD DUP2 LT PUSH2 0x142E JUMPI PUSH2 0x142D PUSH2 0x24CD JUMP JUMPDEST JUMPDEST PUSH1 0x20 MUL PUSH1 0x20 ADD ADD DUP2 SWAP1 MSTORE POP DUP1 PUSH1 0x3 ADD SLOAD DUP9 DUP4 DUP2 MLOAD DUP2 LT PUSH2 0x1451 JUMPI PUSH2 0x1450 PUSH2 0x24CD JUMP JUMPDEST JUMPDEST PUSH1 0x20 MUL PUSH1 0x20 ADD ADD DUP2 DUP2 MSTORE POP POP DUP1 PUSH1 0x4 ADD SLOAD DUP8 DUP4 DUP2 MLOAD DUP2 LT PUSH2 0x1475 JUMPI PUSH2 0x1474 PUSH2 0x24CD JUMP JUMPDEST JUMPDEST PUSH1 0x20 MUL PUSH1 0x20 ADD ADD DUP2 DUP2 MSTORE POP POP DUP1 PUSH1 0x5 ADD SLOAD DUP7 DUP4 DUP2 MLOAD DUP2 LT PUSH2 0x1499 JUMPI PUSH2 0x1498 PUSH2 0x24CD JUMP JUMPDEST JUMPDEST PUSH1 0x20 MUL PUSH1 0x20 ADD ADD DUP2 DUP2 MSTORE POP POP DUP1 PUSH1 0x6 ADD SLOAD DUP6 DUP4 DUP2 MLOAD DUP2 LT PUSH2 0x14BD JUMPI PUSH2 0x14BC PUSH2 0x24CD JUMP JUMPDEST JUMPDEST PUSH1 0x20 MUL PUSH1 0x20 ADD ADD DUP2 DUP2 MSTORE POP POP DUP1 PUSH1 0x7 ADD SLOAD DUP5 DUP4 DUP2 MLOAD DUP2 LT PUSH2 0x14E1 JUMPI PUSH2 0x14E0 PUSH2 0x24CD JUMP JUMPDEST JUMPDEST PUSH1 0x20 MUL PUSH1 0x20 ADD ADD DUP2 DUP2 MSTORE POP POP POP DUP1 DUP1 PUSH2 0x14F9 SWAP1 PUSH2 0x1F46 JUMP JUMPDEST SWAP2 POP POP PUSH2 0x12BB JUMP JUMPDEST POP POP SWAP1 SWAP2 SWAP3 SWAP4 SWAP5 SWAP6 SWAP7 SWAP8 JUMP JUMPDEST PUSH1 0x0 SLOAD DUP2 JUMP JUMPDEST PUSH1 0x0 DUP1 REVERT JUMPDEST PUSH1 0x0 DUP1 REVERT JUMPDEST PUSH1 0x0 DUP2 SWAP1 POP SWAP2 SWAP1 POP JUMP JUMPDEST PUSH2 0x1530 DUP2 PUSH2 0x151D JUMP JUMPDEST DUP2 EQ PUSH2 0x153B JUMPI PUSH1 0x0 DUP1 REVERT JUMPDEST POP JUMP JUMPDEST PUSH1 0x0 DUP2 CALLDATALOAD SWAP1 POP PUSH2 0x154D DUP2 PUSH2 0x1527 JUMP JUMPDEST SWAP3 SWAP2 POP POP JUMP JUMPDEST PUSH1 0x0 PUSH1 0x20 DUP3 DUP5 SUB SLT ISZERO PUSH2 0x1569 JUMPI PUSH2 0x1568 PUSH2 0x1513 JUMP JUMPDEST JUMPDEST PUSH1 0x0 PUSH2 0x1577 DUP5 DUP3 DUP6 ADD PUSH2 0x153E JUMP JUMPDEST SWAP2 POP POP SWAP3 SWAP2 POP POP JUMP JUMPDEST PUSH2 0x1589 DUP2 PUSH2 0x151D JUMP JUMPDEST DUP3 MSTORE POP POP JUMP JUMPDEST PUSH1 0x0 PUSH20 0xFFFFFFFFFFFFFFFFFFFFFFFFFFFFFFFFFFFFFFFF DUP3 AND SWAP1 POP SWAP2 SWAP1 POP JUMP JUMPDEST PUSH1 0x0 PUSH2 0x15BA DUP3 PUSH2 0x158F JUMP JUMPDEST SWAP1 POP SWAP2 SWAP1 POP JUMP JUMPDEST PUSH2 0x15CA DUP2 PUSH2 0x15AF JUMP JUMPDEST DUP3 MSTORE POP POP JUMP JUMPDEST PUSH1 0x0 DUP2 MLOAD SWAP1 POP SWAP2 SWAP1 POP JUMP JUMPDEST PUSH1 0x0 DUP3 DUP3 MSTORE PUSH1 0x20 DUP3 ADD SWAP1 POP SWAP3 SWAP2 POP POP JUMP JUMPDEST PUSH1 0x0 JUMPDEST DUP4 DUP2 LT ISZERO PUSH2 0x160A JUMPI DUP1 DUP3 ADD MLOAD DUP2 DUP5 ADD MSTORE PUSH1 0x20 DUP2 ADD SWAP1 POP PUSH2 0x15EF JUMP JUMPDEST PUSH1 0x0 DUP5 DUP5 ADD MSTORE POP POP POP POP JUMP JUMPDEST PUSH1 0x0 PUSH1 0x1F NOT PUSH1 0x1F DUP4 ADD AND SWAP1 POP SWAP2 SWAP1 POP JUMP JUMPDEST PUSH1 0x0 PUSH2 0x1632 DUP3 PUSH2 0x15D0 JUMP JUMPDEST PUSH2 0x163C DUP2 DUP6 PUSH2 0x15DB JUMP JUMPDEST SWAP4 POP PUSH2 0x164C DUP2 DUP6 PUSH1 0x20 DUP7 ADD PUSH2 0x15EC JUMP JUMPDEST PUSH2 0x1655 DUP2 PUSH2 0x1616 JUMP JUMPDEST DUP5 ADD SWAP2 POP POP SWAP3 SWAP2 POP POP JUMP JUMPDEST PUSH1 0x0 DUP2 MLOAD SWAP1 POP SWAP2 SWAP1 POP JUMP JUMPDEST PUSH1 0x0 DUP3 DUP3 MSTORE PUSH1 0x20 DUP3 ADD SWAP1 POP SWAP3 SWAP2 POP POP JUMP JUMPDEST PUSH1 0x0 DUP2 SWAP1 POP PUSH1 0x20 DUP3 ADD SWAP1 POP SWAP2 SWAP1 POP JUMP JUMPDEST PUSH1 0x0 DUP3 DUP3 MSTORE PUSH1 0x20 DUP3 ADD SWAP1 POP SWAP3 SWAP2 POP POP JUMP JUMPDEST PUSH1 0x0 PUSH2 0x16A8 DUP3 PUSH2 0x15D0 JUMP JUMPDEST PUSH2 0x16B2 DUP2 DUP6 PUSH2 0x168C JUMP JUMPDEST SWAP4 POP PUSH2 0x16C2 DUP2 DUP6 PUSH1 0x20 DUP7 ADD PUSH2 0x15EC JUMP JUMPDEST PUSH2 0x16CB DUP2 PUSH2 0x1616 JUMP JUMPDEST DUP5 ADD SWAP2 POP POP SWAP3 SWAP2 POP POP JUMP JUMPDEST PUSH1 0x0 PUSH2 0x16E2 DUP4 DUP4 PUSH2 0x169D JUMP JUMPDEST SWAP1 POP SWAP3 SWAP2 POP POP JUMP JUMPDEST PUSH1 0x0 PUSH1 0x20 DUP3 ADD SWAP1 POP SWAP2 SWAP1 POP JUMP JUMPDEST PUSH1 0x0 PUSH2 0x1702 DUP3 PUSH2 0x1660 JUMP JUMPDEST PUSH2 0x170C DUP2 DUP6 PUSH2 0x166B JUMP JUMPDEST SWAP4 POP DUP4 PUSH1 0x20 DUP3 MUL DUP6 ADD PUSH2 0x171E DUP6 PUSH2 0x167C JUMP JUMPDEST DUP1 PUSH1 0x0 JUMPDEST DUP6 DUP2 LT ISZERO PUSH2 0x175A JUMPI DUP5 DUP5 SUB DUP10 MSTORE DUP2 MLOAD PUSH2 0x173B DUP6 DUP3 PUSH2 0x16D6 JUMP JUMPDEST SWAP5 POP PUSH2 0x1746 DUP4 PUSH2 0x16EA JUMP JUMPDEST SWAP3 POP PUSH1 0x20 DUP11 ADD SWAP10 POP POP PUSH1 0x1 DUP2 ADD SWAP1 POP PUSH2 0x1722 JUMP JUMPDEST POP DUP3 SWAP8 POP DUP8 SWAP6 POP POP POP POP POP POP SWAP3 SWAP2 POP POP JUMP JUMPDEST PUSH1 0x0 PUSH2 0x120 DUP3 ADD SWAP1 POP PUSH2 0x1782 PUSH1 0x0 DUP4 ADD DUP13 PUSH2 0x1580 JUMP JUMPDEST PUSH2 0x178F PUSH1 0x20 DUP4 ADD DUP12 PUSH2 0x15C1 JUMP JUMPDEST DUP2 DUP2 SUB PUSH1 0x40 DUP4 ADD MSTORE PUSH2 0x17A1 DUP2 DUP11 PUSH2 0x1627 JUMP JUMPDEST SWAP1 POP PUSH2 0x17B0 PUSH1 0x60 DUP4 ADD DUP10 PUSH2 0x1580 JUMP JUMPDEST PUSH2 0x17BD PUSH1 0x80 DUP4 ADD DUP9 PUSH2 0x1580 JUMP JUMPDEST PUSH2 0x17CA PUSH1 0xA0 DUP4 ADD DUP8 PUSH2 0x1580 JUMP JUMPDEST PUSH2 0x17D7 PUSH1 0xC0 DUP4 ADD DUP7 PUSH2 0x1580 JUMP JUMPDEST PUSH2 0x17E4 PUSH1 0xE0 DUP4 ADD DUP6 PUSH2 0x1580 JUMP JUMPDEST DUP2 DUP2 SUB PUSH2 0x100 DUP4 ADD MSTORE PUSH2 0x17F7 DUP2 DUP5 PUSH2 0x16F7 JUMP JUMPDEST SWAP1 POP SWAP11 SWAP10 POP POP POP POP POP POP POP POP POP POP JUMP JUMPDEST PUSH1 0x0 PUSH1 0x20 DUP3 ADD SWAP1 POP PUSH2 0x181C PUSH1 0x0 DUP4 ADD DUP5 PUSH2 0x1580 JUMP JUMPDEST SWAP3 SWAP2 POP POP JUMP JUMPDEST PUSH1 0x0 DUP1 REVERT JUMPDEST PUSH1 0x0 DUP1 REVERT JUMPDEST PUSH1 0x0 DUP1 REVERT JUMPDEST PUSH1 0x0 DUP1 DUP4 PUSH1 0x1F DUP5 ADD SLT PUSH2 0x1847 JUMPI PUSH2 0x1846 PUSH2 0x1822 JUMP JUMPDEST JUMPDEST DUP3 CALLDATALOAD SWAP1 POP PUSH8 0xFFFFFFFFFFFFFFFF DUP2 GT ISZERO PUSH2 0x1864 JUMPI PUSH2 0x1863 PUSH2 0x1827 JUMP JUMPDEST JUMPDEST PUSH1 0x20 DUP4 ADD SWAP2 POP DUP4 PUSH1 0x1 DUP3 MUL DUP4 ADD GT ISZERO PUSH2 0x1880 JUMPI PUSH2 0x187F PUSH2 0x182C JUMP JUMPDEST JUMPDEST SWAP3 POP SWAP3 SWAP1 POP JUMP JUMPDEST PUSH1 0x0 DUP1 PUSH1 0x0 DUP1 PUSH1 0x0 PUSH1 0x80 DUP7 DUP9 SUB SLT ISZERO PUSH2 0x18A3 JUMPI PUSH2 0x18A2 PUSH2 0x1513 JUMP JUMPDEST JUMPDEST PUSH1 0x0 DUP7 ADD CALLDATALOAD PUSH8 0xFFFFFFFFFFFFFFFF DUP2 GT ISZERO PUSH2 0x18C1 JUMPI PUSH2 0x18C0 PUSH2 0x1518 JUMP JUMPDEST JUMPDEST PUSH2 0x18CD DUP9 DUP3 DUP10 ADD PUSH2 0x1831 JUMP JUMPDEST SWAP6 POP SWAP6 POP POP PUSH1 0x20 PUSH2 0x18E0 DUP9 DUP3 DUP10 ADD PUSH2 0x153E JUMP JUMPDEST SWAP4 POP POP PUSH1 0x40 PUSH2 0x18F1 DUP9 DUP3 DUP10 ADD PUSH2 0x153E JUMP JUMPDEST SWAP3 POP POP PUSH1 0x60 PUSH2 0x1902 DUP9 DUP3 DUP10 ADD PUSH2 0x153E JUMP JUMPDEST SWAP2 POP POP SWAP3 SWAP6 POP SWAP3 SWAP6 SWAP1 SWAP4 POP JUMP JUMPDEST PUSH2 0x1918 DUP2 PUSH2 0x15AF JUMP JUMPDEST DUP2 EQ PUSH2 0x1923 JUMPI PUSH1 0x0 DUP1 REVERT JUMPDEST POP JUMP JUMPDEST PUSH1 0x0 DUP2 CALLDATALOAD SWAP1 POP PUSH2 0x1935 DUP2 PUSH2 0x190F JUMP JUMPDEST SWAP3 SWAP2 POP POP JUMP JUMPDEST PUSH1 0x0 PUSH1 0x20 DUP3 DUP5 SUB SLT ISZERO PUSH2 0x1951 JUMPI PUSH2 0x1950 PUSH2 0x1513 JUMP JUMPDEST JUMPDEST PUSH1 0x0 PUSH2 0x195F DUP5 DUP3 DUP6 ADD PUSH2 0x1926 JUMP JUMPDEST SWAP2 POP POP SWAP3 SWAP2 POP POP JUMP JUMPDEST PUSH1 0x0 DUP2 MLOAD SWAP1 POP SWAP2 SWAP1 POP JUMP JUMPDEST PUSH1 0x0 DUP3 DUP3 MSTORE PUSH1 0x20 DUP3 ADD SWAP1 POP SWAP3 SWAP2 POP POP JUMP JUMPDEST PUSH1 0x0 DUP2 SWAP1 POP PUSH1 0x20 DUP3 ADD SWAP1 POP SWAP2 SWAP1 POP JUMP JUMPDEST PUSH2 0x199D DUP2 PUSH2 0x151D JUMP JUMPDEST DUP3 MSTORE POP POP JUMP JUMPDEST PUSH1 0x0 PUSH2 0x19AF DUP4 DUP4 PUSH2 0x1994 JUMP JUMPDEST PUSH1 0x20 DUP4 ADD SWAP1 POP SWAP3 SWAP2 POP POP JUMP JUMPDEST PUSH1 0x0 PUSH1 0x20 DUP3 ADD SWAP1 POP SWAP2 SWAP1 POP JUMP JUMPDEST PUSH1 0x0 PUSH2 0x19D3 DUP3 PUSH2 0x1968 JUMP JUMPDEST PUSH2 0x19DD DUP2 DUP6 PUSH2 0x1973 JUMP JUMPDEST SWAP4 POP PUSH2 0x19E8 DUP4 PUSH2 0x1984 JUMP JUMPDEST DUP1 PUSH1 0x0 JUMPDEST DUP4 DUP2 LT ISZERO PUSH2 0x1A19 JUMPI DUP2 MLOAD PUSH2 0x1A00 DUP9 DUP3 PUSH2 0x19A3 JUMP JUMPDEST SWAP8 POP PUSH2 0x1A0B DUP4 PUSH2 0x19BB JUMP JUMPDEST SWAP3 POP POP PUSH1 0x1 DUP2 ADD SWAP1 POP PUSH2 0x19EC JUMP JUMPDEST POP DUP6 SWAP4 POP POP POP POP SWAP3 SWAP2 POP POP JUMP JUMPDEST PUSH1 0x0 PUSH1 0x40 DUP3 ADD SWAP1 POP DUP2 DUP2 SUB PUSH1 0x0 DUP4 ADD MSTORE PUSH2 0x1A40 DUP2 DUP6 PUSH2 0x19C8 JUMP JUMPDEST SWAP1 POP DUP2 DUP2 SUB PUSH1 0x20 DUP4 ADD MSTORE PUSH2 0x1A54 DUP2 DUP5 PUSH2 0x19C8 JUMP JUMPDEST SWAP1 POP SWAP4 SWAP3 POP POP POP JUMP JUMPDEST PUSH1 0x0 DUP1 PUSH1 0x0 PUSH1 0x40 DUP5 DUP7 SUB SLT ISZERO PUSH2 0x1A76 JUMPI PUSH2 0x1A75 PUSH2 0x1513 JUMP JUMPDEST JUMPDEST PUSH1 0x0 PUSH2 0x1A84 DUP7 DUP3 DUP8 ADD PUSH2 0x153E JUMP JUMPDEST SWAP4 POP POP PUSH1 0x20 DUP5 ADD CALLDATALOAD PUSH8 0xFFFFFFFFFFFFFFFF DUP2 GT ISZERO PUSH2 0x1AA5 JUMPI PUSH2 0x1AA4 PUSH2 0x1518 JUMP JUMPDEST JUMPDEST PUSH2 0x1AB1 DUP7 DUP3 DUP8 ADD PUSH2 0x1831 JUMP JUMPDEST SWAP3 POP SWAP3 POP POP SWAP3 POP SWAP3 POP SWAP3 JUMP JUMPDEST PUSH1 0x0 DUP2 MLOAD SWAP1 POP SWAP2 SWAP1 POP JUMP JUMPDEST PUSH1 0x0 DUP3 DUP3 MSTORE PUSH1 0x20 DUP3 ADD SWAP1 POP SWAP3 SWAP2 POP POP JUMP JUMPDEST PUSH1 0x0 DUP2 SWAP1 POP PUSH1 0x20 DUP3 ADD SWAP1 POP SWAP2 SWAP1 POP JUMP JUMPDEST PUSH2 0x1AF2 DUP2 PUSH2 0x15AF JUMP JUMPDEST DUP3 MSTORE POP POP JUMP JUMPDEST PUSH1 0x0 PUSH2 0x1B04 DUP4 DUP4 PUSH2 0x1AE9 JUMP JUMPDEST PUSH1 0x20 DUP4 ADD SWAP1 POP SWAP3 SWAP2 POP POP JUMP JUMPDEST PUSH1 0x0 PUSH1 0x20 DUP3 ADD SWAP1 POP SWAP2 SWAP1 POP JUMP JUMPDEST PUSH1 0x0 PUSH2 0x1B28 DUP3 PUSH2 0x1ABD JUMP JUMPDEST PUSH2 0x1B32 DUP2 DUP6 PUSH2 0x1AC8 JUMP JUMPDEST SWAP4 POP PUSH2 0x1B3D DUP4 PUSH2 0x1AD9 JUMP JUMPDEST DUP1 PUSH1 0x0 JUMPDEST DUP4 DUP2 LT ISZERO PUSH2 0x1B6E JUMPI DUP2 MLOAD PUSH2 0x1B55 DUP9 DUP3 PUSH2 0x1AF8 JUMP JUMPDEST SWAP8 POP PUSH2 0x1B60 DUP4 PUSH2 0x1B10 JUMP JUMPDEST SWAP3 POP POP PUSH1 0x1 DUP2 ADD SWAP1 POP PUSH2 0x1B41 JUMP JUMPDEST POP DUP6 SWAP4 POP POP POP POP SWAP3 SWAP2 POP POP JUMP JUMPDEST PUSH1 0x0 PUSH2 0x100 DUP3 ADD SWAP1 POP DUP2 DUP2 SUB PUSH1 0x0 DUP4 ADD MSTORE PUSH2 0x1B96 DUP2 DUP12 PUSH2 0x19C8 JUMP JUMPDEST SWAP1 POP DUP2 DUP2 SUB PUSH1 0x20 DUP4 ADD MSTORE PUSH2 0x1BAA DUP2 DUP11 PUSH2 0x1B1D JUMP JUMPDEST SWAP1 POP DUP2 DUP2 SUB PUSH1 0x40 DUP4 ADD MSTORE PUSH2 0x1BBE DUP2 DUP10 PUSH2 0x16F7 JUMP JUMPDEST SWAP1 POP DUP2 DUP2 SUB PUSH1 0x60 DUP4 ADD MSTORE PUSH2 0x1BD2 DUP2 DUP9 PUSH2 0x19C8 JUMP JUMPDEST SWAP1 POP DUP2 DUP2 SUB PUSH1 0x80 DUP4 ADD MSTORE PUSH2 0x1BE6 DUP2 DUP8 PUSH2 0x19C8 JUMP JUMPDEST SWAP1 POP DUP2 DUP2 SUB PUSH1 0xA0 DUP4 ADD MSTORE PUSH2 0x1BFA DUP2 DUP7 PUSH2 0x19C8 JUMP JUMPDEST SWAP1 POP DUP2 DUP2 SUB PUSH1 0xC0 DUP4 ADD MSTORE PUSH2 0x1C0E DUP2 DUP6 PUSH2 0x19C8 JUMP JUMPDEST SWAP1 POP DUP2 DUP2 SUB PUSH1 0xE0 DUP4 ADD MSTORE PUSH2 0x1C22 DUP2 DUP5 PUSH2 0x19C8 JUMP JUMPDEST SWAP1 POP SWAP10 SWAP9 POP POP POP POP POP POP POP POP POP JUMP JUMPDEST PUSH32 0x426F6E6420646F6573206E6F7420657869737400000000000000000000000000 PUSH1 0x0 DUP3 ADD MSTORE POP JUMP JUMPDEST PUSH1 0x0 PUSH2 0x1C67 PUSH1 0x13 DUP4 PUSH2 0x15DB JUMP JUMPDEST SWAP2 POP PUSH2 0x1C72 DUP3 PUSH2 0x1C31 JUMP JUMPDEST PUSH1 0x20 DUP3 ADD SWAP1 POP SWAP2 SWAP1 POP JUMP JUMPDEST PUSH1 0x0 PUSH1 0x20 DUP3 ADD SWAP1 POP DUP2 DUP2 SUB PUSH1 0x0 DUP4 ADD MSTORE PUSH2 0x1C96 DUP2 PUSH2 0x1C5A JUMP JUMPDEST SWAP1 POP SWAP2 SWAP1 POP JUMP JUMPDEST PUSH32 0x4E487B7100000000000000000000000000000000000000000000000000000000 PUSH1 0x0 MSTORE PUSH1 0x22 PUSH1 0x4 MSTORE PUSH1 0x24 PUSH1 0x0 REVERT JUMPDEST PUSH1 0x0 PUSH1 0x2 DUP3 DIV SWAP1 POP PUSH1 0x1 DUP3 AND DUP1 PUSH2 0x1CE4 JUMPI PUSH1 0x7F DUP3 AND SWAP2 POP JUMPDEST PUSH1 0x20 DUP3 LT DUP2 SUB PUSH2 0x1CF7 JUMPI PUSH2 0x1CF6 PUSH2 0x1C9D JUMP JUMPDEST JUMPDEST POP SWAP2 SWAP1 POP JUMP JUMPDEST PUSH32 0x4E487B7100000000000000000000000000000000000000000000000000000000 PUSH1 0x0 MSTORE PUSH1 0x11 PUSH1 0x4 MSTORE PUSH1 0x24 PUSH1 0x0 REVERT JUMPDEST PUSH1 0x0 PUSH2 0x1D37 DUP3 PUSH2 0x151D JUMP JUMPDEST SWAP2 POP PUSH2 0x1D42 DUP4 PUSH2 0x151D JUMP JUMPDEST SWAP3 POP DUP3 DUP3 MUL PUSH2 0x1D50 DUP2 PUSH2 0x151D JUMP JUMPDEST SWAP2 POP DUP3 DUP3 DIV DUP5 EQ DUP4 ISZERO OR PUSH2 0x1D67 JUMPI PUSH2 0x1D66 PUSH2 0x1CFD JUMP JUMPDEST JUMPDEST POP SWAP3 SWAP2 POP POP JUMP JUMPDEST PUSH1 0x0 PUSH2 0x1D79 DUP3 PUSH2 0x151D JUMP JUMPDEST SWAP2 POP PUSH2 0x1D84 DUP4 PUSH2 0x151D JUMP JUMPDEST SWAP3 POP DUP3 DUP3 ADD SWAP1 POP DUP1 DUP3 GT ISZERO PUSH2 0x1D9C JUMPI PUSH2 0x1D9B PUSH2 0x1CFD JUMP JUMPDEST JUMPDEST SWAP3 SWAP2 POP POP JUMP JUMPDEST PUSH32 0x4E487B7100000000000000000000000000000000000000000000000000000000 PUSH1 0x0 MSTORE PUSH1 0x12 PUSH1 0x4 MSTORE PUSH1 0x24 PUSH1 0x0 REVERT JUMPDEST PUSH1 0x0 PUSH2 0x1DDC DUP3 PUSH2 0x151D JUMP JUMPDEST SWAP2 POP PUSH2 0x1DE7 DUP4 PUSH2 0x151D JUMP JUMPDEST SWAP3 POP DUP3 PUSH2 0x1DF7 JUMPI PUSH2 0x1DF6 PUSH2 0x1DA2 JUMP JUMPDEST JUMPDEST DUP3 DUP3 DIV SWAP1 POP SWAP3 SWAP2 POP POP JUMP JUMPDEST PUSH32 0x4E616D6520697320726571756972656400000000000000000000000000000000 PUSH1 0x0 DUP3 ADD MSTORE POP JUMP JUMPDEST PUSH1 0x0 PUSH2 0x1E38 PUSH1 0x10 DUP4 PUSH2 0x15DB JUMP JUMPDEST SWAP2 POP PUSH2 0x1E43 DUP3 PUSH2 0x1E02 JUMP JUMPDEST PUSH1 0x20 DUP3 ADD SWAP1 POP SWAP2 SWAP1 POP JUMP JUMPDEST PUSH1 0x0 PUSH1 0x20 DUP3 ADD SWAP1 POP DUP2 DUP2 SUB PUSH1 0x0 DUP4 ADD MSTORE PUSH2 0x1E67 DUP2 PUSH2 0x1E2B JUMP JUMPDEST SWAP1 POP SWAP2 SWAP1 POP JUMP JUMPDEST PUSH32 0x46756E64696E67206D757374206265203E203000000000000000000000000000 PUSH1 0x0 DUP3 ADD MSTORE POP JUMP JUMPDEST PUSH1 0x0 PUSH2 0x1EA4 PUSH1 0x13 DUP4 PUSH2 0x15DB JUMP JUMPDEST SWAP2 POP PUSH2 0x1EAF DUP3 PUSH2 0x1E6E JUMP JUMPDEST PUSH1 0x20 DUP3 ADD SWAP1 POP SWAP2 SWAP1 POP JUMP JUMPDEST PUSH1 0x0 PUSH1 0x20 DUP3 ADD SWAP1 POP DUP2 DUP2 SUB PUSH1 0x0 DUP4 ADD MSTORE PUSH2 0x1ED3 DUP2 PUSH2 0x1E97 JUMP JUMPDEST SWAP1 POP SWAP2 SWAP1 POP JUMP JUMPDEST PUSH32 0x4475726174696F6E206D757374206265203E2030000000000000000000000000 PUSH1 0x0 DUP3 ADD MSTORE POP JUMP JUMPDEST PUSH1 0x0 PUSH2 0x1F10 PUSH1 0x14 DUP4 PUSH2 0x15DB JUMP JUMPDEST SWAP2 POP PUSH2 0x1F1B DUP3 PUSH2 0x1EDA JUMP JUMPDEST PUSH1 0x20 DUP3 ADD SWAP1 POP SWAP2 SWAP1 POP JUMP JUMPDEST PUSH1 0x0 PUSH1 0x20 DUP3 ADD SWAP1 POP DUP2 DUP2 SUB PUSH1 0x0 DUP4 ADD MSTORE PUSH2 0x1F3F DUP2 PUSH2 0x1F03 JUMP JUMPDEST SWAP1 POP SWAP2 SWAP1 POP JUMP JUMPDEST PUSH1 0x0 PUSH2 0x1F51 DUP3 PUSH2 0x151D JUMP JUMPDEST SWAP2 POP PUSH32 0xFFFFFFFFFFFFFFFFFFFFFFFFFFFFFFFFFFFFFFFFFFFFFFFFFFFFFFFFFFFFFFFF DUP3 SUB PUSH2 0x1F83 JUMPI PUSH2 0x1F82 PUSH2 0x1CFD JUMP JUMPDEST JUMPDEST PUSH1 0x1 DUP3 ADD SWAP1 POP SWAP2 SWAP1 POP JUMP JUMPDEST PUSH1 0x0 DUP3 SWAP1 POP SWAP3 SWAP2 POP POP JUMP JUMPDEST PUSH32 0x4E487B7100000000000000000000000000000000000000000000000000000000 PUSH1 0x0 MSTORE PUSH1 0x41 PUSH1 0x4 MSTORE PUSH1 0x24 PUSH1 0x0 REVERT JUMPDEST PUSH1 0x0 DUP2 SWAP1 POP DUP2 PUSH1 0x0 MSTORE PUSH1 0x20 PUSH1 0x0 KECCAK256 SWAP1 POP SWAP2 SWAP1 POP JUMP JUMPDEST PUSH1 0x0 PUSH1 0x20 PUSH1 0x1F DUP4 ADD DIV SWAP1 POP SWAP2 SWAP1 POP JUMP JUMPDEST PUSH1 0x0 DUP3 DUP3 SHL SWAP1 POP SWAP3 SWAP2 POP POP JUMP JUMPDEST PUSH1 0x0 PUSH1 0x8 DUP4 MUL PUSH2 0x202A PUSH32 0xFFFFFFFFFFFFFFFFFFFFFFFFFFFFFFFFFFFFFFFFFFFFFFFFFFFFFFFFFFFFFFFF DUP3 PUSH2 0x1FED JUMP JUMPDEST PUSH2 0x2034 DUP7 DUP4 PUSH2 0x1FED JUMP JUMPDEST SWAP6 POP DUP1 NOT DUP5 AND SWAP4 POP DUP1 DUP7 AND DUP5 OR SWAP3 POP POP POP SWAP4 SWAP3 POP POP POP JUMP JUMPDEST PUSH1 0x0 DUP2 SWAP1 POP SWAP2 SWAP1 POP JUMP JUMPDEST PUSH1 0x0 PUSH2 0x2071 PUSH2 0x206C PUSH2 0x2067 DUP5 PUSH2 0x151D JUMP JUMPDEST PUSH2 0x204C JUMP JUMPDEST PUSH2 0x151D JUMP JUMPDEST SWAP1 POP SWAP2 SWAP1 POP JUMP JUMPDEST PUSH1 0x0 DUP2 SWAP1 POP SWAP2 SWAP1 POP JUMP JUMPDEST PUSH2 0x208B DUP4 PUSH2 0x2056 JUMP JUMPDEST PUSH2 0x209F PUSH2 0x2097 DUP3 PUSH2 0x2078 JUMP JUMPDEST DUP5 DUP5 SLOAD PUSH2 0x1FFA JUMP JUMPDEST DUP3 SSTORE POP POP POP POP JUMP JUMPDEST PUSH1 0x0 SWAP1 JUMP JUMPDEST PUSH2 0x20B4 PUSH2 0x20A7 JUMP JUMPDEST PUSH2 0x20BF DUP2 DUP5 DUP5 PUSH2 0x2082 JUMP JUMPDEST POP POP POP JUMP JUMPDEST JUMPDEST DUP2 DUP2 LT ISZERO PUSH2 0x20E3 JUMPI PUSH2 0x20D8 PUSH1 0x0 DUP3 PUSH2 0x20AC JUMP JUMPDEST PUSH1 0x1 DUP2 ADD SWAP1 POP PUSH2 0x20C5 JUMP JUMPDEST POP POP JUMP JUMPDEST PUSH1 0x1F DUP3 GT ISZERO PUSH2 0x2128 JUMPI PUSH2 0x20F9 DUP2 PUSH2 0x1FC8 JUMP JUMPDEST PUSH2 0x2102 DUP5 PUSH2 0x1FDD JUMP JUMPDEST DUP2 ADD PUSH1 0x20 DUP6 LT ISZERO PUSH2 0x2111 JUMPI DUP2 SWAP1 POP JUMPDEST PUSH2 0x2125 PUSH2 0x211D DUP6 PUSH2 0x1FDD JUMP JUMPDEST DUP4 ADD DUP3 PUSH2 0x20C4 JUMP JUMPDEST POP POP JUMPDEST POP POP POP JUMP JUMPDEST PUSH1 0x0 DUP3 DUP3 SHR SWAP1 POP SWAP3 SWAP2 POP POP JUMP JUMPDEST PUSH1 0x0 PUSH2 0x214B PUSH1 0x0 NOT DUP5 PUSH1 0x8 MUL PUSH2 0x212D JUMP JUMPDEST NOT DUP1 DUP4 AND SWAP2 POP POP SWAP3 SWAP2 POP POP JUMP JUMPDEST PUSH1 0x0 PUSH2 0x2164 DUP4 DUP4 PUSH2 0x213A JUMP JUMPDEST SWAP2 POP DUP3 PUSH1 0x2 MUL DUP3 OR SWAP1 POP SWAP3 SWAP2 POP POP JUMP JUMPDEST PUSH2 0x217E DUP4 DUP4 PUSH2 0x1F8E JUMP JUMPDEST PUSH8 0xFFFFFFFFFFFFFFFF DUP2 GT ISZERO PUSH2 0x2197 JUMPI PUSH2 0x2196 PUSH2 0x1F99 JUMP JUMPDEST JUMPDEST PUSH2 0x21A1 DUP3 SLOAD PUSH2 0x1CCC JUMP JUMPDEST PUSH2 0x21AC DUP3 DUP3 DUP6 PUSH2 0x20E7 JUMP JUMPDEST PUSH1 0x0 PUSH1 0x1F DUP4 GT PUSH1 0x1 DUP2 EQ PUSH2 0x21DB JUMPI PUSH1 0x0 DUP5 ISZERO PUSH2 0x21C9 JUMPI DUP3 DUP8 ADD CALLDATALOAD SWAP1 POP JUMPDEST PUSH2 0x21D3 DUP6 DUP3 PUSH2 0x2158 JUMP JUMPDEST DUP7 SSTORE POP PUSH2 0x223B JUMP JUMPDEST PUSH1 0x1F NOT DUP5 AND PUSH2 0x21E9 DUP7 PUSH2 0x1FC8 JUMP JUMPDEST PUSH1 0x0 JUMPDEST DUP3 DUP2 LT ISZERO PUSH2 0x2211 JUMPI DUP5 DUP10 ADD CALLDATALOAD DUP3 SSTORE PUSH1 0x1 DUP3 ADD SWAP2 POP PUSH1 0x20 DUP6 ADD SWAP5 POP PUSH1 0x20 DUP2 ADD SWAP1 POP PUSH2 0x21EC JUMP JUMPDEST DUP7 DUP4 LT ISZERO PUSH2 0x222E JUMPI DUP5 DUP10 ADD CALLDATALOAD PUSH2 0x222A PUSH1 0x1F DUP10 AND DUP3 PUSH2 0x213A JUMP JUMPDEST DUP4 SSTORE POP JUMPDEST PUSH1 0x1 PUSH1 0x2 DUP9 MUL ADD DUP9 SSTORE POP POP POP JUMPDEST POP POP POP POP POP POP POP JUMP JUMPDEST DUP3 DUP2 DUP4 CALLDATACOPY PUSH1 0x0 DUP4 DUP4 ADD MSTORE POP POP POP JUMP JUMPDEST PUSH1 0x0 PUSH2 0x225F DUP4 DUP6 PUSH2 0x15DB JUMP JUMPDEST SWAP4 POP PUSH2 0x226C DUP4 DUP6 DUP5 PUSH2 0x2244 JUMP JUMPDEST PUSH2 0x2275 DUP4 PUSH2 0x1616 JUMP JUMPDEST DUP5 ADD SWAP1 POP SWAP4 SWAP3 POP POP POP JUMP JUMPDEST PUSH1 0x0 PUSH1 0x80 DUP3 ADD SWAP1 POP DUP2 DUP2 SUB PUSH1 0x0 DUP4 ADD MSTORE PUSH2 0x229B DUP2 DUP8 DUP10 PUSH2 0x2253 JUMP JUMPDEST SWAP1 POP PUSH2 0x22AA PUSH1 0x20 DUP4 ADD DUP7 PUSH2 0x1580 JUMP JUMPDEST PUSH2 0x22B7 PUSH1 0x40 DUP4 ADD DUP6 PUSH2 0x1580 JUMP JUMPDEST PUSH2 0x22C4 PUSH1 0x60 DUP4 ADD DUP5 PUSH2 0x1580 JUMP JUMPDEST SWAP7 SWAP6 POP POP POP POP POP POP JUMP JUMPDEST PUSH32 0x496E766573746D656E74206D757374206265203E203000000000000000000000 PUSH1 0x0 DUP3 ADD MSTORE POP JUMP JUMPDEST PUSH1 0x0 PUSH2 0x2304 PUSH1 0x16 DUP4 PUSH2 0x15DB JUMP JUMPDEST SWAP2 POP PUSH2 0x230F DUP3 PUSH2 0x22CE JUMP JUMPDEST PUSH1 0x20 DUP3 ADD SWAP1 POP SWAP2 SWAP1 POP JUMP JUMPDEST PUSH1 0x0 PUSH1 0x20 DUP3 ADD SWAP1 POP DUP2 DUP2 SUB PUSH1 0x0 DUP4 ADD MSTORE PUSH2 0x2333 DUP2 PUSH2 0x22F7 JUMP JUMPDEST SWAP1 POP SWAP2 SWAP1 POP JUMP JUMPDEST PUSH32 0x496E766573746D656E7420657863656564732066756E64696E67207461726765 PUSH1 0x0 DUP3 ADD MSTORE PUSH32 0x7400000000000000000000000000000000000000000000000000000000000000 PUSH1 0x20 DUP3 ADD MSTORE POP JUMP JUMPDEST PUSH1 0x0 PUSH2 0x2396 PUSH1 0x21 DUP4 PUSH2 0x15DB JUMP JUMPDEST SWAP2 POP PUSH2 0x23A1 DUP3 PUSH2 0x233A JUMP JUMPDEST PUSH1 0x40 DUP3 ADD SWAP1 POP SWAP2 SWAP1 POP JUMP JUMPDEST PUSH1 0x0 PUSH1 0x20 DUP3 ADD SWAP1 POP DUP2 DUP2 SUB PUSH1 0x0 DUP4 ADD MSTORE PUSH2 0x23C5 DUP2 PUSH2 0x2389 JUMP JUMPDEST SWAP1 POP SWAP2 SWAP1 POP JUMP JUMPDEST PUSH1 0x0 DUP2 SWAP1 POP SWAP3 SWAP2 POP POP JUMP JUMPDEST POP JUMP JUMPDEST PUSH1 0x0 PUSH2 0x23E7 PUSH1 0x0 DUP4 PUSH2 0x23CC JUMP JUMPDEST SWAP2 POP PUSH2 0x23F2 DUP3 PUSH2 0x23D7 JUMP JUMPDEST PUSH1 0x0 DUP3 ADD SWAP1 POP SWAP2 SWAP1 POP JUMP JUMPDEST PUSH1 0x0 PUSH2 0x2408 DUP3 PUSH2 0x23DA JUMP JUMPDEST SWAP2 POP DUP2 SWAP1 POP SWAP2 SWAP1 POP JUMP JUMPDEST PUSH32 0x4661696C656420746F207472616E736665722066756E647320746F206F726761 PUSH1 0x0 DUP3 ADD MSTORE PUSH32 0x6E697A6174696F6E000000000000000000000000000000000000000000000000 PUSH1 0x20 DUP3 ADD MSTORE POP JUMP JUMPDEST PUSH1 0x0 PUSH2 0x246E PUSH1 0x28 DUP4 PUSH2 0x15DB JUMP JUMPDEST SWAP2 POP PUSH2 0x2479 DUP3 PUSH2 0x2412 JUMP JUMPDEST PUSH1 0x40 DUP3 ADD SWAP1 POP SWAP2 SWAP1 POP JUMP JUMPDEST PUSH1 0x0 PUSH1 0x20 DUP3 ADD SWAP1 POP DUP2 DUP2 SUB PUSH1 0x0 DUP4 ADD MSTORE PUSH2 0x249D DUP2 PUSH2 0x2461 JUMP JUMPDEST SWAP1 POP SWAP2 SWAP1 POP JUMP JUMPDEST PUSH1 0x0 PUSH1 0x40 DUP3 ADD SWAP1 POP PUSH2 0x24B9 PUSH1 0x0 DUP4 ADD DUP6 PUSH2 0x1580 JUMP JUMPDEST PUSH2 0x24C6 PUSH1 0x20 DUP4 ADD DUP5 PUSH2 0x1580 JUMP JUMPDEST SWAP4 SWAP3 POP POP POP JUMP JUMPDEST PUSH32 0x4E487B7100000000000000000000000000000000000000000000000000000000 PUSH1 0x0 MSTORE PUSH1 0x32 PUSH1 0x4 MSTORE PUSH1 0x24 PUSH1 0x0 REVERT JUMPDEST PUSH32 0x4F6E6C792063726561746F72206F7267616E697A6174696F6E20616C6C6F7765 PUSH1 0x0 DUP3 ADD MSTORE PUSH32 0x6400000000000000000000000000000000000000000000000000000000000000 PUSH1 0x20 DUP3 ADD MSTORE POP JUMP JUMPDEST PUSH1 0x0 PUSH2 0x2558 PUSH1 0x21 DUP4 PUSH2 0x15DB JUMP JUMPDEST SWAP2 POP PUSH2 0x2563 DUP3 PUSH2 0x24FC JUMP JUMPDEST PUSH1 0x40 DUP3 ADD SWAP1 POP SWAP2 SWAP1 POP JUMP JUMPDEST PUSH1 0x0 PUSH1 0x20 DUP3 ADD SWAP1 POP DUP2 DUP2 SUB PUSH1 0x0 DUP4 ADD MSTORE PUSH2 0x2587 DUP2 PUSH2 0x254B JUMP JUMPDEST SWAP1 POP SWAP2 SWAP1 POP JUMP JUMPDEST PUSH32 0x4465736372697074696F6E206973207265717569726564000000000000000000 PUSH1 0x0 DUP3 ADD MSTORE POP JUMP JUMPDEST PUSH1 0x0 PUSH2 0x25C4 PUSH1 0x17 DUP4 PUSH2 0x15DB JUMP JUMPDEST SWAP2 POP PUSH2 0x25CF DUP3 PUSH2 0x258E JUMP JUMPDEST PUSH1 0x20 DUP3 ADD SWAP1 POP SWAP2 SWAP1 POP JUMP JUMPDEST PUSH1 0x0 PUSH1 0x20 DUP3 ADD SWAP1 POP DUP2 DUP2 SUB PUSH1 0x0 DUP4 ADD MSTORE PUSH2 0x25F3 DUP2 PUSH2 0x25B7 JUMP JUMPDEST SWAP1 POP SWAP2 SWAP1 POP JUMP JUMPDEST PUSH1 0x0 PUSH1 0x40 DUP3 ADD SWAP1 POP DUP2 DUP2 SUB PUSH1 0x0 DUP4 ADD MSTORE PUSH2 0x2615 DUP2 DUP6 DUP8 PUSH2 0x2253 JUMP JUMPDEST SWAP1 POP PUSH2 0x2624 PUSH1 0x20 DUP4 ADD DUP5 PUSH2 0x1580 JUMP JUMPDEST SWAP5 SWAP4 POP POP POP POP JUMP INVALID LOG2 PUSH5 0x6970667358 0x22 SLT KECCAK256 RETURNDATACOPY 0xE1 PUSH10 0xFC0BD451BB4E7C5C4F8E 0xE1 SDIV AND 0xDE 0xAA 0x4E ISZERO DUP1 CALLDATACOPY SWAP12 SHL 0x28 PUSH27 0xC3791B0631B964736F6C6343000813003300000000000000000000 "
				},
				"gasEstimates": {
					"creation": {
						"codeDepositCost": "1965200",
						"executionCost": "2084",
						"totalCost": "1967284"
					},
					"external": {
						"createBond(string,uint256,uint256,uint256)": "infinite",
						"getAllBonds()": "infinite",
						"getBondDetails(uint256)": "infinite",
						"getInvestorPortfolio(address)": "infinite",
						"getTrustScore(uint256)": "infinite",
						"investInBond(uint256)": "infinite",
						"nextBondId()": "2517",
						"updateFundUsage(uint256,string)": "infinite",
						"updateTrustScore(uint256)": "infinite"
					}
				},
				"methodIdentifiers": {
					"createBond(string,uint256,uint256,uint256)": "8ade3de0",
					"getAllBonds()": "d5ae0e9a",
					"getBondDetails(uint256)": "0436f2f6",
					"getInvestorPortfolio(address)": "ba0ca532",
					"getTrustScore(uint256)": "83f3d448",
					"investInBond(uint256)": "a461e2b3",
					"nextBondId()": "ee53a423",
					"updateFundUsage(uint256,string)": "baf191b2",
					"updateTrustScore(uint256)": "34ae18e3"
				}
			},
			"storageLayout": {
				"storage": [
					{
						"astId": 40,
						"contract": "contracts/BondMarketplace.sol:BondMarketplace",
						"label": "nextBondId",
						"offset": 0,
						"slot": "0",
						"type": "t_uint256"
					},
					{
						"astId": 45,
						"contract": "contracts/BondMarketplace.sol:BondMarketplace",
						"label": "bonds",
						"offset": 0,
						"slot": "1",
						"type": "t_mapping(t_uint256,t_struct(Bond)26_storage)"
					},
					{
						"astId": 48,
						"contract": "contracts/BondMarketplace.sol:BondMarketplace",
						"label": "bondIds",
						"offset": 0,
						"slot": "2",
						"type": "t_array(t_uint256)dyn_storage"
					},
					{
						"astId": 53,
						"contract": "contracts/BondMarketplace.sol:BondMarketplace",
						"label": "investors",
						"offset": 0,
						"slot": "3",
						"type": "t_mapping(t_address,t_struct(Investor)38_storage)"
					}
				],
				"types": {
					"t_address": {
						"encoding": "inplace",
						"label": "address",
						"numberOfBytes": "20"
					},
					"t_array(t_string_storage)dyn_storage": {
						"base": "t_string_storage",
						"encoding": "dynamic_array",
						"label": "string[]",
						"numberOfBytes": "32"
					},
					"t_array(t_uint256)dyn_storage": {
						"base": "t_uint256",
						"encoding": "dynamic_array",
						"label": "uint256[]",
						"numberOfBytes": "32"
					},
					"t_bool": {
						"encoding": "inplace",
						"label": "bool",
						"numberOfBytes": "1"
					},
					"t_mapping(t_address,t_struct(Investor)38_storage)": {
						"encoding": "mapping",
						"key": "t_address",
						"label": "mapping(address => struct BondMarketplace.Investor)",
						"numberOfBytes": "32",
						"value": "t_struct(Investor)38_storage"
					},
					"t_mapping(t_uint256,t_struct(Bond)26_storage)": {
						"encoding": "mapping",
						"key": "t_uint256",
						"label": "mapping(uint256 => struct BondMarketplace.Bond)",
						"numberOfBytes": "32",
						"value": "t_struct(Bond)26_storage"
					},
					"t_mapping(t_uint256,t_uint256)": {
						"encoding": "mapping",
						"key": "t_uint256",
						"label": "mapping(uint256 => uint256)",
						"numberOfBytes": "32",
						"value": "t_uint256"
					},
					"t_string_storage": {
						"encoding": "bytes",
						"label": "string",
						"numberOfBytes": "32"
					},
					"t_struct(Bond)26_storage": {
						"encoding": "inplace",
						"label": "struct BondMarketplace.Bond",
						"members": [
							{
								"astId": 4,
								"contract": "contracts/BondMarketplace.sol:BondMarketplace",
								"label": "id",
								"offset": 0,
								"slot": "0",
								"type": "t_uint256"
							},
							{
								"astId": 6,
								"contract": "contracts/BondMarketplace.sol:BondMarketplace",
								"label": "organization",
								"offset": 0,
								"slot": "1",
								"type": "t_address"
							},
							{
								"astId": 8,
								"contract": "contracts/BondMarketplace.sol:BondMarketplace",
								"label": "name",
								"offset": 0,
								"slot": "2",
								"type": "t_string_storage"
							},
							{
								"astId": 10,
								"contract": "contracts/BondMarketplace.sol:BondMarketplace",
								"label": "interestRate",
								"offset": 0,
								"slot": "3",
								"type": "t_uint256"
							},
							{
								"astId": 12,
								"contract": "contracts/BondMarketplace.sol:BondMarketplace",
								"label": "durationDays",
								"offset": 0,
								"slot": "4",
								"type": "t_uint256"
							},
							{
								"astId": 14,
								"contract": "contracts/BondMarketplace.sol:BondMarketplace",
								"label": "totalFundingRequired",
								"offset": 0,
								"slot": "5",
								"type": "t_uint256"
							},
							{
								"astId": 16,
								"contract": "contracts/BondMarketplace.sol:BondMarketplace",
								"label": "amountRaised",
								"offset": 0,
								"slot": "6",
								"type": "t_uint256"
							},
							{
								"astId": 18,
								"contract": "contracts/BondMarketplace.sol:BondMarketplace",
								"label": "trustScore",
								"offset": 0,
								"slot": "7",
								"type": "t_uint256"
							},
							{
								"astId": 20,
								"contract": "contracts/BondMarketplace.sol:BondMarketplace",
								"label": "createdAt",
								"offset": 0,
								"slot": "8",
								"type": "t_uint256"
							},
							{
								"astId": 23,
								"contract": "contracts/BondMarketplace.sol:BondMarketplace",
								"label": "fundUsageLogs",
								"offset": 0,
								"slot": "9",
								"type": "t_array(t_string_storage)dyn_storage"
							},
							{
								"astId": 25,
								"contract": "contracts/BondMarketplace.sol:BondMarketplace",
								"label": "exists",
								"offset": 0,
								"slot": "10",
								"type": "t_bool"
							}
						],
						"numberOfBytes": "352"
					},
					"t_struct(Investor)38_storage": {
						"encoding": "inplace",
						"label": "struct BondMarketplace.Investor",
						"members": [
							{
								"astId": 28,
								"contract": "contracts/BondMarketplace.sol:BondMarketplace",
								"label": "investorAddress",
								"offset": 0,
								"slot": "0",
								"type": "t_address"
							},
							{
								"astId": 32,
								"contract": "contracts/BondMarketplace.sol:BondMarketplace",
								"label": "investments",
								"offset": 0,
								"slot": "1",
								"type": "t_mapping(t_uint256,t_uint256)"
							},
							{
								"astId": 35,
								"contract": "contracts/BondMarketplace.sol:BondMarketplace",
								"label": "investedBondIds",
								"offset": 0,
								"slot": "2",
								"type": "t_array(t_uint256)dyn_storage"
							},
							{
								"astId": 37,
								"contract": "contracts/BondMarketplace.sol:BondMarketplace",
								"label": "initialized",
								"offset": 0,
								"slot": "3",
								"type": "t_bool"
							}
						],
						"numberOfBytes": "128"
					},
					"t_uint256": {
						"encoding": "inplace",
						"label": "uint256",
						"numberOfBytes": "32"
					}
				}
			},
			"userdoc": {
				"kind": "user",
				"methods": {
					"createBond(string,uint256,uint256,uint256)": {
						"notice": "Create and list a new bond."
					},
					"getAllBonds()": {
						"notice": "Returns summary arrays for all bonds."
					},
					"getBondDetails(uint256)": {
						"notice": "Returns complete details for one bond including usage logs."
					},
					"getInvestorPortfolio(address)": {
						"notice": "Returns investor portfolio as bondId/amount arrays."
					},
					"investInBond(uint256)": {
						"notice": "Invest ETH into a specific bond."
					},
					"updateFundUsage(uint256,string)": {
						"notice": "Add a fund usage update for a bond."
					},
					"updateTrustScore(uint256)": {
						"notice": "Updates trust score based on transparency activity."
					}
				},
				"notice": "Simplified MVP contract for listing and investing in decentralized bonds.",
				"version": 1
			}
		}
	}
}